:020000040800F2
:1000000050040020450100086D0A00086F0A00082E
:10001000730A0008770A00087B0A00080000000045
:100020000000000000000000000000007F0A00083F
:10003000810A000800000000830A0008850A000801
:100040005F0100085F0100085F0100085F01000810
:100050005F0100085F0100085F0100085F01000800
:100060005F0100085F0100085F0100085F010008F0
:100070005F0100085F0100085F0100085F010008E0
:100080005F0100085F0100085F0100085F010008D0
:100090005F0100085F0100085F0100085F010008C0
:1000A0005F0100085F0100085F0100085F010008B0
:1000B0005F0100085F0100085F0100085F010008A0
:1000C0005F0100085F0100085F0100085F01000890
:1000D0005F0100085F0100085F0100085F01000880
:1000E0005F0100085F0100085F0100085F01000870
:1000F0005F0100085F0100085F0100085F01000860
:100100005F0100085F0100085F0100085F0100084F
:100110005F0100085F0100085F0100085F0100083F
:100120005F0100085F0100085F0100085F0100082F
:10013000DFF80CD001F04AF900480047490A0008EE
:10014000500400200648804706480047FEE7FEE7C7
:10015000FEE7FEE7FEE7FEE7FEE7FEE7FEE7FEE777
:1001600047020008310100080CB500200190009002
:100170006C48006840F480306A49086000BF6948F4
:10018000006800F4003000900198401C0190009835
:1001900018B90198B0F5A06FF1D16248006800F479
:1001A000003010B10120009001E000200090009884
:1001B000012843D15C48006840F010005A490860AB
:1001C0000846006820F0030008600846006840F018
:1001D0000200086053484068524948600846406839
:1001E00048600846406840F48060486008464068BF
:1001F00020F47C1048600846406840F4E8104860ED
:100200000846006840F08070086000BF45480068FC
:1002100000F000700028F9D04248406820F0030048
:10022000404948600846406840F00200486000BF0E
:100230003C48406800F00C000828F9D10CBD10B50E
:10024000FFF792FF10BD10B53648006840F001007E
:1002500034490860084640683449084031494860DC
:1002600008460068324908402E4908600846006880
:1002700020F4802008600846406820F4FE004860B2
:100280004FF41F008860FFF7DAFF4FF00060294944
:10029000086010BD10B5002100200022214B5B68D2
:1002A00003F00C0121B1042906D0082928D107E068
:1002B000214B224C236027E01F4B204C236023E07E
:1002C000184B5B6803F47010164B5B6803F48032C4
:1002D000022303EB904022B9194B4343174C236090
:1002E0000DE0104B5B6803F4003323B1144B434320
:1002F000124C236003E0104B4343104C236003E097
:100300000D4B0E4C236000BF00BF064B5B68C3F370
:1003100003130C4CE15C094B1B68CB40074C23607A
:1003200010BD000000100240002002400000FFF855
:10033000FFFFF6FE08ED00E000127A00000000204A
:1003400000093D000400002010B50446CC4884425A
:1003500008D10121042000F02DFB0021042000F031
:1003600029FB46E0C748844208D10121082000F05B
:1003700021FB0021082000F01DFB3AE0C248844226
:1003800008D10121102000F015FB0021102000F001
:1003900011FB2EE0BD48844208D10121202000F04D
:1003A00009FB0021202000F005FB22E0B848844230
:1003B00008D10121402000F0FDFA0021402000F08A
:1003C000F9FA16E0B348844208D10121802000F0F8
:1003D000F1FA0021802000F0EDFA0AE0AE488442F4
:1003E00007D10121801500F0E5FA0021A01500F0E9
:1003F000E1FA10BD10B50121084600F0DBFA00213A
:10040000012000F0D7FA10BD2DE9F0410246002589
:100410000026002000230024002791F803C00CF0E0
:100420000F0591F803C00CF0100CBCF1000F03D0C5
:1004300091F802C04CEA050591F800C0BCF1000F2C
:1004400031D0146800202BE04FF0010C0CFA00F3BF
:10045000B1F800C00CEA03069E4220D183004FF0A1
:100460000F0C0CFA03F7BC4305FA03FC4CEA040436
:1004700091F803C0BCF1280F06D14FF0010C0CFA23
:1004800000FCC2F814C00AE091F803C0BCF1480FA8
:1004900005D14FF0010C0CFA00FCC2F810C0401C52
:1004A0000828D1D31460B1F800C0BCF1FF0F34DDCF
:1004B000546800202EE000F1080C4FF0010808FA03
:1004C0000CF3B1F800C00CEA03069E4221D1830070
:1004D0004FF00F0C0CFA03F7BC4305FA03FC4CEA8F
:1004E000040491F803C0BCF1280F05D100F1080CF9
:1004F00008FA0CF8C2F8148091F803C0BCF1480F58
:1005000007D100F1080C4FF0010808FA0CF8C2F806
:100510001080401C0828CED35460BDE8F0814FF60F
:10052000FF710180022181700421C1707047024671
:10053000002093680B400BB1012000E000207047C1
:100540000146886880B2704702460020D3680B409D
:100550000BB1012000E0002070470146C86880B25E
:10056000704701617047416170470AB1016100E065
:1005700041617047C16070474FF480320A43826125
:100580008161826182698269704702460020434B23
:1005900018684FF68073184040EA021008433F4B3A
:1005A000186070473E49C8617047F0B50A4600239D
:1005B00000240021002500F00046B6F1004F02D1D2
:1005C000364EF16901E0354E7168C0F3034583B2E0
:1005D00000F44016B6F5401F08D121F070612F4E8F
:1005E000766826F070662D4F7E6012E000F480166B
:1005F000B6F5801F06D1032606FA05F4A14341F0A3
:10060000706106E0460D360103FA06F6B14341F08B
:10061000706122B1460D360103FA06F6314300F04F
:100620000046B6F1004F02D11C4EF16101E01B4EB5
:100630007160F0BD30B500228B071C0F0F2303FA49
:1006400004F2164B08338C1053F824309343134CA8
:1006500008348D1044F8253023468C1053F824308C
:100660008C07240F00FA04F423430C4C08348D103B
:1006700044F8253030BD0A49DC310860704700007D
:1006800000080140000C014000100140001401402E
:1006900000180140001C0140002001400000014002
:1006A00000002042DF48006840F00100DD4908609A
:1006B00008464068DC490840DA4948600846006856
:1006C000DA490840D74908600846006820F48020CD
:1006D00008600846406820F4FE0048604FF41F00A0
:1006E00088607047CF49096821F48031CD4A116094
:1006F0001146096821F480211160B0F5803F03D0D4
:10070000B0F5802F0ED106E0C649096841F480316A
:10071000C44A116007E0C349096841F4A021C14AF5
:10072000116000E000BF00BF704710B50146002215
:10073000002300204A11012A02D1BA4C236806E0A6
:10074000022A02D1B74C236A01E0B64C636A01F079
:100750001F02012494401C400CB1012000E0002045
:1007600010BD38B5002000900024002500BF3120C6
:10077000FFF7DBFF05460098401C00900098B0F59D
:10078000A06F01D0002DF2D03120FFF7CEFF08B1CD
:10079000012400E00024204638BD01460020A14A83
:1007A000106820F0F80040EAC10010607047A049CE
:1007B00008607047024600209A4B586820F47C106D
:1007C00042EA01031843974B5860704798490866FE
:1007D000704701460020934A506820F00300084308
:1007E000506070478F48406800F00C007047014629
:1007F00000208C4A506820F0F00008435060704799
:1008000001460020874A506820F4E06008435060A9
:10081000704701460020834A506820F4605040EA47
:10082000C1005060704729B17E4A527A02437D4B25
:100830005A7204E07B4A527A82437A4B5A7270476A
:100840007B49D8310860704701460020754A5068DE
:1008500020F440400843506070470021714A203224
:100860001170704A82F82010012802D004280AD1A1
:1008700004E001216B4A2032117005E00521694A2C
:100880002032117000E000BF00BF70476949086066
:1008900070476449096A0143624A116270476549B9
:1008A00044390860704730B500210022002400233D
:1008B0005C4D6D6805F00C0121B1042905D00829B3
:1008C00023D105E05C4D056022E05B4D05601FE033
:1008D000544D6D6805F47012524D6D6805F4803406
:1008E000022505EB92421CB9544D554305600BE0BF
:1008F0004C4D6D6805F400351DB1504D55430560F4
:1009000002E04D4D5543056002E04B4D056000BFD0
:1009100000BF444D6D6805F0F0010909484D6B5C5E
:100920000568DD4045603F4D6D6805F4E061090AEA
:10093000434D6B5C4568DD4085603A4D6D6805F45C
:100940006051C90A3E4D6B5C4568DD40C560354D60
:100950006D6805F44041890B3A4D6B5CC568B5FB89
:10096000F3F5056130BD29B12E4A526902432D4B82
:100970005A6104E02B4A526982432A4B5A617047FC
:1009800029B1284A92690243264B9A6104E0254A1C
:1009900092698243234B9A61704729B1214AD269F7
:1009A0000243204BDA6104E01E4AD26982431D4BA8
:1009B000DA61704729B11B4AD2680243194BDA60E9
:1009C00004E0184AD2688243164BDA60704729B1B6
:1009D000144A12690243134B1A6104E0114A126966
:1009E0008243104B1A6170471249403908607047C2
:1009F0000F49C86470470B49C87170470948406A7D
:100A000040F0807007494862704701460020054A5F
:100A100092680A400AB1012000E0002070470149B5
:100A200088727047001002400000FFF8FFFFF6FEDA
:100A3000000042428004424200127A0000093D0058
:100A4000140000202400002008B500F044F900F054
:100A50002AFB0AE000F02BFB044601200346024675
:100A600004210090204600F0A5F9F3E7704700BF8D
:100A7000FEE700BFFEE700BFFEE700BFFEE77047EE
:100A80007047704770470000002148E000BF00BF7A
:100A900000BF00BF00BF00BF00BF00BF00BF00BF5E
:100AA00000BF00BF00BF00BF00BF00BF00BF00BF4E
:100AB00000BF00BF00BF00BF00BF00BF00BF00BF3E
:100AC00000BF00BF00BF00BF00BF00BF00BF00BF2E
:100AD00000BF00BF00BF00BF00BF00BF00BF00BF1E
:100AE00000BF00BF00BF00BF00BF00BF00BF00BF0E
:100AF00000BF00BF00BF00BF00BF00BF00BF00BFFE
:100B000000BF00BF00BF00BF00BF00BF00BF00BFED
:100B100000BF00BF00BF00BF00BF00BF491C814233
:100B2000B4DB704710B50346002404E04FF47A703C
:100B3000FFF7AAFF641C9C42F8DB10BD08B5012139
:100B40000420FFF71DFF10208DF803008001ADF891
:100B5000000003208DF802006946E948FFF754FCC5
:100B600001210420FFF70CFF4FF40070ADF80000E6
:100B70006946E348FFF748FC01210420FFF700FF26
:100B80004FF48070ADF800006946DD48FFF73CFC8B
:100B90004FF48071DA48FFF7E4FC4FF40071D84855
:100BA000FFF7DFFC4FF48061D548FFF7DAFC08BDA2
:100BB00070B504460D46002623E04FF40071D0487E
:100BC000FFF7D1FC1420FFF75FFF04F0800028B18D
:100BD0004FF48061CA48FFF7C4FC04E04FF4806121
:100BE000C748FFF7C0FC4FF40071C548FFF7B9FCD8
:100BF0001420FFF749FF6006040E1420FFF744FF9E
:100C0000761CAE42D9DB1420FFF73EFF70BD10B555
:100C100004464FF48071BA48FFF7A5FC04218020F8
:100C2000FFF7C6FF08212046FFF7C2FF4FF480718F
:100C3000B348FFF796FC10BD70B505460C46A806F4
:100C4000050E4FF48071AE48FFF78DFC0321A02004
:100C5000FFF7AEFF06212846FFF7AAFF082120462E
:100C6000FFF7A6FF4FF48071A548FFF77AFC70BD2F
:100C700070B504460026002507E000213046FFF746
:100C8000DBFFB01CC6B2681CC5B2A542F5DB70BD67
:100C900070B504460026002507E0FF213046FFF727
:100CA000CBFFB01CC6B2681CC5B2A542F5DB70BD57
:100CB0002DE9F04104460F460025002607E039469D
:100CC0002846FFF7B9FFA81CC5B2701CC6B2A642E1
:100CD000F5DBBDE8F08110B5FFF730FF0220FFF72C
:100CE00096FF3020FFF793FF5220FFF790FF06207A
:100CF000FFF78DFF10BD10B50420FFF788FF10BD72
:100D000010B50620FFF783FF10BD10B501210220AA
:100D1000FFF792FF4FF4AF70FFF704FF0221084680
:100D2000FFF78AFF4FF4AF70FFF7FCFE04210220AB
:100D3000FFF782FF4FF4AF70FFF7F4FE08210220A7
:100D4000FFF77AFF4FF4AF70FFF7ECFE102102209F
:100D5000FFF772FF4FF4AF70FFF7E4FE202102208F
:100D6000FFF76AFF4FF4AF70FFF7DCFE402102206F
:100D7000FFF762FF4FF4AF70FFF7D4FE802102202F
:100D8000FFF75AFF4FF4AF70FFF7CCFE10BD10B560
:100D90000620FFF76DFF002409E06106080EFF2121
:100DA000FFF74AFF3220FFF7BDFE601CC4B2062CDD
:100DB000F3DB10BD2DE9F04704460E461746984672
:100DC000DDF820904F4894FBF0F04F49085C4F4904
:100DD000487142F2107094FBF0F00A2190FBF1F29E
:100DE00001FB12004849085C484908714FF47A70C9
:100DF00094FBF0F00A2190FBF1F201FB1200424952
:100E0000085C4249C870642094FBF0F00A2190FB12
:100E1000F1F201FB12003C49085C3C4988700A2051
:100E200094FBF0F00A2190FBF1F201FB120036492D
:100E3000085C364948700A2094FBF0F100FB114031
:100E40003149085C31490870072E2FD2DFE806F0DF
:100E50002E040B12192027002C48007840F0800047
:100E60002A49087023E02948407840F0800027494B
:100E700048701CE02548807840F080002349887045
:100E800015E02248C07840F080002049C8700EE08C
:100E90001E48007940F080001C49087107E01B489B
:100EA000407940F080001949487100E000BF00BF60
:100EB000012F05D11548C07840F080001349C87053
:100EC000B8F1010F05D11148007940F080000F49B9
:100ED0000871B9F1010F05D10C48407940F080004C
:100EE0000A494871002507E0084A515D6A06100E5C
:100EF000FFF7A2FE681CC5B2062DF5DBBDE8F08742
:100F000000080140A08601002E00002028000020DB
:100F1000002100BF48E000BF00BF00BF00BF00BF0E
:100F200000BF00BF00BF00BF00BF00BF00BF00BFC9
:100F300000BF00BF00BF00BF00BF00BF00BF00BFB9
:100F400000BF00BF00BF00BF00BF00BF00BF00BFA9
:100F500000BF00BF00BF00BF00BF00BF00BF00BF99
:100F600000BF00BF00BF00BF00BF00BF00BF00BF89
:100F700000BF00BF00BF00BF00BF00BF00BF00BF79
:100F800000BF00BF00BF00BF00BF00BF00BF00BF69
:100F900000BF00BF00BF00BF00BF00BF00BF00BF59
:100FA00000BF00BF00BF491C8142B4D3704710B5D9
:100FB00003464FF47A7003FB00F42046FFF7A8FFC6
:100FC00010BD000008B501210420FFF7D9FC102056
:100FD0008DF803000120ADF8000003208DF8020019
:100FE0006946F848FFF710FA01210420FFF7C8FC12
:100FF0000220ADF800006946F248FFF705FA01212A
:101000000420FFF7BDFC0420ADF800006946ED4860
:10101000FFF7FAF901210420FFF7B2FC0820ADF830
:1010200000006946E748FFF7EFF901210420FFF7C8
:10103000A7FC1020ADF800006946E248FFF7E4F98C
:1010400001210420FFF79CFC2020ADF80000694638
:10105000DC48FFF7D9F901210420FFF791FC40207B
:10106000ADF800006946D748FFF7CEF9012104200A
:10107000FFF786FC8020ADF800006946D148FFF7F5
:10108000C3F908BD38B505460C4601210420FFF719
:1010900077FC04208DF80300ADF80040694628462F
:1010A000FFF7B2F938BD10B5FFF78CFF10BD10B5D2
:1010B0001E20FFF77CFF0121C248FFF752FA0221F0
:1010C000C048FFF750FA0421BE48FFF74CFA082148
:1010D000BC48FFF748FA1021BA48FFF7D3FF202198
:1010E000B848FFF7CFFF4021B648FFF7CBFF80217C
:1010F000B448FFF7C7FF1021B248FFF718FA0128DC
:1011000009D11E20FFF753FF1021AE48FFF70FFA59
:10111000012800D110BD2021AA48FFF708FA0128B4
:101120000AD11E20FFF743FF2021A648FFF7FFF951
:10113000012801D10220EDE74021A248FFF7F7F98D
:1011400001280AD11E20FFF732FF40219D48FFF7FA
:10115000EEF9012801D10320DCE780219948FFF74F
:10116000E6F901280AD11E20FFF721FF80219548CA
:10117000FFF7DDF9012801D10420CBE71E20FFF79E
:1011800016FF01218F48FFF7EEF902218D48FFF786
:10119000E8F904218B48FFF7E6F908218948FFF7B1
:1011A000E2F910218748FFF76DFF20218548FFF7FE
:1011B00069FF40218348FFF765FF80218148FFF7E1
:1011C00061FF10217F48FFF7B2F901280AD11E20E4
:1011D000FFF7EDFE10217B48FFF7A9F9012801D1A7
:1011E000052097E720217748FFF7A1F901280AD1C8
:1011F0001E20FFF7DCFE20217248FFF798F9012836
:1012000001D1062086E740216E48FFF790F90128BA
:101210000AD11E20FFF7CBFE40216A48FFF787F96D
:10122000012801D1072075E780216648FFF77FF983
:1012300001280AD11E20FFF7BAFE80216148FFF77E
:1012400076F9012801D1082064E71E20FFF7AFFEE0
:1012500001215C48FFF787F902215A48FFF783F91B
:1012600004215848FFF77DF908215648FFF77BF91C
:1012700010215448FFF706FF20215248FFF702FFD4
:1012800040215048FFF7FEFE80214E48FFF7FAFE4E
:1012900010214C48FFF74BF901280AD11E20FFF717
:1012A00086FE10214748FFF742F9012801D10920A5
:1012B00030E720214348FFF73AF901280AD11E20E0
:1012C000FFF775FE20213F48FFF731F9012801D1D2
:1012D0000A201FE740213B48FFF729F901280AD1DE
:1012E0001E20FFF764FE40213648FFF720F9012851
:1012F00001D10B200EE780213248FFF718F90128B1
:101300000AD11E20FFF753FE80212E48FFF70FF968
:10131000012801D10C20FDE61E20FFF748FE012127
:101320002848FFF720F902212648FFF71CF904217D
:101330002448FFF718F908212248FFF712F9102175
:101340002048FFF79FFE20211E48FFF79BFE40210B
:101350001C48FFF797FE80211A48FFF793FE2021D3
:101360001848FFF7E4F801280AD11E20FFF71FFEF6
:1013700020211448FFF7DBF8012801D10E20C9E62F
:1013800040211048FFF7D3F801280AD11E20FFF7AB
:101390000EFE40210B48FFF7CAF8012801D10F20AB
:1013A000B8E680210748FFF7C2F801280CD11E20BB
:1013B000FFF7FDFD80210348FFF7B9F8012803D1AD
:1013C0001020A7E6000801400020A3E6064C074DC8
:1013D00006E0E06840F0010394E807009847103405
:1013E000AC42F6D3FEF7A8FE101400083014000833
:1013F00002E008C8121F08C1002AFAD170477047DE
:10140000002001E001C1121F002AFBD1704700003B
:1014100030140008000000204C000000F013000809
:101420007C1400084C000020040400000014000894
:1014300000A24A04000000000000000001020304B2
:10144000060708090000000001020304010203046A
:1014500006070809020406080000000000007D607D
:101460003E7A635B5F707F7B774F1D0E6E1F176741
:0C147000470D467537060F6D02000000A6
:0400000508000131BD
:00000001FF
