:020000040800F2
:100000003004002045010008410F0008430F00089C
:10001000470F00084B0F00084F0F000800000000BA
:10002000000000000000000000000000530F000866
:10003000550F000800000000570F0008590F000876
:100040005F0100085F0100085F0100085F01000810
:100050005F0100085F0100085F0100085F01000800
:100060005F0100085F0100085F0100085F010008F0
:100070005F0100085F0100085F0100085F010008E0
:100080005F0100085F0100085F0100085F010008D0
:100090005F0100085F0100085F0100085F010008C0
:1000A0005F0100085F0100085F0100085F010008B0
:1000B0005F0100085F0100085F0100085F010008A0
:1000C0005F0100085F0100085F0100085F01000890
:1000D0005F0100085F0100085B0F00085F01000876
:1000E0005F0100085F0100085F0100085F01000870
:1000F0005F0100085F0100085F0100085F01000860
:100100005F0100085F0100085F0100085F0100084F
:100110005F0100085F0100085F0100085F0100083F
:100120005F0100085F0100085F0100085F0100082F
:10013000DFF80CD002F0B2F9004800472D0F00089C
:10014000300400200648804706480047FEE7FEE7E7
:10015000FEE7FEE7FEE7FEE7FEE7FEE7FEE7FEE777
:1001600047020008310100080CB500200190009002
:100170006C48006840F480306A49086000BF6948F4
:10018000006800F4003000900198401C0190009835
:1001900018B90198B0F5A06FF1D16248006800F479
:1001A000003010B10120009001E000200090009884
:1001B000012843D15C48006840F010005A490860AB
:1001C0000846006820F0030008600846006840F018
:1001D0000200086053484068524948600846406839
:1001E00048600846406840F48060486008464068BF
:1001F00020F47C1048600846406840F4E8104860ED
:100200000846006840F08070086000BF45480068FC
:1002100000F000700028F9D04248406820F0030048
:10022000404948600846406840F00200486000BF0E
:100230003C48406800F00C000828F9D10CBD10B50E
:10024000FFF792FF10BD10B53648006840F001007E
:1002500034490860084640683449084031494860DC
:1002600008460068324908402E4908600846006880
:1002700020F4802008600846406820F4FE004860B2
:100280004FF41F008860FFF7DAFF4FF00060294944
:10029000086010BD10B5002100200022214B5B68D2
:1002A00003F00C0121B1042906D0082928D107E068
:1002B000214B224C236027E01F4B204C236023E07E
:1002C000184B5B6803F47010164B5B6803F48032C4
:1002D000022303EB904022B9194B4343174C236090
:1002E0000DE0104B5B6803F4003323B1144B434320
:1002F000124C236003E0104B4343104C236003E097
:100300000D4B0E4C236000BF00BF064B5B68C3F370
:1003100003130C4CE15C094B1B68CB40074C23607A
:1003200010BD000000100240002002400000FFF855
:10033000FFFFF6FE08ED00E000127A00000000204A
:1003400000093D000400002031490143314A116099
:10035000704770B5002100230F22C47804B32D4CE0
:10036000246804F4E064C4F5E064210AC1F10403E4
:10037000CA40447804FA03F1847814402143090107
:10038000254C0678A155047804F01F050124AC40E3
:1003900005786D11AD0005F1E025C5F8004109E0D3
:1003A000047804F01F050124AC401C4D067876113A
:1003B00045F8264070BD1A4A0A400243154B1B1FE0
:1003C0001A60704739B1134A121D12680243114B6B
:1003D0001B1D1A6006E00F4A121D126882430D4B66
:1003E0001B1D1A607047042808D14FF0E0210969ED
:1003F00041F004014FF0E022116107E04FF0E021ED
:10040000096921F004014FF0E022116170470000FA
:100410000000FA050CED00E000E400E080E100E0FF
:1004200080FFFF1F10B50446CC48844208D101214B
:10043000042000F02DFB0021042000F029FB46E001
:10044000C748844208D10121082000F021FB002187
:10045000082000F01DFB3AE0C248844208D1012187
:10046000102000F015FB0021102000F011FB2EE001
:10047000BD48844208D10121202000F009FB002161
:10048000202000F005FB22E0B848844208D1012179
:10049000402000F0FDFA0021402000F0F9FA16E0BB
:1004A000B348844208D10121802000F0F1FA0021F4
:1004B000802000F0EDFA0AE0AE48844207D1012125
:1004C000801500F0E5FA0021A01500F0E1FA10BD5A
:1004D00010B50121084600F0DBFA0021012000F0F0
:1004E000D7FA10BD2DE9F041024600250026002074
:1004F00000230024002791F803C00CF00F0591F8A9
:1005000003C00CF0100CBCF1000F03D091F802C036
:100510004CEA050591F800C0BCF1000F31D0146819
:1005200000202BE04FF0010C0CFA00F3B1F800C0F2
:100530000CEA03069E4220D183004FF00F0C0CFA08
:1005400003F7BC4305FA03FC4CEA040491F803C02A
:10055000BCF1280F06D14FF0010C0CFA00FCC2F8D8
:1005600014C00AE091F803C0BCF1480F05D14FF068
:10057000010C0CFA00FCC2F810C0401C0828D1D3B2
:100580001460B1F800C0BCF1FF0F34DD54680020E6
:100590002EE000F1080C4FF0010808FA0CF3B1F856
:1005A00000C00CEA03069E4221D183004FF00F0CDD
:1005B0000CFA03F7BC4305FA03FC4CEA040491F877
:1005C00003C0BCF1280F05D100F1080C08FA0CF8A3
:1005D000C2F8148091F803C0BCF1480F07D100F1B4
:1005E000080C4FF0010808FA0CF8C2F81080401C03
:1005F0000828CED35460BDE8F0814FF6FF7101802A
:10060000022181700421C170704702460020936866
:100610000B400BB1012000E00020704701468868C4
:1006200080B2704702460020D3680B400BB1012016
:1006300000E0002070470146C86880B27047016141
:100640007047416170470AB1016100E04161704744
:10065000C16070474FF480320A43826181618261D8
:1006600082698269704702460020434B18684FF642
:100670008073184040EA021008433F4B18607047EF
:100680003E49C8617047F0B50A46002300240021A6
:10069000002500F00046B6F1004F02D1364EF16958
:1006A00001E0354E7168C0F3034583B200F4401693
:1006B000B6F5401F08D121F070612F4E766826F004
:1006C00070662D4F7E6012E000F48016B6F5801F34
:1006D00006D1032606FA05F4A14341F0706106E055
:1006E000460D360103FA06F6B14341F0706122B1BE
:1006F000460D360103FA06F6314300F00046B6F126
:10070000004F02D11C4EF16101E01B4E7160F0BD43
:1007100030B500228B071C0F0F2303FA04F2164B8F
:1007200008338C1053F824309343134C08348D1045
:1007300044F8253023468C1053F824308C07240FBE
:1007400000FA04F423430C4C08348D1044F825308F
:1007500030BD0A49DC3108607047000000080140E4
:10076000000C01400010014000140140001801403D
:10077000001C014000200140000001400000204218
:10078000DF48006840F00100DD4908600846406825
:10079000DC490840DA49486008460068DA49084000
:1007A000D74908600846006820F4802008600846A1
:1007B000406820F4FE0048604FF41F0088607047D6
:1007C000CF49096821F48031CD4A1160114609688A
:1007D00021F480211160B0F5803F03D0B0F5802F67
:1007E0000ED106E0C649096841F48031C44A11605F
:1007F00007E0C349096841F4A021C14A116000E043
:1008000000BF00BF704710B5014600220023002042
:100810004A11012A02D1BA4C236806E0022A02D109
:10082000B74C236A01E0B64C636A01F01F02012451
:1008300094401C400CB1012000E0002010BD38B5F0
:10084000002000900024002500BF3120FFF7DBFFCF
:1008500005460098401C00900098B0F5A06F01D0AC
:10086000002DF2D03120FFF7CEFF08B1012400E0C7
:100870000024204638BD01460020A14A106820F01F
:10088000F80040EAC10010607047A0490860704756
:10089000024600209A4B586820F47C1042EA01037B
:1008A0001843974B5860704798490866704701464F
:1008B0000020934A506820F00300084350607047BE
:1008C0008F48406800F00C007047014600208C4AB9
:1008D000506820F0F0000843506070470146002047
:1008E000874A506820F4E060084350607047014632
:1008F0000020834A506820F4605040EAC1005060F4
:10090000704729B17E4A527A02437D4B5A7204E005
:100910007B4A527A82437A4B5A7270477B49D8316C
:100920000860704701460020754A506820F4404036
:100930000843506070470021714A20321170704A9C
:1009400082F82010012802D004280AD104E00121F5
:100950006B4A2032117005E00521694A203211707E
:1009600000E000BF00BF70476949086070476449F4
:10097000096A0143624A1162704765494439086057
:10098000704730B500210022002400235C4D6D68C3
:1009900005F00C0121B1042905D0082923D105E077
:1009A0005C4D056022E05B4D05601FE0544D6D68B5
:1009B00005F47012524D6D6805F48034022505EB84
:1009C00092421CB9544D554305600BE04C4D6D6887
:1009D00005F400351DB1504D5543056002E04D4D05
:1009E0005543056002E04B4D056000BF00BF444D1C
:1009F0006D6805F0F0010909484D6B5C0568DD4044
:100A000045603F4D6D6805F4E061090A434D6B5C3C
:100A10004568DD4085603A4D6D6805F46051C90A4E
:100A20003E4D6B5C4568DD40C560354D6D6805F435
:100A30004041890B3A4D6B5CC568B5FBF3F5056128
:100A400030BD29B12E4A526902432D4B5A6104E050
:100A50002B4A526982432A4B5A61704729B1284A6E
:100A600092690243264B9A6104E0254A92698243C7
:100A7000234B9A61704729B1214AD2690243204B26
:100A8000DA6104E01E4AD26982431D4BDA61704785
:100A900029B11B4AD2680243194BDA6004E0184AB4
:100AA000D2688243164BDA60704729B1144A126942
:100AB0000243134B1A6104E0114A12698243104B3E
:100AC0001A61704712494039086070470F49C8647D
:100AD00070470B49C87170470948406A40F0807000
:100AE00007494862704701460020054A92680A405B
:100AF0000AB1012000E00020704701498872704768
:100B0000001002400000FFF8FFFFF6FE0000424226
:100B10008004424200127A0000093D0014000020C7
:100B20002400002010B50446FB48844209D101216D
:100B30008803FFF7ADFF00214FF48040FFF7A8FFC7
:100B400032E0F648844209D101214804FFF7ADFFA5
:100B500000214FF40030FFF7A8FF25E0F048844261
:100B600009D101218804FFF7A0FF00214FF4802064
:100B7000FFF79BFF18E0EB48844209D10121C8042C
:100B8000FFF793FF00214FF40020FFF78EFF0BE0EB
:100B9000E548844208D101210805FFF786FF0021BE
:100BA0004FF48010FFF781FF10BD2DE9F04786B0AC
:100BB00005460E460024A24600BFA1460027B08984
:100BC00000B100BF2F462C8A4CF6FF700440F0881D
:100BD00004432C82AC894EF6F3100440B08831896E
:100BE0000843718908430443AC81AC8A4FF6FF4047
:100BF0000440B0890443AC8201A8FFF7C2FEC64896
:100C0000874202D1DDF810A001E0DDF80CA0A88930
:100C100000F4004040B10AEBCA0000EB0A10316852
:100C20004900B0FBF1F807E00AEBCA0000EB0A103C
:100C300031688900B0FBF1F86420B8FBF0F00401E2
:100C40002009642101FB1089A88900F4004040B10B
:100C5000322000EBC900B0FBF1F000F007000443C4
:100C600008E0322000EB09106421B0FBF1F000F045
:100C70000F0004432C8106B0BDE8F0874FF41651F5
:100C8000016000218180C18001810C21418100210E
:100C90008181704710B502460020108A4FF2FF0391
:100CA00018400B884C8823438C882343CC882343EB
:100CB0001843108210BD0021018041808180C180D5
:100CC000704721B1828942F40052828104E0828916
:100CD0004DF6FF731A4082817047F0B50346002439
:100CE00000260025002040F66A17B94200D100BF57
:100CF0001846C1F3421401F01F06012707FA06F552
:100D0000012C01D10C3004E0022C01D1103000E0A4
:100D100014301AB107682F43076002E00768AF4339
:100D20000760F0BD1AB1838A0B43838202E0838A95
:100D30008B4383827047028A4FF6F0731A40028217
:100D4000028A0A430282704782894FF2FF731A4077
:100D5000828182890A438281704721B1828942F06F
:100D60000202828104E082894FF6FD731A4082817B
:100D70007047028A4FF6DF731A400282028A0A43E2
:100D80000282704721B1028A42F48042028204E06A
:100D9000028A4BF6FF731A4002827047C1F30802C1
:100DA0008280704701468888C0F3080070478189B7
:100DB00041F0010181817047028BD2B20283028B24
:100DC00042EA012202837047028B02F47F420283CF
:100DD000028B0A430283704721B1828A42F02002CB
:100DE000828204E0828A4FF6DF731A408282704763
:100DF00021B1828A42F01002828204E0828A4FF698
:100E0000EF731A408282704721B1828A42F0080251
:100E1000828204E0828A4FF6F7731A40828270471A
:100E200021B1828942F40042828103E08289C2F3C7
:100E30000E028281704721B1828A42F4006282826E
:100E400004E0828A4FF2FF731A4082827047828ADE
:100E50004FF6FB731A408282828A0A43828270476D
:100E600021B1828A42F00202828204E0828A4FF635
:100E7000FD731A408282704702460020B1F5007F60
:100E800000D100BF13880B400BB1012000E000200F
:100E9000704701F40072B2F5007F00D100BFCA4371
:100EA0000280704770B50246002400230025002010
:100EB00040F66A16B14200D100BFC1F3421501F0FD
:100EC0001F03012606FA03F3012D02D19689334050
:100ED00006E0022D02D1168A334001E0968A3340A3
:100EE0000C12012606FA04F41688344013B10CB132
:100EF000012000E0002070BD10B50022002340F664
:100F00006A14A14200D100BF0A1201249440A3B286
:100F1000DC43048010BD0000003801400044004064
:100F200000480040004C00400050004000F096F89F
:100F300000F0BAFB03E04FF47A7000F0A2F8FAE791
:100F4000704700BFFEE700BFFEE700BFFEE700BF3F
:100F5000FEE7704770477047704710B540F2255163
:100F60000748FFF79FFF48B10548FFF71BFF0549FA
:100F7000087008460178044800F043FA10BD0000EC
:100F800000440040280000200038014030B50146F0
:100F9000B1F1807F01D3012030BD21F07F40401EA0
:100FA0004FF0E022506150170F22002807DA130794
:100FB0001D0E264B00F00F04241F1D5503E01307E0
:100FC0001C0E234B1C5400BF00204FF0E022906108
:100FD000072010610020DFE770B5044600251D489A
:100FE00000681D49B0FBF1F63046FFF7CFFF08B1AE
:100FF00000BFFEE7002508E000BF4FF0E0200069D9
:1010000000F480300028F8D06D1CA542F4D370BDE8
:1010100070B5044600250F4800684FF47A71B0FBA4
:10102000F1F63046FFF7B2FF08B100BFFEE700253A
:1010300008E000BF4FF0E020006900F48030002895
:10104000F8D06D1CA542F4D370BD000018ED00E08F
:1010500000E400E00000002040420F0008B501213C
:101060000420FFF7FBFC10208DF803000220ADF8F0
:10107000000003208DF8020069460A48FFF732FAA3
:1010800008BD10B5044602210648FFF7DAFA2046EB
:10109000FFF7BEFF02210348FFF7D1FA2046FFF712
:1010A000B7FF10BD00080140002148E000BF00BFAD
:1010B00000BF00BF00BF00BF00BF00BF00BF00BF38
:1010C00000BF00BF00BF00BF00BF00BF00BF00BF28
:1010D00000BF00BF00BF00BF00BF00BF00BF00BF18
:1010E00000BF00BF00BF00BF00BF00BF00BF00BF08
:1010F00000BF00BF00BF00BF00BF00BF00BF00BFF8
:1011000000BF00BF00BF00BF00BF00BF00BF00BFE7
:1011100000BF00BF00BF00BF00BF00BF00BF00BFD7
:1011200000BF00BF00BF00BF00BF00BF00BF00BFC7
:1011300000BF00BF00BF00BF00BF00BF491C81420D
:10114000B4D3704710B50346002404E04FF47A701E
:10115000FFF7AAFF641C9C42F8D310BDF8B5064601
:101160000C4615464FF4A060FFF7EEF88DF80060CE
:1011700001208DF803008DF801408DF8025068467B
:10118000FFF7E7F8F8BD38B5044603208DF80200F4
:10119000FE48844218D101210420FFF75FFC18208B
:1011A0008DF803006015ADF800006946F848FFF7B8
:1011B00099F904208DF803000002ADF8000069469B
:1011C000F348FFF78FF96DE0F248844218D101210E
:1011D0000420FFF743FC18208DF803000420ADF82D
:1011E00000006946EA48FFF77DF904208DF8030006
:1011F0000820ADF800006946E548FFF773F951E0B3
:10120000E548844218D101210820FFF727FC182067
:101210008DF803002015ADF800006946DF48FFF7A0
:1012200061F904208DF803004002ADF80000694622
:10123000DA48FFF757F935E0D948844218D101213F
:101240001020FFF70BFC18208DF803002015ADF8D7
:1012500000006946D348FFF745F904208DF80300E4
:101260004002ADF800006946CE48FFF73BF919E0AF
:10127000CD48844216D101213020FFF7EFFB182022
:101280008DF80300A014ADF800006946C548FFF7CB
:1012900029F904208DF80300ADF800006946C34821
:1012A000FFF720F938BD1FB504460020ADF80C004B
:1012B0000C20ADF80A000020ADF80800ADF80600DB
:1012C000ADF80400B14884421AD101218803FFF728
:1012D000C5FB4FF49640009069462046FFF765FC39
:1012E000012211462520FFF739FF012240F2255146
:1012F0002046FFF7F2FC01212046FFF7E2FC76E0F2
:10130000A44884421AD101214804FFF7B4FB4FF4EA
:101310001650009069462046FFF747FC012211460F
:101320002620FFF71BFF012240F225512046FFF740
:10133000D4FC01212046FFF7C4FC58E096488442C3
:101340001AD101218804FFF796FB4FF4E130009099
:1013500069462046FFF729FC012211462720FFF7A6
:10136000FDFE012240F225512046FFF7B6FC012187
:101370002046FFF7A6FC3AE0894884421AD10121B1
:10138000C804FFF778FB4FF4E1300090694620462F
:10139000FFF70BFC012211463420FFF7DFFE01228C
:1013A00040F225512046FFF798FC01212046FFF727
:1013B00088FC1CE07C48844219D101210805FFF714
:1013C0005AFB4FF4E130009069462046FFF7EDFBF1
:1013D000012211463520FFF7C1FE012240F22551BE
:1013E0002046FFF77AFC01212046FFF76AFC1FBD6B
:1013F00010B504462046FFF7C6FE2046FFF753FF10
:1014000010BD70B504460D4640216048FFF734FD1D
:1014100040212046FFF73DFD29462046FFF7BEFC50
:1014200000BF40215948FFF727FD0028F9D01420BC
:10143000FFF788FE70BD70B505460C4600BF2178E9
:101440002846FFF7DEFF601C044600780028F6D12E
:1014500070BD2DE9F34F81B00C46A1464FF0000A54
:10146000D3461CB930210198FFF7CBFF06E00A20D4
:10147000B9FBF0F90AF1010000F0FF0AB9F1000F21
:10148000F5D11FE0AAEB0B01481E00F009FE07464C
:101490003A460B460020464901F024F9054600F083
:1014A00031FEB4FBF0F00A21B0FBF1F201FB1200B7
:1014B0003030014600900198FFF7A3FF0BF10100C7
:1014C00000F0FF0BD345DDDBBDE8FE8F2DE9F34FC8
:1014D00089B08946DFF8DCA0484600F0FFFD0546EC
:1014E0000021484600F056FE03D22D210998FFF74F
:1014F00088FF0024002675B304E00A20B5FBF0F550
:10150000601CC4B2002DF8D1484600F0E7FD054646
:101510001EE0A11B481E00F0C3FD02460B46CDE9AC
:1015200002010020224901F0DDF8CDE9040100F0BC
:10153000E9FDB5FBF0F00A21B0FBF1F201FB12006E
:101540003030014607900998FFF75BFF701CC6B268
:10155000A642DEDB04E0FFE730210998FFF751FFE8
:101560002E210998FFF74DFF484600F0B7FD069081
:1015700000F091FD4946079000F0A9FC83465F46C4
:101580004FF006080024404616E0000000380140F5
:10159000000801400044004000480040000C0140A9
:1015A000004C004000100140005000400014014079
:1015B00000002440CDCCCC3D00F083FD02460B461C
:1015C000CDE900010020364901F08CF8CDE9040195
:1015D000584600F0B0FDCDE90201DDE9042300F03A
:1015E00079FCCDE9060100F0B9FD834613E0302116
:1015F0000998FFF706FF504600F09DFD0022284B9A
:10160000CDE9040100F0D8FCCDE9060100F0A6FD0B
:101610008246601CC4B25146384600F0BBFD01D280
:101620004445E4DB584600F059FD054600240026F9
:1016300004E00A20B5FBF0F5601CC4B2002DF8D11F
:10164000584600F04BFD05461EE0A11B481E00F069
:1016500027FD02460B46CDE902010020104901F0AA
:1016600041F8CDE9040100F04DFDB5FBF0F00A2191
:10167000B0FBF1F201FB12003030014607900998EF
:10168000FFF7BFFE701CC6B2A642DEDB0BB0BDE8A2
:10169000F08F10B5044603492046FFF7CCFE10BD7D
:1016A000000024409831000810B5FE48FFF7A0FE66
:1016B000FDA1FC48FFF7BFFE10BD10B50446FDA11B
:1016C000F848FFF7B8FE2146F648FFF7C2FEFBA137
:1016D000F448FFF7B0FE10BD70B504460E4615463F
:1016E000F7A1F048FFF7A7FE2146EE48FFF7B1FE4D
:1016F0002C21EC48FFF785FE3146EA48FFF7A9FEAA
:101700002C21E848FFF77DFE2946E648FFF7A1FEB9
:10171000EAA1E448FFF78FFE70BD2DE9F0470446CB
:101720000F4615461E46DDE9099ADDF82080E6A140
:10173000DC48FFF780FE2146DA48FFF78AFE2C21BD
:10174000D848FFF75EFE3946D648FFF782FE2C21C7
:10175000D448FFF756FE2946D248FFF77AFE2C21DF
:10176000D048FFF74EFE3146CE48FFF772FE2C21DF
:10177000CC48FFF746FE4146CA48FFF76AFE2C21D7
:10178000C848FFF73EFE4946C648FFF762FE2C21D7
:10179000C448FFF736FE5146C248FFF75AFEC7A1BC
:1017A000C048FFF748FEBDE8F0872DE9F05F04462A
:1017B0000F4615461E46DDE90CABDDE90A89C4A1DA
:1017C000B848FFF738FE2146B648FFF742FE2C2105
:1017D000B448FFF716FE3946B248FFF73AFE2C210F
:1017E000B048FFF70EFE2946AE48FFF732FE2C2127
:1017F000AC48FFF706FE3146AA48FFF72AFE2C2127
:10180000A848FFF7FEFD4146A648FFF722FE2C211F
:10181000A448FFF7F6FD4946A248FFF71AFE2C211F
:10182000A048FFF7EEFD51469E48FFF712FE2C211F
:101830009C48FFF7E6FD59469A48FFF70AFE2C211F
:101840009848FFF7DEFD97480E99FFF702FE2C211E
:101850009448FFF7D6FD93480F99FFF7FAFD2C2126
:101860009048FFF7CEFD22218E48FFF7CAFD8D4834
:101870001099FFF7C6FD22218A48FFF7C2FD8FA10C
:101880008848FFF7D8FDBDE8F09F2DE9F05F0446DA
:101890000F4615461E46DDE90CABDDE90A898CA131
:1018A0008048FFF7C8FD21467E48FFF7D2FD2C2176
:1018B0007C48FFF7A6FD39467A48FFF7CAFD2C2180
:1018C0007848FFF79EFD29467648FFF7C2FD2C2198
:1018D0007448FFF796FD31467248FFF7BAFD2C2198
:1018E0007048FFF78EFD41466E48FFF7B2FD2C2190
:1018F0006C48FFF786FD49466A48FFF7AAFD2C2190
:101900006848FFF77EFD51466648FFF7A2FD2C218F
:101910006448FFF776FD59466248FFF79AFD2C218F
:101920006048FFF76EFD5F480E99FFF792FD2C218E
:101930005C48FFF766FD5B480F99FFF78AFD2C2195
:101940005848FFF75EFD22215648FFF75AFD5548DB
:101950001099FFF770FD22215248FFF752FD57A161
:101960005048FFF768FDBDE8F09F2DE9F05F0446A1
:101970000F4615461E46DDE90CABDDE90A8954A188
:101980004848FFF758FD21464648FFF762FD2C21E5
:101990004448FFF736FD39464248FFF75AFD2C21EF
:1019A0004048FFF72EFD29463E48FFF752FD2C2107
:1019B0003C48FFF726FD31463A48FFF74AFD2C2107
:1019C0003848FFF71EFD41463648FFF742FD2C21FF
:1019D0003448FFF716FD49463248FFF73AFD2C21FF
:1019E0003048FFF70EFD51462E48FFF732FD2C21FF
:1019F0002C48FFF706FD59462A48FFF72AFD2C21FF
:101A00002848FFF7FEFC27480E99FFF722FD2C21FE
:101A10002448FFF7F6FC23480F99FFF71AFD2C2105
:101A20002048FFF7EEFC22211E48FFF7EAFC1D4884
:101A30001099FFF70EFD22211A48FFF7E2FC1FA1C3
:101A40001848FFF7F8FCBDE8F09F2DE9F05F044669
:101A50000F4615461E46DDE90CABDDE90A891CA1DF
:101A60001048FFF7E8FC21460E48FFF7F2FC2C2156
:101A70000C48FFF7C6FC39460A48FFF7EAFC2C2160
:101A80000848FFF7BEFC29460648FFF7E2FC2C2178
:101A90000448FFF7B6FC31460248FFF7DAFC2C2178
:101AA000004819E000380140636C73203635353347
:101AB000350D0A00636C7320000000000D0A000061
:101AC00070696320000000007870696320000000E6
:101AD0007772697374722000FFF793FC4146BC482B
:101AE000FFF7B7FC2C21BA48FFF78BFC4946B848F2
:101AF000FFF7AFFC2C21B648FFF783FC5146B448F2
:101B0000FFF7A7FC2C21B248FFF77BFC5946B048F1
:101B1000FFF79FFC2C21AE48FFF773FCAC480E99F1
:101B2000FFF797FC2C21AA48FFF76BFCA8480F99F8
:101B3000FFF78FFC2C21A648FFF763FC2221A44865
:101B4000FFF75FFCA2481099FFF7C0FC2221A048D4
:101B5000FFF757FCAFF29C019D48FFF76CFCBDE816
:101B6000F09F2DE9F04104460F4615461E46DDF86C
:101B7000188098A19648FFF75EFC21469448FFF72D
:101B800068FC2C219248FFF73CFC39469048FFF74F
:101B900060FC2C218E48FFF734FC29468C48FFF767
:101BA00058FC2C218A48FFF72CFC31468848FFF767
:101BB00050FC2C218648FFF724FC41468448FFF75F
:101BC00048FCAFF208118248FFF735FCBDE8F08110
:101BD0002DE9F04104460F4615461E46DDF81880F3
:101BE0007EA17B48FFF727FC21467948FFF731FCAF
:101BF0002C217748FFF705FC39467548FFF729FC8B
:101C00002C217348FFF7FDFB29467148FFF721FCA3
:101C10002C216F48FFF7F5FB31466D48FFF719FCA3
:101C20002C216B48FFF7EDFB41466948FFF711FC9B
:101C3000AFF278116648FFF7FEFBBDE8F0812DE9B1
:101C4000F04104460F4615461E46DDF8188065A192
:101C50005F48FFF7F0FB21465D48FFF7FAFB2C21B8
:101C60005B48FFF7CEFB39465948FFF7F2FB2C21C2
:101C70005748FFF7C6FB29465548FFF7EAFB2C21DA
:101C80005348FFF7BEFB31465148FFF7E2FB2C21DA
:101C90004F48FFF7B6FB41464D48FFF7DAFBAFF27E
:101CA000E4114B48FFF7C7FBBDE8F0812DE9F04197
:101CB00004460F4615461E46DDF81880B8F1010FA0
:101CC00004D14AA14248FFF7B6FB03E049A14048CE
:101CD000FFF7B1FB21463E48FFF7BBFB2C213C48F8
:101CE000FFF78FFB39463A48FFF7B3FB2C21384802
:101CF000FFF787FB29463648FFF7ABFB2C2134481A
:101D0000FFF77FFB31463248FFF7A3FBAFF25421C8
:101D10002F48FFF790FBBDE8F08110B5044637A1CE
:101D20002B48FFF788FBB4F5807F04D135A1284804
:101D3000FFF781FB03E021462548FFF78AFBAFF25E
:101D400084212348FFF777FB10BD10B504462FA16F
:101D50001F48FFF770FB21461D48FFF77AFBAFF2E3
:101D6000A4211B48FFF767FB10BD70B504460D4664
:101D700028A11748FFF75FFB21461548FFF75BFBDB
:101D80002C211348FFF73DFB29461148FFF761FB63
:101D9000AFF2D8210E48FFF74EFB70BD70B5044678
:101DA0000D4621460A48FFF746FB1CA10848FFF7ED
:101DB00042FB3D210648FFF724FB29460448FFF774
:101DC00048FBAFF208310248FFF735FB70BD000059
:101DD0000038014066696C6C200000006C696E651B
:101DE00020000000647261772000000063697220A7
:101DF00000000000736F6C6369722000706167659A
:101E0000200000006D61696E0000000072656620B0
:101E100000000000636C69636B2000002E76616C2B
:101E200000000000F0B480EA0102D40F4200B2EBDF
:101E3000410F02D20246084611464A0042D0C30D65
:101E4000DDB2C1F3C752AD1A202D35DAC1F3160148
:101E500041F4000204B15242C5F1200602FA06F133
:101E60002A411044B3EBD05F23D0C4B1012DA0EBC5
:101E7000C35009DCF0BC4FF0004202EAC352DBB2AF
:101E800000F5000000F0A9B9400000F1807000EBFF
:101E9000C350A0F1807040EAD170490009E04908C0
:101EA00041EAC071A0EBC35000F50000400800EB10
:101EB000C350F0BC00F088B96142012202EB41013D
:101EC000001BF6E7F0BC704781F00041AAE780F004
:101ED0000040A7E72DE9FE4F81EA030404F0004427
:101EE00021F0004100944FF0000B23F0004350EA32
:101EF00001045ED052EA03045BD0C3F30A54C1F379
:101F00000A552C44A4F2F3340194A0FB0254C1F30B
:101F1000130141F48011C3F3130343F4801301FB55
:101F2000024400FB034E840A970A44EA815447EABC
:101F30008357A4FB076802958D0A05FB07854FEAC6
:101F4000932C04FB0C542705029D4FEA065847EAE0
:101F50001637B5EB08056EEB070C870E920E47EAB5
:101F6000811742EA8312A7FB0201B6EB0B0164EB77
:101F700000042B0D43EA0C335E1844EB1C50DA4688
:101F80005146E7FB0201C5F313044FEA0B3343EA62
:101F900014534FEA0432019C43EA0603A4F10C04F3
:101FA0000294009CCDE900B400F054F903B0BDE800
:101FB000F08F00200146F9E72DE9F04D81EA030496
:101FC00004F0004B21F0004514464FF0000A23F0C6
:101FD000004150EA050220D054EA01021DD0C5F3A9
:101FE0000A570246C5F31303C1F31300C1F30A569F
:101FF00040F4801543F48013A7EB0608101BD64667
:1020000008F2FD3873EB050002D308F1010801E086
:1020100092185B41B8F1000F03DA00200146BDE8D9
:10202000F08D00204FF48011064684460EE0171B09
:1020300073EB050705D3121B63EB050306434CEA5C
:10204000010C49084FEA300092185B4150EA010741
:10205000EDD152EA030012D082EA040083EA0501BE
:10206000084305D0101BAB4106D20122002306E035
:1020700000224FF0004302E06FF0010253101AEB10
:1020800006004CEB085110EB0A0041EB0B01BDE8D8
:10209000F04D00F0D0B896230022114600F09DB814
:1020A0000EB5C10F80EAE0700844CA07002140F273
:1020B00033438DE80E000A460B4600F0CBF803B020
:1020C00000BD0EB540F2334102910021CDE900116F
:1020D0000A460B4600F0BEF803B000BD20F00040F9
:1020E000C10DC0F3160040F400007F2901DA002082
:1020F0007047962903DCC1F19601C84070479639B4
:1021000088407047C1F30A5210B5C1F3130140F281
:10211000FF3341F480119A4201DA002010BD40F2F1
:1021200033439A42A2F2334203DC524200F03CF8BD
:1021300010BD904010BD00F0004230F000400AD0C9
:10214000C10D01F56071C0F3160042EA0151C208E9
:1021500040071143704700200146704701F00043DB
:1021600030B421F0004150EA010206D00A0DA2F578
:102170006072C1F31301002A02DC30BC00207047FA
:10218000440F44EAC104C100E01830BC00EBC25067
:1021900000F01AB8002801DBC0F10040002901DB83
:1021A000C1F1004181427047202A04DB203A21FA24
:1021B00002F00021704721FA02F3D040C2F1200260
:1021C00091400843194670470029A8BF7047401C3A
:1021D000490008BF20F00100704710B4B0FA80FC3D
:1021E00000FA0CF050EA010404BF10BC704749B17A
:1021F000CCF1200421FA04F411FA0CF118BF0121EA
:1022000021430843A3EB0C01CB1D4FEA00614FEAC9
:10221000102042BF002010BC704700EBC350104498
:102220000029A4BF10BC7047401C490008BF20F023
:10223000010010BC704710B5141E73F1000408DAD9
:10224000401C41F1000192185B411A4301D120F07A
:10225000010010BD2DE9F04D92469B4611B1B1FA37
:1022600081F202E0B0FA80F22032904600F028F9C4
:1022700004460F4640EA0A0041EA0B0153465A461B
:10228000084313D0114653EA010019D0C8F14002A7
:102290005046FFF789FF05460E46504659464246CE
:1022A00000F00EF9084305D0012004E0204639462D
:1022B000BDE8F08D0020054346EAE0762C43374325
:1022C0000A986305E40AA0EB08000022FD0A44EA2C
:1022D00047540A3002D500200146E9E701051019EC
:1022E0006941DDE9084500196941BDE8F04DA2E703
:1022F0002DE9FE4F804681EA0300C00F0C46009096
:1023000021F0004123F00045B8EB0200A94105D2BD
:102310004046214690461C460B46024623F00040AC
:10232000104347D0270DC7F30A00C3F30A510290A8
:10233000401A019040286BDAC3F3130040F4801B6D
:102340000098924620B10023D2EB030A63EB0B0BFB
:1023500001985946C0F14002504600F0B1F80646D7
:102360000D4650465946019A00F0B9F810EB0800A6
:102370006141002487EA115284EAE7731A4340D08E
:10238000009A62B3019A012A4FEA075215DC001B3A
:1023900061EB02014FF0004202EA0752CDE9004230
:1023A000001C41F5801132462B46FFF753FF03B066
:1023B000BDE8F08F40462146F9E7001B61EB0201C2
:1023C000001C41F5801300185B412018A2F500178E
:1023D00047EB030140EAD570B6196D4111E06D0875
:1023E0004FEA360645EAC0754FEA0752001B61EB1B
:1023F0000201001C41F5801149084FEA3000001924
:10240000514132462B4603B0BDE8F04FFFF713BFF2
:102410000098012240000023D0EB020263EBE0733E
:10242000009821464FEAE074B8EB000061EB04012C
:10243000E9E783F000435BE781F0004158E770B5BE
:1024400021F0004303430CD0C1F30A550024D5EB1F
:10245000040564EB0403D617AD1AB34102DB002078
:10246000014670BD201841EB025170BD30B5041E0D
:1024700071F1000404DB4FF00044404264EB0101C1
:10248000141E73F1000405DB1C464FF0004352425A
:1024900063EB0403994208BF904230BD064C074DE0
:1024A00006E0E06840F0010394E807009847103424
:1024B000AC42F6D3FDF740FE143200083432000877
:1024C000202A04DB203A00FA02F1002070479140F4
:1024D000C2F1200320FA03F3194390407047202AE9
:1024E00006DBCB17203A41FA02F043EAE07306E03C
:1024F00041FA02F3D040C2F120029140084319464C
:1025000070472DE9F04D00231A461B1A8A4103DB60
:1025100000200146BDE8F08DC1F30A52C1F313015A
:1025200041F480154FF0000BD10702D100186D4126
:10253000521E0027044640F2FF11384601EB620AA2
:102540003E468046024600204FF48011FFF72CFEE5
:10255000C2197141BB1846EB0100B4EB030C75EBDB
:10256000000C04D3E41A65EB000517460E46241947
:1025700008F101006D4180463428E3DDF91946EB8E
:102580000600091BA84103D24FF0FF32134601E0B9
:10259000002213461BEB070046EB0A51BDE8F04D45
:1025A000FFF749BE490050EAC12018BF04204A0D78
:1025B00018BF40F0010040F2FF72B2EB515F08BF5C
:1025C00040F00200012808BF052070472DE9F041C6
:1025D0004F1E00EBC7010446D1E9000115461E4617
:1025E00037F006020DD02A463346FFF773FC7F1EF4
:1025F00004EBC703D3E90023FFF77AFE37F00602A6
:10260000F1D1022F25D0042F13D0062F18BFBDE81B
:10261000F0812A463346FFF75DFCD4E90A23FFF731
:1026200067FE2A463346FFF755FCD4E90823FFF737
:102630005FFE2A463346FFF74DFCD4E90623FFF739
:1026400057FE2A463346FFF745FCD4E90423FFF73B
:102650004FFE2A463346FFF73DFCD4E90223FFF73D
:1026600047FE2A463346FFF735FCD4E90023BDE890
:10267000F041FFF73DBE000000221346104601491D
:10268000FFF79ABC0000F03FFFF732BE002213466E
:1026900010461146FFF790BC40F2013200204FF087
:1026A000E041FFF7CCBE0000024A00201107FFF70F
:1026B000C6BE000001FDFFFF02E008C8121F08C1EE
:1026C000002AFAD170477047002001E001C1121FB3
:1026D000002AFBD1704700000149086070470000E4
:1026E0002C0000202DE9F04D1D460C4698B01746F1
:1026F00021F0004123F00043002814BF4FF0010CEB
:102700004FF0000C0CEB440CFE4A0CEB02064FEAB7
:10271000620C66452BD33E0018BF012606EB45062A
:102720001644F94A964222D3F84A53EA070C02D0DB
:10273000944205D148B918B000201146BDE8F08D8B
:10274000002808BF4FF0000C01D04FF0010C0CEB3B
:10275000440212F5001F0AD8002F14BF4FF0010CDD
:102760004FF0000C0CEB450212F5001F07D918B012
:102770003A462B462146BDE8F04DFFF785BF0022C3
:10278000DFF88CA3002CB8BF534526DADFF884C3EA
:102790006345A8BF022220DADFF870C39C451CDC29
:1027A000DFF874C30CEB235CBCF1140F08DDCCF133
:1027B000340627FA06FC0CFA06F6BE420DD108E0F4
:1027C0005FB9CCF1140623FA06FC0CFA06F69E4219
:1027D00003D10CF00102C2F1020251EA000C19D13E
:1027E000002D17DA002C18BF022A01D0012A07D0C9
:1027F0000220FFF771FF18B0BDE8F04DFFF73CBFB6
:102800000220FFF769FFFFF737FF18B081F00041A2
:10281000BDE8F08DB7F1000C6CD1534525D104F122
:10282000804212F5801201BF00280020B74918B07D
:1028300008BFBDE8F08DB548884207DC002DA1BF78
:102840006046294618B0BDE8F08D07E0281E05DA7D
:1028500080F0004118B06046BDE8F08DAF49794482
:10286000D1E9000118B0BDE8F08DDFF8A0C26345E2
:1028700025D1002D1FDA19B1514512D1D8B909E07F
:10288000002840F0EC82A24A214618B062F31E01F3
:10289000BDE8F08D0020214618B060F31E01BDE8B0
:1028A000F08D08DA18B02346BDE8F04D024600204E
:1028B0006146FFF781BB18B02146BDE8F08D514558
:1028C00018DAB5F1804F0DD0A5F1005CBCF1FF5CCA
:1028D00010D1B4F1000C0DDB18B06146BDE8F04D2D
:1028E00000F0ECBB234618B00246BDE8F04D194697
:1028F000FFF7F0BA060024F0004C3BD1D9B15145A6
:1029000033D1002C06DD002DA1BF0020514618B0A8
:10291000BDE8F08D002C01DD002D1BDB002C13DA4F
:10292000002D11DB012A4FF0000014BF78497C49CB
:1029300018B0BDE8F08D022A18BF002C0AD0012A79
:1029400008D1002C06DA0AE0002CB8BF002D11DAFD
:10295000012A04D0002018B00146BDE8F08D18B05F
:1029600000204FF00041BDE8F08DA1F14050B0F1E2
:102970007F601AD0012000EBE47050EA020421D0FD
:10298000624C521E4FF0000B104304BF4FF0000B7F
:10299000644C654883427CDD644A654893421FDD90
:1029A000884217DB002D25DB37E0002C00DA4AB126
:1029B000022A0CBF01204FF0FF3018B0BDE8F04DE7
:1029C000FFF76EBB0120FFF787FE18B0BDE8F04DA2
:1029D000FFF75CBE4D4A8A4202DC002D0ADC1CE097
:1029E000814202DA002D18DA04E0484B994220DDDA
:1029F000002D12DD0220FFF76FFEFFF74DFE0546AA
:102A00000E460022534658462146FFF763FA18B097
:102A100066F31E012846BDE8F08D0220FFF75CFE3C
:102A2000FFF742FE0A46214618B062F31E01BDE8D8
:102A3000F08D002230466146FFF7FBFC80460E46D3
:102A40006FF00102FFF7FBFC4FF05532394BFFF7F7
:102A5000F3FC42463346FFF73DFA0022364BFFF7C0
:102A6000EBFC824642463346049110461946FFF776
:102A700031FA5246049BFFF72DFA8A4600904FF038
:102A8000C0422E4B40463146FFF724FA2C4A2B4BCE
:102A900000E027E0CDE9060151460098FFF71AFA59
:102AA00082460191274A284B40463146FFF712FAE9
:102AB0005246019BFFF7BDFC82460B46024605913C
:102AC000DDE90601FFF714FCDDE906230026884650
:102AD0003046FFF7AEFC5246059BFFF7ADFC0246C1
:102AE00000F07EB90020B1F5801F07DA35223046AC
:102AF0006146FFF7A4FC06466FF0340000EB21505E
:102B000024E00000FFFF1F00FFFF0F000000F03F68
:102B10000000F07F0000404301FCFFFF2E09000091
:102B20000000F0FF0000F0BF0000E0410000F043B3
:102B3000FFFFEF3F5555D53F0000E03F4715F73FFA
:102B4000FE822B6544DF5DF80BAE543EA0F2FF30F1
:102B50000190C1F3130040F07F6141F040510291B8
:102B6000FE498842D8BF002004DDFD498142C8BF2C
:102B7000012001DD0D9008E000200D900198401C1F
:102B800001900298A0F5801002900299F5487844CF
:102B90000B910D9900EBC100D0E900230F93304653
:102BA0000A920B99FFF745FCCDE90601DDE90A2100
:102BB00030460F9BFFF79CFB02460B460020EA497C
:102BC000FFF7FAF9059102460B460090DDE9060190
:102BD000FFF780F91490E5488A464FF000087844E2
:102BE0000299006812904FF0005040EA61010D9880
:102BF0000F9B01EB804000F5002109910A9A129881
:102C0000FFF717FC32460B9BFFF716FC4246534674
:102C1000FFF760F90646029140465146099B129A19
:102C2000FFF758F9DDE90623FFF706FC3246029B61
:102C3000FFF7FFFB059B009AFFF74CF90091149AF0
:102C40000490534610461946FFF744F906460246DB
:102C5000C7480B46029106217844FFF7B7FCCDE93F
:102C60000510029B324610461946FFF733F9DDE99D
:102C70000532FFF72FF9059106465346404619469F
:102C8000149AFFF735FB009B049AFFF723F93246AD
:102C9000059BFFF72DFBCDE9051042465346104634
:102CA0001946FFF717F90022B24B02910A90FFF77D
:102CB0001FFBDDE90532FFF71BFB0E464246AD4B1D
:102CC0004046FFF7B6FB029B0A9AFFF7B2FBDDE92D
:102CD0000532FFF7B1FB424602910A903346104697
:102CE0005146FFF7F7F8CDE906015346149A0299C9
:102CF0000A98FFF7EFF88A46029033464246009959
:102D00000498FFF7E7F85346029AFFF7F1FA824674
:102D10000B4602460591DDE90601FFF7E9FADDE918
:102D20000623002088460646FFF783FB5246059B94
:102D3000FFF782FB824609914FF060428E4B30468E
:102D40004146FFF7C7F8049006918C4A8A4B5046DB
:102D50000999FFF7BFF882460291894A894B3046AC
:102D60004146FFF7B7F85246029BFFF7C1FA864B80
:102D70007B440D9A03EBC203D3E90023FFF7B8FAB3
:102D80000E9007910198FFF78BF90591DDE9061385
:102D900082460E9A0498FFF7ABFA7C4A7A440D9B60
:102DA00002EBC303D3E9002300930292FFF7A0FADA
:102DB0005246059BFFF79CFA00268846524630464D
:102DC000059BFFF736FB009B029AFFF732FB069B41
:102DD000049AFFF72EFB079B0E9AFFF72DFB024686
:102DE00000200B46029038462946FFF773F88246CA
:102DF00001912B4638461946029AFFF71AFB3246D4
:102E00004346FFF767F85246019BFFF771FA074602
:102E10008A463246434629460298FFF75BF8054644
:102E20000E463A465346FFF763FA594A884691429E
:102E300021DBA8EB020353EA000210D12A463346F5
:102E4000FFF7F7FACDE90401524A534B3846514691
:102E5000FFF74EFADDE90423FFF708FB21D2022039
:102E6000FFF73AFCFFF718FC0A46214618B062F358
:102E70001E01BDE8F08D494B28F000429A4210D364
:102E8000474A08EB020353EA00027FF4C6AD2A4624
:102E90003346FFF7CEFA3A465346FFF7E7FA7FF696
:102EA000BCAD0022019228F000403E493E4A01EBB1
:102EB0002051824223DA481C4FF4801121FA00F09D
:102EC00040443A4AC0F30A517A44394BA1F2FF31E7
:102ED000CB4020EA0303C0F3130040F48010C1F19B
:102EE0001401C84012680190B8F1000FBCBF404205
:102EF000019028463146FFF79CFA05460E462A46C1
:102F0000334638465146FFF7F3F94FF00008424682
:102F1000284B40460591FEF7DDFFCDE90601264A24
:102F2000264B40460599FEF7D5FF009102902A46B0
:102F3000334640460599FFF77CFA3A465346FFF779
:102F40007BFA1F4A1F4BFEF7C5FF009B029AFFF753
:102F5000CFF90746884602460B4635E08E980300B7
:102F60007AB60B00760500000000F03FAE050000C9
:102F7000DC0400000000084009C7EE3FFD033ADC16
:102F8000F5015B14E02F3EBEB4030000780300009F
:102F900000009040FE822B654715973C00CC904086
:102FA00000346F3F01FCFFFF0000E03FC40200005F
:102FB000FFFF0F00432EE63F396CA80C615C20BE7A
:102FC000EF39FAFE422EE63FDDE90601FFF790F900
:102FD000DDE9062305460E46FFF72BFA3A4643463F
:102FE000FFF72AFA0F462A46334600901046194644
:102FF000FEF770FF824602462E4888460B460521A2
:103000007844FFF7E3FA52464346FEF763FF2A4649
:103010003346FFF711FA80468A463B46284631463A
:10302000009AFEF757FF3B46009AFFF761F90691B9
:10303000009000224FF0804340465146FFF7F9F9D7
:103040000F460C904246534628463146FEF742FF53
:103050003B460C9AFEF7B0FF069B009AFFF7E9F992
:103060002A463346FFF7E5F90022134BFFF7E4F950
:10307000054601980E4601EB00510815002810DCAA
:1030800028463146019AFFF7DAF9FFF78BFA042850
:1030900008BFFFF709FB28463146019AFFF7CFF931
:1030A00005460B4618B02A4658462146BDE8F04D65
:1030B000FEF710BF640100000000F03F2DE9F04171
:1030C00006460F46FFF71DFA041E0D4618BF0120E5
:1030D000284320F00040C0F17F6000F1E040C00FC5
:1030E0000ED0301C18BF0120384320F00040C0F142
:1030F0007F6000F1E040C00F04BF0120FFF7ECFA51
:1031000020462946BDE8F081000000000000F03FA5
:10311000000000000000F83F000000000000000078
:103120000000004003B8E23F000000000000000083
:1031300006D0CF43EBFD4C3E033333333333E33F11
:10314000FFAB6FDBB66DDB3F4D268F515555D53F3D
:1031500001411DA96074D13F65DBC9934A86CD3F0B
:10316000EF4E454A287ECA3F3E5555555555C53FF9
:1031700093BDBE166CC166BF2CDE25AF6A56113FEB
:10318000F16BD2C541BDBBBED0A4BE726937663EED
:1031900000000000000000002F2A2A2A2A2A2A2ADA
:1031A0002A2A2A2A2A2A2A2A2A2A2A2A2A2A2A2A7F
:1031B0002A2A2A2A2A2A2A2A2A2A2A2A2A2A2A2A6F
:1031C0002F0A2F0909BBB6D3ADCAB9D3C321212118
:1031D0002109092F0A2F0909C7EBCAE4C8EBC3DC90
:1031E000C2EB212109092F0A2F2A2A2A2A2A2A2A50
:1031F0002A2A2A2A2A2A2A2A2A2A2A2A2A2A2A2A2F
:103200002A2A2A2A2A2A2A2A2A2A2A2A2A2A2A2A1E
:103210002F0A0000343200080000002030000000B7
:10322000B8260008643200083000002000040000C6
:10323000C826000800A24A040000000000000000A8
:10324000010203040607080900000000010203044C
:103250000102030406070809020406080000000032
:04326000000000006A
:0400000508000131BD
:00000001FF
