:020000040800F2
:100000006804002045010008E9120008EB1200080E
:10001000EF120008F3120008F712000800000000B9
:10002000000000000000000000000000FB120008BB
:10003000FD12000800000000FF1200086B1300080A
:100040005F0100085F0100085F010008011300085C
:100050005F0100085F0100085F0100085F01000800
:100060005F0100085F0100085F0100085F010008F0
:100070005F0100085F0100085F0100085F010008E0
:100080005F0100085F0100085F0100085F010008D0
:100090005F0100085F0100085F0100085F010008C0
:1000A0005F0100085F0100085F0100085F010008B0
:1000B0005F0100085F0100085F0100085F010008A0
:1000C0005F0100085F0100085F0100085F01000890
:1000D0005F010008771300085F0100085F01000856
:1000E0005F0100085F0100085F0100085F01000870
:1000F0005F0100085F0100085F0100085F01000860
:100100005F0100085F0100085F0100085F0100084F
:100110005F0100085F0100085F0100085F0100083F
:100120005F0100085F0100085F0100085F0100082F
:10013000DFF80CD002F090FE0048004705120008DE
:10014000680400200648804706480047FEE7FEE7AF
:10015000FEE7FEE7FEE7FEE7FEE7FEE7FEE7FEE777
:1001600047020008310100080CB500200190009002
:100170006C48006840F480306A49086000BF6948F4
:10018000006800F4003000900198401C0190009835
:1001900018B90198B0F5A06FF1D16248006800F479
:1001A000003010B10120009001E000200090009884
:1001B000012843D15C48006840F010005A490860AB
:1001C0000846006820F0030008600846006840F018
:1001D0000200086053484068524948600846406839
:1001E00048600846406840F48060486008464068BF
:1001F00020F47C1048600846406840F4E8104860ED
:100200000846006840F08070086000BF45480068FC
:1002100000F000700028F9D04248406820F0030048
:10022000404948600846406840F00200486000BF0E
:100230003C48406800F00C000828F9D10CBD10B50E
:10024000FFF792FF10BD10B53648006840F001007E
:1002500034490860084640683449084031494860DC
:1002600008460068324908402E4908600846006880
:1002700020F4802008600846406820F4FE004860B2
:100280004FF41F008860FFF7DAFF4FF00060294944
:10029000086010BD10B5002100200022214B5B68D2
:1002A00003F00C0121B1042906D0082928D107E068
:1002B000214B224C236027E01F4B204C236023E07E
:1002C000184B5B6803F47010164B5B6803F48032C4
:1002D000022303EB904022B9194B4343174C236090
:1002E0000DE0104B5B6803F4003323B1144B434320
:1002F000124C236003E0104B4343104C236003E097
:100300000D4B0E4C236000BF00BF064B5B68C3F370
:1003100003130C4CE15C094B1B68CB40074C23607A
:1003200010BD000000100240002002400000FFF855
:10033000FFFFF6FE08ED00E000127A00000000204A
:1003400000093D000400002031490143314A116099
:10035000704770B5002100230F22C47804B32D4CE0
:10036000246804F4E064C4F5E064210AC1F10403E4
:10037000CA40447804FA03F1847814402143090107
:10038000254C0678A155047804F01F050124AC40E3
:1003900005786D11AD0005F1E025C5F8004109E0D3
:1003A000047804F01F050124AC401C4D067876113A
:1003B00045F8264070BD1A4A0A400243154B1B1FE0
:1003C0001A60704739B1134A121D12680243114B6B
:1003D0001B1D1A6006E00F4A121D126882430D4B66
:1003E0001B1D1A607047042808D14FF0E0210969ED
:1003F00041F004014FF0E022116107E04FF0E021ED
:10040000096921F004014FF0E022116170470000FA
:100410000000FA050CED00E000E400E080E100E0FF
:1004200080FFFF1F10B5012000F014FC002000F039
:1004300011FC10BD2A49086070472949091F08604E
:100440007047274984310860704701460020254ADB
:1004500010884FF67F4210400843224A10807047B0
:10046000014600201F4A10884FF680721040084352
:100470001C4A1080704708B500220092194A2C3A95
:100480000092009A02440092009A116008BD08B5DB
:1004900001460020009013482C3800900098084432
:1004A00000900098008808BD0D489C300068C0B2DC
:1004B00070470C480830008840F0010009490831B5
:1004C000088070470648A0300068C0B270470548F1
:1004D0000830008840F00200024908310880704767
:1004E00004860D422C6C004010B50446CC48844272
:1004F00008D10121042000F093FB0021042000F02A
:100500008FFB46E0C748844208D10121082000F053
:1005100087FB0021082000F083FB3AE0C2488442B8
:1005200008D10121102000F07BFB0021102000F0F9
:1005300077FB2EE0BD48844208D10121202000F045
:100540006FFB0021202000F06BFB22E0B8488442C2
:1005500008D10121402000F063FB0021402000F081
:100560005FFB16E0B348844208D10121802000F0EF
:1005700057FB0021802000F053FB0AE0AE48844284
:1005800007D10121801500F04BFB0021A01500F0E0
:1005900047FB10BD10B50121084600F041FB0021CA
:1005A000012000F03DFB10BD2DE9F0410246002581
:1005B0000026002000230024002791F803C00CF03F
:1005C0000F0591F803C00CF0100CBCF1000F03D024
:1005D00091F802C04CEA050591F800C0BCF1000F8B
:1005E00031D0146800202BE04FF0010C0CFA00F31E
:1005F000B1F800C00CEA03069E4220D183004FF000
:100600000F0C0CFA03F7BC4305FA03FC4CEA040494
:1006100091F803C0BCF1280F06D14FF0010C0CFA81
:1006200000FCC2F814C00AE091F803C0BCF1480F06
:1006300005D14FF0010C0CFA00FCC2F810C0401CB0
:100640000828D1D31460B1F800C0BCF1FF0F34DD2D
:10065000546800202EE000F1080C4FF0010808FA61
:100660000CF3B1F800C00CEA03069E4221D18300CE
:100670004FF00F0C0CFA03F7BC4305FA03FC4CEAED
:10068000040491F803C0BCF1280F05D100F1080C57
:1006900008FA0CF8C2F8148091F803C0BCF1480FB6
:1006A00007D100F1080C4FF0010808FA0CF8C2F865
:1006B0001080401C0828CED35460BDE8F0814FF66E
:1006C000FF710180022181700421C17070470246D0
:1006D000002093680B400BB1012000E00020704720
:1006E0000146886880B2704702460020D3680B40FC
:1006F0000BB1012000E0002070470146C86880B2BD
:10070000704701617047416170470AB1016100E0C3
:1007100041617047C16070474FF480320A43826183
:100720008161826182698269704702460020434B81
:1007300018684FF68073184040EA021008433F4B98
:10074000186070473E49C8617047F0B50A460023FB
:1007500000240021002500F00046B6F1004F02D130
:10076000364EF16901E0354E7168C0F3034583B23E
:1007700000F44016B6F5401F08D121F070612F4EED
:10078000766826F070662D4F7E6012E000F48016C9
:10079000B6F5801F06D1032606FA05F4A14341F001
:1007A000706106E0460D360103FA06F6B14341F0EA
:1007B000706122B1460D360103FA06F6314300F0AE
:1007C0000046B6F1004F02D11C4EF16101E01B4E14
:1007D0007160F0BD30B500228B071C0F0F2303FAA8
:1007E00004F2164B08338C1053F824309343134C07
:1007F00008348D1044F8253023468C1053F82430EB
:100800008C07240F00FA04F423430C4C08348D1099
:1008100044F8253030BD0A49DC31086070470000DB
:1008200000080140000C014000100140001401408C
:1008300000180140001C0140002001400000014060
:100840000000204210B50121080700F0F6F9002150
:100850004FF0805000F0F1F910BD2A49086270474E
:1008600028490861704701460020274A106820F097
:10087000E0000843106070472249A03108607047CB
:1008800010B502460020204B186820F003001043EA
:1008900018601E4B1B6843F004031C4C23600129A5
:1008A00001D130BF00E020BF184B1B6823F00403C8
:1008B000164C236010BD1448006840F00400124933
:1008C00008600846006840F0020008600F480068B1
:1008D00040F004000D49086000BF00BF30BF704702
:1008E00001460020084A52680A400AB1012000E08F
:1008F000002070470449096841EA8001024A1160FA
:100900007047000000000E420070004010ED00E053
:10091000DF48006840F00100DD4908600846406893
:10092000DC490840DA49486008460068DA4908406E
:10093000D74908600846006820F48020086008460F
:10094000406820F4FE0048604FF41F008860704744
:10095000CF49096821F48031CD4A116011460968F8
:1009600021F480211160B0F5803F03D0B0F5802FD5
:100970000ED106E0C649096841F48031C44A1160CD
:1009800007E0C349096841F4A021C14A116000E0B1
:1009900000BF00BF704710B50146002200230020B1
:1009A0004A11012A02D1BA4C236806E0022A02D178
:1009B000B74C236A01E0B64C636A01F01F020124C0
:1009C00094401C400CB1012000E0002010BD38B55F
:1009D000002000900024002500BF3120FFF7DBFF3E
:1009E00005460098401C00900098B0F5A06F01D01B
:1009F000002DF2D03120FFF7CEFF08B1012400E036
:100A00000024204638BD01460020A14A106820F08D
:100A1000F80040EAC10010607047A04908607047C4
:100A2000024600209A4B586820F47C1042EA0103E9
:100A30001843974B586070479849086670470146BD
:100A40000020934A506820F003000843506070472C
:100A50008F48406800F00C007047014600208C4A27
:100A6000506820F0F00008435060704701460020B5
:100A7000874A506820F4E0600843506070470146A0
:100A80000020834A506820F4605040EAC100506062
:100A9000704729B17E4A527A02437D4B5A7204E074
:100AA0007B4A527A82437A4B5A7270477B49D831DB
:100AB0000860704701460020754A506820F44040A5
:100AC0000843506070470021714A20321170704A0B
:100AD00082F82010012802D004280AD104E0012164
:100AE0006B4A2032117005E00521694A20321170ED
:100AF00000E000BF00BF7047694908607047644963
:100B0000096A0143624A11627047654944390860C5
:100B1000704730B500210022002400235C4D6D6831
:100B200005F00C0121B1042905D0082923D105E0E5
:100B30005C4D056022E05B4D05601FE0544D6D6823
:100B400005F47012524D6D6805F48034022505EBF2
:100B500092421CB9544D554305600BE04C4D6D68F5
:100B600005F400351DB1504D5543056002E04D4D73
:100B70005543056002E04B4D056000BF00BF444D8A
:100B80006D6805F0F0010909484D6B5C0568DD40B2
:100B900045603F4D6D6805F4E061090A434D6B5CAB
:100BA0004568DD4085603A4D6D6805F46051C90ABD
:100BB0003E4D6B5C4568DD40C560354D6D6805F4A4
:100BC0004041890B3A4D6B5CC568B5FBF3F5056197
:100BD00030BD29B12E4A526902432D4B5A6104E0BF
:100BE0002B4A526982432A4B5A61704729B1284ADD
:100BF00092690243264B9A6104E0254A9269824336
:100C0000234B9A61704729B1214AD2690243204B94
:100C1000DA6104E01E4AD26982431D4BDA617047F3
:100C200029B11B4AD2680243194BDA6004E0184A22
:100C3000D2688243164BDA60704729B1144A1269B0
:100C40000243134B1A6104E0114A12698243104BAC
:100C50001A61704712494039086070470F49C864EB
:100C600070470B49C87170470948406A40F080706E
:100C700007494862704701460020054A92680A40C9
:100C80000AB1012000E000207047014988727047D6
:100C9000001002400000FFF8FFFFF6FE0000424295
:100CA0008004424200127A0000093D001400002036
:100CB0002400002029B1504A128802434E4B1A806A
:100CC00004E04D4A128882434B4B1A8070474A48D1
:100CD000001D008840F010004749091D088070473A
:100CE0004548001D00884FF6EF7108404249091D34
:100CF00008807047002140481C300188001F008890
:100D000041EA0040704700B50246FFF7E0FF100CD3
:100D1000394918310880091D0A80FFF7E1FF00BD3D
:100D200000B50246FFF7D3FFC2F303403249083152
:100D30000880091D0A80FFF7D3FF00BD00B50246F9
:100D4000FFF7C5FF100C2C4920310880091D0A80CF
:100D5000FFF7C6FF00BD00202749103109880907A9
:100D6000080B2549143109880843704700BF224801
:100D7000001D008800F020000028F8D070471E48B1
:100D8000001D00884FF6F77108401B49091D0880B7
:100D900000BF1948001D008800F008000028F8D0A6
:100DA000704701460020144A121D12880A400AB1F9
:100DB000012000E0002070470F49091D0988814388
:100DC0000D4A121D11807047014600200A4A121D6B
:100DD00012880A40D0B2084A12880A4012B108B1FB
:100DE000012000E0002070470349091D0988814364
:100DF000014A121D118070470028004010B50446BA
:100E0000FB48844209D101218803FFF709FF002133
:100E10004FF48040FFF704FF32E0F648844209D1E6
:100E200001214804FFF709FF00214FF40030FFF7CC
:100E300004FF25E0F048844209D101218804FFF72E
:100E4000FCFE00214FF48020FFF7F7FE18E0EB488E
:100E5000844209D10121C804FFF7EFFE00214FF4BD
:100E60000020FFF7EAFE0BE0E548844208D10121AB
:100E70000805FFF7E2FE00214FF48010FFF7DDFECA
:100E800010BD2DE9F04786B005460E460024A24667
:100E900000BFA1460027B08900B100BF2F462C8AB1
:100EA0004CF6FF700440F08804432C82AC894EF667
:100EB000F3100440B0883189084371890843044322
:100EC000AC81AC8A4FF6FF400440B0890443AC8249
:100ED00001A8FFF71EFEC648874202D1DDF810A028
:100EE00001E0DDF80CA0A88900F4004040B10AEB55
:100EF000CA0000EB0A1031684900B0FBF1F807E0C6
:100F00000AEBCA0000EB0A1031688900B0FBF1F867
:100F10006420B8FBF0F004012009642101FB108972
:100F2000A88900F4004040B1322000EBC900B0FBBA
:100F3000F1F000F00700044308E0322000EB091054
:100F40006421B0FBF1F000F00F0004432C8106B0E7
:100F5000BDE8F0874FF41651016000218180C18007
:100F600001810C21418100218181704710B5024629
:100F70000020108A4FF2FF0318400B884C8823434F
:100F80008C882343CC8823431843108210BD002152
:100F9000018041808180C180704721B1828942F403
:100FA0000052828104E082894DF6FF731A408281EB
:100FB0007047F0B50346002400260025002040F6C7
:100FC0006A17B94200D100BF1846C1F3421401F0BC
:100FD0001F06012707FA06F5012C01D10C3004E0A9
:100FE000022C01D1103000E014301AB107682F43F1
:100FF000076002E00768AF430760F0BD1AB1838A5B
:101000000B43838202E0838A8B4383827047028A88
:101010004FF6F0731A400282028A0A430282704736
:1010200082894FF2FF731A40828182890A4382814A
:10103000704721B1828942F00202828104E08289F4
:101040004FF6FD731A4082817047028A4FF6DF73B4
:101050001A400282028A0A430282704721B1028A40
:1010600042F48042028204E0028A4BF6FF731A4087
:1010700002827047C1F30802828070470146888867
:10108000C0F308007047818941F0010181817047F8
:10109000028BD2B20283028B42EA012202837047A2
:1010A000028B02F47F420283028B0A430283704761
:1010B00021B1828A42F02002828204E0828A4FF6C5
:1010C000DF731A408282704721B1828A42F0100297
:1010D000828204E0828A4FF6EF731A408282704760
:1010E00021B1828A42F00802828204E0828A4FF6AD
:1010F000F7731A408282704721B1828942F400421C
:10110000828103E08289C2F30E028281704721B19D
:10111000828A42F40062828204E0828A4FF2FF7384
:101120001A4082827047828A4FF6FB731A4082828D
:10113000828A0A438282704721B1828A42F0020287
:10114000828204E0828A4FF6FD731A4082827047E1
:1011500002460020B1F5007F00D100BF13880B408C
:101160000BB1012000E00020704701F40072B2F5DD
:10117000007F00D100BFCA430280704770B50246AD
:10118000002400230025002040F66A16B14200D159
:1011900000BFC1F3421501F01F03012606FA03F355
:1011A000012D02D19689334006E0022D02D1168A24
:1011B000334001E0968A33400C12012606FA04F40B
:1011C0001688344013B10CB1012000E0002070BD3E
:1011D00010B50022002340F66A14A14200D100BFDE
:1011E0000A1201249440A3B2DC43048010BD000025
:1011F000003801400044004000480040004C0040DE
:101200000050004088B04FF47A7000F0B7FB00F057
:10121000E1F800F0E7FB002000F0B0FE00F076FF00
:101220001E49002001F02FFAA0B91DA001210022C3
:101230000392CDE9042106904FF418404FF6FF7158
:101240001E23CDE9002102904FF49672002108463A
:1012500000F049FC1A48808A81B21AA000F0CFFE43
:101260001748008A81B219A000F0C9FE144880898D
:1012700081B218A000F0C3FE1148008981B216A007
:1012800000F0BDFE0E48808881B215A000F0B7FEC8
:1012900002E0322000F0B1F8FBE7000018CD1D5C41
:1012A000CAB1BCE4CAFDBEDDB6AACAA7A3ACC7EBEF
:1012B000C1AACFB53139313639393537350000005B
:1012C0004800002079656172000000006D6F6E7447
:1012D0006800000064617900686F757200000000AA
:1012E0006D696E7574650000704700BFFEE700BF52
:1012F000FEE700BFFEE700BFFEE77047704770479C
:1013000010B50120FFF760FD00282DD00120FFF768
:101310006BFD01F005FE2048008881B21FA000F09F
:101320006EFE1D48808881B21EA000F068FE1A483B
:101330000068B8B91848808A81B21CA000F05FFE2E
:101340001548008A81B21BA000F059FE124880891E
:1013500081B21AA000F053FE0F48008981B218A094
:1013600000F04DFEFFF702FD10BD17480068401C5D
:1013700015490860704710B540F225511348FFF732
:10138000FDFE40B11148FFF779FE11490870202198
:101390000E48FFF7EAFE10BD480000207365636F3A
:1013A0006E6400006D696E75746500007965617228
:1013B000000000006D6F6E746800000064617900C9
:1013C000686F75720000000028000020003801409E
:1013D0002D00002008B501210420FFF707FC102094
:1013E0008DF803000001ADF8000003208DF8020025
:1013F00069461048FFF7D8F808BD10B504460E48F6
:101400000068A04214D300200B4908604FF480719B
:101410000848FFF769F930B100224FF480710548A0
:10142000FFF773F904E0012211020248FFF76DF99A
:1014300010BD00000008014028000020002148E005
:1014400000BF00BF00BF00BF00BF00BF00BF00BFA4
:1014500000BF00BF00BF00BF00BF00BF00BF00BF94
:1014600000BF00BF00BF00BF00BF00BF00BF00BF84
:1014700000BF00BF00BF00BF00BF00BF00BF00BF74
:1014800000BF00BF00BF00BF00BF00BF00BF00BF64
:1014900000BF00BF00BF00BF00BF00BF00BF00BF54
:1014A00000BF00BF00BF00BF00BF00BF00BF00BF44
:1014B00000BF00BF00BF00BF00BF00BF00BF00BF34
:1014C00000BF00BF00BF00BF00BF00BF00BF00BF24
:1014D000491C8142B4D3704710B50346002404E090
:1014E0004FF47A70FFF7AAFF641C9C42F8D310BD3A
:1014F000F8B506460C4615464FF4A060FEF724FFEB
:101500008DF8006001208DF803008DF801408DF802
:1015100002506846FEF71DFFF8BD38B504460320AB
:101520008DF80200FE48844218D101210420FFF703
:101530005DFB18208DF803006015ADF800006946CA
:10154000F848FFF731F804208DF803000002ADF8E9
:1015500000006946F348FFF727F86DE0F24884423F
:1015600018D101210420FFF741FB18208DF803005A
:101570000420ADF800006946EA48FFF715F804209A
:101580008DF803000820ADF800006946E548FFF734
:101590000BF851E0E548844218D101210820FFF7FB
:1015A00025FB18208DF803002015ADF800006946D2
:1015B000DF48FEF7F9FF04208DF803004002ADF884
:1015C00000006946DA48FEF7EFFF35E0D94884426B
:1015D00018D101211020FFF709FB18208DF8030016
:1015E0002015ADF800006946D348FEF7DDFF042062
:1015F0008DF803004002ADF800006946CE48FEF7C2
:10160000D3FF19E0CD48844216D101213020FFF7E5
:10161000EDFA18208DF80300A014ADF8000069461B
:10162000C548FEF7C1FF04208DF80300ADF80000A7
:101630006946C348FEF7B8FF38BD1FB50446002011
:10164000ADF80C000C20ADF80A000020ADF8080041
:10165000ADF80600ADF80400B14884421AD101216A
:101660008803FFF7C3FA4FF41650009069462046EE
:10167000FFF707FC012211462520FFF739FF012261
:1016800040F225512046FFF794FC01212046FFF748
:1016900084FC1CE0A448844219D101214804FFF7CE
:1016A000B2FA4FF41650009069462046FFF7E9FB66
:1016B000012211462620FFF71BFF012240F225518F
:1016C0002046FFF776FC01212046FFF766FC1FBD90
:1016D00010B504462046FFF720FF2046FFF7ADFF78
:1016E00010BD70B504460D4640218D48FFF730FD12
:1016F00040212046FFF739FD29462046FFF7BAFC76
:1017000000BF40218648FFF723FD0028F9D070BDB7
:1017100070B505460C4600BF21782846FFF7E1FF6B
:10172000601C044600780028F6D170BD2DE9F34F07
:1017300081B00C46A1464FF0000AD3461CB93021B7
:101740000198FFF7CEFF06E00A20B9FBF0F90AF195
:10175000010000F0FF0AB9F1000FF5D11FE0AAEB7C
:101760000B01481E01F0E7F907463A460B460020F8
:10177000744901F08BFC054601F00FFAB4FBF0F060
:101780000A21B0FBF1F201FB12003030014600905B
:101790000198FFF7A6FF0BF1010000F0FF0BD34506
:1017A000DDDBBDE8FE8F2DE9F34F89B08946DFF818
:1017B00098A1484601F0DDF905460021484601F0B0
:1017C0004DFA03D22D210998FFF78BFF0024002644
:1017D00075B304E00A20B5FBF0F5601CC4B2002D1F
:1017E000F8D1484601F0C5F905461EE0A11B481E88
:1017F00001F0A1F902460B46CDE902010020514952
:1018000001F044FCCDE9040101F0C7F9B5FBF0F0AB
:101810000A21B0FBF1F201FB1200303001460790C3
:101820000998FFF75EFF701CC6B2A642DEDB03E03C
:1018300030210998FFF755FF2E210998FFF751FF36
:10184000484601F096F9069001F070F94946079074
:1018500000F0E1FF83465F464FF006080024404653
:1018600001F07AF902460B46CDE900010020354926
:1018700001F00CFCCDE90401584601F0A7F9CDE9CF
:101880000201DDE9042301F070F8CDE9060101F061
:10189000C9F9834613E030210998FFF722FF50462B
:1018A00001F094F90022274BCDE9040101F0CFF8B3
:1018B000CDE9060101F0B6F98246601CC4B251467A
:1018C000384601F0CBF901D24445E4DB584601F03B
:1018D00050F905460024002604E00A20B5FBF0F587
:1018E000601CC4B2002DF8D1584601F042F90546FB
:1018F00036E0A11B481E01F01EF902460B46CDE959
:10190000020100200F4901F0C1FBCDE9040101F003
:1019100044F9B5FBF0F00A21B0FBF1F216E000004B
:1019200000380140000801400044004000480040E9
:10193000000C0140004C00400010014000500040ED
:101940000014014000002440CDCCCC3D01FB12002E
:101950003030014607900998FFF7C3FE701CC6B2ED
:10196000A642C6DB0BB0BDE8F08F10B504460249B5
:101970002046FFF7CDFE10BD403B000870B5034682
:1019800015480068B0FBF3F1B1F1807F01D301206D
:101990001DE021F07F40401E4FF0E02250615017C3
:1019A0000F22002807DA1407260E0C4C00F00F0552
:1019B0002D1F665503E01407250E094C255400BF62
:1019C00000204FF0E022906107201061002008B154
:1019D00000BFFEE770BD00000000002018ED00E031
:1019E00000E400E010B5FE48FFF772FEFDA1FC48E0
:1019F000FFF78EFE10BD10B50446FDA1F848FFF7B5
:101A000087FE2146F648FFF791FEFBA1F448FFF759
:101A10007FFE10BD70B504460E461546F7A1F0488E
:101A2000FFF776FE2146EE48FFF780FE2C21EC48BA
:101A3000FFF757FE3146EA48FFF778FE2C21E848C9
:101A4000FFF74FFE2946E648FFF770FEEAA1E4489B
:101A5000FFF75EFE70BD2DE9F04704460F461546C0
:101A60001E46DDE9099ADDF82080E6A1DC48FFF793
:101A70004FFE2146DA48FFF759FE2C21D848FFF7E0
:101A800030FE3946D648FFF751FE2C21D448FFF7E7
:101A900028FE2946D248FFF749FE2C21D048FFF7FF
:101AA00020FE3146CE48FFF741FE2C21CC48FFF7FF
:101AB00018FE4146CA48FFF739FE2C21C848FFF7F7
:101AC00010FE4946C648FFF731FE2C21C448FFF7F7
:101AD00008FE5146C248FFF729FEC7A1C048FFF7DC
:101AE00017FEBDE8F0872DE9F05F04460F46154666
:101AF0001E46DDE90CABDDE90A89C4A1B848FFF751
:101B000007FE2146B648FFF711FE2C21B448FFF727
:101B1000E8FD3946B248FFF709FE2C21B048FFF72F
:101B2000E0FD2946AE48FFF701FE2C21AC48FFF747
:101B3000D8FD3146AA48FFF7F9FD2C21A848FFF748
:101B4000D0FD4146A648FFF7F1FD2C21A448FFF740
:101B5000C8FD4946A248FFF7E9FD2C21A048FFF740
:101B6000C0FD51469E48FFF7E1FD2C219C48FFF740
:101B7000B8FD59469A48FFF7D9FD2C219848FFF740
:101B8000B0FD97480E99FFF7D1FD2C219448FFF73F
:101B9000A8FD93480F99FFF7C9FD2C219048FFF746
:101BA000A0FD22218E48FFF79CFD8D481099FFF77C
:101BB000AFFD22218A48FFF794FD8FA18848FFF7E7
:101BC000A7FDBDE8F09F2DE9F05F04460F461546DE
:101BD0001E46DDE90CABDDE90A898CA18048FFF7E0
:101BE00097FD21467E48FFF7A1FD2C217C48FFF799
:101BF00078FD39467A48FFF799FD2C217848FFF7A0
:101C000070FD29467648FFF791FD2C217448FFF7B7
:101C100068FD31467248FFF789FD2C217048FFF7B7
:101C200060FD41466E48FFF781FD2C216C48FFF7AF
:101C300058FD49466A48FFF779FD2C216848FFF7AF
:101C400050FD51466648FFF771FD2C216448FFF7AF
:101C500048FD59466248FFF769FD2C216048FFF7AF
:101C600040FD5F480E99FFF761FD2C215C48FFF7AE
:101C700038FD5B480F99FFF759FD2C215848FFF7B5
:101C800030FD22215648FFF72CFD55481099FFF7EB
:101C90004DFD22215248FFF724FD57A15048FFF780
:101CA00037FDBDE8F09F2DE9F05F04460F4615466D
:101CB0001E46DDE90CABDDE90A8954A14848FFF76F
:101CC00027FD21464648FFF731FD2C214448FFF708
:101CD00008FD39464248FFF729FD2C214048FFF70F
:101CE00000FD29463E48FFF721FD2C213C48FFF727
:101CF000F8FC31463A48FFF719FD2C213848FFF728
:101D0000F0FC41463648FFF711FD2C213448FFF71F
:101D1000E8FC49463248FFF709FD2C213048FFF71F
:101D2000E0FC51462E48FFF701FD2C212C48FFF71F
:101D3000D8FC59462A48FFF7F9FC2C212848FFF720
:101D4000D0FC27480E99FFF7F1FC2C212448FFF71F
:101D5000C8FC23480F99FFF7E9FC2C212048FFF726
:101D6000C0FC22211E48FFF7BCFC1D481099FFF75C
:101D70001AFD22211A48FFF7B4FC1FA11848FFF7EB
:101D8000C7FCBDE8F09F2DE9F04104460F4615461B
:101D90001E46DDF818801FA11148FFF7B9FC214647
:101DA0000F48FFF7C3FC2C210D48FFF79AFC39467A
:101DB0000B48FFF7BBFC2C210948FFF792FC294692
:101DC0000748FFF7B3FC2C210548FFF78AFC314692
:101DD0000348FFF7ABFC2C210148FFF782FC1DE014
:101DE00000380140636C732036353533350D0A00F9
:101DF000636C7320000000000D0A0000706963200E
:101E00000000000078706963200000007772697339
:101E10007472200066696C6C2000000041468448A2
:101E2000FFF784FCAFF230018148FFF771FCBDE899
:101E3000F0812DE9F04104460F4615461E46DDF8B7
:101E400018807CA17A48FFF763FC21467848FFF7A9
:101E50006DFC2C217648FFF744FC39467448FFF7A7
:101E600065FC2C217248FFF73CFC29467048FFF7BF
:101E70005DFC2C216E48FFF734FC31466C48FFF7BF
:101E800055FC2C216A48FFF72CFC41466848FFF7B7
:101E90004DFCAFF29C016648FFF73AFCBDE8F081CB
:101EA0002DE9F04104460F4615461E46DDF8188020
:101EB00062A15F48FFF72CFC21465D48FFF736FC26
:101EC0002C215B48FFF70DFC39465948FFF72EFCE3
:101ED0002C215748FFF705FC29465548FFF726FCFB
:101EE0002C215348FFF7FDFB31465148FFF71EFCFC
:101EF0002C214F48FFF7F5FB41464D48FFF716FCF4
:101F0000AFF20C114A48FFF703FCBDE8F0812DE960
:101F1000F04104460F4615461E46DDF81880B8F11C
:101F2000010F04D147A14248FFF7F2FB03E047A1AC
:101F30003F48FFF7EDFB21463D48FFF7F7FB2C211B
:101F40003B48FFF7CEFB39463948FFF7EFFB2C2122
:101F50003748FFF7C6FB29463548FFF7E7FB2C213A
:101F60003348FFF7BEFB31463148FFF7DFFBAFF2E6
:101F700078112F48FFF7CCFBBDE8F08110B504467F
:101F800034A12B48FFF7C4FBB4F5807F04D133A103
:101F90002748FFF7BDFB03E021462548FFF7C6FBB6
:101FA000AFF2AC112248FFF7B3FB10BD10B50446E9
:101FB0002CA11F48FFF7ACFB21461D48FFF7B6FBDD
:101FC000AFF2CC111A48FFF7A3FB10BD70B5044661
:101FD0000D4626A11648FFF79BFB21461448FFF744
:101FE00097FB2C211248FFF77CFB29461048FFF78E
:101FF0009DFBAFF2FC110E48FFF78AFB70BD70B578
:1020000004460D4621460A48FFF782FB19A10848FD
:10201000FFF77EFB3D210648FFF763FB2946044896
:10202000FFF784FBAFF230210148FFF771FB70BD71
:10203000003801406C696E652000000064726177B1
:10204000200000006369722000000000736F6C6361
:102050006972200070616765200000006D61696E23
:10206000000000007265662000000000636C696378
:102070006B2000002E76616C00000000002102E061
:1020800000BF00BF491C8142FADB704710B5034610
:10209000002404E04FF47A70FFF7F0FF641C9C42C8
:1020A000F8DB10BD08B501210420FEF79FFD0220DA
:1020B000ADF8000010208DF8030003208DF8020019
:1020C0006946DD48FEF770FA01210420FEF78EFD17
:1020D0000820ADF800006946D748FEF765FA0121EF
:1020E0000420FEF783FD2020ADF800006946D248A9
:1020F000FEF75AFA01210420FEF778FD8020ADF8A2
:1021000000006946CC48FEF74FFA08BD10B5FFF74E
:10211000C9FF0221C848FEF7F6FA0821C648FEF7B3
:10212000F2FA2021C448FEF7EEFA8021C248FEF7F9
:10213000EAFA10BD70B50546012453E0012C06D023
:10214000022C15D0032C24D0042C44D132E00221DF
:10215000B948FEF7D6FA0821B748FEF7D4FA20218D
:10216000B548FEF7D0FA8021B348FEF7CCFA32E04A
:102170000221B148FEF7C7FA0821AF48FEF7C1FABD
:102180002021AD48FEF7BFFA8021AB48FEF7BBFA2D
:1021900021E00221A848FEF7B6FA0821A648FEF77A
:1021A000B2FA2021A448FEF7ACFA8021A248FEF73B
:1021B000AAFA10E00221A048FEF7A5FA08219E48DD
:1021C000FEF7A1FA20219C48FEF79DFA80219A484B
:1021D000FEF797FA00BF00BFC5F1200188B2FFF7F4
:1021E00055FF641C042CA9DD70BD70B504460C2C91
:1021F00057DC012553E0012D06D0022D15D0032D0B
:1022000024D0042D44D132E002218B48FEF779FA24
:1022100008218948FEF775FA20218748FEF773FAEE
:1022200080218548FEF76FFA32E002218248FEF7EE
:102230006AFA08218048FEF764FA20217E48FEF7FA
:1022400060FA80217C48FEF75EFA21E002217A489C
:10225000FEF759FA08217848FEF755FA202176480A
:10226000FEF74FFA80217448FEF74BFA10E0022186
:102270007148FEF746FA08216F48FEF744FA20211C
:102280006D48FEF740FA80216B48FEF73AFA00BF2E
:1022900000BFC4F11C0188B2FFF7F8FE6D1C042DCD
:1022A000A9DD70BD70B505460C2D70DC012498E0E9
:1022B000092C16D2DFE804F08E05162738495A6C2F
:1022C0007D0002215C48FEF71CFA08215A48FEF7FF
:1022D00018FA20215848FEF716FA80215648FEF7D2
:1022E00012FA77E002215448FEF70BFA082152480F
:1022F000FEF707FA20215048FEF705FA80214E48E4
:10230000FEF701FA66E002214B48FEF7FCF90821CE
:102310004948FEF7F6F920214748FEF7F4F98021F5
:102320004548FEF7F0F955E002214348FEF7EBF986
:1023300008214148FEF7E5F920213F48FEF7E1F981
:1023400080213D48FEF7DFF944E002213A48FEF7DC
:10235000DAF908213848FEF7D6F920213648FEF789
:10236000D0F980213448FEF7CEF933E0022132481B
:10237000FEF7C9F908213048FEF7C5F920212E489B
:10238000FEF7BFF980212C48FEF7BBF922E02BE0D5
:1023900002212948FEF7B7F908212748FEF7B3F9CB
:1023A00020212548FEF7AFF980212348FEF7A9F93F
:1023B00010E002212048FEF7A4F908211E48FEF78C
:1023C000A2F920211C48FEF79EF980211A48FEF749
:1023D00098F900BF00BFC5F1140188B2FFF756FE9F
:1023E000641C082C7FF764AF70BD2DE9FC5F834649
:1023F00014461D464FF0000A04E05846FFF79AFEC7
:102400000AF1010A22462B4600204FF0814100F0DC
:10241000ACFA0022094BCDE9000100F0FFF90646B5
:102420000F46504600F087FB804632463B4600F0A0
:10243000E1FBE2D3BDE8FC9F000801400000F03F53
:102440000020BC49086040F2B270BB4948612BE0F3
:10245000B9494869C11700EB91718910A0EB81015E
:1024600039B9B5494969642291FBF2F302FB1311B2
:1024700041B9B14949694FF4C87291FBF2F302FBCB
:10248000131131B9AB480068AC490844A949086048
:1024900005E0A8480068AA490844A6490860A6487B
:1024A0004069401CA4494861A6480068A349401AF5
:1024B000A04909688842CBD270470020A249086031
:1024C00001209D49086151E09B4800690D2847D2D1
:1024D000DFE800F046071E081409150A0B160C1752
:1024E0000D0000BF00BF00BF00BF00BF00BF964887
:1024F0000068964908449449086031E000BF00BF75
:1025000000BF91480068924908448F49086027E05D
:1025100089494869C11700EB91718910A0EB8101CD
:1025200039B985494969642291FBF2F302FB131121
:1025300041B9814949694FF4C87291FBF2F302FB3A
:10254000131131B980480068824908447E49086007
:1025500005E07D480068804908447B49086000BF69
:1025600000BF75480069401C7349086175480068E0
:1025700070490968401A7549401A734909688842C8
:10258000A2D2704700207549086001206A49C860DE
:102590000AE0724800687249084470490860664859
:1025A000C068401C6449C8606648006861490968A1
:1025B000401A65490968401A6949401A674909681B
:1025C0008842E6D270470020664908605A49886010
:1025D0000AE06448006800F5616062490860564896
:1025E0008068401C54498860564800685149096811
:1025F000401A55490968401A58490968401AA0F517
:102600006160584909688842E3D24B4880680830C5
:10261000494988607047002053490860464948602E
:1026200009E0514800683C304F4908604248406822
:10263000401C41494860434800683E490968401AC7
:1026400041490968401A45490968401A45490968DD
:10265000401A3C38444909688842E2D270473948F8
:10266000006834490968401A37490968401A3B49EB
:102670000968401A3B490968401A3B490968401AF1
:102680002D4908607047F8B504460D464FF4C06008
:10269000FDF75AFE03208DF8000001208DF803009D
:1026A0008DF8010000208DF802006846FDF751FE0C
:1026B00001260420FDF7EBFE4AF2A551884201D124
:1026C000012C2ED101214FF0C050FEF79CFA0120C1
:1026D000FEF7C3F8FDF7A6FE0120FEF7F4F900BFF0
:1026E0004120FEF758F90028FAD04FF48070FEF729
:1026F00006FA0120FEF709FAFEF741FBFEF736FB6A
:1027000047F6FF70FEF70CFBFEF730FB4AF2A551CF
:102710000420FDF7B0FEFEF729FB2846FEF7F3FA8A
:10272000002601210846FEF7C5FA00F0F9FB304605
:10273000F8BD000034000020480000200085E201C0
:102740008033E101300000203800002080DE2800C6
:10275000008D2700803B260000EA24003C0000207A
:10276000805101004000002044000020F0B480EAC5
:102770000102D40F4200B2EB410F02D202460846DA
:1027800011464A0042D0C30DDDB2C1F3C752AD1AA3
:10279000202D35DAC1F3160141F4000204B1524292
:1027A000C5F1200602FA06F12A411044B3EBD05FCE
:1027B00023D0C4B1012DA0EBC35009DCF0BC4FF015
:1027C000004202EAC352DBB200F5000000F08ABA10
:1027D000400000F1807000EBC350A0F1807040EA2F
:1027E000D170490009E0490841EAC071A0EBC3502B
:1027F00000F50000400800EBC350F0BC00F069BADF
:102800006142012202EB4101001BF6E7F0BC704778
:1028100081F00041AAE780F00040A7E72DE9FE4FD4
:10282000804681EA0300C00F0C46009021F0004171
:1028300023F00045B8EB0200A94105D240462146ED
:1028400090461C460B46024623F00040104347D0FA
:10285000270DC7F30A00C3F30A510290401A0190F2
:1028600040286BDAC3F3130040F4801B00989246B3
:1028700020B10023D2EB030A63EB0B0B01985946FE
:10288000C0F14002504600F0F3F906460D465046AE
:102890005946019A00F00BFA10EB08006141002440
:1028A00087EA115284EAE7731A4340D0009A62B370
:1028B000019A012A4FEA075215DC001B61EB020165
:1028C0004FF0004202EA0752CDE90042001C41F5F8
:1028D000801132462B4600F042FA03B0BDE8F08F7B
:1028E00040462146F9E7001B61EB0201001C41F55F
:1028F000801300185B412018A2F5001747EB030175
:1029000040EAD570B6196D4111E06D084FEA360600
:1029100045EAC0754FEA0752001B61EB0201001C3B
:1029200041F5801149084FEA300000195141324603
:102930002B4603B0BDE8F04F00F002BA0098012228
:1029400040000023D0EB020263EBE07300982146C5
:102950004FEAE074B8EB000061EB0401E9E783F0B3
:1029600000435BE781F0004158E72DE9FE4F81EA23
:10297000030404F0004421F0004100944FF0000BE8
:1029800023F0004350EA01045ED052EA03045BD016
:10299000C3F30A54C1F30A552C44A4F2F33401944E
:1029A000A0FB0254C1F3130141F48011C3F31303DC
:1029B00043F4801301FB024400FB034E840A970A90
:1029C00044EA815447EA8357A4FB076802958D0ABD
:1029D00005FB07854FEA932C04FB0C542705029D49
:1029E0004FEA065847EA1637B5EB08056EEB070CB9
:1029F000870E920E47EA811742EA8312A7FB020173
:102A0000B6EB0B0164EB00042B0D43EA0C335E18AC
:102A100044EB1C50DA465146E7FB0201C5F31304B0
:102A20004FEA0B3343EA14534FEA0432019C43EA62
:102A30000603A4F10C040294009CCDE900B400F05C
:102A40008EF903B0BDE8F08F00200146F9E72DE9CB
:102A5000F04D81EA030404F0004B21F000451446D8
:102A60004FF0000A23F0004150EA050220D054EA5A
:102A700001021DD0C5F30A570246C5F31303C1F383
:102A80001300C1F30A5640F4801543F48013A7EBFA
:102A90000608101BD64608F2FD3873EB050002D37A
:102AA00008F1010801E092185B41B8F1000F03DA68
:102AB00000200146BDE8F08D00204FF4801106464D
:102AC00084460EE0171B73EB050705D3121B63EB5F
:102AD000050306434CEA010C49084FEA30009218FE
:102AE0005B4150EA0107EDD152EA030012D082EABD
:102AF000040083EA0501084305D0101BAB4106D250
:102B00000122002306E000224FF0004302E06FF0B4
:102B1000010253101AEB06004CEB085110EB0A00AF
:102B200041EB0B01BDE8F04D00F00AB996230022FD
:102B3000114600F0D7B80EB5C10F80EAE070084426
:102B4000CA07002140F233438DE80E000A460B46C7
:102B500000F005F903B000BD0EB540F2334102911B
:102B60000021CDE900110A460B4600F0F8F803B049
:102B700000BD20F00040C10DC0F3160040F400007D
:102B80007F2901DA00207047962903DCC1F1960104
:102B9000C8407047963988407047C1F30A5210B553
:102BA000C1F3130140F2FF3341F480119A4201DA7C
:102BB000002010BD40F233439A42A2F2334203DCBC
:102BC000524200F064F810BD904010BD00F0004289
:102BD00030F000400AD0C10D01F56071C0F316005D
:102BE00042EA0151C20840071143704700200146E4
:102BF0007047000030B5041E71F1000404DB4FF093
:102C00000044404264EB0101141E73F1000405DB33
:102C10001C464FF00043524263EB04038B4208BF53
:102C2000824230BD01F0004330B421F0004150EA4F
:102C3000010206D00A0DA2F56072C1F31301002A49
:102C400002DC30BC00207047440F44EAC104C100DC
:102C5000E01830BC00EBC25000F03BB8002801DBAC
:102C6000C0F10040002901DBC1F100418142704701
:102C7000202A04DB203A00FA02F10020704791403C
:102C8000C2F1200320FA03F3194390407047202A31
:102C900004DB203A21FA02F00021704721FA02F306
:102CA000D040C2F120029140084319467047202AC3
:102CB00006DBCB17203A41FA02F043EAE07306E064
:102CC00041FA02F3D040C2F1200291400843194674
:102CD00070470029A8BF7047401C490008BF20F07A
:102CE0000100704710B4B0FA80FC00FA0CF050EA12
:102CF000010404BF10BC704749B1CCF1200421FA93
:102D000004F411FA0CF118BF012121430843A3EB8D
:102D10000C01CB1D4FEA00614FEA102042BF00209A
:102D200010BC704700EBC35010440029A4BF10BC76
:102D30007047401C490008BF20F0010010BC7047DC
:102D400010B5141E73F1000408DA401C41F10001B3
:102D500092185B411A4301D120F0010010BD2DE90A
:102D6000F04D92469B4611B1B1FA81F202E0B0FA01
:102D700080F220329046FFF77BFF04460F4640EA80
:102D80000A0041EA0B0153465A46084313D0114644
:102D900053EA010019D0C8F140025046FFF777FF0F
:102DA00005460E46504659464246FFF761FF084326
:102DB00005D0012004E020463946BDE8F08D002012
:102DC000054346EAE0762C4337430A986305E40A54
:102DD000A0EB08000022FD0A44EA47540A3002D55D
:102DE00000200146E9E7010510196941DDE90845C0
:102DF00000196941BDE8F04DA2E770B521F000432C
:102E000003430CD0C1F30A550024D5EB040564EB51
:102E10000403D617AD1AB34102DB0020014670BD92
:102E2000201841EB025170BD30B5041E71F1000451
:102E300004DB4FF00044404264EB0101141E73F1C7
:102E4000000405DB1C464FF00043524263EB0403D1
:102E5000994208BF904230BD064C074D06E0E0683D
:102E600040F0010394E8070098471034AC42F6D3D1
:102E7000FDF762F9BC3B0008DC3B00082DE9F04D92
:102E800000231A461B1A8A4103DB00200146BDE8D5
:102E9000F08DC1F30A52C1F3130141F480154FF0D4
:102EA000000BD10702D100186D41521E00270446C5
:102EB00040F2FF11384601EB620A3E468046024668
:102EC00000204FF48011FFF7E2FEC2197141BB18D8
:102ED00046EB0100B4EB030C75EB000C04D3E41AD1
:102EE00065EB000517460E46241908F101006D41F7
:102EF00080463428E3DDF91946EB0600091BA8419A
:102F000003D24FF0FF32134601E0002213461BEBC1
:102F1000070046EB0A51BDE8F04DFFF711BF000076
:102F200010B5FDF7E7FE08490860FDF71FFFFFF742
:102F300087FAFFF7C2FAFFF746FBFFF723FBFFF71D
:102F40006AFBFFF78CFB10BD30000020490050EAFF
:102F5000C12018BF04204A0D18BF40F0010040F204
:102F6000FF72B2EB515F08BF40F00200012808BFBA
:102F7000052070472DE9F0414F1E00EBC7010446C4
:102F8000D1E9000115461E4637F006020DD02A464B
:102F90003346FFF7EAFC7F1E04EBC703D3E90023A7
:102FA000FFF73CFC37F00602F1D1022F25D0042FA9
:102FB00013D0062F18BFBDE8F0812A463346FFF72D
:102FC000D4FCD4E90A23FFF729FC2A463346FFF74D
:102FD000CCFCD4E90823FFF721FC2A463346FFF74F
:102FE000C4FCD4E90623FFF719FC2A463346FFF751
:102FF000BCFCD4E90423FFF711FC2A463346FFF753
:10300000B4FCD4E90223FFF709FC2A463346FFF754
:10301000ACFCD4E90023BDE8F041FFF7FFBB0000A2
:103020000022134610460149FFF711BD0000F03F92
:10303000FFF7F4BB0022134610461146FFF707BD09
:1030400040F2013200204FF0E041FFF7D6BE000011
:10305000024A00201107FFF7D0BE000001FDFFFF6C
:1030600002E008C8121F08C1002AFAD17047704751
:10307000002001E001C1121F002AFBD170470000AF
:103080000149086070470000640000202DE9F04D00
:103090001D460C4698B0174621F0004123F000432E
:1030A000002814BF4FF0010C4FF0000C0CEB440C47
:1030B000FE4A0CEB02064FEA620C66452BD33E003B
:1030C00018BF012606EB45061644F94A964222D35C
:1030D000F84A53EA070C02D0944205D148B918B017
:1030E00000201146BDE8F08D002808BF4FF0000C0D
:1030F00001D04FF0010C0CEB440212F5001F0AD86E
:10310000002F14BF4FF0010C4FF0000C0CEB4502E8
:1031100012F5001F07D918B03A462B462146BDE8E4
:10312000F04DFFF785BF0022DFF88CA3002CB8BF5D
:10313000534526DADFF884C36345A8BF022220DAAC
:10314000DFF870C39C451CDCDFF874C30CEB235C18
:10315000BCF1140F08DDCCF1340627FA06FC0CFA9A
:1031600006F6BE420DD108E05FB9CCF1140623FA91
:1031700006FC0CFA06F69E4203D10CF00102C2F1E5
:10318000020251EA000C19D1002D17DA002C18BFE9
:10319000022A01D0012A07D00220FFF771FF18B0E0
:1031A000BDE8F04DFFF73CBF0220FFF769FFFFF7D6
:1031B00037FF18B081F00041BDE8F08DB7F1000C89
:1031C0006CD1534525D104F1804212F5801201BF24
:1031D00000280020B74918B008BFBDE8F08DB548F9
:1031E000884207DC002DA1BF6046294618B0BDE823
:1031F000F08D07E0281E05DA80F0004118B0604627
:10320000BDE8F08DAF497944D1E9000118B0BDE8BF
:10321000F08DDFF8A0C2634525D1002D1FDA19B16A
:10322000514512D1D8B909E0002840F0EC82A24AF9
:10323000214618B062F31E01BDE8F08D0020214642
:1032400018B060F31E01BDE8F08D08DA18B023460F
:10325000BDE8F04D024600206146FFF7F8BB18B00C
:103260002146BDE8F08D514518DAB5F1804F0DD0FB
:10327000A5F1005CBCF1FF5C10D1B4F1000C0DDBDA
:1032800018B06146BDE8F04D00F0ECBB234618B025
:103290000246BDE8F04D1946FFF767BB060024F073
:1032A000004C3BD1D9B1514533D1002C06DD002D66
:1032B000A1BF0020514618B0BDE8F08D002C01DD03
:1032C000002D1BDB002C13DA002D11DB012A4FF03F
:1032D000000014BF78497C4918B0BDE8F08D022A7F
:1032E00018BF002C0AD0012A08D1002C06DA0AE007
:1032F000002CB8BF002D11DA012A04D0002018B02C
:103300000146BDE8F08D18B000204FF00041BDE847
:10331000F08DA1F14050B0F17F601AD0012000EB98
:10332000E47050EA020421D0624C521E4FF0000BB0
:10333000104304BF4FF0000B644C654883427CDDB2
:10334000644A654893421FDD884217DB002D25DB68
:1033500037E0002C00DA4AB1022A0CBF01204FF0FE
:10336000FF3018B0BDE8F04DFFF7E5BB0120FFF7D7
:1033700087FE18B0BDE8F04DFFF75CBE4D4A8A42AB
:1033800002DC002D0ADC1CE0814202DA002D18DA92
:1033900004E0484B994220DD002D12DD0220FFF7AA
:1033A0006FFEFFF74DFE05460E4600225346584677
:1033B0002146FFF7DAFA18B066F31E012846BDE889
:1033C000F08D0220FFF75CFEFFF742FE0A46214621
:1033D00018B062F31E01BDE8F08D00223046614650
:1033E000FFF7BDFA80460E466FF00102FFF705FDBC
:1033F0004FF05532394BFFF7B5FA42463346FFF7E7
:10340000B4FA0022364BFFF7ADFA82464246334605
:10341000049110461946FFF7A8FA5246049BFFF79D
:10342000A4FA8A4600904FF0C0422E4B40463146E7
:10343000FFF79BFA2C4A2B4B00E027E0CDE9060171
:1034400051460098FFF791FA82460191274A284B8E
:1034500040463146FFF789FA5246019BFFF77FFA53
:1034600082460B4602460591DDE90601FFF7D6F9D3
:10347000DDE90623002688463046FFF770FA5246FB
:10348000059BFFF76FFA024600F07EB90020B1F508
:10349000801F07DA352230466146FFF7AEFC06464C
:1034A0006FF0340000EB215024E00000FFFF1F000C
:1034B000FFFF0F000000F03F0000F07F00004043DE
:1034C00001FCFFFF2E0900000000F0FF0000F0BF2C
:1034D0000000E0410000F043FFFFEF3F5555D53FAE
:1034E0000000E03F4715F73FFE822B6544DF5DF8A3
:1034F0000BAE543EA0F2FF300190C1F3130040F038
:103500007F6141F040510291FE498842D8BF0020BE
:1035100004DDFD498142C8BF012001DD0D9008E0B6
:1035200000200D900198401C01900298A0F5801099
:1035300002900299F54878440B910D9900EBC10077
:10354000D0E900230F9330460A920B99FFF707FA50
:10355000CDE90601DDE90A2130460F9BFFF75EF950
:1035600002460B460020EA49FFF771FA0591024630
:103570000B460090DDE90601FFF7F7F91490E548E6
:103580008A464FF0000878440299006812904FF084
:10359000005040EA61010D980F9B01EB804000F55F
:1035A000002109910A9A1298FFF7D9F932460B9B2C
:1035B000FFF7D8F942465346FFF7D7F9064602917E
:1035C00040465146099B129AFFF7CFF9DDE90623E1
:1035D000FFF7C8F93246029BFFF7C1F9059B009A35
:1035E000FFF7C3F90091149A049053461046194608
:1035F000FFF7BBF906460246C7480B460291062173
:103600007844FFF7B7FCCDE90510029B324610461F
:103610001946FFF7AAF9DDE90532FFF7A6F905918A
:103620000646534640461946149AFFF7F7F8009BA2
:10363000049AFFF79AF93246059BFFF7EFF8CDE9B8
:1036400005104246534610461946FFF78EF90022F0
:10365000B24B02910A90FFF7E1F8DDE90532FFF77E
:10366000DDF80E464246AD4B4046FFF778F9029B27
:103670000A9AFFF774F9DDE90532FFF773F942465C
:1036800002910A90334610465146FFF76EF9CDE994
:1036900006015346149A02990A98FFF766F98A467A
:1036A00002903346424600990498FFF75EF953466C
:1036B000029AFFF7B3F882460B4602460591DDE910
:1036C0000601FFF7ABF8DDE9062300208846064631
:1036D000FFF745F95246059BFFF744F982460991E9
:1036E0004FF060428E4B30464146FFF73EF9049062
:1036F00006918C4A8A4B50460999FFF736F9824663
:103700000291894A894B30464146FFF72EF95246CD
:10371000029BFFF783F8864B7B440D9A03EBC203B1
:10372000D3E90023FFF77AF80E9007910198FFF78D
:1037300002FA0591DDE9061382460E9A0498FFF716
:103740006DF87C4A7A440D9B02EBC303D3E9002356
:1037500000930292FFF762F85246059BFFF75EF86E
:103760000026884652463046059BFFF7F8F8009B36
:10377000029AFFF7F4F8069B049AFFF7F0F8079B0C
:103780000E9AFFF7EFF8024600200B4602903846EB
:103790002946FFF7EAF8824601912B46384619463A
:1037A000029AFFF7DCF832464346FFF7DEF852464E
:1037B000019BFFF733F807468A46324643462946BF
:1037C0000298FFF7D2F805460E463A465346FFF7F1
:1037D00025F8594A8846914221DBA8EB020353EAB7
:1037E000000210D12A463346FFF7B9F8CDE90401AB
:1037F000524A534B38465146FFF710F8DDE904238F
:10380000FFF712FB21D20220FFF73AFCFFF718FC6A
:103810000A46214618B062F31E01BDE8F08D494BFF
:1038200028F000429A4210D3474A08EB020353EAB9
:1038300000027FF4C6AD2A463346FFF790F83A46B9
:103840005346FFF7F1FA7FF6BCAD0022019228F053
:1038500000403E493E4A01EB2051824223DA481C97
:103860004FF4801121FA00F040443A4AC0F30A5163
:103870007A44394BA1F2FF31CB4020EA0303C0F375
:10388000130040F48010C1F11401C8401268019087
:10389000B8F1000FBCBF4042019028463146FFF707
:1038A0005EF805460E462A46334638465146FEF730
:1038B000B5FF4FF000084246284B40460591FFF700
:1038C00054F8CDE90601264A264B40460599FFF7F4
:1038D0004CF8009102902A46334640460599FFF77E
:1038E0003EF83A465346FFF73DF81F4A1F4BFFF795
:1038F0003CF8009B029AFEF791FF07468846024675
:103900000B4635E08E9803007AB60B007605000072
:103910000000F03FAE050000DC040000000008409D
:1039200009C7EE3FFD033ADCF5015B14E02F3EBE14
:10393000B40300007803000000009040FE822B6575
:103940004715973C00CC904000346F3F01FCFFFFCF
:103950000000E03FC4020000FFFF0F00432EE63FDF
:10396000396CA80C615C20BEEF39FAFE422EE63FAE
:10397000DDE90601FEF752FFDDE9062305460E46A6
:10398000FEF7EDFF3A464346FEF7ECFF0F462A46A8
:103990003346009010461946FEF7E7FF824602467E
:1039A0002E4888460B4605217844FFF7E3FA524635
:1039B0004346FEF7DAFF2A463346FEF7D3FF80463A
:1039C0008A463B4628463146009AFEF7CEFF3B46E4
:1039D000009AFEF723FF0691009000224FF08043EB
:1039E00040465146FEF7BBFF0F460C9042465346F9
:1039F00028463146FEF7B9FF3B460C9AFFF727F8F9
:103A0000069B009AFEF7ABFF2A463346FEF7A7FF58
:103A10000022134BFEF7A6FF054601980E4601EB68
:103A200000510815002810DC28463146019AFFF79E
:103A3000E4F9FFF78BFA042808BFFFF709FB2846D3
:103A40003146019AFFF7D9F905460B4618B02A46C8
:103A500058462146BDE8F04DFEF787BF64010000DF
:103A60000000F03F2DE9F04106460F46FFF706FA49
:103A7000041E0D4618BF0120284320F00040C0F16D
:103A80007F6000F1E040C00F0ED0301C18BF012055
:103A9000384320F00040C0F17F6000F1E040C00FEB
:103AA00004BF0120FFF7ECFA20462946BDE8F0816B
:103AB000000000000000F03F000000000000F83FA0
:103AC00000000000000000000000004003B8E23FDA
:103AD000000000000000000006D0CF43EBFD4C3E8C
:103AE000033333333333E33FFFAB6FDBB66DDB3F81
:103AF0004D268F515555D53F01411DA96074D13FC9
:103B000065DBC9934A86CD3FEF4E454A287ECA3FC2
:103B10003E5555555555C53F93BDBE166CC166BF44
:103B20002CDE25AF6A56113FF16BD2C541BDBBBE3D
:103B3000D0A4BE726937663E00000000000000009D
:103B40002F2A2A2A2A2A2A2A2A2A2A2A2A2A2A2AD0
:103B50002A2A2A2A2A2A2A2A2A2A2A2A2A2A2A2AC5
:103B60002A2A2A2A2A2A2A2A2F0A2F0909BBB6D347
:103B7000ADCAB9D3C32121212109092F0A2F09096F
:103B8000C7EBCAE4C8EBC3DCC2EB212109092F0A49
:103B90002F2A2A2A2A2A2A2A2A2A2A2A2A2A2A2A80
:103BA0002A2A2A2A2A2A2A2A2A2A2A2A2A2A2A2A75
:103BB0002A2A2A2A2A2A2A2A2F0A0000DC3B00085D
:103BC000000000206800000060300008443C00084D
:103BD00068000020000400007030000800A24A04C1
:103BE00000000000000000000102030406070809AD
:103BF0000000000001020304010203040607080993
:103C000002040608000000000000000000000000A0
:103C100000000000000000000000000000000000A4
:103C20000000000000000000000000000000000094
:103C30000100000001000000D007000000000000AB
:043C40000000000080
:0400000508000131BD
:00000001FF
