:020000040800F2
:1000000070040020450100087519000877190008E0
:100010007B1900087F190008831900080000000000
:100020000000000000000000000000008719000828
:1000300089190008000000008B1900088D190008BC
:100040005F0100085F0100085F0100085F01000810
:100050005F0100085F0100085F0100085F01000800
:100060005F0100085F0100085F0100085F010008F0
:100070005F0100085F0100085F0100085F010008E0
:100080005F0100085F0100085F0100085F010008D0
:100090005F0100085F0100085F0100085F010008C0
:1000A0005F0100085F0100085F0100085F010008B0
:1000B0005F010008B71900085F0100085F01000830
:1000C0005F0100085F0100085F0100085F01000890
:1000D0005F0100085F0100085F0100085F01000880
:1000E0005F0100085F0100085F0100085F01000870
:1000F0005F0100085F0100085F0100085F01000860
:100100005F0100085F0100085F0100085F0100084F
:100110005F0100085F0100085F0100085F0100083F
:100120005F0100085F0100085F0100085F0100082F
:10013000DFF80CD002F038FD004800473F190008F6
:10014000700400200648804706480047FEE7FEE7A7
:10015000FEE7FEE7FEE7FEE7FEE7FEE7FEE7FEE777
:1001600047020008310100080CB500200190009002
:100170006C48006840F480306A49086000BF6948F4
:10018000006800F4003000900198401C0190009835
:1001900018B90198B0F5A06FF1D16248006800F479
:1001A000003010B10120009001E000200090009884
:1001B000012843D15C48006840F010005A490860AB
:1001C0000846006820F0030008600846006840F018
:1001D0000200086053484068524948600846406839
:1001E00048600846406840F48060486008464068BF
:1001F00020F47C1048600846406840F4E8104860ED
:100200000846006840F08070086000BF45480068FC
:1002100000F000700028F9D04248406820F0030048
:10022000404948600846406840F00200486000BF0E
:100230003C48406800F00C000828F9D10CBD10B50E
:10024000FFF792FF10BD10B53648006840F001007E
:1002500034490860084640683449084031494860DC
:1002600008460068324908402E4908600846006880
:1002700020F4802008600846406820F4FE004860B2
:100280004FF41F008860FFF7DAFF4FF00060294944
:10029000086010BD10B5002100200022214B5B68D2
:1002A00003F00C0121B1042906D0082928D107E068
:1002B000214B224C236027E01F4B204C236023E07E
:1002C000184B5B6803F47010164B5B6803F48032C4
:1002D000022303EB904022B9194B4343174C236090
:1002E0000DE0104B5B6803F4003323B1144B434320
:1002F000124C236003E0104B4343104C236003E097
:100300000D4B0E4C236000BF00BF064B5B68C3F370
:1003100003130C4CE15C094B1B68CB40074C23607A
:1003200010BD000000100240002002400000FFF855
:10033000FFFFF6FE08ED00E000127A00000000204A
:1003400000093D000400002031490143314A116099
:10035000704770B5002100230F22C47804B32D4CE0
:10036000246804F4E064C4F5E064210AC1F10403E4
:10037000CA40447804FA03F1847814402143090107
:10038000254C0678A155047804F01F050124AC40E3
:1003900005786D11AD0005F1E025C5F8004109E0D3
:1003A000047804F01F050124AC401C4D067876113A
:1003B00045F8264070BD1A4A0A400243154B1B1FE0
:1003C0001A60704739B1134A121D12680243114B6B
:1003D0001B1D1A6006E00F4A121D126882430D4B66
:1003E0001B1D1A607047042808D14FF0E0210969ED
:1003F00041F004014FF0E022116107E04FF0E021ED
:10040000096921F004014FF0E022116170470000FA
:100410000000FA050CED00E000E400E080E100E0FF
:1004200080FFFF1F10B50446CC48844208D101214B
:10043000042000F02DFB0021042000F029FB46E001
:10044000C748844208D10121082000F021FB002187
:10045000082000F01DFB3AE0C248844208D1012187
:10046000102000F015FB0021102000F011FB2EE001
:10047000BD48844208D10121202000F009FB002161
:10048000202000F005FB22E0B848844208D1012179
:10049000402000F0FDFA0021402000F0F9FA16E0BB
:1004A000B348844208D10121802000F0F1FA0021F4
:1004B000802000F0EDFA0AE0AE48844207D1012125
:1004C000801500F0E5FA0021A01500F0E1FA10BD5A
:1004D00010B50121084600F0DBFA0021012000F0F0
:1004E000D7FA10BD2DE9F041024600250026002074
:1004F00000230024002791F803C00CF00F0591F8A9
:1005000003C00CF0100CBCF1000F03D091F802C036
:100510004CEA050591F800C0BCF1000F31D0146819
:1005200000202BE04FF0010C0CFA00F3B1F800C0F2
:100530000CEA03069E4220D183004FF00F0C0CFA08
:1005400003F7BC4305FA03FC4CEA040491F803C02A
:10055000BCF1280F06D14FF0010C0CFA00FCC2F8D8
:1005600014C00AE091F803C0BCF1480F05D14FF068
:10057000010C0CFA00FCC2F810C0401C0828D1D3B2
:100580001460B1F800C0BCF1FF0F34DD54680020E6
:100590002EE000F1080C4FF0010808FA0CF3B1F856
:1005A00000C00CEA03069E4221D183004FF00F0CDD
:1005B0000CFA03F7BC4305FA03FC4CEA040491F877
:1005C00003C0BCF1280F05D100F1080C08FA0CF8A3
:1005D000C2F8148091F803C0BCF1480F07D100F1B4
:1005E000080C4FF0010808FA0CF8C2F81080401C03
:1005F0000828CED35460BDE8F0814FF6FF7101802A
:10060000022181700421C170704702460020936866
:100610000B400BB1012000E00020704701468868C4
:1006200080B2704702460020D3680B400BB1012016
:1006300000E0002070470146C86880B27047016141
:100640007047416170470AB1016100E04161704744
:10065000C16070474FF480320A43826181618261D8
:1006600082698269704702460020434B18684FF642
:100670008073184040EA021008433F4B18607047EF
:100680003E49C8617047F0B50A46002300240021A6
:10069000002500F00046B6F1004F02D1364EF16958
:1006A00001E0354E7168C0F3034583B200F4401693
:1006B000B6F5401F08D121F070612F4E766826F004
:1006C00070662D4F7E6012E000F48016B6F5801F34
:1006D00006D1032606FA05F4A14341F0706106E055
:1006E000460D360103FA06F6B14341F0706122B1BE
:1006F000460D360103FA06F6314300F00046B6F126
:10070000004F02D11C4EF16101E01B4E7160F0BD43
:1007100030B500228B071C0F0F2303FA04F2164B8F
:1007200008338C1053F824309343134C08348D1045
:1007300044F8253023468C1053F824308C07240FBE
:1007400000FA04F423430C4C08348D1044F825308F
:1007500030BD0A49DC3108607047000000080140E4
:10076000000C01400010014000140140001801403D
:10077000001C014000200140000001400000204218
:10078000DF48006840F00100DD4908600846406825
:10079000DC490840DA49486008460068DA49084000
:1007A000D74908600846006820F4802008600846A1
:1007B000406820F4FE0048604FF41F0088607047D6
:1007C000CF49096821F48031CD4A1160114609688A
:1007D00021F480211160B0F5803F03D0B0F5802F67
:1007E0000ED106E0C649096841F48031C44A11605F
:1007F00007E0C349096841F4A021C14A116000E043
:1008000000BF00BF704710B5014600220023002042
:100810004A11012A02D1BA4C236806E0022A02D109
:10082000B74C236A01E0B64C636A01F01F02012451
:1008300094401C400CB1012000E0002010BD38B5F0
:10084000002000900024002500BF3120FFF7DBFFCF
:1008500005460098401C00900098B0F5A06F01D0AC
:10086000002DF2D03120FFF7CEFF08B1012400E0C7
:100870000024204638BD01460020A14A106820F01F
:10088000F80040EAC10010607047A0490860704756
:10089000024600209A4B586820F47C1042EA01037B
:1008A0001843974B5860704798490866704701464F
:1008B0000020934A506820F00300084350607047BE
:1008C0008F48406800F00C007047014600208C4AB9
:1008D000506820F0F0000843506070470146002047
:1008E000874A506820F4E060084350607047014632
:1008F0000020834A506820F4605040EAC1005060F4
:10090000704729B17E4A527A02437D4B5A7204E005
:100910007B4A527A82437A4B5A7270477B49D8316C
:100920000860704701460020754A506820F4404036
:100930000843506070470021714A20321170704A9C
:1009400082F82010012802D004280AD104E00121F5
:100950006B4A2032117005E00521694A203211707E
:1009600000E000BF00BF70476949086070476449F4
:10097000096A0143624A1162704765494439086057
:10098000704730B500210022002400235C4D6D68C3
:1009900005F00C0121B1042905D0082923D105E077
:1009A0005C4D056022E05B4D05601FE0544D6D68B5
:1009B00005F47012524D6D6805F48034022505EB84
:1009C00092421CB9544D554305600BE04C4D6D6887
:1009D00005F400351DB1504D5543056002E04D4D05
:1009E0005543056002E04B4D056000BF00BF444D1C
:1009F0006D6805F0F0010909484D6B5C0568DD4044
:100A000045603F4D6D6805F4E061090A434D6B5C3C
:100A10004568DD4085603A4D6D6805F46051C90A4E
:100A20003E4D6B5C4568DD40C560354D6D6805F435
:100A30004041890B3A4D6B5CC568B5FBF3F5056128
:100A400030BD29B12E4A526902432D4B5A6104E050
:100A50002B4A526982432A4B5A61704729B1284A6E
:100A600092690243264B9A6104E0254A92698243C7
:100A7000234B9A61704729B1214AD2690243204B26
:100A8000DA6104E01E4AD26982431D4BDA61704785
:100A900029B11B4AD2680243194BDA6004E0184AB4
:100AA000D2688243164BDA60704729B1144A126942
:100AB0000243134B1A6104E0114A12698243104B3E
:100AC0001A61704712494039086070470F49C8647D
:100AD00070470B49C87170470948406A40F0807000
:100AE00007494862704701460020054A92680A405B
:100AF0000AB1012000E00020704701498872704768
:100B0000001002400000FFF8FFFFF6FE0000424226
:100B10008004424200127A0000093D0014000020C7
:100B20002400002010B50446FE48844208D101216B
:100B3000C014FFF7ADFF0021E014FFF7A9FFC4E0E8
:100B4000B4F1804F08D101210846FFF7AEFF002124
:100B50000120FFF7AAFFB8E0F348844208D1012141
:100B60000220FFF7A2FF00210220FFF79EFFACE06A
:100B7000EE48844208D101210420FFF796FF0021AE
:100B80000420FFF792FFA0E0E948844208D1012148
:100B90000820FFF78AFF00210820FFF786FF94E076
:100BA000E448844208D101211020FFF77EFF002194
:100BB0001020FFF77AFF88E0DF48844208D1012146
:100BC0002020FFF772FF00212020FFF76EFF7CE05E
:100BD000DA48844208D101214014FFF759FF00216F
:100BE0006014FFF755FF70E0D548844209D1012118
:100BF000C804FFF74DFF00214FF40020FFF748FF26
:100C000063E0D048844209D101210805FFF740FF85
:100C100000214FF48010FFF73BFF56E0CA488442A2
:100C200009D101214805FFF733FF00214FF40010DF
:100C3000FFF72EFF49E0C548844208D1012140203A
:100C4000FFF733FF00214020FFF72FFF3DE0C048B2
:100C5000844208D101218020FFF727FF0021802056
:100C6000FFF723FF31E0BB48844208D10121801502
:100C7000FFF71BFF0021A015FFF717FF25E0B6487F
:100C8000844209D101210804FFF702FF00214FF43B
:100C90008030FFF7FDFE18E0B048844209D1012101
:100CA0004804FFF7F5FE00214FF40030FFF7F0FE97
:100CB0000BE0AB48844208D101218804FFF7E8FE2D
:100CC00000214FF48020FFF7E3FE10BD00220288D0
:100CD000944B98420ED0994B98420BD0B0F1804F74
:100CE00008D0914B984205D0904B984202D0904B3F
:100CF000984204D14FF68F731A404B881A438D4B9C
:100D0000984207D08C4B984204D04FF6FF431A40CC
:100D1000CB881A4302808B8883850B880385814B9F
:100D200098420BD0854B984208D08B4B984205D007
:100D30008A4B984202D08A4B984201D10B7A0386A3
:100D400001238382704770B5002400220023058CA4
:100D50004FF6FE7635400584028C8388048B4FF66F
:100D60008F752C40B51E2C400D882C43751E2A40D3
:100D70000D892A434D882A436A4DA8420BD06F4DF6
:100D8000A84208D0744DA84205D0744DA84202D0A4
:100D9000734DA84213D14FF6F7752A404D892A4367
:100DA0004FF6FB752A408D882A434FF6FF652B408E
:100DB0004FF6FF552B408D892B43CD892B438380E4
:100DC0000483CD888586028470BD70B5002400221E
:100DD0000023058C4FF6EF7635400584028C83881E
:100DE000048B48F6FF752C404FF6FF452C400D88CC
:100DF0004FF6FF7606EA05252C434FF6DF752A40AD
:100E00000D8906EA05152A434D8806EA05152A4389
:100E1000444DA84202D0494DA8421DD14FF67F75DE
:100E20002A404D894FF6FF7606EA05152A434FF60C
:100E3000BF752A408D8806EA05152A434FF6FF350F
:100E40002B404FF2FF752B408D8906EA85052B4319
:100E5000CD8906EA85052B4383800483CD880587E9
:100E6000028470BD70B5002400220023058C4FF66B
:100E7000FF6635400584028C8388848B4FF68F751E
:100E80002C404FF6FC752C400D882C434FF6FF5537
:100E90002A400D894FF6FF7606EA05252A434D883C
:100EA00006EA05252A431F4DA84202D0234DA84239
:100EB0001DD14FF2FF752A404D894FF6FF7606EAA5
:100EC00005252A434FF6FF352A408D8806EA052579
:100ED0002A434EF6FF752B404DF6FF752B408D894A
:100EE00006EA05152B43CD8906EA05152B438380B9
:100EF0008483CD888587028470BD70B5002200236D
:100F00000024058C4EF6FF7635400584038C8488DA
:100F1000828B48F6FF752A404FF6FF452A400D8820
:100F200020E00000002C01400004004000080040C8
:100F3000000C00400010004000140040003401404C
:100F4000004C014000500140005401400018004096
:100F5000001C0040002000400040014000440140CF
:100F6000004801404FF6FF7606EA05252A434DF674
:100F7000FF752B400D8906EA05352B434D8806EA9F
:100F800005352B43FA4DA84202D0FA4DA84208D1AC
:100F90004BF6FF752C408D894FF6FF7606EA8515D6
:100FA0002C4384808283CD88A0F84050038470BD98
:100FB000828B4FF2FF331A408283828B4FF6FF738E
:100FC00003EA01231A4382837047F0B50C461546A5
:100FD000002200210026078C4EF6FF7C07EA0C0752
:100FE0000784828B018C4FF6FF7707EA043640F6C0
:100FF000FF473A404FF6FF7707EA05273A434FF697
:10100000FF7707EA03373A43D94FB8420ED0D94F9A
:10101000B8420BD0B0F1804F08D0D74FB84205D0BE
:10102000D64FB84202D0D64FB84206D14DF6FF7720
:10103000394046F48057394305E047F6FF573940B9
:1010400044F48057394382830184F0BD828B4FF68C
:10105000F3731A408283828B0A4382837047F0B510
:101060000C461546002200210026078C4FF6FF6C27
:1010700007EA0C070784828B018C4FF6FF7707EA9B
:1010800004264FF60C773A404FF6FF7707EA03172E
:101090002F433A43B64FB8420ED0B64FB8420BD0AA
:1010A000B0F1804F08D0B44FB84205D0B34FB8422A
:1010B00002D0B34FB84206D14FF6FF57394046F43D
:1010C0008077394305E04FF2FF57394044F4807789
:1010D000394382830184F0BD028B4FF2FF331A4003
:1010E0000283028B4FF6FF7303EA01231A43028344
:1010F0007047F0B50C461546002200210026078CEB
:101100004FF6EF7C07EA0C070784028B018C4FF641
:10111000FF7707EA041640F6FF473A404FF6FF779D
:1011200007EA03373A434FF6FF7707EA05273A43C2
:101130008F4FB8420ED08F4FB8420BD0B0F1804FD6
:1011400008D08D4FB84205D08C4FB84202D08C4F9A
:10115000B84206D14FF6DF77394046F010073943E1
:1011600005E04FF65F77394044F0100739430283BA
:101170000184F0BD028B4FF6F3731A400283028B99
:101180000A4302837047F0B50C4615460022002141
:10119000068C4FF6FE773E400684028B018C4FF69C
:1011A0000C7632407E1C06EA03162E433243704E04
:1011B000B0420ED06F4EB0420BD0B0F1804F08D08D
:1011C0006D4EB04205D06D4EB04202D06C4EB04272
:1011D00006D14FF6FD76314044F00106314305E07B
:1011E0004FF6F576314044F0010631430283018425
:1011F000F0BD70B505460C465D4885420ED05D4891
:1012000085420BD0B5F1804F08D05B48854205D0B0
:101210005A48854202D05A48854200D100E000BFBA
:10122000208850B92389A28861882846FFF7ABFF40
:10123000E1882846FFF79EFF25E0208804280AD190
:101240002389A28861882846FFF753FFE188284652
:10125000FFF742FF17E0208808280AD12389A288D7
:1012600061882846FFF7FBFEE1882846FFF7EEFE7F
:1012700009E02389A28861882846FFF7A6FEE18855
:101280002846FFF795FE70BD2DE9F04105460C4656
:1012900000260127608808B9022600E00026A08801
:1012A000012801D1022700E001272088A0B9238965
:1012B000A28861882846FFF766FFE1882846FFF785
:1012C00059FF23893A4631462846FFF712FFE18845
:1012D0002846FFF701FF13E02389A288618828468A
:1012E000FFF707FFE1882846FFF7F6FE23893A4615
:1012F00031462846FFF747FFE1882846FFF73AFFC7
:10130000BDE8F0810A884B881A438B881A43CB8842
:101310001A430B891A434B891A438B891A43A0F845
:10132000442070474FF6FF71818000210180C18009
:101330004180017270470021018041808180C1801D
:10134000018141818181C1817047002101804180FB
:10135000012181800021C18001817047002101802D
:1013600041808180C180018141818181704700007D
:10137000002C0140003401400004004000080040FF
:10138000000C004021B1028842F00102028004E01A
:1013900002884FF6FE731A400280704731B1B0F8F0
:1013A000442042F40042A0F8442005E0B0F8442074
:1013B000C2F30E02A0F8442070471AB183890B4390
:1013C000838102E083898B438381704781827047E8
:1013D00041EA0203A0F8483070471AB183890B43F1
:1013E000838102E083898B438381704701894FF6B3
:1013F000F8721140018170470A46002101894FF6B9
:101400008F73194011430181704730B504460D4672
:1014100029462046FFF7F0FF208940F00700208191
:1014200030BD2DE9F04104460D4616461F46602D9D
:1014300006D13B46012231462046FFF75AFE05E021
:101440003B46012231462046FFF79DFE29462046B5
:10145000FFF7D2FF208940F007002081BDE8F0812E
:1014600030B50C4600210189C9B24FF6FF7505EA77
:101470000325154325432943018130BD2DE9F04162
:1014800005460E4617469846002443463A463146DE
:101490002846FFF7E5FF2C894FF6F870044044F02A
:1014A00007044FF68F70044044F070042C81BDE8AF
:1014B000F081F0B504460D4616461F463B463246BF
:1014C00029462046FFF7CCFF208940F48040208148
:1014D000F0BD0185828270470A46002101884FF6DF
:1014E0008F731940114301807047F0B50C461546C3
:1014F0001E460021002200230189028B038C4FF637
:10150000F877394021434FF6FC473A4040F2011743
:101510003A434FF6DD773B404FF6FF7707EA061771
:101520002F433B43018102830384F0BD0A4600211F
:10153000018B4FF68F7319401143018370470A46A0
:101540000021018B48F6FF7319404FF6FF7303EA41
:1015500002231943018370470A460021818B4FF60D
:101560008F7319401143818370470A460021818B94
:1015700048F6FF7319404FF6FF7303EA022319433D
:101580008183704721B1028842F08002028004E02A
:1015900002884FF67F731A400280704721B182881B
:1015A00042F00402828004E082884FF6FB731A4006
:1015B0008280704721B1828842F00802828004E074
:1015C00082884FF6F7731A408280704721B1828873
:1015D00042F00102828004E082884FF6FE731A40D6
:1015E000828070470A460021018B4FF6F77319403D
:1015F0001143018370470A460021018B4FF2FF73AC
:1016000019404FF6FF7303EA022319430183704721
:101610000A460021818B4FF6F773194011438183ED
:1016200070470A460021818B4FF2FF7319404FF635
:10163000FF7303EA02231943818370470A4600219E
:10164000018B4FF6FB7319401143018370470A4623
:101650000021018B4FF6FF3319404FF6FF7303EA69
:1016600002231943018370470A460021818B4FF6FC
:10167000FB7319401143818370470A460021818B17
:101680004FF6FF3319404FF6FF7303EA0223194365
:10169000818370470A460021018B4FF67F73194002
:1016A0001143018370470A460021018BC1F30E01EB
:1016B0004FF6FF7303EA02231943018370470A467A
:1016C0000021818B4FF67F7319401143818370474E
:1016D0000A460021818BC1F30E014FF6FF7303EA26
:1016E00002231943818370470A460021018C4FF67B
:1016F000FD7319401143018470470A460021018C93
:101700004FF6F77319401143018470470A460021D0
:10171000018C4FF6DF7319404FF6FF7303EA021393
:101720001943018470470A460021018C4FF67F73EC
:1017300019404FF6FF7303EA0213194301847047FF
:101740000A460021018C4FF6FF5319404FF6FF73F4
:1017500003EA02231943018470470A460021018CE1
:101760004FF2FF7319404FF6FF7303EA0223194348
:10177000018470470A460021018C4DF6FF73194021
:101780004FF6FF7303EA023319430184704730B503
:10179000002301248C40A3B2048C9C430484048C59
:1017A00002FA01F5ADB22C43048430BD30B50023FC
:1017B00004248C40A3B2048C9C430484048C02FA5D
:1017C00001F5ADB22C43048430BD70B50346002052
:1017D00000241846183001258D40ACB21D8CA5435D
:1017E0001D8409B1082909D100EB6100056825F0C5
:1017F000700505600568154305600EE00D1FC5F313
:101800004E052844056825F4E045056005684FF657
:10181000FF7606EA02263543056070BD21B10288D5
:1018200042F00202028004E002884FF6FD731A4083
:101830000280704721B1028842F00402028004E075
:1018400002884FF6FB731A400280704721B18288EC
:1018500042F08002828004E082884FF67F731A4053
:101860008280704702884FF6F7731A400280028820
:101870000A430280704782884FF68F731A40828035
:1018800082880A438280704702894FF6F8731A40B3
:10189000028102890A430281704702894FF67F73F1
:1018A0001A40028102890A4302817047818470478D
:1018B00081857047818670470187704781877047AF
:1018C000A0F84010704702884FF6FF431A4002808C
:1018D00002880A43028070470146888E704701469D
:1018E000088F70470146888F70470146B1F8400065
:1018F00070470146888C70470146088D7047024644
:101900000020138A0B400BB1012000E0002070473B
:10191000CA430282704730B50246002000230024EB
:10192000158A05EA0103958905EA010413B10CB192
:10193000012000E0002030BDCA430282704708B594
:101940004FF47A7000F0DCF800F076FE00F03EFC18
:1019500000F06BFD0020034602460521009000F0D8
:10196000D3FD00F09BF800F072F902E0322000F0A5
:10197000A8F8FBE7704700BFFEE700BFFEE700BF27
:10198000FEE700BFFEE770477047704710B512488A
:101990000068401C1049086010480088401C0F492E
:1019A000088008460088642804DD00F0B8FB0020A9
:1019B0000A49088010BD10B501210948FFF7ABFFA7
:1019C00040B108480068401C0649086001210448ED
:1019D000FFF7B2FF10BD00002800002034000020F7
:1019E0000004004040000020002100BF48E000BF8C
:1019F00000BF00BF00BF00BF00BF00BF00BF00BFEF
:101A000000BF00BF00BF00BF00BF00BF00BF00BFDE
:101A100000BF00BF00BF00BF00BF00BF00BF00BFCE
:101A200000BF00BF00BF00BF00BF00BF00BF00BFBE
:101A300000BF00BF00BF00BF00BF00BF00BF00BFAE
:101A400000BF00BF00BF00BF00BF00BF00BF00BF9E
:101A500000BF00BF00BF00BF00BF00BF00BF00BF8E
:101A600000BF00BF00BF00BF00BF00BF00BF00BF7E
:101A700000BF00BF00BF00BF00BF00BF00BF491CC8
:101A80008142B4D3704710B503464FF47A7003FB1C
:101A900000F42046FFF7A8FF10BD000008B50121A3
:101AA0000820FEF7DBFF10208DF803000220ADF8C0
:101AB000000003208DF8020069460F48FEF712FD72
:101AC00008BD10B504460D480068A04212D300209E
:101AD0000A49086002210848FEF7A4FD28B1002247
:101AE00002210548FEF7AFFD04E001220221024871
:101AF000FEF7A9FD10BD0000000C014028000020E9
:101B000070B5034615480068B0FBF3F1B1F1807F72
:101B100001D301201DE021F07F40401E4FF0E02264
:101B2000506150170F22002807DA1407260E0C4CBC
:101B300000F00F052D1F665503E01407250E094C14
:101B4000255400BF00204FF0E02290610720106173
:101B5000002008B100BFFEE770BD000000000020BB
:101B600018ED00E000E400E008B501210420FEF7D4
:101B700075FF10208DF803000820ADF80000032049
:101B80008DF802006946DD48FEF7ACFC0121042017
:101B9000FEF764FF0420ADF800006946D748FEF761
:101BA000A1FC01210420FEF759FF0220ADF800003E
:101BB0006946D248FEF796FC01210420FEF74EFF4D
:101BC0000120ADF800006946CC48FEF78BFC0821E7
:101BD000CA48FEF736FD0421C848FEF732FD02214F
:101BE000C648FEF72EFD0121C448FEF72AFD01215B
:101BF0000420FEF733FF28208DF803001020ADF8F5
:101C000000006946BD48FEF76DFC01210420FEF787
:101C100025FF2020ADF800006946B848FEF762FCB9
:101C200001210420FEF71AFF4020ADF800006946AC
:101C3000B248FEF757FC01210420FEF70FFF802079
:101C4000ADF800006946AD48FEF74CFC08BD10B584
:101C5000FFF78AFF10BD10B50821A848FEF7EFFC7A
:101C60000421A648FEF7EDFC0221A448FEF7E9FC9A
:101C70000121A248FEF7E5FC1021A048FEF7C5FCB3
:101C800058B10A20FFF7FFFE00BF10219B48FEF766
:101C9000BCFC0028F9D1012010BD20219748FEF797
:101CA000B4FC58B10A20FFF7EEFE00BF2021934894
:101CB000FEF7ABFC0028F9D10220EDE740218F4868
:101CC000FEF7A3FC58B10A20FFF7DDFE00BF40215C
:101CD0008A48FEF79AFC0028F9D10320DCE780212E
:101CE0008648FEF792FC58B10A20FFF7CCFE00BFF1
:101CF00080218248FEF789FC0028F9D10A20CBE731
:101D000008217E48FEF79DFC04217C48FEF797FCE5
:101D100002217A48FEF795FC01217848FEF791FCF4
:101D200010217648FEF771FC58B10A20FFF7ABFE90
:101D300000BF10217148FEF768FC0028F9D104208B
:101D4000AAE720216D48FEF760FC58B10A20FFF792
:101D50009AFE00BF20216948FEF757FC0028F9D100
:101D6000052099E740216548FEF74FFC58B10A204D
:101D7000FFF789FE00BF40216048FEF746FC0028BF
:101D8000F9D1062088E780215C48FEF73EFC58B177
:101D90000A20FFF778FE00BF80215848FEF735FC87
:101DA0000028F9D10B2077E708215448FEF749FCB9
:101DB00004215248FEF745FC02215048FEF73FFC43
:101DC00001214E48FEF73DFC10214C48FEF71DFC5A
:101DD00058B10A20FFF757FE00BF10214748FEF711
:101DE00014FC0028F9D1072056E720214348FEF7CC
:101DF0000CFC58B10A20FFF746FE00BF20213F48E7
:101E0000FEF703FC0028F9D1082045E740213B48B4
:101E1000FEF7FBFB58B10A20FFF735FE00BF40215B
:101E20003648FEF7F2FB0028F9D1092034E780217B
:101E30003248FEF7EAFB58B10A20FFF724FE00BF44
:101E400080212E48FEF7E1FB0028F9D10C2023E782
:101E500008212A48FEF7F5FB04212848FEF7F1FB8C
:101E600002212648FEF7EDFB01212448FEF7E7FB9F
:101E700010212248FEF7C9FB58B10A20FFF703FEE4
:101E800000BF10211D48FEF7C0FB0028F9D10F202C
:101E900002E720211948FEF7B8FB50B10A20FFF7EE
:101EA000F2FD00BF20211548FEF7AFFB0028F9D155
:101EB000F2E640211148FEF7A8FB58B10A20FFF7CF
:101EC000E2FD00BF40210D48FEF79FFB0028F9D13D
:101ED0000E20E1E680210948FEF797FB58B10A2061
:101EE000FFF7D1FD00BF80210448FEF78EFB0028DC
:101EF000F9D10D20D0E61420CEE600000008014004
:101F000010B50024FFF7A7FE0446204610BD2DE9BA
:101F1000F04F8FB04FF0000A0024A14601218B48FA
:101F2000FFF730FAA5E08A480068B0F5FA6F0AD9E1
:101F300000218648FFF726FA002085490860022024
:101F40000FB0BDE8F08FFFF786FE8146B9F1090FAB
:101F50002FDCC4F1050000F033FD02460B46CDE94D
:101F6000060100207B4900F021FFCDE90801484629
:101F700000F037FD0746DDE9082300F040FC054688
:101F80000E46504600F02DFD2A463346CDE90A01A3
:101F900000F08EFBCDE90C0100F030FD8246002000
:101FA0000346024605210090504600F0ADFA601C41
:101FB000C4B2B9F10A0F50D1002C4ED0C4F10600C2
:101FC00000F0FEFC05462A460B460020614900F061
:101FD000EDFECDE90601C4F1060000F0F1FC024679
:101FE0000B46CDE9000100205A4900F0DFFE07460C
:101FF0008846504600F0F5FC3A464346CDE90201DA
:1020000000F06FFC054600F0F9FC0A21B0FBF1F28C
:1020100001FB120B584600F0E4FCCDE90401DDE9B8
:10202000062300F0ECFBCDE90A01504600F0D9FC94
:10203000CDE90801DDE90A2300F0DBFBCDE90C0165
:1020400000F0DCFC82460020034602460521009099
:10205000504600F059FA601EC4B2B9F10E0F08D113
:1020600000213A48FFF78EF9002039490860022024
:1020700066E7B9F10F0F7FF456AF3748824508D1B4
:1020800000213248FFF77EF9002031490860012025
:1020900056E700212D48FFF775F900202C4908600C
:1020A00000BF4DE738B5002422E0FFF730FF0446BB
:1020B000012C09D100200346024605210090274843
:1020C00000F022FA012038BD3CB900200346024648
:1020D0000521009000F018FA0AE0022C08D1002037
:1020E000034602460521009000F00EFA0020EAE7C0
:1020F000002CDAD00020034602460521009000F0B3
:1021000003FA0020DFE710B5012140F6B83000F0F7
:10211000A6FA00214FF4FA7000F0A1FA10BD08B53C
:10212000FFF7EEFE0D2810D1FFF7BCFF01280CD100
:10213000FFF7E9FF4FF49670FFF7A5FC0020034678
:1021400002460521009000F0DFF908BD00040040C0
:102150004000002000002440BA3E030038900D00EB
:1021600008B54FF4C060FEF7EFF81D208DF80000B1
:1021700001208DF8010002208DF8020001208DF869
:1021800003006846FEF7E5F808BD0EB50121022000
:10219000FEF771FC42F20F70ADF804004720ADF875
:1021A00000000020ADF80600ADF802008DF8080030
:1021B00069460948FEF78AFD012211460648FFF7E5
:1021C000FCF801210448FFF7A3FB0EBD10B5FFF793
:1021D000C7FFFFF7DAFF10BD00040040002148E010
:1021E00000BF00BF00BF00BF00BF00BF00BF00BFF7
:1021F00000BF00BF00BF00BF00BF00BF00BF00BFE7
:1022000000BF00BF00BF00BF00BF00BF00BF00BFD6
:1022100000BF00BF00BF00BF00BF00BF00BF00BFC6
:1022200000BF00BF00BF00BF00BF00BF00BF00BFB6
:1022300000BF00BF00BF00BF00BF00BF00BF00BFA6
:1022400000BF00BF00BF00BF00BF00BF00BF00BF96
:1022500000BF00BF00BF00BF00BF00BF00BF00BF86
:1022600000BF00BF00BF00BF00BF00BF00BF00BF76
:10227000491C8142B4DB704710B50346002404E0DA
:102280004FF47A70FFF7AAFF641C9C42F8DB10BD84
:1022900008B501210820FEF7E1FB10208DF80300AE
:1022A0004002ADF8000003208DF802006946DE48C8
:1022B000FEF718F901210820FEF7D0FB4FF480400B
:1022C000ADF800006946D848FEF70CF90121082056
:1022D000FEF7C4FB4FF40040ADF800006946D24859
:1022E000FEF700F94FF40041CF48FEF7A8F94FF48C
:1022F0008041CD48FEF7A3F94FF40051CA48FEF7DC
:102300009EF908BD70B504460D46002623E04FF443
:102310008041C548FEF795F91420FFF75FFF04F0F0
:10232000800028B14FF40051BF48FEF788F904E05F
:102330004FF40051BC48FEF784F94FF48041BA488D
:10234000FEF77DF91420FFF749FF6006040E142004
:10235000FFF744FF761CAE42D9DB1420FFF73EFFA7
:1023600070BD10B504464FF40041AF48FEF769F95F
:1023700004218020FFF7C6FF08212046FFF7C2FF97
:102380004FF40041A848FEF75AF910BD70B5054654
:102390000C46A806050E4FF40041A348FEF751F97C
:1023A0000321A020FFF7AEFF06212846FFF7AAFF72
:1023B00008212046FFF7A6FF4FF400419A48FEF798
:1023C0003EF970BD70B504460026002507E00021E7
:1023D0003046FFF7DBFFB01CC6B2681CC5B2A54291
:1023E000F5DB70BD70B504460026002507E0FF212F
:1023F0003046FFF7CBFFB01CC6B2681CC5B2A54281
:10240000F5DB70BD2DE9F04104460F46002500269E
:1024100007E039462846FFF7B9FFA81CC5B2701C73
:10242000C6B2A642F5DBBDE8F08110B5FFF730FF7C
:102430000220FFF796FF3020FFF793FF5220FFF7AF
:1024400090FF0620FFF78DFF10BD10B50420FFF7A9
:1024500088FF10BD10B50620FFF783FF10BD10B533
:1024600001210220FFF792FF4FF4AF70FFF704FF46
:1024700002210846FFF78AFF4FF4AF70FFF7FCFE1A
:1024800004210220FFF782FF4FF4AF70FFF7F4FE44
:1024900008210220FFF77AFF4FF4AF70FFF7ECFE40
:1024A00010210220FFF772FF4FF4AF70FFF7E4FE38
:1024B00020210220FFF76AFF4FF4AF70FFF7DCFE28
:1024C00040210220FFF762FF4FF4AF70FFF7D4FE08
:1024D00080210220FFF75AFF4FF4AF70FFF7CCFEC8
:1024E00010BD10B50620FFF76DFF002409E061065E
:1024F000080EFF21FFF74AFF3220FFF7BDFE601CE8
:10250000C4B2062CF3DB10BD2DE9F04704460E469D
:1025100017469846DDF82090444894FBF0F0444973
:10252000085C4449487142F2107094FBF0F00A21B3
:1025300090FBF1F201FB12003D49085C3D49087136
:102540004FF47A7094FBF0F00A2190FBF1F201FB5A
:1025500012003749085C3749C870642094FBF0F0DA
:102560000A2190FBF1F201FB12003149085C31496C
:1025700088700A2094FBF0F00A2190FBF1F201FB35
:1025800012002B49085C2B4948700A2094FBF0F19B
:1025900000FB11402649085C26490870012E04D032
:1025A000022E09D0032E15D10DE02248007840F00C
:1025B0008000204908700EE01E48407840F08000FE
:1025C0001C49487007E01B48807840F0800019499A
:1025D000887000E000BF00BF012F05D11548C0780A
:1025E00040F080001349C870B8F1010F05D11148BF
:1025F000007940F080000F490871B9F1010F05D151
:102600000C48407940F080000A494871002507E0F5
:10261000084A515D6A06100EFFF7B8FE681CC5B285
:10262000062DF5DBBDE8F087000C0140A086010017
:102630004A0000204400002008B501210820FEF7D0
:102640000DFA10208DF80300C001ADF80000032042
:102650008DF8020069461548FDF744FF08BD70B5C6
:1026600004460D4600261CE04FF400610F48FDF7BC
:10267000D9FF30B100224FF400610C48FDF7E3FFB1
:1026800004E00122D1020948FDF7DDFF012D04D14C
:102690004FF47A70FFF7A8F903E04FF4FA60FFF700
:1026A000A3F93046761CA042DED970BD000C014073
:1026B0002DE9FE4F804681EA0300C00F0C460090D2
:1026C00021F0004123F00045B8EB0200A94105D2FA
:1026D0004046214690461C460B46024623F00040E9
:1026E000104347D0270DC7F30A00C3F30A510290E5
:1026F000401A019040286BDAC3F3130040F4801BAA
:102700000098924620B10023D2EB030A63EB0B0B37
:1027100001985946C0F14002504600F088F906463B
:102720000D4650465946019A00F0A0F910EB0800FA
:102730006141002487EA115284EAE7731A4340D0CA
:10274000009A62B3019A012A4FEA075215DC001B76
:1027500061EB02014FF0004202EA0752CDE900426C
:10276000001C41F5801132462B4600F0A0F903B061
:10277000BDE8F08F40462146F9E7001B61EB0201FE
:10278000001C41F5801300185B412018A2F50017CA
:1027900047EB030140EAD570B6196D4111E06D08B1
:1027A0004FEA360645EAC0754FEA0752001B61EB57
:1027B0000201001C41F5801149084FEA3000001960
:1027C000514132462B4603B0BDE8F04F00F060B9EE
:1027D0000098012240000023D0EB020263EBE0737B
:1027E000009821464FEAE074B8EB000061EB040169
:1027F000E9E783F000435BE781F0004158E72DE90A
:10280000FE4F81EA030404F0004421F000410094EB
:102810004FF0000B23F0004350EA01045ED052EA6F
:1028200003045BD0C3F30A54C1F30A552C44A4F249
:10283000F3340194A0FB0254C1F3130141F480115D
:10284000C3F3130343F4801301FB024400FB034E64
:10285000840A970A44EA815447EA8357A4FB07682D
:1028600002958D0A05FB07854FEA932C04FB0C5457
:102870002705029D4FEA065847EA1637B5EB0805CB
:102880006EEB070C870E920E47EA811742EA83121D
:10289000A7FB0201B6EB0B0164EB00042B0D43EA2E
:1028A0000C335E1844EB1C50DA465146E7FB02013C
:1028B000C5F313044FEA0B3343EA14534FEA0432CF
:1028C000019C43EA0603A4F10C040294009CCDE9A8
:1028D00000B400F0ECF803B0BDE8F08F0020014632
:1028E000F9E72DE9F04D81EA030404F0004B21F0F3
:1028F000004514464FF0000A23F0004150EA05025B
:1029000020D054EA01021DD0C5F30A570246C5F390
:102910001303C1F31300C1F30A5640F4801543F4C6
:102920008013A7EB0608101BD64608F2FD3873EBA0
:10293000050002D308F1010801E092185B41B8F1EB
:10294000000F03DA00200146BDE8F08D00204FF4AF
:102950008011064684460EE0171B73EB050705D36E
:10296000121B63EB050306434CEA010C49084FEACE
:10297000300092185B4150EA0107EDD152EA0300A2
:1029800012D082EA040083EA0501084305D0101B37
:10299000AB4106D20122002306E000224FF00043A3
:1029A00002E06FF0010253101AEB06004CEB0851E5
:1029B00010EB0A0041EB0B01BDE8F04D00F068B8E8
:1029C0000EB5C10F80EAE0700844CA07002140F24A
:1029D00033438DE80E000A460B4600F068F803B05A
:1029E00000BD0EB540F2334102910021CDE9001146
:1029F0000A460B4600F05BF803B000BDC1F30A5273
:102A000010B5C1F3130140F2FF3341F480119A4233
:102A100001DA002010BD40F233439A42A2F2334261
:102A200003DC524200F012F810BD904010BD202A85
:102A300004DB203A00FA02F1002070479140C2F115
:102A4000200320FA03F3194390407047202A04DB47
:102A5000203A21FA02F00021704721FA02F3D04017
:102A6000C2F120029140084319467047202A06DB34
:102A7000CB17203A41FA02F043EAE07306E041FA4C
:102A800002F3D040C2F1200291400843194670473A
:102A900010B5141E73F1000408DA401C41F1000166
:102AA00092185B411A4301D120F0010010BD2DE9BD
:102AB000F04D92469B4611B1B1FA81F202E0B0FAB4
:102AC00080F220329046FFF7B2FF04460F4640EAFC
:102AD0000A0041EA0B0153465A46084313D01146F7
:102AE00053EA010019D0C8F140025046FFF7AEFF8B
:102AF00005460E46504659464246FFF798FF0843A2
:102B000005D0012004E020463946BDE8F08D0020C4
:102B1000054346EAE0762C4337430A986305E40A06
:102B2000A0EB08000022FD0A44EA47540A3002D50F
:102B300000200146E9E7010510196941DDE9084572
:102B400000196941BDE8F04DA2E770B521F00043DE
:102B500003430CD0C1F30A550024D5EB040564EB04
:102B60000403D617AD1AB34102DB0020014670BD45
:102B7000201841EB025170BD30B5041E71F1000404
:102B800004DB4FF00044404264EB0101141E73F17A
:102B9000000405DB1C464FF00043524263EB040384
:102BA000994208BF904230BD064C074D06E0E068F0
:102BB00040F0010394E8070098471034AC42F6D384
:102BC000FDF7BAFA60380008803800082DE9F04DAA
:102BD00000231A461B1A8A4103DB00200146BDE888
:102BE000F08DC1F30A52C1F3130141F480154FF087
:102BF000000BD10702D100186D41521E0027044678
:102C000040F2FF11384601EB620A3E46804602461A
:102C100000204FF48011FFF719FFC2197141BB1852
:102C200046EB0100B4EB030C75EB000C04D3E41A83
:102C300065EB000517460E46241908F101006D41A9
:102C400080463428E3DDF91946EB0600091BA8414C
:102C500003D24FF0FF32134601E0002213461BEB74
:102C6000070046EB0A51BDE8F04DFFF711BF4900E0
:102C700050EAC12018BF04204A0D18BF40F00100DF
:102C800040F2FF72B2EB515F08BF40F00200012832
:102C900008BF052070472DE9F0414F1E00EBC7012A
:102CA0000446D1E9000115461E4637F006020DD054
:102CB0002A463346FFF7A3FD7F1E04EBC703D3E983
:102CC0000023FFF7F5FC37F00602F1D1022F25D0E3
:102CD000042F13D0062F18BFBDE8F0812A463346D3
:102CE000FFF78DFDD4E90A23FFF7E2FC2A463346BD
:102CF000FFF785FDD4E90823FFF7DAFC2A463346BF
:102D0000FFF77DFDD4E90623FFF7D2FC2A463346C0
:102D1000FFF775FDD4E90423FFF7CAFC2A463346C2
:102D2000FFF76DFDD4E90223FFF7C2FC2A463346C4
:102D3000FFF765FDD4E90023BDE8F041FFF7B8BC1B
:102D40000022134610460149FFF7CBBD0000F03FBB
:102D5000FFF7AEBC0022134610461146FFF7C1BD77
:102D600040F2013200204FF0E041FFF7EEBE0000DC
:102D7000024A00201107FFF7E8BE000001FDFFFF37
:102D800002E008C8121F08C1002AFAD17047704734
:102D9000002001E001C1121F002AFBD17047000092
:102DA0000149086070470000680000202DE9F04DDF
:102DB0001D460C4698B0174621F0004123F0004311
:102DC000002814BF4FF0010C4FF0000C0CEB440C2A
:102DD000FE4A0CEB02064FEA620C66452BD33E001E
:102DE00018BF012606EB45061644F94A964222D33F
:102DF000F84A53EA070C02D0944205D148B918B0FA
:102E000000201146BDE8F08D002808BF4FF0000CEF
:102E100001D04FF0010C0CEB440212F5001F0AD850
:102E2000002F14BF4FF0010C4FF0000C0CEB4502CB
:102E300012F5001F07D918B03A462B462146BDE8C7
:102E4000F04DFFF785BF0022DFF88CA3002CB8BF40
:102E5000534526DADFF884C36345A8BF022220DA8F
:102E6000DFF870C39C451CDCDFF874C30CEB235CFB
:102E7000BCF1140F08DDCCF1340627FA06FC0CFA7D
:102E800006F6BE420DD108E05FB9CCF1140623FA74
:102E900006FC0CFA06F69E4203D10CF00102C2F1C8
:102EA000020251EA000C19D1002D17DA002C18BFCC
:102EB000022A01D0012A07D00220FFF771FF18B0C3
:102EC000BDE8F04DFFF73CBF0220FFF769FFFFF7B9
:102ED00037FF18B081F00041BDE8F08DB7F1000C6C
:102EE0006CD1534525D104F1804212F5801201BF07
:102EF00000280020B74918B008BFBDE8F08DB548DC
:102F0000884207DC002DA1BF6046294618B0BDE805
:102F1000F08D07E0281E05DA80F0004118B0604609
:102F2000BDE8F08DAF497944D1E9000118B0BDE8A2
:102F3000F08DDFF8A0C2634525D1002D1FDA19B14D
:102F4000514512D1D8B909E0002840F0EC82A24ADC
:102F5000214618B062F31E01BDE8F08D0020214625
:102F600018B060F31E01BDE8F08D08DA18B02346F2
:102F7000BDE8F04D024600206146FFF7B2BC18B034
:102F80002146BDE8F08D514518DAB5F1804F0DD0DE
:102F9000A5F1005CBCF1FF5C10D1B4F1000C0DDBBD
:102FA00018B06146BDE8F04D00F0ECBB234618B008
:102FB0000246BDE8F04D1946FFF721BC060024F09B
:102FC000004C3BD1D9B1514533D1002C06DD002D49
:102FD000A1BF0020514618B0BDE8F08D002C01DDE6
:102FE000002D1BDB002C13DA002D11DB012A4FF022
:102FF000000014BF78497C4918B0BDE8F08D022A62
:1030000018BF002C0AD0012A08D1002C06DA0AE0E9
:10301000002CB8BF002D11DA012A04D0002018B00E
:103020000146BDE8F08D18B000204FF00041BDE82A
:10303000F08DA1F14050B0F17F601AD0012000EB7B
:10304000E47050EA020421D0624C521E4FF0000B93
:10305000104304BF4FF0000B644C654883427CDD95
:10306000644A654893421FDD884217DB002D25DB4B
:1030700037E0002C00DA4AB1022A0CBF01204FF0E1
:10308000FF3018B0BDE8F04DFFF79ABC0120FFF704
:1030900087FE18B0BDE8F04DFFF75CBE4D4A8A428E
:1030A00002DC002D0ADC1CE0814202DA002D18DA75
:1030B00004E0484B994220DD002D12DD0220FFF78D
:1030C0006FFEFFF74DFE05460E460022534658465A
:1030D0002146FFF794FB18B066F31E012846BDE8B1
:1030E000F08D0220FFF75CFEFFF742FE0A46214604
:1030F00018B062F31E01BDE8F08D00223046614633
:10310000FFF777FB80460E466FF00102FFF71DFDCB
:103110004FF05532394BFFF76FFB42463346FFF70E
:103120006EFB0022364BFFF767FB82464246334672
:10313000049110461946FFF762FB5246049BFFF7C5
:103140005EFB8A4600904FF0C0422E4B404631460F
:10315000FFF755FB2C4A2B4B00E027E0CDE9060199
:1031600051460098FFF74BFB82460191274A284BB6
:1031700040463146FFF743FB5246019BFFF739FBC0
:1031800082460B4602460591DDE90601FFF790FAFB
:10319000DDE90623002688463046FFF72AFB524623
:1031A000059BFFF729FB024600F07EB90020B1F530
:1031B000801F07DA352230466146FFF7C6FC064617
:1031C0006FF0340000EB215024E00000FFFF1F00EF
:1031D000FFFF0F000000F03F0000F07F00004043C1
:1031E00001FCFFFF2E0900000000F0FF0000F0BF0F
:1031F0000000E0410000F043FFFFEF3F5555D53F91
:103200000000E03F4715F73FFE822B6544DF5DF885
:103210000BAE543EA0F2FF300190C1F3130040F01A
:103220007F6141F040510291FE498842D8BF0020A1
:1032300004DDFD498142C8BF012001DD0D9008E099
:1032400000200D900198401C01900298A0F580107C
:1032500002900299F54878440B910D9900EBC1005A
:10326000D0E900230F9330460A920B99FFF7C1FA79
:10327000CDE90601DDE90A2130460F9BFFF718FA78
:1032800002460B460020EA49FFF72BFB0591024658
:103290000B460090DDE90601FFF7B1FA1490E5480E
:1032A0008A464FF0000878440299006812904FF067
:1032B000005040EA61010D980F9B01EB804000F542
:1032C000002109910A9A1298FFF793FA32460B9B54
:1032D000FFF792FA42465346FFF791FA06460291EB
:1032E00040465146099B129AFFF789FADDE9062309
:1032F000FFF782FA3246029BFFF77BFA059B009AA2
:10330000FFF77DFA0091149A04905346104619462F
:10331000FFF775FA06460246C7480B46029106219A
:103320007844FFF7B8FCCDE90510029B3246104601
:103330001946FFF764FADDE90532FFF760FA0591F7
:103340000646534640461946149AFFF7B1F9009BCA
:10335000049AFFF754FA3246059BFFF7A9F9CDE925
:1033600005104246534610461946FFF748FA002218
:10337000B24B02910A90FFF79BF9DDE90532FFF7A6
:1033800097F90E464246AD4B4046FFF732FA029B94
:103390000A9AFFF72EFADDE90532FFF72DFA4246C9
:1033A00002910A90334610465146FFF728FACDE9BC
:1033B00006015346149A02990A98FFF720FA8A46A2
:1033C00002903346424600990498FFF718FA534694
:1033D000029AFFF76DF982460B4602460591DDE938
:1033E0000601FFF765F9DDE9062300208846064659
:1033F000FFF7FFF95246059BFFF7FEF98246099158
:103400004FF060428E4B30464146FFF7F8F904908A
:1034100006918C4A8A4B50460999FFF7F0F982468B
:103420000291894A894B30464146FFF7E8F95246F6
:10343000029BFFF73DF9864B7B440D9A03EBC203D9
:10344000D3E90023FFF734F90E9007910198FFF7B5
:10345000B7FA0591DDE9061382460E9A0498FFF744
:1034600027F97C4A7A440D9B02EBC303D3E900237E
:1034700000930292FFF71CF95246059BFFF718F9DB
:103480000026884652463046059BFFF7B2F9009B5E
:10349000029AFFF7AEF9069B049AFFF7AAF9079B79
:1034A0000E9AFFF7A9F9024600200B460290384613
:1034B0002946FFF7A4F9824601912B463846194662
:1034C000029AFFF796F932464346FFF798F95246BB
:1034D000019BFFF7EDF807468A46324643462946E8
:1034E0000298FFF78CF905460E463A465346FFF719
:1034F000DFF8594A8846914221DBA8EB020353EAE0
:10350000000210D12A463346FFF773F9CDE90401D2
:10351000524A534B38465146FFF7CAF8DDE90423B7
:10352000FFF72AFB21D20220FFF73AFCFFF718FC35
:103530000A46214618B062F31E01BDE8F08D494BE2
:1035400028F000429A4210D3474A08EB020353EA9C
:1035500000027FF4C6AD2A463346FFF74AF93A46E1
:103560005346FFF709FB7FF6BCAD0022019228F01D
:1035700000403E493E4A01EB2051824223DA481C7A
:103580004FF4801121FA00F040443A4AC0F30A5146
:103590007A44394BA1F2FF31CB4020EA0303C0F358
:1035A000130040F48010C1F11401C840126801906A
:1035B000B8F1000FBCBF4042019028463146FFF7EA
:1035C00018F905460E462A46334638465146FFF757
:1035D0006FF84FF000084246284B40460591FFF730
:1035E0000EF9CDE90601264A264B40460599FFF71C
:1035F00006F9009102902A46334640460599FFF7A6
:10360000F8F83A465346FFF7F7F81F4A1F4BFFF703
:10361000F6F8009B029AFFF74BF8074688460246E9
:103620000B4635E08E9803007AB60B007605000055
:103630000000F03FAE050000DC0400000000084080
:1036400009C7EE3FFD033ADCF5015B14E02F3EBEF7
:10365000B40300007803000000009040FE822B6558
:103660004715973C00CC904000346F3F01FCFFFFB2
:103670000000E03FC4020000FFFF0F00432EE63FC2
:10368000396CA80C615C20BEEF39FAFE422EE63F91
:10369000DDE90601FFF70CF8DDE9062305460E46D5
:1036A000FFF7A7F83A464346FFF7A6F80F462A4623
:1036B0003346009010461946FFF7A1F882460246AD
:1036C0002E4888460B4605217844FFF7E4FA524617
:1036D0004346FFF794F82A463346FFF78DF88046B5
:1036E0008A463B4628463146009AFFF788F83B4613
:1036F000009AFEF7DDFF0691009000224FF0804314
:1037000040465146FFF775F80F460C904246534627
:1037100028463146FFF773F83B460C9AFFF7E1F86D
:10372000069B009AFFF765F82A463346FFF761F8D3
:103730000022134BFFF760F8054601980E4601EB97
:1037400000510815002810DC28463146019AFFF781
:10375000FCF9FFF78CFA042808BFFFF709FB28469D
:103760003146019AFFF7F1F905460B4618B02A4693
:1037700058462146BDE8F04DFFF741B8640100000E
:103780000000F03F2DE9F04106460F46FFF71EFA14
:10379000041E0D4618BF0120284320F00040C0F150
:1037A0007F6000F1E040C00F0ED0301C18BF012038
:1037B000384320F00040C0F17F6000F1E040C00FCE
:1037C00004BF0120FFF7ECFA20462946BDE8F0814E
:1037D000000000000000F03F000000000000F83F83
:1037E00000000000000000000000004003B8E23FBD
:1037F000000000000000000006D0CF43EBFD4C3E6F
:10380000033333333333E33FFFAB6FDBB66DDB3F63
:103810004D268F515555D53F01411DA96074D13FAB
:1038200065DBC9934A86CD3FEF4E454A287ECA3FA5
:103830003E5555555555C53F93BDBE166CC166BF27
:103840002CDE25AF6A56113FF16BD2C541BDBBBE20
:10385000D0A4BE726937663E000000000000000080
:1038600080380008000000206C000000802D000857
:10387000EC3800086C00002004040000902D0008C3
:1038800000A24A040000000000000000010203043E
:1038900006070809000000000102030401020304F6
:1038A00006070809020406080000000000000000E6
:1038B0000000000000000000000000000000000008
:1038C000000000000000000000007D603E7A635BA5
:1038D0005F707F7B774F1D0E6E1F1767470D467514
:0C38E00037060F6D020000000000000021
:0400000508000131BD
:00000001FF
