:020000040800F2
:1000000040040020010100083510000837100008E6
:100010003B1000083F1000084310000800000000DB
:100020000000000000000000000000004710000871
:1000300049100008000000004B1000084D10000897
:100040001B0100081B0100081B0100081B01000820
:100050001B0100081B0100081B0100081B01000810
:100060001B0100081B0100081B0100081B01000800
:100070001B0100081B0100081B0100081B010008F0
:100080001B0100081B0100081B0100081B010008E0
:100090001B0100081B0100081B0100086510000877
:1000A0001B0100081B0100081B0100081B010008C0
:1000B0001B0100081B0100081B0100081B010008B0
:1000C0001B0100081B0100081B0100081B010008A0
:1000D0001B010008FF1000081B0100081B0100089D
:1000E0001B0100081B0100081B010008DFF80CD0F1
:1000F00001F0A4FC0048004705100008400400205F
:100100000648804706480047FEE7FEE7FEE7FEE7B1
:10011000FEE7FEE7FEE7FEE7FEE7FEE70302000874
:10012000ED0000080CB50020019000906C480068BC
:1001300040F480306A49086000BF6948006800F4F4
:10014000003000900198401C0190009818B9019867
:10015000B0F5A06FF1D16248006800F4003010B132
:100160000120009001E0002000900098012843D178
:100170005C48006840F010005A4908600846006872
:1001800020F0030008600846006840F002000860A4
:1001900053484068524948600846406848600846ED
:1001A000406840F4806048600846406820F47C1055
:1001B00048600846406840F4E81048600846006817
:1001C00040F08070086000BF4548006800F0007093
:1001D0000028F9D04248406820F0030040494860B8
:1001E0000846406840F00200486000BF3C48406854
:1001F00000F00C000828F9D10CBD10B5FFF792FFF4
:1002000010BD10B53648006840F001003449086060
:10021000084640683449084031494860084600684B
:10022000324908402E4908600846006820F48020C2
:1002300008600846406820F4FE0048604FF41F0044
:100240008860FFF7DAFF4FF000602949086010BDB1
:1002500010B5002100200022214B5B6803F00C0147
:1002600021B1042906D0082928D107E0214B224CCE
:10027000236027E01F4B204C236023E0184B5B6872
:1002800003F47010164B5B6803F48032022303EB17
:10029000904022B9194B4343174C23600DE0104B9B
:1002A0005B6803F4003323B1144B4343124C2360C7
:1002B00003E0104B4343104C236003E00D4B0E4C06
:1002C000236000BF00BF064B5B68C3F303130C4CF5
:1002D000E15C094B1B68CB40074C236010BD00005C
:1002E00000100240002002400000FFF8FFFFF6FE71
:1002F00008ED00E000127A000000002000093D0037
:100300000400002031490143314A1160704770B543
:10031000002100230F22C47804B32D4C246804F478
:10032000E064C4F5E064210AC1F10403CA404478E2
:1003300004FA03F18478144021430901254C06781E
:10034000A155047804F01F050124AC4005786D1117
:10035000AD0005F1E025C5F8004109E0047804F09E
:100360001F050124AC401C4D0678761145F8264047
:1003700070BD1A4A0A400243154B1B1F1A60704792
:1003800039B1134A121D12680243114B1B1D1A602A
:1003900006E00F4A121D126882430D4B1B1D1A60A6
:1003A0007047042808D14FF0E021096941F00401A9
:1003B0004FF0E022116107E04FF0E021096921F0E0
:1003C00004014FF0E0221161704700000000FA05BF
:1003D0000CED00E000E400E080E100E080FFFF1FA2
:1003E000002044490860091D0860091D0860091DB6
:1003F000086041483F4914310860704700213D4979
:100400008279002A3AD00A46126803689A430B465A
:100410001A600A1D126803689A430B1D1A6002795C
:1004200011440A6803681A430A60324A08321268A3
:1004300003689A432F4B08331A601A1D1268036829
:100440009A432C4B0C331A604279102A0ED11A1F92
:10045000126803681A43274B08331A601A1D126882
:1004600003681A43234B0C331A600DE0214942798B
:1004700011440A6803681A430A6005E002791144CE
:100480000A6803689A430A6070470021016001719D
:100490000C214171002181717047164910310968A2
:1004A0000143144A10321160704701460020114A7E
:1004B000143212680A400AB1012000E0002070479F
:1004C0000C49143108607047014600200022094B96
:1004D0001B6803EA0102074B14331B680B4013B17E
:1004E0000AB1012000E00020704702491431086081
:1004F0007047000000040140FFFF0F0010B50446E4
:10050000CC48844208D10121042000F02DFB0021B9
:10051000042000F029FB46E0C748844208D10121AD
:10052000082000F021FB0021082000F01DFB3AE02C
:10053000C248844208D10121102000F015FB00219F
:10054000102000F011FB2EE0BD48844208D10121AB
:10055000202000F009FB0021202000F005FB22E014
:10056000B848844208D10121402000F0FDFA002162
:10057000402000F0F9FA16E0B348844208D1012186
:10058000802000F0F1FA0021802000F0EDFA0AE06E
:10059000AE48844207D10121801500F0E5FA002120
:1005A000A01500F0E1FA10BD10B50121084600F0D9
:1005B000DBFA0021012000F0D7FA10BD2DE9F0414F
:1005C000024600250026002000230024002791F881
:1005D00003C00CF00F0591F803C00CF0100CBCF137
:1005E000000F03D091F802C04CEA050591F800C055
:1005F000BCF1000F31D0146800202BE04FF0010C4B
:100600000CFA00F3B1F800C00CEA03069E4220D1B8
:1006100083004FF00F0C0CFA03F7BC4305FA03FC00
:100620004CEA040491F803C0BCF1280F06D14FF046
:10063000010C0CFA00FCC2F814C00AE091F803C0E7
:10064000BCF1480F05D14FF0010C0CFA00FCC2F8C8
:1006500010C0401C0828D1D31460B1F800C0BCF110
:10066000FF0F34DD546800202EE000F1080C4FF03D
:10067000010808FA0CF3B1F800C00CEA03069E4228
:1006800021D183004FF00F0C0CFA03F7BC4305FA9D
:1006900003FC4CEA040491F803C0BCF1280F05D117
:1006A00000F1080C08FA0CF8C2F8148091F803C0A5
:1006B000BCF1480F07D100F1080C4FF0010808FA0F
:1006C0000CF8C2F81080401C0828CED35460BDE856
:1006D000F0814FF6FF710180022181700421C17009
:1006E00070470246002093680B400BB1012000E0E8
:1006F000002070470146886880B27047024600209B
:10070000D3680B400BB1012000E000207047014688
:10071000C86880B2704701617047416170470AB193
:10072000016100E041617047C16070474FF4803261
:100730000A438261816182618269826970470246EF
:100740000020434B18684FF68073184040EA0210AF
:1007500008433F4B186070473E49C8617047F0B589
:100760000A46002300240021002500F00046B6F1CF
:10077000004F02D1364EF16901E0354E7168C0F389
:10078000034583B200F44016B6F5401F08D121F0AE
:1007900070612F4E766826F070662D4F7E6012E0F5
:1007A00000F48016B6F5801F06D1032606FA05F47C
:1007B000A14341F0706106E0460D360103FA06F6EA
:1007C000B14341F0706122B1460D360103FA06F6DD
:1007D000314300F00046B6F1004F02D11C4EF161EA
:1007E00001E01B4E7160F0BD30B500228B071C0F7D
:1007F0000F2303FA04F2164B08338C1053F82430FD
:100800009343134C08348D1044F8253023468C1044
:1008100053F824308C07240F00FA04F423430C4CC3
:1008200008348D1044F8253030BD0A49DC310860A9
:100830007047000000080140000C0140001001401A
:100840000014014000180140001C0140002001403C
:100850000000014000002042DF48006840F0010035
:10086000DD49086008464068DC490840DA494860CC
:1008700008460068DA490840D74908600846006819
:1008800020F4802008600846406820F4FE0048609C
:100890004FF41F0088607047CF49096821F4803108
:1008A000CD4A11601146096821F480211160B0F52C
:1008B000803F03D0B0F5802F0ED106E0C64909680D
:1008C00041F48031C44A116007E0C349096841F42A
:1008D000A021C14A116000E000BF00BF704710B501
:1008E00001460022002300204A11012A02D1BA4CFD
:1008F000236806E0022A02D1B74C236A01E0B64C15
:10090000636A01F01F02012494401C400CB10120D5
:1009100000E0002010BD38B5002000900024002524
:1009200000BF3120FFF7DBFF05460098401C009018
:100930000098B0F5A06F01D0002DF2D03120FFF764
:10094000CEFF08B1012400E00024204638BD014656
:100950000020A14A106820F0F80040EAC1001060B1
:100960007047A04908607047024600209A4B5868BB
:1009700020F47C1042EA01031843974B58607047FB
:1009800098490866704701460020934A506820F055
:1009900003000843506070478F48406800F00C0027
:1009A0007047014600208C4A506820F0F000084350
:1009B0005060704701460020874A506820F4E0608C
:1009C00008435060704701460020834A506820F475
:1009D000605040EAC1005060704729B17E4A527AA7
:1009E00002437D4B5A7204E07B4A527A82437A4B2F
:1009F0005A7270477B49D831086070470146002021
:100A0000754A506820F44040084350607047002108
:100A1000714A20321170704A82F82010012802D0E9
:100A200004280AD104E001216B4A2032117005E04C
:100A30000521694A2032117000E000BF00BF7047F5
:100A40006949086070476449096A0143624A116252
:100A50007047654944390860704730B5002100226D
:100A6000002400235C4D6D6805F00C0121B10429C0
:100A700005D0082923D105E05C4D056022E05B4DDF
:100A800005601FE0544D6D6805F47012524D6D689D
:100A900005F48034022505EB92421CB9544D5543B0
:100AA00005600BE04C4D6D6805F400351DB1504DEF
:100AB0005543056002E04D4D5543056002E04B4D46
:100AC000056000BF00BF444D6D6805F0F0010909E5
:100AD000484D6B5C0568DD4045603F4D6D6805F431
:100AE000E061090A434D6B5C4568DD4085603A4D25
:100AF0006D6805F46051C90A3E4D6B5C4568DD4088
:100B0000C560354D6D6805F44041890B3A4D6B5C0D
:100B1000C568B5FBF3F5056130BD29B12E4A5269B0
:100B200002432D4B5A6104E02B4A526982432A4BFF
:100B30005A61704729B1284A92690243264B9A614B
:100B400004E0254A92698243234B9A61704729B198
:100B5000214AD2690243204BDA6104E01E4AD2697D
:100B600082431D4BDA61704729B11B4AD2680243A8
:100B7000194BDA6004E0184AD2688243164BDA60F7
:100B8000704729B1144A12690243134B1A6104E0F9
:100B9000114A12698243104B1A6170471249403959
:100BA000086070470F49C86470470B49C8717047A7
:100BB0000948406A40F08070074948627047014622
:100BC0000020054A92680A400AB1012000E0002096
:100BD0007047014988727047001002400000FFF81A
:100BE000FFFFF6FE000042428004424200127A00FB
:100BF00000093D00140000202400002010B5044628
:100C0000FB48844209D101218803FFF7ADFF002191
:100C10004FF48040FFF7A8FF32E0F648844209D144
:100C200001214804FFF7ADFF00214FF40030FFF72A
:100C3000A8FF25E0F048844209D101218804FFF78C
:100C4000A0FF00214FF48020FFF79BFF18E0EB4846
:100C5000844209D10121C804FFF793FF00214FF41A
:100C60000020FFF78EFF0BE0E548844208D1012108
:100C70000805FFF786FF00214FF48010FFF781FF82
:100C800010BD2DE9F04786B005460E460024A24669
:100C900000BFA1460027B08900B100BF2F462C8AB3
:100CA0004CF6FF700440F08804432C82AC894EF669
:100CB000F3100440B0883189084371890843044324
:100CC000AC81AC8A4FF6FF400440B0890443AC824B
:100CD00001A8FFF7C2FEC648874202D1DDF810A086
:100CE00001E0DDF80CA0A88900F4004040B10AEB57
:100CF000CA0000EB0A1031684900B0FBF1F807E0C8
:100D00000AEBCA0000EB0A1031688900B0FBF1F869
:100D10006420B8FBF0F004012009642101FB108974
:100D2000A88900F4004040B1322000EBC900B0FBBC
:100D3000F1F000F00700044308E0322000EB091056
:100D40006421B0FBF1F000F00F0004432C8106B0E9
:100D5000BDE8F0874FF41651016000218180C18009
:100D600001810C21418100218181704710B502462B
:100D70000020108A4FF2FF0318400B884C88234351
:100D80008C882343CC8823431843108210BD002154
:100D9000018041808180C180704721B1828942F405
:100DA0000052828104E082894DF6FF731A408281ED
:100DB0007047F0B50346002400260025002040F6C9
:100DC0006A17B94200D100BF1846C1F3421401F0BE
:100DD0001F06012707FA06F5012C01D10C3004E0AB
:100DE000022C01D1103000E014301AB107682F43F3
:100DF000076002E00768AF430760F0BD1AB1838A5D
:100E00000B43838202E0838A8B4383827047028A8A
:100E10004FF6F0731A400282028A0A430282704738
:100E200082894FF2FF731A40828182890A4382814C
:100E3000704721B1828942F00202828104E08289F6
:100E40004FF6FD731A4082817047028A4FF6DF73B6
:100E50001A400282028A0A430282704721B1028A42
:100E600042F48042028204E0028A4BF6FF731A4089
:100E700002827047C1F30802828070470146888869
:100E8000C0F308007047818941F0010181817047FA
:100E9000028BD2B20283028B42EA012202837047A4
:100EA000028B02F47F420283028B0A430283704763
:100EB00021B1828A42F02002828204E0828A4FF6C7
:100EC000DF731A408282704721B1828A42F0100299
:100ED000828204E0828A4FF6EF731A408282704762
:100EE00021B1828A42F00802828204E0828A4FF6AF
:100EF000F7731A408282704721B1828942F400421E
:100F0000828103E08289C2F30E028281704721B19F
:100F1000828A42F40062828204E0828A4FF2FF7386
:100F20001A4082827047828A4FF6FB731A4082828F
:100F3000828A0A438282704721B1828A42F0020289
:100F4000828204E0828A4FF6FD731A4082827047E3
:100F500002460020B1F5007F00D100BF13880B408E
:100F60000BB1012000E00020704701F40072B2F5DF
:100F7000007F00D100BFCA430280704770B50246AF
:100F8000002400230025002040F66A16B14200D15B
:100F900000BFC1F3421501F01F03012606FA03F357
:100FA000012D02D19689334006E0022D02D1168A26
:100FB000334001E0968A33400C12012606FA04F40D
:100FC0001688344013B10CB1012000E0002070BD40
:100FD00010B50022002340F66A14A14200D100BFE0
:100FE0000A1201249440A3B2DC43048010BD000027
:100FF000003801400044004000480040004C0040E0
:101000000050004000F0A8F900F092FA00F0E6FC71
:1010100000F000FA0AE001210548FFF77CFB002000
:1010200000F0A8FA012801D100F00BFAF3E7000064
:1010300000080140704700BFFEE700BFFEE700BFA9
:10104000FEE700BFFEE77047704770474FF0E020B3
:10105000006900F0010020B16B480068401C6A493B
:101060000860704710B54020FFF72EFA012810D114
:101070000221002000F002F900BF40216348FFF781
:1010800030FB0028F9D0962000F007FB4020FFF746
:101090002CFA8020FFF718FA01280FD1022100F066
:1010A000EDF800BF80215948FFF71BFB0028F9D05D
:1010B000962000F0F2FA8020FFF717FA4FF48070C4
:1010C000FFF702FA012819D151480078401C504915
:1010D000087008460078142801DB0020087000BF63
:1010E0004FF480714948FFF7FCFA0028F8D09620A9
:1010F00000F0D3FA4FF48070FFF7F7F910BD10B588
:1011000020214448FFF724FF01287BD14148FFF705
:10111000B5FEC4B2A4F130000A286AD2DFE800F0BC
:10112000050F19232E394551545A00F015F90221A3
:10113000002000F0A3F838A000F092FC59E000F085
:101140000BF90221012000F099F836A000F088FC8C
:101150004FE000F001F90221084600F08FF834A0BA
:1011600000F07EFC45E000F039FC4FF400712748A8
:10117000FFF7D1FA31A000F073FC3AE000F02EFC4A
:101180004FF400712148FFF7C8FA2FA000F068FC67
:101190002FE000F0E1F8012000F0A7FB012000F0B3
:1011A000CBFB2CA000F05CFC23E000F0D5F8002085
:1011B00000F09BFB002000F0BFFB29A000F050FCDA
:1011C00017E000F00BFB14E0012280211148FFF72B
:1011D00015FE0EE025A000F043FC0D4801780078D4
:1011E000401C0B4A1070142902DB002011460870C5
:1011F00000BF00BF20490A2000F02EFD2021054835
:10120000FFF7B3FE10BD000030000020000C0140CD
:101210002C00002000380140D7AABBBB4C4544300D
:1012200000000000D7AABBBB4C45443100000000C1
:10123000D7AABBBB4C45443200000000B4F2BFAAA1
:101240004245455000000000B9D8B1D5424545504F
:1012500000000000B0B4BCFCD6D0B6CF0000000047
:10126000B9D8B1D5D6D0B6CF49540000B5E7B6AF9E
:10127000BBFABCD3CBD900003C00002070B50446BB
:101280000D4625B1012D19D0022D63D12DE024B1D9
:10129000012C07D0022C0FD109E00121A248FFF751
:1012A0003AFA09E00221A048FFF735FA04E00421E8
:1012B0009D48FFF730FA00BF00BF4BE024B1012C7E
:1012C00007D0022C0FD109E001219748FFF725FA3A
:1012D00009E002219448FFF720FA04E00421924833
:1012E000FFF71BFA00BF00BF34E024B1012C11D07E
:1012F000022C2DD11DE001218B48FFF7FFF920B909
:1013000001218948FFF707FA03E001218648FFF72A
:1013100004FA1DE002218448FFF7F0F920B9022108
:101320008148FFF7F8F903E002217F48FFF7F5F95C
:101330000EE004217C48FFF7E1F920B904217A4846
:10134000FFF7E9F903E004217748FFF7E6F900BF6A
:1013500000BF00BF00BF70BD08B501210820FFF726
:10136000E9FB0120ADF8000010208DF803000320F8
:101370008DF8020069466C48FFF720F90021084605
:10138000FFF77CFF0220ADF8000069466648FFF7D2
:1013900015F900210120FFF771FF0420ADF80000CE
:1013A00069466148FFF70AF900210220FFF766FF4E
:1013B00008BD10B5002400BFE0B20121FFF75EFFB9
:1013C000642000F06AF9E0B20021FFF757FF6420C3
:1013D00000F063F9641C032CEED110BD10B50120A0
:1013E00000F0C8F8012802D10221FFF747FF0220D0
:1013F00000F0C0F8012803D102210846FFF73EFFA4
:10140000002000F0B7F8012803D102210020FFF7E7
:1014100035FF10BD08B501210420FFF78BFB10201C
:101420008DF803000120ADF8000003208DF80200C4
:1014300069463E48FFF7C2F801213C48FFF76DF9C5
:1014400008BD10B5002401210846FFF717FF4FF42F
:1014500000713548FFF75FF9502000F01EF94FF496
:1014600000713148FFF759F901213048FFF755F96C
:1014700000BF10E000210120FFF700FF4FF40770CC
:1014800000F00BF901210846FFF7F8FE4FF4077052
:1014900000F003F9641C322CECDB002430E04FF444
:1014A00000712148FFF737F901210020FFF7E6FE20
:1014B00001210846FFF7E2FE01210220FFF7DEFED0
:1014C00004EB84014900C1F1640000F0E6F84FF438
:1014D00000711548FFF721F900210846FFF7CEFEFD
:1014E00000210120FFF7CAFE00210220FFF7C6FEFF
:1014F00004EB84014900C1F1640000F0CEF8641CE3
:101500000B2CCCDB01210020FFF7B8FE012108469F
:10151000FFF7B4FE01210220FFF7B0FE01210348CE
:10152000FFF7F9F810BD0000000C01400008014071
:1015300008B501210820FFF7FDFA48208DF80300C7
:1015400003208DF802004FF48070ADF8000069466A
:101550002948FFF733F84020ADF8000069462648D7
:10156000FFF72CF88020ADF8000069462248FFF70D
:1015700025F808BD70B50446002524B1012C13D010
:10158000022C35D121E040211B48FFF7AAF850B9C1
:1015900000BF40211848FFF7A4F80028F9D04B20DD
:1015A00000F07BF8012523E080211348FFF799F82C
:1015B00050B900BF80211048FFF793F80028F9D0F8
:1015C0004B2000F06AF8012512E04FF480710A48C0
:1015D000FFF787F858B900BF4FF480710648FFF74E
:1015E00080F80028F8D04B2000F057F8012500BF04
:1015F00000BF284670BD0000000C0140002100BF64
:1016000048E000BF00BF00BF00BF00BF00BF00BF79
:1016100000BF00BF00BF00BF00BF00BF00BF00BFD2
:1016200000BF00BF00BF00BF00BF00BF00BF00BFC2
:1016300000BF00BF00BF00BF00BF00BF00BF00BFB2
:1016400000BF00BF00BF00BF00BF00BF00BF00BFA2
:1016500000BF00BF00BF00BF00BF00BF00BF00BF92
:1016600000BF00BF00BF00BF00BF00BF00BF00BF82
:1016700000BF00BF00BF00BF00BF00BF00BF00BF72
:1016800000BF00BF00BF00BF00BF00BF00BF00BF62
:1016900000BF491C8142B4D3704710B503464FF4D4
:1016A0007A7003FB00F42046FFF7A8FF10BD00008E
:1016B00008B54FF4A060FEF725FE25208DF8000048
:1016C00001208DF8010000208DF8020001208DF826
:1016D00003006846FEF71BFE08BD00B585B001217A
:1016E00044F20400FFF726FA18208DF813004FF497
:1016F0000070ADF8100003208DF8120004A95F48B7
:10170000FEF75CFF04208DF813000002ADF8100016
:1017100004A95A48FEF752FF4FF4165000900020DB
:10172000ADF80400ADF80600ADF80800ADF80C0007
:101730000C20ADF80A0069465148FFF7A2FAFFF7FE
:10174000B7FF012240F225514D48FFF732FB01213E
:101750004B48FFF722FB05B000BD10B504462146FB
:101760004748FFF787FB00BF80214548FFF7F0FBA4
:101770000028F9D010BD70B50446002500BF605D9B
:10178000FFF7EBFF6D1C0A20FFF787FF605D002865
:10179000F5D100BF40213A48FFF7DAFB0028F9D025
:1017A00070BD70B504460D46E1B23548FFF762FBE7
:1017B00000BF40213248FFF7CBFB0128F9D120467A
:1017C00070BD10B5044600BF20212D48FFF7C0FBB7
:1017D0000028F9D02A48FFF751FB10BD10B5294861
:1017E000FFF7C9FF10BD0EB5274800680A2844D18D
:1017F00000202549086025480078401C23490870CE
:10180000084600783C2815DB002008702048007846
:10181000401C1F490870084600783C280AD11D4822
:101820000078401C1B49087008460078182801D130
:101830000020087015480078144909780A2901DA4F
:1018400015A100E015A1124A1278CDE900210290FD
:101850000F4800780A2801DA0FA000E00FA0034625
:101860000C4800780A2801DA0BA000E00BA0014622
:10187000084802780AA000F0F3F80EBD0008014005
:10188000003801405C1C00083000002036000020B9
:101890003700002038000020300000000000000069
:1018A0000D0AB5B1C7B0CAB1BCE4A3BA25732564AB
:1018B0003A257325643A257325640D0A000000005B
:1018C00008B54FF4C060FEF71DFD17208DF800002D
:1018D00002208DF8010000208DF8020001208DF813
:1018E00003006846FEF713FD08BD3EB5044601211E
:1018F0000920FFF71FF9FFF7E3FF48208DF80B00E1
:101900004020ADF8080003208DF80A0002A93248F3
:10191000FEF754FE06210120FEF766FF40200090EE
:1019200000208DF804000C208DF805008DF806408D
:101930006846FEF763FD3EBD3EB504460121092021
:10194000FFF7F8F8FFF7BCFF48208DF80B00802068
:10195000ADF8080003208DF80A0002A91E48FEF722
:101960002DFE07210120FEF73FFF80200090002080
:101970008DF804000C208DF805008DF806406846AF
:10198000FEF73CFD3EBD3EB5044601210920FFF7B0
:10199000D1F8FFF795FF48208DF80B004FF48070C9
:1019A000ADF8080003208DF80A0002A90A48FEF7E6
:1019B00005FE08210120FEF717FF4FF4807000900C
:1019C00000208DF804000C208DF805008DF80640ED
:1019D0006846FEF713FD3EBD000C014008B501212D
:1019E0000820FFF7A7F810208DF803004001ADF89C
:1019F000000003208DF8020069460448FEF7DEFD72
:101A00004FF400710148FEF788FE08BD000C01404C
:101A100030B50B46014600202022012409E021FABE
:101A200002F59D4205D303FA02F5491B04FA02F5BB
:101A30002844151EA2F10102F1DC30BD064C074D11
:101A400006E0E06840F0010394E80700984710348E
:101A5000AC42F6D3FEF74EFB742000089420000839
:101A60000FB4054B10B503A9044A029800F018F80A
:101A700010BC5DF814FB0000A31700083C00002018
:101A800002E008C8121F08C1002AFAD17047704747
:101A9000002001E001C1121F002AFBD170470000A5
:101AA0002DE9FF4F8BB09A460F460546002606E00B
:101AB00025280BD052460D9990476D1C761C28782E
:101AC0000028F5D10FB03046BDE8F08F0024A046C5
:101AD0000122604900E0044315F8013F203B02FA6F
:101AE00003F00842F7D128782E2817D115F8010FF6
:101AF00044F004042A280ED06FF02F022878A0F1B9
:101B0000300109290AD808EB880102EB410100EBFA
:101B100001086D1CF2E757F8048B6D1C28786928C2
:101B20003ED006DC0028CDD063280BD0642804D139
:101B300036E0732810D075284BD052460D99904747
:101B4000761C85E017F8040B8DF8000000208DF856
:101B50000100E946012003E057F8049B4FF0FF30F5
:101B600061074FF0000401D40AE0641C44450DDA1B
:101B70008442FADB19F804100029F6D106E0641C4F
:101B80008442FCDB19F804100029F8D1264404E053
:101B900019F8010B52460D999047641EF8D257E090
:101BA00001CF4FF00A0B002802DA40422D2102E05B
:101BB000210504D52B218DF82410012103E0E10734
:101BC00005D02021F7E70DF1200908910CE0002154
:101BD000F9E701CF4FF00A0BF9E75946FFF718FF75
:101BE00001F1300209F8012D0028F6D1ADEB090012
:101BF00000F1200B600701D44FF00108D84502DD49
:101C0000A8EB0B0000E000208046002406E009A8B5
:101C10005246005D0D999047641C761C08988442DA
:101C2000F5DB04E0302052460D999047761CB8F160
:101C30000001A8F10108F5DC05E019F8010B524696
:101C40000D999047761CBBF10001ABF1010BF4DC60
:101C50006D1C34E709280100FFF7A3BD0909092F0E
:101C60002F2F2F2F2F2F2F2F2F2F2F2F2F2F2F2F84
:101C70002F2F2F2F2F2F2F2F2F2F2F2F2F2F2F2F74
:101C80002F2F2F2F2F2F2F2F2F2F2F2F2F2F2F2F64
:101C90002F2F2F2F2F0A0909092F2F202020202036
:101CA0002020202020202020202020202020202034
:101CB0002020202020202020202020202020202024
:101CC000202020202020202020202020202F2F0A0C
:101CD0000909092F2F20202020202020202020202B
:101CE000202020BBB6D3ADCAB9D3C3BFD8D6C6CF88
:101CF000B5CDB3202020202020202020202020200F
:101D0000202020202020202F2F0A0909092F2F20F2
:101D100020202020202020202020202020D7F7D580
:101D2000DFA3BAB3C2B3E52020202020202020204A
:101D300020202020202020202020202020202020A3
:101D4000202F2F0A0909092F2F20202020202020B2
:101D500020202020202020CAB1BCE4A3BA32303198
:101D600038C4EA36D4C22020202020202020202081
:101D700020202020202020202020202F2F0A090989
:101D8000092F2F202020202020202020202020204C
:101D90002020202020202020202020202020202043
:101DA0002020202020202020202020202020202033
:101DB00020202020202F2F0A0909092F2F2F2F2F15
:101DC0002F2F2F2F2F2F2F2F2F2F2F2F2F2F2F2F23
:101DD0002F2F2F2F2F2F2F2F2F2F2F2F2F2F2F2F13
:101DE0002F2F2F2F2F2F2F2F2F2F2F2F2F2F2F2F03
:101DF0002F0A0909092F2F20202020202020202011
:101E000020202020202020202020202020202020D2
:101E100020202020202020202020202020202020C2
:101E20002020202020202020202F2F0A0909092FE0
:101E30002F2020202020202020202020202020CAE9
:101E4000FDD7D630A3BAD7AABBBB4C45443020201F
:101E50002020202020202020202020202020202082
:101E60002020202F2F0A0909092F2F202020202091
:101E7000202020202020202020CAFDD7D631A3BA40
:101E8000D7AABBBB4C454431202020202020202055
:101E9000202020202020202020202020202F2F0A3A
:101EA0000909092F2F202020202020202020202059
:101EB000202020CAFDD7D632A3BAD7AABBBB4C4537
:101EC00044322020202020202020202020202020DC
:101ED000202020202020202F2F0A0909092F2F2021
:101EE00020202020202020202020202020CAFDD7B4
:101EF000D633A3BAB4F2BFAA4245455020202020D1
:101F000020202020202020202020202020202020D1
:101F1000202F2F0A0909092F2F20202020202020E0
:101F200020202020202020CAFDD7D634A3BAB9D83B
:101F3000B1D54245455020202020202020202020BF
:101F400020202020202020202020202F2F0A0909B7
:101F5000092F2F202020202020202020202020207A
:101F600020CAFDD7D635A3BABFAAC6F4B0B4BCFC0C
:101F70004954202020202020202020202020202004
:101F800020202020202F2F0A0909092F2F20202070
:101F90002020202020202020202020CAFDD7D63637
:101FA000A3BAB9D8B1D5B0B4BCFC49542020202084
:101FB0002020202020202020202020202020202F12
:101FC0002F0A0909092F2F2020202020202020203F
:101FD0002020202020CAFDD7D637A3BAB4F2D3A13F
:101FE000B2CBB5A52020202020202020202020209A
:101FF0002020202020202020202F2F0A0909092F0F
:102000002F202020202020202020202020202020C1
:1020100020202020202020202020202020202020C0
:1020200020202020202020202020202020202020B0
:102030002020202F2F0A0909092F2F2F2F2F2F2F74
:102040002F2F2F2F2F2F2F2F2F2F2F2F2F2F2F2FA0
:102050002F2F2F2F2F2F2F2F2F2F2F2F2F2F2F2F90
:102060002F2F2F2F2F2F2F2F2F2F2F2F2F2F2F0AA5
:102070000000000094200008000000204000000044
:10208000801A0008D420000840000020000400004E
:10209000901A000800A24A0400000000000000009E
:1020A00001020304060708090000000001020304FE
:1020B00001020304060708090204060800000000E4
:1020C0000000000000000000000000000000000010
:0420D000000000000C
:0400000508000101ED
:00000001FF
