:020000040800F2
:1000000028050020450100084D0100088D1A000850
:10001000911A0008951A0008991A000800000000BB
:100020000000000000000000000000005701000870
:1000300059010008000000005B0100089D1A00083B
:100040005F0100085F0100085F0100080D1B000848
:100050005F0100085F0100085F0100085F01000800
:100060005F0100085F0100085F0100085F010008F0
:100070005F0100085F0100085F0100085F010008E0
:100080005F0100085F0100085F0100085F010008D0
:100090005F0100085F0100085F0100085F010008C0
:1000A0005F0100085F0100085F0100085F010008B0
:1000B0005F0100085F0100085F0100085F010008A0
:1000C0005F0100085F0100085F0100085F01000890
:1000D0005F010008BB1A0008D31A00085F0100087E
:1000E0005F0100085F0100085F0100085F01000870
:1000F0005F0100085F0100085F0100085F01000860
:100100005F0100085F0100085F0100085F0100084F
:100110005F0100085F0100085F0100085F0100083F
:100120005F0100085F0100085F0100085F0100082F
:10013000DFF80CD003F014FD00480047C318000896
:10014000280500200648804706480047FEE7FEE7EE
:10015000FEE7FEE7FEE7FEE7FEE7FEE7FEE7FEE777
:1001600047020008310100080CB500200190009002
:100170006C48006840F480306A49086000BF6948F4
:10018000006800F4003000900198401C0190009835
:1001900018B90198B0F5A06FF1D16248006800F479
:1001A000003010B10120009001E000200090009884
:1001B000012843D15C48006840F010005A490860AB
:1001C0000846006820F0030008600846006840F018
:1001D0000200086053484068524948600846406839
:1001E00048600846406840F48060486008464068BF
:1001F00020F47C1048600846406840F4E8104860ED
:100200000846006840F08070086000BF45480068FC
:1002100000F000700028F9D04248406820F0030048
:10022000404948600846406840F00200486000BF0E
:100230003C48406800F00C000828F9D10CBD10B50E
:10024000FFF792FF10BD10B53648006840F001007E
:1002500034490860084640683449084031494860DC
:1002600008460068324908402E4908600846006880
:1002700020F4802008600846406820F4FE004860B2
:100280004FF41F008860FFF7DAFF4FF00060294944
:10029000086010BD10B5002100200022214B5B68D2
:1002A00003F00C0121B1042906D0082928D107E068
:1002B000214B224C236027E01F4B204C236023E07E
:1002C000184B5B6803F47010164B5B6803F48032C4
:1002D000022303EB904022B9194B4343174C236090
:1002E0000DE0104B5B6803F4003323B1144B434320
:1002F000124C236003E0104B4343104C236003E097
:100300000D4B0E4C236000BF00BF064B5B68C3F370
:1003100003130C4CE15C094B1B68CB40074C23607A
:1003200010BD000000100240002002400000FFF855
:10033000FFFFF6FE08ED00E000127A00000000204A
:1003400000093D000400002031490143314A116099
:10035000704770B5002100230F22C47804B32D4CE0
:10036000246804F4E064C4F5E064210AC1F10403E4
:10037000CA40447804FA03F1847814402143090107
:10038000254C0678A155047804F01F050124AC40E3
:1003900005786D11AD0005F1E025C5F8004109E0D3
:1003A000047804F01F050124AC401C4D067876113A
:1003B00045F8264070BD1A4A0A400243154B1B1FE0
:1003C0001A60704739B1134A121D12680243114B6B
:1003D0001B1D1A6006E00F4A121D126882430D4B66
:1003E0001B1D1A607047042808D14FF0E0210969ED
:1003F00041F004014FF0E022116107E04FF0E021ED
:10040000096921F004014FF0E022116170470000FA
:100410000000FA050CED00E000E400E080E100E0FF
:1004200080FFFF1F10B5012000F014FC002000F039
:1004300011FC10BD2A49086070472949091F08604E
:100440007047274984310860704701460020254ADB
:1004500010884FF67F4210400843224A10807047B0
:10046000014600201F4A10884FF680721040084352
:100470001C4A1080704708B500220092194A2C3A95
:100480000092009A02440092009A116008BD08B5DB
:1004900001460020009013482C3800900098084432
:1004A00000900098008808BD0D489C300068C0B2DC
:1004B00070470C480830008840F0010009490831B5
:1004C000088070470648A0300068C0B270470548F1
:1004D0000830008840F00200024908310880704767
:1004E00004860D422C6C004010B50446CC48844272
:1004F00008D10121042000F093FB0021042000F02A
:100500008FFB46E0C748844208D10121082000F053
:1005100087FB0021082000F083FB3AE0C2488442B8
:1005200008D10121102000F07BFB0021102000F0F9
:1005300077FB2EE0BD48844208D10121202000F045
:100540006FFB0021202000F06BFB22E0B8488442C2
:1005500008D10121402000F063FB0021402000F081
:100560005FFB16E0B348844208D10121802000F0EF
:1005700057FB0021802000F053FB0AE0AE48844284
:1005800007D10121801500F04BFB0021A01500F0E0
:1005900047FB10BD10B50121084600F041FB0021CA
:1005A000012000F03DFB10BD2DE9F0410246002581
:1005B0000026002000230024002791F803C00CF03F
:1005C0000F0591F803C00CF0100CBCF1000F03D024
:1005D00091F802C04CEA050591F800C0BCF1000F8B
:1005E00031D0146800202BE04FF0010C0CFA00F31E
:1005F000B1F800C00CEA03069E4220D183004FF000
:100600000F0C0CFA03F7BC4305FA03FC4CEA040494
:1006100091F803C0BCF1280F06D14FF0010C0CFA81
:1006200000FCC2F814C00AE091F803C0BCF1480F06
:1006300005D14FF0010C0CFA00FCC2F810C0401CB0
:100640000828D1D31460B1F800C0BCF1FF0F34DD2D
:10065000546800202EE000F1080C4FF0010808FA61
:100660000CF3B1F800C00CEA03069E4221D18300CE
:100670004FF00F0C0CFA03F7BC4305FA03FC4CEAED
:10068000040491F803C0BCF1280F05D100F1080C57
:1006900008FA0CF8C2F8148091F803C0BCF1480FB6
:1006A00007D100F1080C4FF0010808FA0CF8C2F865
:1006B0001080401C0828CED35460BDE8F0814FF66E
:1006C000FF710180022181700421C17070470246D0
:1006D000002093680B400BB1012000E00020704720
:1006E0000146886880B2704702460020D3680B40FC
:1006F0000BB1012000E0002070470146C86880B2BD
:10070000704701617047416170470AB1016100E0C3
:1007100041617047C16070474FF480320A43826183
:100720008161826182698269704702460020434B81
:1007300018684FF68073184040EA021008433F4B98
:10074000186070473E49C8617047F0B50A460023FB
:1007500000240021002500F00046B6F1004F02D130
:10076000364EF16901E0354E7168C0F3034583B23E
:1007700000F44016B6F5401F08D121F070612F4EED
:10078000766826F070662D4F7E6012E000F48016C9
:10079000B6F5801F06D1032606FA05F4A14341F001
:1007A000706106E0460D360103FA06F6B14341F0EA
:1007B000706122B1460D360103FA06F6314300F0AE
:1007C0000046B6F1004F02D11C4EF16101E01B4E14
:1007D0007160F0BD30B500228B071C0F0F2303FAA8
:1007E00004F2164B08338C1053F824309343134C07
:1007F00008348D1044F8253023468C1053F82430EB
:100800008C07240F00FA04F423430C4C08348D1099
:1008100044F8253030BD0A49DC31086070470000DB
:1008200000080140000C014000100140001401408C
:1008300000180140001C0140002001400000014060
:100840000000204210B50121080700F0F6F9002150
:100850004FF0805000F0F1F910BD2A49086270474E
:1008600028490861704701460020274A106820F097
:10087000E0000843106070472249A03108607047CB
:1008800010B502460020204B186820F003001043EA
:1008900018601E4B1B6843F004031C4C23600129A5
:1008A00001D130BF00E020BF184B1B6823F00403C8
:1008B000164C236010BD1448006840F00400124933
:1008C00008600846006840F0020008600F480068B1
:1008D00040F004000D49086000BF00BF30BF704702
:1008E00001460020084A52680A400AB1012000E08F
:1008F000002070470449096841EA8001024A1160FA
:100900007047000000000E420070004010ED00E053
:10091000DF48006840F00100DD4908600846406893
:10092000DC490840DA49486008460068DA4908406E
:10093000D74908600846006820F48020086008460F
:10094000406820F4FE0048604FF41F008860704744
:10095000CF49096821F48031CD4A116011460968F8
:1009600021F480211160B0F5803F03D0B0F5802FD5
:100970000ED106E0C649096841F48031C44A1160CD
:1009800007E0C349096841F4A021C14A116000E0B1
:1009900000BF00BF704710B50146002200230020B1
:1009A0004A11012A02D1BA4C236806E0022A02D178
:1009B000B74C236A01E0B64C636A01F01F020124C0
:1009C00094401C400CB1012000E0002010BD38B55F
:1009D000002000900024002500BF3120FFF7DBFF3E
:1009E00005460098401C00900098B0F5A06F01D01B
:1009F000002DF2D03120FFF7CEFF08B1012400E036
:100A00000024204638BD01460020A14A106820F08D
:100A1000F80040EAC10010607047A04908607047C4
:100A2000024600209A4B586820F47C1042EA0103E9
:100A30001843974B586070479849086670470146BD
:100A40000020934A506820F003000843506070472C
:100A50008F48406800F00C007047014600208C4A27
:100A6000506820F0F00008435060704701460020B5
:100A7000874A506820F4E0600843506070470146A0
:100A80000020834A506820F4605040EAC100506062
:100A9000704729B17E4A527A02437D4B5A7204E074
:100AA0007B4A527A82437A4B5A7270477B49D831DB
:100AB0000860704701460020754A506820F44040A5
:100AC0000843506070470021714A20321170704A0B
:100AD00082F82010012802D004280AD104E0012164
:100AE0006B4A2032117005E00521694A20321170ED
:100AF00000E000BF00BF7047694908607047644963
:100B0000096A0143624A11627047654944390860C5
:100B1000704730B500210022002400235C4D6D6831
:100B200005F00C0121B1042905D0082923D105E0E5
:100B30005C4D056022E05B4D05601FE0544D6D6823
:100B400005F47012524D6D6805F48034022505EBF2
:100B500092421CB9544D554305600BE04C4D6D68F5
:100B600005F400351DB1504D5543056002E04D4D73
:100B70005543056002E04B4D056000BF00BF444D8A
:100B80006D6805F0F0010909484D6B5C0568DD40B2
:100B900045603F4D6D6805F4E061090A434D6B5CAB
:100BA0004568DD4085603A4D6D6805F46051C90ABD
:100BB0003E4D6B5C4568DD40C560354D6D6805F4A4
:100BC0004041890B3A4D6B5CC568B5FBF3F5056197
:100BD00030BD29B12E4A526902432D4B5A6104E0BF
:100BE0002B4A526982432A4B5A61704729B1284ADD
:100BF00092690243264B9A6104E0254A9269824336
:100C0000234B9A61704729B1214AD2690243204B94
:100C1000DA6104E01E4AD26982431D4BDA617047F3
:100C200029B11B4AD2680243194BDA6004E0184A22
:100C3000D2688243164BDA60704729B1144A1269B0
:100C40000243134B1A6104E0114A12698243104BAC
:100C50001A61704712494039086070470F49C864EB
:100C600070470B49C87170470948406A40F080706E
:100C700007494862704701460020054A92680A40C9
:100C80000AB1012000E000207047014988727047D6
:100C9000001002400000FFF8FFFFF6FE0000424295
:100CA0008004424200127A0000093D001400002036
:100CB0002400002029B1504A128802434E4B1A806A
:100CC00004E04D4A128882434B4B1A8070474A48D1
:100CD000001D008840F010004749091D088070473A
:100CE0004548001D00884FF6EF7108404249091D34
:100CF00008807047002140481C300188001F008890
:100D000041EA0040704700B50246FFF7E0FF100CD3
:100D1000394918310880091D0A80FFF7E1FF00BD3D
:100D200000B50246FFF7D3FFC2F303403249083152
:100D30000880091D0A80FFF7D3FF00BD00B50246F9
:100D4000FFF7C5FF100C2C4920310880091D0A80CF
:100D5000FFF7C6FF00BD00202749103109880907A9
:100D6000080B2549143109880843704700BF224801
:100D7000001D008800F020000028F8D070471E48B1
:100D8000001D00884FF6F77108401B49091D0880B7
:100D900000BF1948001D008800F008000028F8D0A6
:100DA000704701460020144A121D12880A400AB1F9
:100DB000012000E0002070470F49091D0988814388
:100DC0000D4A121D11807047014600200A4A121D6B
:100DD00012880A40D0B2084A12880A4012B108B1FB
:100DE000012000E0002070470349091D0988814364
:100DF000014A121D118070470028004010B50446BA
:100E0000FB48844209D101218803FFF709FF002133
:100E10004FF48040FFF704FF32E0F648844209D1E6
:100E200001214804FFF709FF00214FF40030FFF7CC
:100E300004FF25E0F048844209D101218804FFF72E
:100E4000FCFE00214FF48020FFF7F7FE18E0EB488E
:100E5000844209D10121C804FFF7EFFE00214FF4BD
:100E60000020FFF7EAFE0BE0E548844208D10121AB
:100E70000805FFF7E2FE00214FF48010FFF7DDFECA
:100E800010BD2DE9F04786B005460E460024A24667
:100E900000BFA1460027B08900B100BF2F462C8AB1
:100EA0004CF6FF700440F08804432C82AC894EF667
:100EB000F3100440B0883189084371890843044322
:100EC000AC81AC8A4FF6FF400440B0890443AC8249
:100ED00001A8FFF71EFEC648874202D1DDF810A028
:100EE00001E0DDF80CA0A88900F4004040B10AEB55
:100EF000CA0000EB0A1031684900B0FBF1F807E0C6
:100F00000AEBCA0000EB0A1031688900B0FBF1F867
:100F10006420B8FBF0F004012009642101FB108972
:100F2000A88900F4004040B1322000EBC900B0FBBA
:100F3000F1F000F00700044308E0322000EB091054
:100F40006421B0FBF1F000F00F0004432C8106B0E7
:100F5000BDE8F0874FF41651016000218180C18007
:100F600001810C21418100218181704710B5024629
:100F70000020108A4FF2FF0318400B884C8823434F
:100F80008C882343CC8823431843108210BD002152
:100F9000018041808180C180704721B1828942F403
:100FA0000052828104E082894DF6FF731A408281EB
:100FB0007047F0B50346002400260025002040F6C7
:100FC0006A17B94200D100BF1846C1F3421401F0BC
:100FD0001F06012707FA06F5012C01D10C3004E0A9
:100FE000022C01D1103000E014301AB107682F43F1
:100FF000076002E00768AF430760F0BD1AB1838A5B
:101000000B43838202E0838A8B4383827047028A88
:101010004FF6F0731A400282028A0A430282704736
:1010200082894FF2FF731A40828182890A4382814A
:10103000704721B1828942F00202828104E08289F4
:101040004FF6FD731A4082817047028A4FF6DF73B4
:101050001A400282028A0A430282704721B1028A40
:1010600042F48042028204E0028A4BF6FF731A4087
:1010700002827047C1F30802828070470146888867
:10108000C0F308007047818941F0010181817047F8
:10109000028BD2B20283028B42EA012202837047A2
:1010A000028B02F47F420283028B0A430283704761
:1010B00021B1828A42F02002828204E0828A4FF6C5
:1010C000DF731A408282704721B1828A42F0100297
:1010D000828204E0828A4FF6EF731A408282704760
:1010E00021B1828A42F00802828204E0828A4FF6AD
:1010F000F7731A408282704721B1828942F400421C
:10110000828103E08289C2F30E028281704721B19D
:10111000828A42F40062828204E0828A4FF2FF7384
:101120001A4082827047828A4FF6FB731A4082828D
:10113000828A0A438282704721B1828A42F0020287
:10114000828204E0828A4FF6FD731A4082827047E1
:1011500002460020B1F5007F00D100BF13880B408C
:101160000BB1012000E00020704701F40072B2F5DD
:10117000007F00D100BFCA430280704770B50246AD
:10118000002400230025002040F66A16B14200D159
:1011900000BFC1F3421501F01F03012606FA03F355
:1011A000012D02D19689334006E0022D02D1168A24
:1011B000334001E0968A33400C12012606FA04F40B
:1011C0001688344013B10CB1012000E0002070BD3E
:1011D00010B50022002340F66A14A14200D100BFDE
:1011E0000A1201249440A3B2DC43048010BD000025
:1011F000003801400044004000480040004C0040DE
:101200000050004010B588B004460F2C1ED2DFE815
:1012100004F01D081E344A60768CA2B8CEE4FDFBB3
:10122000FA00FDA0012100220392CDE904210690DD
:101230004FF418404FF6FF710122D223CDE900216F
:101240000290DC225A21BE2001F069FA20E1F5A0CB
:10125000012100220392CDE9042106904FF41840A9
:101260004FF6FF710122D223CDE900210290DC224A
:101270005A21BE2001F053FA0AE1EDA0012100221B
:101280000392CDE9042106904FF418404FF6FF7108
:101290000122D223CDE900210290DC225A21BE2076
:1012A00001F03DFAF4E0E5A0012100220392CDE92E
:1012B000042106904FF418404FF6FF710122D2230B
:1012C000CDE900210290DC225A21BE2001F027FA4C
:1012D000DEE0DDA0012100220392CDE90421069089
:1012E0004FF418404FF6FF710122D223CDE90021BF
:1012F0000290DC225A21BE2001F011FAC8E0D5A0EC
:10130000012100220392CDE9042106904FF41840F8
:101310004FF6FF710122D223CDE900210290DC2299
:101320005A21BE2001F0FBF9B2E0CDA0012100223C
:101330000392CDE9042106904FF418404FF6FF7157
:101340000122D223CDE900210290DC225A21BE20C5
:1013500001F0E5F99CE0C5A0012100220392CDE94E
:10136000042106904FF418404FF6FF710122D2235A
:10137000CDE900210290DC225A21BE2001F0CFF9F4
:1013800086E0BDA0012100220392CDE90421069050
:101390004FF418404FF6FF710122D223CDE900210E
:1013A0000290DC225A21BE2001F0B9F970E0B4A00D
:1013B000012100220392CDE9042106904FF4184048
:1013C0004FF6FF710122D223CDE900210290DC22E9
:1013D0005A21BE2001F0A3F95AE0ABA0012100225E
:1013E0000392CDE9042106904FF418404FF6FF71A7
:1013F0000122D223CDE900210290DC225A21BE2015
:1014000001F08DF944E02DE016E0FFE7A0A00121F6
:1014100000220392CDE9042106904FF418404FF6C4
:10142000FF710122D223CDE900210290DC225A2152
:10143000BE2001F074F92BE097A001210022039255
:10144000CDE9042106904FF418404FF6FF710122B8
:10145000D223CDE900210290DC225A21BE2001F0E6
:101460005EF915E08EA0012100220392CDE904214E
:1014700006904FF418404FF6FF710122D223CDE9B8
:1014800000210290DC225A21BE2001F048F900BF61
:1014900000BF08B010BD2DE9F04104460D461646C8
:1014A0001F4681488068A04218D18048007838B132
:1014B0007D484068A84211D17B48006804280DDAB5
:1014C00001207A4908704621304601F07EFC012156
:1014D0007748FFF718F9012076490870BDE8F081D8
:1014E00000B589B001F098F8002001F063FB72A00C
:1014F000012100220392CDE9042106904FF4184007
:101500004FF6FF713223CDE900210290C822114627
:10151000A02001F004F94FF4FA6000F0A2FB6AA0E9
:10152000012100220392CDE9042106904FF41840D6
:101530004FF6FF713223CDE900210290C8221146F7
:10154000A02001F0ECF84FF47A7000F09FFC4FF40B
:10155000FA7000F086FB61A0012100220392CDE920
:10156000042106904FF418404FF6FF713223CDE965
:1015700000210290C8221146A02001F0D0F800F00E
:101580007BFB4FF4FA7000F06CFB5BA001210022A2
:101590000392CDE9042106904FF418404FF6FF71F5
:1015A0003223CDE900210290C8221146A02001F08B
:1015B000B6F801210420FFF719FB10208DF8230055
:1015C000ADF8200003208DF8220008A93848FEF766
:1015D000EBFF10213648FFF794F84FF4FA7000F053
:1015E00040FB49A0012100220392CDE9042106908D
:1015F0004FF418404FF6FF713223CDE900210290DD
:10160000C8221146A02001F08AF801F080FC4FF4B6
:10161000FA7000F026FB81E0B5DAD2BBBDDABFCEAE
:1016200000000000B5DAB6FEBDDABFCE0000000053
:10163000B5DAC8FDBDDABFCE00000000B5DACBC414
:10164000BDDABFCE00000000B5DACEE5BDDABFCE10
:1016500000000000B5DAC1F9BDDABFCE000000001D
:10166000B5DAC6DFBDDABFCE00000000B5DAB0CB18
:10167000BDDABFCE00000000D0DDCFA20000000028
:10168000B3D4D4E7B7B90000B3D4CEE7B7B90000FC
:10169000B3D4CDEDB7B90000CBAFBEF5000000006C
:1016A000C6F0B4B200000000480000202C0000206A
:1016B000000801402E000020CFB5CDB3BFAACABCA0
:1016C000B3F5CABCBBAF0000B4AEBFDAC6C1B3F558
:1016D000CABCBBAFB3C9B9A600000000CFB5CDB33B
:1016E000B5CEB4F0B6A8CAB1C6F7B3F5CABCBBAFA5
:1016F000B3C9B9A6000000004C4544B3F5CABCBB51
:10170000AFB3C9B9A6000000BEDBB9E2B5C6B3F5F8
:10171000CABCBBAFB3C9B9A600000000BBA0012181
:1017200000220392CDE9042106904FF418404FF6B1
:10173000FF713223CDE900210290C8221146A0207A
:1017400000F0EDFF01F039FB0121B548FEF7DBFFAA
:101750004FF4FA7000F085FA4621042001F035FBC1
:10176000B0A0012100220392CDE9042106904FF49C
:1017700018404FF6FF713223CDE900210290C822B4
:101780001146A02000F0CBFF00BF01F08AFD012828
:10179000FBD000F06DFE00F083FE4FF4FA7000F015
:1017A00060FAA4A0012100220392CDE90421069051
:1017B0004FF418404FF6FF713223CDE9002102901B
:1017C000C8221146A02000F0AAFF00BF00F0A8FE2A
:1017D0009C4908600028F9D008460168012000F003
:1017E000F4FA02F041FA9848008881B297A001F01B
:1017F00022FA9548808881B296A001F01CFA92489E
:10180000808A81B295A001F016FA8F48008A81B2D1
:1018100094A001F010FA8C48808981B293A001F065
:101820000AFA8948008981B291A001F004FA4FF4C4
:10183000FA7000F016FA90A0012100220392CDE97F
:10184000042106904FF418404FF6FF713223CDE982
:1018500000210290C8221146A02000F060FF002065
:1018600001F0A8F901208849087041F2883000F0A1
:10187000F8F902F0F9F97448008881B273A001F018
:10188000DAF97148808881B272A001F0D4F96E480B
:10189000808A81B271A001F0CEF96B48008A81B2D2
:1018A00070A001F0C8F96848808981B26FA001F08A
:1018B000C2F96548008981B26DA001F0BCF909B098
:1018C00000BDFFF70DFE9FE00E23C8220021082077
:1018D000FFF7E1FD012314221E210820FFF7DBFDA5
:1018E0000A23142211460920FFF7D5FD02231422F2
:1018F00000210A20FFF7CFFD0923142232210A20FC
:10190000FFF7C9FD0323142200210B20FFF7C3FDBD
:101910000923142232210B20FFF7BDFD04231422DA
:1019200000210C20FFF7B7FD0923142232210C20DF
:10193000FFF7B1FD0523142200210D20FFF7ABFDB9
:101940000B23142232210D20FFF7A5FD06231422BC
:1019500000210F20FFF79FFD0923142232210F20C1
:10196000FFF799FD0723142200211020FFF793FDB4
:101970000923142232211020FFF78DFD08231422A1
:1019800000211120FFF787FD0C23142232211120A2
:10199000FFF781FD0D23282200211320FFF77BFD97
:1019A0002948806815280ADB274840681E2806D188
:1019B00025480068052802DA002001F055F9224880
:1019C000806807280AD1204840681E2806D11E4892
:1019D0000068052802DA642001F046F901F09BFA5C
:1019E00004280ED110210E48FEF77EFE012804D1F6
:1019F00010210B48FEF787FE03E010210848FEF790
:101A000080FE322000F04BF95EE70000BED8D5F32F
:101A1000B0B4BCFCB3F5CABCBBAFB3C9B9A6000037
:101A20000008014042454550B3F5CABCBBAFB3C93D
:101A3000B9A6000057494649C1ACBDD3B3C9B9A640
:101A40000000000030000020480000207365636F34
:101A50006E6400006D696E75746500007965617271
:101A6000000000006D6F6E74680000006461790012
:101A7000686F757200000000CAB1BCE4B3F5CABC5F
:101A8000BBAFB3C9B9A600002D00002000BFFEE720
:101A900000BFFEE700BFFEE700BFFEE73648007864
:101AA000012809D135480068401C34490860344891
:101AB0000068401C32490860704710B540F225515B
:101AC0003048FFF75BFB18B120212E48FFF74DFB94
:101AD00010BD10B540F225512B48FFF74FFBA0B1C8
:101AE0002948FFF7CBFA2949294A12888854084621
:101AF00000F0ECFC26480088401C25490880084678
:101B00000088C72801D10020088010BD10B5012031
:101B1000FFF75AF900282DD002F0A6F81D480088DA
:101B200081B21DA001F087F81A480068E8B9194889
:101B3000808881B21AA001F07EF81648808A81B2AE
:101B400019A001F078F81348008A81B218A001F0BA
:101B500072F81048808981B217A001F06CF80D4826
:101B6000008981B215A001F066F80120FFF73CF969
:101B7000FFF7FCF810BD00002D0000203800002009
:101B80002800002000380140004400406000002090
:101B900040000020480000207365636F6E64000001
:101BA0006D696E75746500007965617200000000F2
:101BB0006D6F6E746800000064617900686F757203
:101BC00000000000002100BF48E000BF00BF00BFD0
:101BD00000BF00BF00BF00BF00BF00BF00BF00BF0D
:101BE00000BF00BF00BF00BF00BF00BF00BF00BFFD
:101BF00000BF00BF00BF00BF00BF00BF00BF00BFED
:101C000000BF00BF00BF00BF00BF00BF00BF00BFDC
:101C100000BF00BF00BF00BF00BF00BF00BF00BFCC
:101C200000BF00BF00BF00BF00BF00BF00BF00BFBC
:101C300000BF00BF00BF00BF00BF00BF00BF00BFAC
:101C400000BF00BF00BF00BF00BF00BF00BF00BF9C
:101C500000BF00BF00BF00BF00BF491C8142B4D31A
:101C6000704710B503464FF47A7003FB00F420462A
:101C7000FFF7A8FF10BD000008B501210420FEF702
:101C8000B5FF10208DF803000220ADF800000320FE
:101C90008DF8020069460F48FEF786FC08BD10B5B6
:101CA00004460D480068A04212D300200A4908608B
:101CB00002210848FEF718FD28B10022022105483C
:101CC000FEF723FD04E0012202210248FEF71DFD7C
:101CD00010BD0000000801402800002030B53C2461
:101CE000B0FBF4F504FB15040C603C24B0FBF4F0ED
:101CF000B0FBF4F504FB15044C603C24B0FBF4F09D
:101D000048F6F804B0FBF4F340F2B27404EB830439
:101D10004C6148F6F804B0FBF4F504FB150000BF75
:101D200042F238220C7D04F0030404B918329042C8
:101D300000D204E04C69641C4C61801AF0E700BFDB
:101D40001824B0FBF4F504FB15048C601824B0FBD8
:101D5000F4F0401C0C7D04F0030454B93C2801D974
:101D6000401E06E03C2804D101240C611D24CC60F7
:101D700030BD00240C6106E0434D0C692C5D001B56
:101D80000C69641C0C61404D0C692C5D8442F3D3DA
:101D9000C86000BFECE701460A46C81701EB907027
:101DA0008010A1EB800070B9642091FBF0F300FB80
:101DB000131030B94FF4C87091FBF0F300FB13100F
:101DC00008B9012070470020FCE7F8B504460D462D
:101DD0004FF4C060FEF7B8FA03208DF80000012030
:101DE0008DF803008DF8010000208DF80200684690
:101DF000FEF7AFFA01260420FEF749FB4AF2A5518F
:101E0000884201D1012C2ED101214FF0C050FEF7A4
:101E1000FAFE0120FEF721FDFEF704FB0120FEF78C
:101E20006BFE00BF6120FEF7B6FD0028FAD04FF42C
:101E30000070FEF764FE0120FEF767FEFEF79FFFCD
:101E4000FEF794FF01210846FEF734FFFEF78EFFF0
:101E500049F63F40FEF764FFFEF788FF2846FEF78D
:101E600052FF002607E02846FEF74DFF4AF2A55133
:101E70000420FEF700FB01210846FEF71BFF01F0DE
:101E8000F3FE3046F8BD00002448000870B5034654
:101E900015480068B0FBF3F1B1F1807F01D3012058
:101EA0001DE021F07F40401E4FF0E02250615017AE
:101EB0000F22002807DA1407260E0C4C00F00F053D
:101EC0002D1F665503E01407250E094C255400BF4D
:101ED00000204FF0E022906107201061002008B13F
:101EE00000BFFEE770BD00000000002018ED00E01C
:101EF00000E400E0002148E000BF00BF00BF00BFD9
:101F000000BF00BF00BF00BF00BF00BF00BF00BFD9
:101F100000BF00BF00BF00BF00BF00BF00BF00BFC9
:101F200000BF00BF00BF00BF00BF00BF00BF00BFB9
:101F300000BF00BF00BF00BF00BF00BF00BF00BFA9
:101F400000BF00BF00BF00BF00BF00BF00BF00BF99
:101F500000BF00BF00BF00BF00BF00BF00BF00BF89
:101F600000BF00BF00BF00BF00BF00BF00BF00BF79
:101F700000BF00BF00BF00BF00BF00BF00BF00BF69
:101F800000BF00BF00BF00BF491C8142B4D37047EF
:101F900010B50346002404E04FF47A70FFF7AAFF5F
:101FA000641C9C42F8D310BDF8B506460C46154695
:101FB0004FF4A060FEF7C8F98DF8006001208DF89D
:101FC00003008DF801408DF802506846FEF7C1F914
:101FD000F8BD38B5044603208DF80200FB48844262
:101FE00018D101210420FEF701FE18208DF803000E
:101FF0006015ADF800006946F548FEF7D5FA0420F3
:102000008DF803000002ADF800006946F048FEF7C5
:10201000CBFA6DE0EF48844218D101210420FEF78D
:10202000E5FD18208DF803000420ADF80000694696
:10203000E748FEF7B9FA04208DF803000820ADF850
:1020400000006946E248FEF7AFFA51E0E2488442F8
:1020500018D101210820FEF7C9FD18208DF80300D2
:102060002015ADF800006946DC48FEF79DFA042013
:102070008DF803004002ADF800006946D748FEF72E
:1020800093FA35E0D648844218D101211020FEF79A
:10209000ADFD18208DF803002015ADF8000069464D
:1020A000D048FEF781FA04208DF803004002ADF815
:1020B00000006946CB48FEF777FA19E0CA48844227
:1020C00016D101213020FEF791FD18208DF8030074
:1020D000A014ADF800006946C248FEF765FA042076
:1020E0008DF80300ADF800006946C048FEF75CFAC1
:1020F00038BD7FB505460C460020ADF80C000C201D
:10210000ADF80A000020ADF80800ADF80600ADF803
:102110000400AE48854218D101218803FEF766FD10
:10212000009469462846FEF7ACFE012211462520A0
:10213000FFF73AFF012240F225512846FEF739FF0A
:1021400001212846FEF729FF36E0A248854218D132
:1021500001214804FEF757FD009469462846FEF722
:1021600090FE012200212620FFF71EFF012240F2EF
:1021700025512846FEF71DFF01212846FEF70DFFD9
:102180001AE09548854217D101218804FEF73BFDEE
:10219000009469462846FEF774FE01221146272066
:1021A000FFF702FF012240F225512846FEF701FF0A
:1021B00001212846FEF7F1FE7FBD70B504460D46AD
:1021C0002046FFF706FF29462046FFF792FF70BD25
:1021D00070B504460D4640212046FEF7B9FF402168
:1021E0002046FEF7C2FF29462046FEF743FF00BF08
:1021F00040212046FEF7ACFF0028F9D070BD70B535
:1022000005460C4600BF21782846FFF7E1FF601C19
:10221000044600780028F6D170BD2DE9F34F81B057
:102220000C46A1464FF0000AD3461CB93021019854
:10223000FFF7CEFF06E00A20B9FBF0F90AF1010032
:1022400000F0FF0AB9F1000FF5D11FE0AAEB0B0176
:10225000481E01F087FA07463A460B4600206449BB
:1022600001F0CEFD054601F0AFFAB4FBF0F00A2113
:10227000B0FBF1F201FB12003030014600900198F2
:10228000FFF7A6FF0BF1010000F0FF0BD345DDDBEC
:10229000BDE8FE8F2DE9F34F89B08946DFF854A1E0
:1022A000484601F07DFA05460021484601F0D4FA7F
:1022B00003D22D210998FFF78BFF0024002675B368
:1022C00004E00A20B5FBF0F5601CC4B2002DF8D183
:1022D000484601F065FA05461EE0A11B481E01F0C4
:1022E00041FA02460B46CDE902010020404901F0C7
:1022F00087FDCDE9040101F067FAB5FBF0F00A2192
:10230000B0FBF1F201FB1200303001460790099852
:10231000FFF75EFF701CC6B2A642DEDB04E0FFE7FB
:1023200030210998FFF754FF2E210998FFF750FF3D
:10233000484601F035FA069001F00FFA4946079039
:1023400001F027F983465F464FF006080024404617
:1023500001F019FA02460B46CDE90001002024499C
:1023600001F04EFDCDE90401584601F046FACDE9F1
:102370000201DDE9042301F00FF9CDE9060101F0C6
:102380004FFA834613E030210998FFF721FF5046AA
:1023900001F033FA0022164BCDE9040101F06EF989
:1023A000CDE9060101F03CFA8246601CC4B25146F8
:1023B000384601F051FA01D24445E4DB584601F0B9
:1023C000EFF90546002400261BE00000003801401C
:1023D000000801400044004000480040000C01405B
:1023E000004C00400010014000500040001401402B
:1023F00000002440CDCCCC3D0A20B5FBF0F5601C9C
:10240000C4B2002DF8D1584601F0CAF905461EE0C5
:10241000A11B481E01F0A6F902460B46CDE90201B8
:102420000020114901F0ECFCCDE9040101F0CCF9E8
:10243000B5FBF0F00A21B0FBF1F201FB12003030E5
:10244000014607900998FFF7C3FE701CC6B2A6426A
:10245000DEDB0BB0BDE8F08F10B504460349204623
:10246000FFF7CDFE10BD000000002440C04800086A
:1024700010B54FF416514148FFF79FFE10BD0020E4
:1024800004E000213E4A1154411C88B2C828F8DB00
:10249000704710B5044621463848FFF7B0FE10BD1E
:1024A00010B538A0FFF7F5FF3220FFF7DAFB39A0AF
:1024B000FFF7EFFF4FF4FA70FFF7D3FB38A0FFF7F9
:1024C000E8FF41F27070FFF7CCFB10BD70B5054618
:1024D0003DA1284600F0F6FF044604B300201AE0B0
:1024E000A4F10A01095C302913DBA4F10A01095C9B
:1024F00039290EDC3749096801EB81014900354A69
:102500001160A4F10A01095C303912681144314AA2
:102510001160411CC8B20A28E2DBFFF7B0FF70BDB2
:1025200010B500242CA0FFF7B4FF3220FFF799FB71
:1025300033A0FFF7AEFF6420FFF793FB3548FFF7AA
:10254000A8FF1E20FFF78DFB3248FFF7A2FFC8202F
:10255000FFF787FB09E00120FFF783FB601C84B2D3
:1025600041F28830844200DD03E01A480068002808
:10257000F1D000BF1748006810BD000000440040C3
:102580006000002041542B43574D4F44453D330DCF
:102590000A00000041542B5253540D0A0000000061
:1025A00041542B43574A41505F4445463D22313206
:1025B0003334353637222C22313939303038323500
:1025C0003235220D0A000000222C226461746574E9
:1025D000696D65003C00002041542B434950535421
:1025E0004152543D22544350222C223130332E325A
:1025F00030352E342E3433222C38300D0A000000B2
:1026000041542B43495053454E443D3230300D0A1E
:10261000000000003C49000810B54FF41651FE4878
:10262000FFF7CBFDFDA1FC48FFF7E9FD10BD10B59C
:102630000446FDA1F848FFF7E2FD2146F648FFF702
:10264000ECFDFBA1F448FFF7DAFD10BD70B50446C0
:102650000E461546F7A1F048FFF7D1FD2146EE489A
:10266000FFF7DBFD2C21EC48FFF7B2FD3146EA48CD
:10267000FFF7D3FD2C21E848FFF7AAFD2946E648DD
:10268000FFF7CBFDEAA1E448FFF7B9FD70BD2DE9E6
:10269000F04704460F4615461E46DDE9099ADDF867
:1026A0002080E6A1DC48FFF7AAFD2146DA48FFF7C3
:1026B000B4FD2C21D848FFF78BFD3946D648FFF7EB
:1026C000ACFD2C21D448FFF783FD2946D248FFF703
:1026D000A4FD2C21D048FFF77BFD3146CE48FFF703
:1026E0009CFD2C21CC48FFF773FD4146CA48FFF7FB
:1026F00094FD2C21C848FFF76BFD4946C648FFF7FB
:102700008CFD2C21C448FFF763FD5146C248FFF7FA
:1027100084FDC7A1C048FFF772FDBDE8F0872DE931
:10272000F05F04460F4615461E46DDE90CABDDE9B9
:102730000A89C4A1B848FFF762FD2146B648FFF7F1
:102740006CFD2C21B448FFF743FD3946B248FFF732
:1027500064FD2C21B048FFF73BFD2946AE48FFF74A
:102760005CFD2C21AC48FFF733FD3146AA48FFF74A
:1027700054FD2C21A848FFF72BFD4146A648FFF742
:102780004CFD2C21A448FFF723FD4946A248FFF742
:1027900044FD2C21A048FFF71BFD51469E48FFF742
:1027A0003CFD2C219C48FFF713FD59469A48FFF742
:1027B00034FD2C219848FFF70BFD97480E99FFF741
:1027C0002CFD2C219448FFF703FD93480F99FFF748
:1027D00024FD2C219048FFF7FBFC22218E48FFF7B7
:1027E000F7FC8D481099FFF70AFD22218A48FFF770
:1027F000EFFC8FA18848FFF702FDBDE8F09F2DE9AF
:10280000F05F04460F4615461E46DDE90CABDDE9D8
:102810000A898CA18048FFF7F2FC21467E48FFF729
:10282000FCFC2C217C48FFF7D3FC39467A48FFF7A3
:10283000F4FC2C217848FFF7CBFC29467648FFF7BB
:10284000ECFC2C217448FFF7C3FC31467248FFF7BB
:10285000E4FC2C217048FFF7BBFC41466E48FFF7B3
:10286000DCFC2C216C48FFF7B3FC49466A48FFF7B3
:10287000D4FC2C216848FFF7ABFC51466648FFF7B3
:10288000CCFC2C216448FFF7A3FC59466248FFF7B3
:10289000C4FC2C216048FFF79BFC5F480E99FFF7B2
:1028A000BCFC2C215C48FFF793FC5B480F99FFF7B9
:1028B000B4FC2C215848FFF78BFC22215648FFF727
:1028C00087FC55481099FFF7A8FC22215248FFF7D2
:1028D0007FFC57A15048FFF792FCBDE8F09F2DE91F
:1028E000F05F04460F4615461E46DDE90CABDDE9F8
:1028F0000A8954A14848FFF782FC21464648FFF761
:102900008CFC2C214448FFF763FC39464248FFF712
:1029100084FC2C214048FFF75BFC29463E48FFF72A
:102920007CFC2C213C48FFF753FC31463A48FFF72A
:1029300074FC2C213848FFF74BFC41463648FFF722
:102940006CFC2C213448FFF743FC49463248FFF722
:1029500064FC2C213048FFF73BFC51462E48FFF722
:102960005CFC2C212C48FFF733FC59462A48FFF722
:1029700054FC2C212848FFF72BFC27480E99FFF721
:102980004CFC2C212448FFF723FC23480F99FFF728
:1029900044FC2C212048FFF71BFC22211E48FFF796
:1029A00017FC1D481099FFF775FC22211A48FFF704
:1029B0000FFC1FA11848FFF722FCBDE8F09F2DE98E
:1029C000F04104460F4615461E46DDF818801FA14B
:1029D0001148FFF714FC21460F48FFF71EFC2C217D
:1029E0000D48FFF7F5FB39460B48FFF716FC2C2185
:1029F0000948FFF7EDFB29460748FFF70EFC2C219D
:102A00000548FFF7E5FB31460348FFF706FC2C219C
:102A10000148FFF7DDFB1DE000380140636C7320C7
:102A200036353533350D0A00636C73200000000025
:102A30000D0A00007069632000000000787069636F
:102A400020000000777269737472200066696C6CF4
:102A50002000000041468C48FFF7DFFBAFF2300159
:102A60008948FFF7CCFBBDE8F0812DE9F041044631
:102A70000F4615461E46DDF8188084A18248FFF7F0
:102A8000BEFB21468048FFF7C8FB2C217E48FFF79C
:102A90009FFB39467C48FFF7C0FB2C217A48FFF7A3
:102AA00097FB29467848FFF7B8FB2C217648FFF7BB
:102AB0008FFB31467448FFF7B0FB2C217248FFF7BB
:102AC00087FB41467048FFF7A8FBAFF29C016E48B8
:102AD000FFF795FBBDE8F0812DE9F04104460F4674
:102AE00015461E46DDF818806AA16748FFF787FB88
:102AF00021466548FFF791FB2C216348FFF768FBEF
:102B000039466148FFF789FB2C215F48FFF760FBDE
:102B100029465D48FFF781FB2C215B48FFF758FBF6
:102B200031465948FFF779FB2C215748FFF750FBF6
:102B300041465548FFF771FBAFF20C115248FFF7C1
:102B40005EFBBDE8F0812DE9F04104460F461546D5
:102B50001E46DDF81880B8F1010F04D14FA14A4894
:102B6000FFF74DFB03E04FA14748FFF748FB214625
:102B70004548FFF752FB2C214348FFF729FB394614
:102B80004148FFF74AFB2C213F48FFF721FB29462C
:102B90003D48FFF742FB2C213B48FFF719FB31462C
:102BA0003948FFF73AFBAFF278113748FFF727FBB8
:102BB000BDE8F08110B504463CA13348FFF71FFB88
:102BC000B4F5807F04D13BA12F48FFF718FB03E049
:102BD00021462D48FFF721FBAFF2AC112A48FFF741
:102BE0000EFB10BD10B5044634A12748FFF707FBC4
:102BF00021462548FFF711FBAFF2CC112248FFF721
:102C0000FEFA10BD70B504460D462EA11E48FFF712
:102C1000F6FA21461C48FFF7F2FA2C211A48FFF772
:102C2000D7FA29461848FFF7F8FAAFF2FC11164810
:102C3000FFF7E5FA70BD70B504460D46214612480F
:102C4000FFF7DDFA21A11048FFF7D9FA3D210E4820
:102C5000FFF7BEFA29460C48FFF7DFFAAFF2302142
:102C60000948FFF7CCFA70BD10B5044619A1064813
:102C7000FFF7C5FA21460448FFF7CFFAAFF250211B
:102C80000148FFF7BCFA10BD003801406C696E6561
:102C900020000000647261772000000063697220E8
:102CA00000000000736F6C636972200070616765DB
:102CB000200000006D61696E0000000072656620F2
:102CC00000000000636C69636B2000002E76616C6D
:102CD000000000007072657364696D3D00000000C3
:102CE000002148E000BF00BF00BF00BF00BF00BF21
:102CF00000BF00BF00BF00BF00BF00BF00BF00BFDC
:102D000000BF00BF00BF00BF00BF00BF00BF00BFCB
:102D100000BF00BF00BF00BF00BF00BF00BF00BFBB
:102D200000BF00BF00BF00BF00BF00BF00BF00BFAB
:102D300000BF00BF00BF00BF00BF00BF00BF00BF9B
:102D400000BF00BF00BF00BF00BF00BF00BF00BF8B
:102D500000BF00BF00BF00BF00BF00BF00BF00BF7B
:102D600000BF00BF00BF00BF00BF00BF00BF00BF6B
:102D700000BF00BF491C8142B4DB704710B5034659
:102D8000002404E04FF47A70FFF7AAFF641C9C4211
:102D9000F8DB10BD08B501210420FDF727FF102046
:102DA0008DF803000120ADF8000003208DF802002B
:102DB00069461C48FDF7F8FB08BD10B5FFF7EAFFB0
:102DC00001211848FDF79DFC10BD70B504460D4665
:102DD0008CB901211348FDF787FC20B90121114866
:102DE000FDF78FFC03E001210E48FDF78CFC28461F
:102DF000FFF7C4FF15E0002611E001210948FDF7A7
:102E000073FC20B901210748FDF77BFC03E0012199
:102E10000448FDF778FC2846FFF7B0FF761CA64271
:102E2000EBDB70BD0008014008B501214020FDF733
:102E3000DDFE10208DF803000120ADF80000032016
:102E40008DF802006946DD48FDF7AEFB0121402008
:102E5000FDF7CCFE0220ADF800006946D748FDF72B
:102E6000A3FB01214020FDF7C1FE0420ADF80000C6
:102E70006946D248FDF798FB01214020FDF7B6FED8
:102E80000820ADF800006946CC48FDF78DFB012114
:102E9000CA48FDF738FC0221C848FDF734FC04217C
:102EA000C648FDF730FC0821C448FDF72CFC012181
:102EB0004020FDF79BFE28208DF803001020ADF880
:102EC00000006946BD48FDF76FFB01214020FDF77A
:102ED0008DFE2020ADF800006946B848FDF764FB80
:102EE00001214020FDF782FE4020ADF80000694638
:102EF000B248FDF759FB01214020FDF777FE802005
:102F0000ADF800006946AD48FDF74EFB08BD10B5B1
:102F1000FFF78AFF10BD10B50121A848FDF7F1FBAE
:102F20000221A648FDF7EFFB0421A448FDF7EBFBC7
:102F30000821A248FDF7E7FB1021A048FDF7C7FBD9
:102F400058B19620FEF78DFE00BF10219B48FDF77B
:102F5000BEFB0028F9D1012010BD20219748FDF7C4
:102F6000B6FB58B19620FEF77CFE00BF20219348A7
:102F7000FDF7ADFB0028F9D10220EDE740218F4895
:102F8000FDF7A5FB58B19620FEF76BFE00BF402170
:102F90008A48FDF79CFB0028F9D10320DCE780215B
:102FA0008648FDF794FB58B19620FEF75AFE00BF05
:102FB00080218248FDF78BFB0028F9D19620CBE7D2
:102FC00001217E48FDF79FFB02217C48FDF799FB1C
:102FD00004217A48FDF797FB08217848FDF793FB19
:102FE00010217648FDF773FB58B19620FEF739FEA5
:102FF00000BF10217148FDF76AFB0028F9D10420B9
:10300000AAE720216D48FDF762FB58B19620FEF734
:1030100028FE00BF20216948FDF759FB0028F9D19F
:10302000052099E740216548FDF751FB58B19620EE
:10303000FEF717FE00BF40216048FDF748FB00285F
:10304000F9D1062088E780215C48FDF740FB58B1A4
:103050009620FEF706FE00BF80215848FDF737FB9B
:103060000028F9D10B2077E701215448FDF74BFBED
:1030700002215248FDF747FB04215048FDF741FB70
:1030800008214E48FDF73FFB10214C48FDF71FFB80
:1030900058B19620FEF7E5FD00BF10214748FDF727
:1030A00016FB0028F9D1072056E720214348FDF7F9
:1030B0000EFB58B19620FEF7D4FD00BF20213F48FB
:1030C000FDF705FB0028F9D1082045E740213B48E2
:1030D000FDF7FDFA58B19620FEF7C3FD00BF402171
:1030E0003648FDF7F4FA0028F9D1092034E78021A9
:1030F0003248FDF7ECFA58B19620FEF7B2FD00BF5A
:1031000080212E48FDF7E3FA0028F9D10C2023E7AF
:1031100001212A48FDF7F7FA02212848FDF7F3FAC2
:1031200004212648FDF7EFFA08212448FDF7E9FAC3
:1031300010212248FDF7CBFA58B19620FEF791FDF9
:1031400000BF10211D48FDF7C2FA0028F9D10F2059
:1031500002E720211948FDF7BAFA50B19620FEF790
:1031600080FD00BF20211548FDF7B1FA0028F9D1F4
:10317000F2E640211148FDF7AAFA58B19620FEF771
:1031800070FD00BF40210D48FDF7A1FA0028F9D1DC
:103190000E20E1E680210948FDF799FA58B1962002
:1031A000FEF75FFD00BF80210448FDF790FA00287C
:1031B000F9D10D20D0E61420CEE600000018014021
:1031C00008B54FF48070ADF8000048208DF803007A
:1031D0006946BA48FDF7E8F908BD10B50024FFF7C5
:1031E000EFFF04E0601CC4B20120FEF7EBFC4FF4DB
:1031F0008071B248FDF76BFA08B1642CF2DB642CE5
:1032000001DB012010BD002404E0601CC4B20120D9
:10321000FEF7D8FC4FF48071A848FDF758FA08B9BA
:10322000F02CF2DBF02C01DB0120EBE70020E9E7DA
:1032300008B54FF48070ADF8000010208DF8030041
:1032400003208DF8020069469C48FDF7ADF908BDE2
:1032500010B5FFF7EDFF4FF480719848FDF753FA72
:1032600040F2EE20FEF7AEFC4FF480719348FDF77C
:1032700048FA0F20FEF7A6FC10BD08B50121042076
:10328000FDF7B4FC4FF48070ADF8000010208DF80D
:10329000030003208DF8020069468848FDF784F991
:1032A00008BD10B5FFF7E9FF4FF480718348FDF7C3
:1032B00028FAFFF7CDFFFFF790FF10BD10B5FFF71D
:1032C000B7FF4FF480717D48FDF71DFA0A20FEF725
:1032D00079FCFFF775FF4FF480717848FDF7F7F937
:1032E000012801D1012400E000242D20FEF76AFC12
:1032F000204610BD70B50026002408E0FFF7DEFF71
:10330000054605FA04F03043C6B2601CC4B2082C6E
:10331000F4DB304670BD70B50446FFF789FF002529
:1033200026E004F00106641086B14FF48071634812
:10333000FDF7E9F90820FEF745FC4FF480715F487E
:10334000FDF7DFF93A20FEF73DFC0FE04FF4807106
:103350005A48FDF7D8F94620FEF734FC4FF4807147
:103360005648FDF7CEF90220FEF72CFC681CC5B2CA
:10337000082DD6DB70BD10B5FFF76AFFFFF72DFFF4
:10338000CC20FFF7C8FF10BD10B5FFF761FFFFF7B6
:1033900024FF5520FFF7BFFF10BD2DE9F05FFFF7B9
:1033A000EAFF4420FFF7B7FFFFF7E5FFBE20FFF776
:1033B000B2FFFFF79FFF8346FFF79CFF82464FEA6D
:1033C0000A2004B244EA0B04002C0DDAE043401C4E
:1033D00000F0C8F907460022394B00F0DDF8054639
:1033E00000F01EFA81460BE0204600F0BBF90746CC
:1033F0000022334B00F0D0F8054600F011FA814668
:103400004846BDE8F09F70B505463320FFF783FFBF
:10341000002404E0FFF76EFF2855601CC4B2082C9E
:10342000F8DB70BD2DE9FC5F0646FFF7ADFF002419
:1034300004E0305DFFF76FFF601CC4B2082CF8DBBE
:103440004420FFF768FFFFF79FFF002404E0305D92
:10345000FFF761FF601CC4B2082CF8DBBE20FFF749
:103460005AFFFFF747FF8346FFF744FF81464FEAC5
:10347000092005B245EA0B05002D0EDAE843401C91
:1034800000F070F9074600220D4B00F085F8CDE9F9
:10349000000100F0C5F982460CE0284600F062F910
:1034A00007460022064B00F077F8CDE9000100F056
:1034B000B7F982465046BDE8FC9F00000008014075
:1034C0000000B03F30B505462A460B4612F8010B06
:1034D00013F8014B08B1A042F8D01CB1002802D06B
:1034E0006D1CF1E7284630BDF0B480EA0102D40F2C
:1034F0004200B2EB410F02D20246084611464A0092
:1035000042D0C30DDDB2C1F3C752AD1A202D35DA5A
:10351000C1F3160141F4000204B15242C5F1200684
:1035200002FA06F12A411044B3EBD05F23D0C4B1B4
:10353000012DA0EBC35009DCF0BC4FF0004202EAC1
:10354000C352DBB200F5000000F0A9B9400000F161
:10355000807000EBC350A0F1807040EAD170490048
:1035600009E0490841EAC071A0EBC35000F5000032
:10357000400800EBC350F0BC00F088B96142012262
:1035800002EB4101001BF6E7F0BC704781F00041FF
:10359000AAE780F00040A7E72DE9FE4F81EA030487
:1035A00004F0004421F0004100944FF0000B23F0A0
:1035B000004350EA01045ED052EA03045BD0C3F337
:1035C0000A54C1F30A552C44A4F2F3340194A0FB2D
:1035D0000254C1F3130141F48011C3F3130343F404
:1035E000801301FB024400FB034E840A970A44EA5D
:1035F000815447EA8357A4FB076802958D0A05FBAF
:1036000007854FEA932C04FB0C542705029D4FEAD3
:10361000065847EA1637B5EB08056EEB070C870E20
:10362000920E47EA811742EA8312A7FB0201B6EB2A
:103630000B0164EB00042B0D43EA0C335E1844EBE2
:103640001C50DA465146E7FB0201C5F313044FEA6A
:103650000B3343EA14534FEA0432019C43EA060356
:10366000A4F10C040294009CCDE900B400F054F9DC
:1036700003B0BDE8F08F00200146F9E72DE9F04DD9
:1036800081EA030404F0004B21F0004514464FF09A
:10369000000A23F0004150EA050220D054EA01025A
:1036A0001DD0C5F30A570246C5F31303C1F3130037
:1036B000C1F30A5640F4801543F48013A7EB0608C3
:1036C000101BD64608F2FD3873EB050002D308F153
:1036D000010801E092185B41B8F1000F03DA002005
:1036E0000146BDE8F08D00204FF480110646844667
:1036F0000EE0171B73EB050705D3121B63EB0503E5
:1037000006434CEA010C49084FEA300092185B412D
:1037100050EA0107EDD152EA030012D082EA040018
:1037200083EA0501084305D0101BAB4106D20122F4
:10373000002306E000224FF0004302E06FF0010298
:1037400053101AEB06004CEB085110EB0A0041EB4A
:103750000B01BDE8F04D00F0D0B8962300221146D1
:1037600000F09DB80EB5C10F80EAE0700844CA07AA
:10377000002140F233438DE80E000A460B4600F06C
:10378000CBF803B000BD0EB540F2334102910021E9
:10379000CDE900110A460B4600F0BEF803B000BDAB
:1037A00020F00040C10DC0F3160040F400007F2956
:1037B00001DA00207047962903DCC1F19601C84068
:1037C0007047963988407047C1F30A5210B5C1F36B
:1037D000130140F2FF3341F480119A4201DA0020D4
:1037E00010BD40F233439A42A2F2334203DC52420C
:1037F00000F03CF810BD904010BD00F0004230F0E9
:1038000000400AD0C10D01F56071C0F3160042EA14
:103810000151C2084007114370470020014670471C
:1038200001F0004330B421F0004150EA010206D01B
:103830000A0DA2F56072C1F31301002A02DC30BC4C
:1038400000207047440F44EAC104C100E01830BCB6
:1038500000EBC25000F01AB8002801DBC0F10040B4
:10386000002901DBC1F1004181427047202A04DBBD
:10387000203A21FA02F00021704721FA02F3D040E9
:10388000C2F1200291400843194670470029A8BFA1
:103890007047401C490008BF20F00100704710B479
:1038A000B0FA80FC00FA0CF050EA010404BF10BC2E
:1038B000704749B1CCF1200421FA04F411FA0CF15B
:1038C00018BF012121430843A3EB0C01CB1D4FEA94
:1038D00000614FEA102042BF002010BC704700EB8F
:1038E000C35010440029A4BF10BC7047401C4900BD
:1038F00008BF20F0010010BC704710B5141E73F112
:10390000000408DA401C41F1000192185B411A439F
:1039100001D120F0010010BD2DE9F04D92469B46EB
:1039200011B1B1FA81F202E0B0FA80F22032904691
:1039300000F028F904460F4640EA0A0041EA0B016C
:1039400053465A46084313D0114653EA010019D092
:10395000C8F140025046FFF789FF05460E46504623
:103960005946424600F00EF9084305D0012004E014
:1039700020463946BDE8F08D0020054346EAE07652
:103980002C4337430A986305E40AA0EB08000022A1
:10399000FD0A44EA47540A3002D500200146E9E70F
:1039A000010510196941DDE9084500196941BDE8C3
:1039B000F04DA2E72DE9FE4F804681EA0300C00FDB
:1039C0000C46009021F0004123F00045B8EB0200C6
:1039D000A94105D24046214690461C460B46024668
:1039E00023F00040104347D0270DC7F30A00C3F36C
:1039F0000A510290401A019040286BDAC3F3130079
:103A000040F4801B0098924620B10023D2EB030AB9
:103A100063EB0B0B01985946C0F14002504600F091
:103A2000B1F806460D4650465946019A00F0B9F8DD
:103A300010EB08006141002487EA115284EAE77321
:103A40001A4340D0009A62B3019A012A4FEA075202
:103A500015DC001B61EB02014FF0004202EA075245
:103A6000CDE90042001C41F5801132462B46FFF79C
:103A700053FF03B0BDE8F08F40462146F9E7001B35
:103A800061EB0201001C41F5801300185B41201816
:103A9000A2F5001747EB030140EAD570B6196D4156
:103AA00011E06D084FEA360645EAC0754FEA075245
:103AB000001B61EB0201001C41F5801149084FEA2F
:103AC00030000019514132462B4603B0BDE8F04F9B
:103AD000FFF713BF0098012240000023D0EB020241
:103AE00063EBE073009821464FEAE074B8EB000006
:103AF00061EB0401E9E783F000435BE781F00041FB
:103B000058E770B521F0004303430CD0C1F30A55C8
:103B10000024D5EB040564EB0403D617AD1AB341BA
:103B200002DB0020014670BD201841EB025170BD40
:103B300030B5041E71F1000404DB4FF00044404234
:103B400064EB0101141E73F1000405DB1C464FF009
:103B50000043524263EB0403994208BF904230BDD8
:103B6000064C074D06E0E06840F0010394E80700CA
:103B700098471034AC42F6D3FCF7DEFAA8490008A7
:103B8000C8490008202A04DB203A00FA02F100208C
:103B900070479140C2F1200320FA03F3194390408B
:103BA0007047202A06DBCB17203A41FA02F043EA9D
:103BB000E07306E041FA02F3D040C2F120029140E6
:103BC0000843194670472DE9F04D00231A461B1A89
:103BD0008A4103DB00200146BDE8F08DC1F30A52A3
:103BE000C1F3130141F480154FF0000BD10702D14E
:103BF00000186D41521E0027044640F2FF1138465E
:103C000001EB620A3E468046024600204FF48011D6
:103C1000FFF72CFEC2197141BB1846EB0100B4EB53
:103C2000030C75EB000C04D3E41A65EB0005174692
:103C30000E46241908F101006D4180463428E3DD69
:103C4000F91946EB0600091BA84103D24FF0FF32D9
:103C5000134601E0002213461BEB070046EB0A5116
:103C6000BDE8F04DFFF749BE10B5FDF743F8124926
:103C70000860FDF77BF811490F480068FEF72EF841
:103C80000E480069401C0D490861084680680830EC
:103C9000886008468068182803DB0846C068401C16
:103CA000C86006488068182190FBF1F201FB120001
:103CB0000249886010BD0000340000204800002048
:103CC000490050EAC12018BF04204A0D18BF40F037
:103CD000010040F2FF72B2EB515F08BF40F00200FA
:103CE000012808BF052070472DE9F0414F1E00EB69
:103CF000C7010446D1E9000115461E4637F0060209
:103D00000DD02A463346FFF747FC7F1E04EBC7035E
:103D1000D3E90023FFF74EFE37F00602F1D1022F60
:103D200025D0042F13D0062F18BFBDE8F0812A46F6
:103D30003346FFF731FCD4E90A23FFF73BFE2A465E
:103D40003346FFF729FCD4E90823FFF733FE2A4660
:103D50003346FFF721FCD4E90623FFF72BFE2A4662
:103D60003346FFF719FCD4E90423FFF723FE2A4664
:103D70003346FFF711FCD4E90223FFF71BFE2A4666
:103D80003346FFF709FCD4E90023BDE8F041FFF713
:103D900011BE00000022134610460149FFF76EBC19
:103DA0000000F03FFFF706BE002213461046114602
:103DB000FFF764BC40F2013200204FF0E041FFF712
:103DC000A0BE0000024A00201107FFF79ABE0000C3
:103DD00001FDFFFF02E008C8121F08C1002AFAD146
:103DE00070477047002001E001C1121F002AFBD17B
:103DF000704700000149086070470000440000203F
:103E00002DE9F04D1D460C4698B0174621F00041B3
:103E100023F00043002814BF4FF0010C4FF0000CBA
:103E20000CEB440CFE4A0CEB02064FEA620C6645B2
:103E30002BD33E0018BF012606EB45061644F94A6F
:103E4000964222D3F84A53EA070C02D0944205D195
:103E500048B918B000201146BDE8F08D002808BF11
:103E60004FF0000C01D04FF0010C0CEB440212F5A6
:103E7000001F0AD8002F14BF4FF0010C4FF0000CA8
:103E80000CEB450212F5001F07D918B03A462B4635
:103E90002146BDE8F04DFFF785BF0022DFF88CA377
:103EA000002CB8BF534526DADFF884C36345A8BFAA
:103EB000022220DADFF870C39C451CDCDFF874C3F3
:103EC0000CEB235CBCF1140F08DDCCF1340627FAAF
:103ED00006FC0CFA06F6BE420DD108E05FB9CCF143
:103EE000140623FA06FC0CFA06F69E4203D10CF0E7
:103EF0000102C2F1020251EA000C19D1002D17DAB9
:103F0000002C18BF022A01D0012A07D00220FFF797
:103F100071FF18B0BDE8F04DFFF73CBF0220FFF77E
:103F200069FFFFF737FF18B081F00041BDE8F08D61
:103F3000B7F1000C6CD1534525D104F1804212F544
:103F4000801201BF00280020B74918B008BFBDE8A3
:103F5000F08DB548884207DC002DA1BF6046294698
:103F600018B0BDE8F08D07E0281E05DA80F00041AA
:103F700018B06046BDE8F08DAF497944D1E9000141
:103F800018B0BDE8F08DDFF8A0C2634525D1002D43
:103F90001FDA19B1514512D1D8B909E0002840F013
:103FA000EC82A24A214618B062F31E01BDE8F08DF2
:103FB0000020214618B060F31E01BDE8F08D08DA3C
:103FC00018B02346BDE8F04D024600206146FFF7D9
:103FD00055BB18B02146BDE8F08D514518DAB5F152
:103FE000804F0DD0A5F1005CBCF1FF5C10D1B4F1A5
:103FF000000C0DDB18B06146BDE8F04D00F0ECBBE5
:10400000234618B00246BDE8F04D1946FFF7C4BA82
:10401000060024F0004C3BD1D9B1514533D1002CDE
:1040200006DD002DA1BF0020514618B0BDE8F08D7F
:10403000002C01DD002D1BDB002C13DA002D11DB21
:10404000012A4FF0000014BF78497C4918B0BDE840
:10405000F08D022A18BF002C0AD0012A08D1002CAA
:1040600006DA0AE0002CB8BF002D11DA012A04D0CC
:10407000002018B00146BDE8F08D18B000204FF0C8
:104080000041BDE8F08DA1F14050B0F17F601AD041
:10409000012000EBE47050EA020421D0624C521E71
:1040A0004FF0000B104304BF4FF0000B644C654809
:1040B00083427CDD644A654893421FDD884217DBFA
:1040C000002D25DB37E0002C00DA4AB1022A0CBFB4
:1040D00001204FF0FF3018B0BDE8F04DFFF742BBB4
:1040E0000120FFF787FE18B0BDE8F04DFFF75CBE7A
:1040F0004D4A8A4202DC002D0ADC1CE0814202DAD1
:10410000002D18DA04E0484B994220DD002D12DD25
:104110000220FFF76FFEFFF74DFE05460E46002218
:10412000534658462146FFF737FA18B066F31E018A
:104130002846BDE8F08D0220FFF75CFEFFF742FE47
:104140000A46214618B062F31E01BDE8F08D002238
:1041500030466146FFF7CFFC80460E466FF0010205
:10416000FFF7CFFC4FF05532394BFFF7C7FC424603
:104170003346FFF711FA0022364BFFF7BFFC8246A9
:1041800042463346049110461946FFF705FA524657
:10419000049BFFF701FA8A4600904FF0C0422E4B75
:1041A00040463146FFF7F8F92C4A2B4B00E027E058
:1041B000CDE9060151460098FFF7EEF982460191DC
:1041C000274A284B40463146FFF7E6F95246019B05
:1041D000FFF791FC82460B4602460591DDE9060198
:1041E000FFF7E8FBDDE90623002688463046FFF7A7
:1041F00082FC5246059BFFF781FC024600F07EB927
:104200000020B1F5801F07DA352230466146FFF7FE
:1042100078FC06466FF0340000EB215024E00000EB
:10422000FFFF1F00FFFF0F000000F03F0000F07FC6
:104230000000404301FCFFFF3A0900000000F0FFCE
:104240000000F0BF0000E0410000F043FFFFEF3F3F
:104250005555D53F0000E03F4715F73FFE822B65DF
:1042600044DF5DF80BAE543EA0F2FF300190C1F385
:10427000130040F07F6141F040510291FE498842B5
:10428000D8BF002004DDFD498142C8BF012001DD07
:104290000D9008E000200D900198401C01900298BC
:1042A000A0F5801002900299F54878440B910D9981
:1042B00000EBC100D0E900230F9330460A920B991E
:1042C000FFF719FCCDE90601DDE90A2130460F9B15
:1042D000FFF770FB02460B460020EA49FFF7CEF9D4
:1042E000059102460B460090DDE90601FFF754F9FF
:1042F0001490E5488A464FF0000878440299006817
:1043000012904FF0005040EA61010D980F9B01EBB5
:10431000804000F5002109910A9A1298FFF7EBFB03
:1043200032460B9BFFF7EAFB42465346FFF734F950
:104330000646029140465146099B129AFFF72CF916
:10434000DDE90623FFF7DAFB3246029BFFF7D3FBDA
:10435000059B009AFFF720F90091149A04905346A8
:1043600010461946FFF718F906460246C7480B469D
:10437000029106217844FFF7B7FCCDE90510029BB6
:10438000324610461946FFF707F9DDE90532FFF717
:1043900003F905910646534640461946149AFFF71D
:1043A00009FB009B049AFFF7F7F83246059BFFF7DD
:1043B00001FBCDE905104246534610461946FFF76A
:1043C000EBF80022B24B02910A90FFF7F3FADDE915
:1043D0000532FFF7EFFA0E464246AD4B4046FFF777
:1043E0008AFB029B0A9AFFF786FBDDE90532FFF79D
:1043F00085FB424602910A90334610465146FFF72C
:10440000CBF8CDE906015346149A02990A98FFF7B2
:10441000C3F88A4602903346424600990498FFF753
:10442000BBF85346029AFFF7C5FA82460B4602468E
:104430000591DDE90601FFF7BDFADDE9062300205D
:1044400088460646FFF757FB5246059BFFF756FB8B
:10445000824609914FF060428E4B30464146FFF74D
:104460009BF8049006918C4A8A4B50460999FFF7B5
:1044700093F882460291894A894B30464146FFF7BC
:104480008BF85246029BFFF795FA864B7B440D9AB8
:1044900003EBC203D3E90023FFF78CFA0E900791D8
:1044A0000198FFF75FF90591DDE9061382460E9A40
:1044B0000498FFF77FFA7C4A7A440D9B02EBC30312
:1044C000D3E9002300930292FFF774FA5246059B4A
:1044D000FFF770FA0026884652463046059BFFF7E4
:1044E0000AFB009B029AFFF706FB069B049AFFF764
:1044F00002FB079B0E9AFFF701FB024600200B46CA
:10450000029038462946FFF747F8824601912B462C
:1045100038461946029AFFF7EEFA32464346FFF74D
:104520003BF85246019BFFF745FA07468A4632465A
:10453000434629460298FFF72FF805460E463A46AD
:104540005346FFF737FA594A8846914221DBA8EBD8
:10455000020353EA000210D12A463346FFF7CBFA92
:10456000CDE90401524A534B38465146FFF722FA2F
:10457000DDE90423FFF7DCFA21D20220FFF73AFC41
:10458000FFF718FC0A46214618B062F31E01BDE889
:10459000F08D494B28F000429A4210D3474A08EB6D
:1045A000020353EA00027FF4C6AD2A463346FFF702
:1045B000A2FA3A465346FFF7BBFA7FF6BCAD00229B
:1045C000019228F000403E493E4A01EB20518242D0
:1045D00023DA481C4FF4801121FA00F040443A4A93
:1045E000C0F30A517A44394BA1F2FF31CB4020EAA3
:1045F0000303C0F3130040F48010C1F11401C8405C
:1046000012680190B8F1000FBCBF404201902846EB
:104610003146FFF770FA05460E462A4633463846BD
:104620005146FFF7C7F94FF000084246284B404675
:104630000591FEF7B1FFCDE90601264A264B40461B
:104640000599FEF7A9FF009102902A46334640469D
:104650000599FFF750FA3A465346FFF74FFA1F4ABB
:104660001F4BFEF799FF009B029AFFF7A3F907463D
:10467000884602460B4635E08E9803007AB60B005A
:10468000820500000000F03FBA050000E8040000C9
:104690000000084009C7EE3FFD033ADCF5015B145A
:1046A000E02F3EBEC00300008403000000009040E5
:1046B000FE822B654715973C00CC904000346F3F3D
:1046C00001FCFFFF0000E03FD0020000FFFF0F00F1
:1046D000432EE63F396CA80C615C20BEEF39FAFE30
:1046E000422EE63FDDE90601FFF764F9DDE9062326
:1046F00005460E46FFF7FFF93A464346FFF7FEF937
:104700000F462A463346009010461946FEF744FFEE
:10471000824602462E4888460B4605217844FFF71C
:10472000E3FA52464346FEF737FF2A463346FFF781
:10473000E5F980468A463B4628463146009AFEF710
:104740002BFF3B46009AFFF735F9069100900022B7
:104750004FF0804340465146FFF7CDF90F460C908D
:104760004246534628463146FEF716FF3B460C9A12
:10477000FEF784FF069B009AFFF7BDF92A463346F1
:10478000FFF7B9F90022134BFFF7B8F90546019876
:104790000E4601EB00510815002810DC2846314672
:1047A000019AFFF7AEF9FFF78BFA042808BFFFF76D
:1047B00009FB28463146019AFFF7A3F905460B4647
:1047C00018B02A4658462146BDE8F04DFEF7E4BE33
:1047D000700100000000F03F2DE9F04106460F4651
:1047E000FFF7F1F9041E0D4618BF0120284320F001
:1047F0000040C0F17F6000F1E040C00F0ED0301CDF
:1048000018BF0120384320F00040C0F17F6000F164
:10481000E040C00F04BF0120FFF7ECFA2046294614
:10482000BDE8F0811F1C1F1E1F1E1F1F1E1F1E1F05
:10483000000000000000F03F000000000000F83F12
:1048400000000000000000000000004003B8E23F4C
:10485000000000000000000006D0CF43EBFD4C3EFE
:10486000033333333333E33FFFAB6FDBB66DDB3FF3
:104870004D268F515555D53F01411DA96074D13F3B
:1048800065DBC9934A86CD3FEF4E454A287ECA3F35
:104890003E5555555555C53F93BDBE166CC166BFB7
:1048A0002CDE25AF6A56113FF16BD2C541BDBBBEB0
:1048B000D0A4BE726937663E000000000000000010
:1048C0002F2A2A2A2A2A2A2A2A2A2A2A2A2A2A2A43
:1048D0002A2A2A2A2A2A2A2A2A2A2A2A2A2A2A2A38
:1048E0002A2A2A2A2A2A2A2A2F0A2F0909BBB6D3BA
:1048F000ADCAB9D3C32121212109092F0A2F0909E2
:10490000C7EBCAE4C8EBC3DCC2EB212109092F0ABB
:104910002F2A2A2A2A2A2A2A2A2A2A2A2A2A2A2AF2
:104920002A2A2A2A2A2A2A2A2A2A2A2A2A2A2A2AE7
:104930002A2A2A2A2A2A2A2A2F0A000047455420EE
:10494000687474703A2F2F6170692E6B3738302E6F
:10495000636F6D3A38382F3F6170703D6C696665E2
:104960002E74696D65266170706B65793D313030EC
:104970003033267369676E3D62353962633365662D
:1049800036313931656239663734376464346538B5
:10499000336339396632613426666F726D61743DF6
:1049A0006A736F6E0D0A0000C849000800000020FD
:1049B00048000000D43D0008104A000848000020CC
:1049C000E0040000E43D000800A24A0400000000EA
:1049D00000000000010203040607080900000000AF
:1049E0000102030401020304060708090204060881
:1049F00000000000000000000000000000000000B7
:104A000000000000000000000000000000000000A6
:0400000508000131BD
:00000001FF
