:020000040800F2
:100000003004002045010008690A00086B0A000856
:100010006F0A0008730A0008770A00080000000051
:100020000000000000000000000000007B0A000843
:100030007D0A0008000000007F0A0008810A00080D
:100040005F0100085F0100085F0100085F01000810
:100050005F0100085F0100085F0100085F01000800
:100060005F0100085F0100085F0100085F010008F0
:100070005F0100085F0100085F0100085F010008E0
:100080005F0100085F0100085F0100085F010008D0
:100090005F0100085F0100085F0100085F010008C0
:1000A0005F0100085F0100085F0100085F010008B0
:1000B0005F0100085F0100085F0100085F010008A0
:1000C0005F0100085F0100085F0100085F01000890
:1000D0005F0100085F0100085F0100085F01000880
:1000E0005F0100085F0100085F0100085F01000870
:1000F0005F0100085F0100085F0100085F01000860
:100100005F0100085F0100085F0100085F0100084F
:100110005F0100085F0100085F0100085F0100083F
:100120005F0100085F0100085F0100085F0100082F
:10013000DFF80CD001F0C6F800480047490A000873
:10014000300400200648804706480047FEE7FEE7E7
:10015000FEE7FEE7FEE7FEE7FEE7FEE7FEE7FEE777
:1001600047020008310100080CB500200190009002
:100170006C48006840F480306A49086000BF6948F4
:10018000006800F4003000900198401C0190009835
:1001900018B90198B0F5A06FF1D16248006800F479
:1001A000003010B10120009001E000200090009884
:1001B000012843D15C48006840F010005A490860AB
:1001C0000846006820F0030008600846006840F018
:1001D0000200086053484068524948600846406839
:1001E00048600846406840F48060486008464068BF
:1001F00020F47C1048600846406840F4E8104860ED
:100200000846006840F08070086000BF45480068FC
:1002100000F000700028F9D04248406820F0030048
:10022000404948600846406840F00200486000BF0E
:100230003C48406800F00C000828F9D10CBD10B50E
:10024000FFF792FF10BD10B53648006840F001007E
:1002500034490860084640683449084031494860DC
:1002600008460068324908402E4908600846006880
:1002700020F4802008600846406820F4FE004860B2
:100280004FF41F008860FFF7DAFF4FF00060294944
:10029000086010BD10B5002100200022214B5B68D2
:1002A00003F00C0121B1042906D0082928D107E068
:1002B000214B224C236027E01F4B204C236023E07E
:1002C000184B5B6803F47010164B5B6803F48032C4
:1002D000022303EB904022B9194B4343174C236090
:1002E0000DE0104B5B6803F4003323B1144B434320
:1002F000124C236003E0104B4343104C236003E097
:100300000D4B0E4C236000BF00BF064B5B68C3F370
:1003100003130C4CE15C094B1B68CB40074C23607A
:1003200010BD000000100240002002400000FFF855
:10033000FFFFF6FE08ED00E000127A00000000204A
:1003400000093D000400002010B50446CC4884425A
:1003500008D10121042000F02DFB0021042000F031
:1003600029FB46E0C748844208D10121082000F05B
:1003700021FB0021082000F01DFB3AE0C248844226
:1003800008D10121102000F015FB0021102000F001
:1003900011FB2EE0BD48844208D10121202000F04D
:1003A00009FB0021202000F005FB22E0B848844230
:1003B00008D10121402000F0FDFA0021402000F08A
:1003C000F9FA16E0B348844208D10121802000F0F8
:1003D000F1FA0021802000F0EDFA0AE0AE488442F4
:1003E00007D10121801500F0E5FA0021A01500F0E9
:1003F000E1FA10BD10B50121084600F0DBFA00213A
:10040000012000F0D7FA10BD2DE9F0410246002589
:100410000026002000230024002791F803C00CF0E0
:100420000F0591F803C00CF0100CBCF1000F03D0C5
:1004300091F802C04CEA050591F800C0BCF1000F2C
:1004400031D0146800202BE04FF0010C0CFA00F3BF
:10045000B1F800C00CEA03069E4220D183004FF0A1
:100460000F0C0CFA03F7BC4305FA03FC4CEA040436
:1004700091F803C0BCF1280F06D14FF0010C0CFA23
:1004800000FCC2F814C00AE091F803C0BCF1480FA8
:1004900005D14FF0010C0CFA00FCC2F810C0401C52
:1004A0000828D1D31460B1F800C0BCF1FF0F34DDCF
:1004B000546800202EE000F1080C4FF0010808FA03
:1004C0000CF3B1F800C00CEA03069E4221D1830070
:1004D0004FF00F0C0CFA03F7BC4305FA03FC4CEA8F
:1004E000040491F803C0BCF1280F05D100F1080CF9
:1004F00008FA0CF8C2F8148091F803C0BCF1480F58
:1005000007D100F1080C4FF0010808FA0CF8C2F806
:100510001080401C0828CED35460BDE8F0814FF60F
:10052000FF710180022181700421C1707047024671
:10053000002093680B400BB1012000E000207047C1
:100540000146886880B2704702460020D3680B409D
:100550000BB1012000E0002070470146C86880B25E
:10056000704701617047416170470AB1016100E065
:1005700041617047C16070474FF480320A43826125
:100580008161826182698269704702460020434B23
:1005900018684FF68073184040EA021008433F4B3A
:1005A000186070473E49C8617047F0B50A4600239D
:1005B00000240021002500F00046B6F1004F02D1D2
:1005C000364EF16901E0354E7168C0F3034583B2E0
:1005D00000F44016B6F5401F08D121F070612F4E8F
:1005E000766826F070662D4F7E6012E000F480166B
:1005F000B6F5801F06D1032606FA05F4A14341F0A3
:10060000706106E0460D360103FA06F6B14341F08B
:10061000706122B1460D360103FA06F6314300F04F
:100620000046B6F1004F02D11C4EF16101E01B4EB5
:100630007160F0BD30B500228B071C0F0F2303FA49
:1006400004F2164B08338C1053F824309343134CA8
:1006500008348D1044F8253023468C1053F824308C
:100660008C07240F00FA04F423430C4C08348D103B
:1006700044F8253030BD0A49DC310860704700007D
:1006800000080140000C014000100140001401402E
:1006900000180140001C0140002001400000014002
:1006A00000002042DF48006840F00100DD4908609A
:1006B00008464068DC490840DA4948600846006856
:1006C000DA490840D74908600846006820F48020CD
:1006D00008600846406820F4FE0048604FF41F00A0
:1006E00088607047CF49096821F48031CD4A116094
:1006F0001146096821F480211160B0F5803F03D0D4
:10070000B0F5802F0ED106E0C649096841F480316A
:10071000C44A116007E0C349096841F4A021C14AF5
:10072000116000E000BF00BF704710B50146002215
:10073000002300204A11012A02D1BA4C236806E0A6
:10074000022A02D1B74C236A01E0B64C636A01F079
:100750001F02012494401C400CB1012000E0002045
:1007600010BD38B5002000900024002500BF3120C6
:10077000FFF7DBFF05460098401C00900098B0F59D
:10078000A06F01D0002DF2D03120FFF7CEFF08B1CD
:10079000012400E00024204638BD01460020A14A83
:1007A000106820F0F80040EAC10010607047A049CE
:1007B00008607047024600209A4B586820F47C106D
:1007C00042EA01031843974B5860704798490866FE
:1007D000704701460020934A506820F00300084308
:1007E000506070478F48406800F00C007047014629
:1007F00000208C4A506820F0F00008435060704799
:1008000001460020874A506820F4E06008435060A9
:10081000704701460020834A506820F4605040EA47
:10082000C1005060704729B17E4A527A02437D4B25
:100830005A7204E07B4A527A82437A4B5A7270476A
:100840007B49D8310860704701460020754A5068DE
:1008500020F440400843506070470021714A203224
:100860001170704A82F82010012802D004280AD1A1
:1008700004E001216B4A2032117005E00521694A2C
:100880002032117000E000BF00BF70476949086066
:1008900070476449096A0143624A116270476549B9
:1008A00044390860704730B500210022002400233D
:1008B0005C4D6D6805F00C0121B1042905D00829B3
:1008C00023D105E05C4D056022E05B4D05601FE033
:1008D000544D6D6805F47012524D6D6805F4803406
:1008E000022505EB92421CB9544D554305600BE0BF
:1008F0004C4D6D6805F400351DB1504D55430560F4
:1009000002E04D4D5543056002E04B4D056000BFD0
:1009100000BF444D6D6805F0F0010909484D6B5C5E
:100920000568DD4045603F4D6D6805F4E061090AEA
:10093000434D6B5C4568DD4085603A4D6D6805F45C
:100940006051C90A3E4D6B5C4568DD40C560354D60
:100950006D6805F44041890B3A4D6B5CC568B5FB89
:10096000F3F5056130BD29B12E4A526902432D4B82
:100970005A6104E02B4A526982432A4B5A617047FC
:1009800029B1284A92690243264B9A6104E0254A1C
:1009900092698243234B9A61704729B1214AD269F7
:1009A0000243204BDA6104E01E4AD26982431D4BA8
:1009B000DA61704729B11B4AD2680243194BDA60E9
:1009C00004E0184AD2688243164BDA60704729B1B6
:1009D000144A12690243134B1A6104E0114A126966
:1009E0008243104B1A6170471249403908607047C2
:1009F0000F49C86470470B49C87170470948406A7D
:100A000040F0807007494862704701460020054A5F
:100A100092680A400AB1012000E0002070470149B5
:100A200088727047001002400000FFF8FFFFF6FEDA
:100A3000000042428004424200127A0000093D0058
:100A400014000020240000204FF47A7000F054F8C5
:100A500000F01EF800F0CCF805E00A2000F094F950
:100A6000642000F028F8F8E7704700BFFEE700BFF9
:100A7000FEE700BFFEE700BFFEE770477047704724
:100A800002480068401C01490860704728000020A7
:100A900008B501211020FFF773FF10208DF8030027
:100AA0004002ADF8000003208DF8020069461048AE
:100AB000FFF7AAFC08BD10B504460E480068A04226
:100AC00014D300200B4908604FF400510848FFF789
:100AD0003BFD30B100224FF400510548FFF745FDC2
:100AE00004E0012251030248FFF73FFD10BD000062
:100AF000001001402800002070B50346154800682A
:100B0000B0FBF3F1B1F1807F01D301201DE021F0B2
:100B10007F40401E4FF0E022506150170F22002806
:100B200007DA1407260E0C4C00F00F052D1F665532
:100B300003E01407250E094C255400BF00204FF098
:100B4000E022906107201061002008B100BFFEE79D
:100B500070BD00000000002018ED00E000E400E09F
:100B6000002102E000BF00BF491C8142FADB704750
:100B700010B50346002404E04FF47A70FFF7F0FF4D
:100B8000641C9C42F8DB10BD08B501210420FFF76E
:100B9000F7FE1120ADF8000010208DF803000320AF
:100BA0008DF802006946DD48FFF72EFC0121042084
:100BB000FFF7E6FE2220ADF800006946D748FFF7B0
:100BC00023FC01210420FFF7DBFE4420ADF80000E8
:100BD0006946D248FFF718FC01210420FFF7D0FE38
:100BE0008820ADF800006946CC48FFF70DFC08BD31
:100BF00010B5FFF7C9FF1121C848FFF7B4FC222147
:100C0000C648FFF7B0FC4421C448FFF7ACFC88217C
:100C1000C248FFF7A8FC10BD70B50546012453E09B
:100C2000012C06D0022C15D0032C24D0042C44D146
:100C300032E01121B948FFF794FC2221B748FFF7B1
:100C400092FC4421B548FFF78EFC8821B348FFF79A
:100C50008AFC32E01121B148FFF785FC2221AF4820
:100C6000FFF77FFC4421AD48FFF77DFC8821AB48AE
:100C7000FFF779FC21E01121A848FFF774FC22213D
:100C8000A648FFF770FC4421A448FFF76AFC8821BE
:100C9000A248FFF768FC10E01121A048FFF763FCB1
:100CA00022219E48FFF75FFC44219C48FFF75BFC34
:100CB00088219A48FFF755FC00BF00BFC5F120010D
:100CC00088B2FFF755FF641C042CA9DD70BD70B518
:100CD00004460C2C57DC042553E0012D06D0022DD0
:100CE00015D0032D24D0042D44D132E011218B489E
:100CF000FFF737FC22218948FFF733FC442187485E
:100D0000FFF731FC88218548FFF72DFC32E01121E7
:100D10008248FFF728FC22218048FFF722FC44216B
:100D20007E48FFF71EFC88217C48FFF71CFC21E071
:100D300011217A48FFF717FC22217848FFF713FCAE
:100D400044217648FFF70DFC88217448FFF709FC21
:100D500010E011217148FFF704FC22216F48FFF7D2
:100D600002FC44216D48FFF7FEFB88216B48FFF72A
:100D7000F8FB00BF00BFC4F11C0188B2FFF7F8FE0A
:100D80006D1E012DA9DA70BD70B505460C2D70DC05
:100D9000012498E0092C16D2DFE804F08E0516270E
:100DA00038495A6C7D0011215C48FFF7DAFB22219B
:100DB0005A48FFF7D6FB44215848FFF7D4FB882157
:100DC0005648FFF7D0FB77E011215448FFF7C9FBE5
:100DD00022215248FFF7C5FB44215048FFF7C3FBCF
:100DE00088214E48FFF7BFFB66E011214B48FFF713
:100DF000BAFB22214948FFF7B4FB44214748FFF7DB
:100E0000B2FB88214548FFF7AEFB55E0112143486E
:100E1000FFF7A9FB22214148FFF7A3FB44213F48EC
:100E2000FFF79FFB88213D48FFF79DFB44E0112120
:100E30003A48FFF798FB22213848FFF794FB4421FA
:100E40003648FFF78EFB88213448FFF78CFB33E0F0
:100E500011213248FFF787FB22213048FFF783FB3F
:100E600044212E48FFF77DFB88212C48FFF779FBB2
:100E700022E02BE011212948FFF775FB22212748AA
:100E8000FFF771FB44212548FFF76DFB88212348BC
:100E9000FFF767FB10E011212048FFF762FB2221DA
:100EA0001E48FFF760FB44211C48FFF75CFB8821CC
:100EB0001A48FFF756FB00BF00BFC5F1140188B206
:100EC000FFF756FE641C082C7FF764AF70BD2DE958
:100ED000FC5F834614461D464FF0000A04E0584666
:100EE000FFF79AFE0AF1010A22462B4600204FF036
:100EF000814100F0BEF80022094BCDE9000100F06D
:100F000011F806460F46504600F025F98046324655
:100F10003B4600F031F9E2D3BDE8FC9F00080140F8
:100F20000000F03F2DE9FE4F804681EA0300C00F2C
:100F30000C46009021F0004123F00045B8EB020080
:100F4000A94105D24046214690461C460B46024622
:100F500023F00040104347D0270DC7F30A00C3F326
:100F60000A510290401A019040286BDAC3F3130033
:100F700040F4801B0098924620B10023D2EB030A74
:100F800063EB0B0B01985946C0F14002504600F04C
:100F90000BF906460D4650465946019A00F023F9D2
:100FA00010EB08006141002487EA115284EAE773DC
:100FB0001A4340D0009A62B3019A012A4FEA0752BD
:100FC00015DC001B61EB02014FF0004202EA075200
:100FD000CDE90042001C41F5801132462B4600F05D
:100FE00023F903B0BDE8F08F40462146F9E7001B26
:100FF00061EB0201001C41F5801300185B412018D1
:10100000A2F5001747EB030140EAD570B6196D4110
:1010100011E06D084FEA360645EAC0754FEA0752FF
:10102000001B61EB0201001C41F5801149084FEAE9
:1010300030000019514132462B4603B0BDE8F04F55
:1010400000F0E3B80098012240000023D0EB020238
:1010500063EBE073009821464FEAE074B8EB0000C0
:1010600061EB0401E9E783F000435BE781F00041B5
:1010700058E72DE9FE4F81EA030404F0004421F013
:10108000004100944FF0000B23F0004350EA0104AC
:101090005ED052EA03045BD0C3F30A54C1F30A558D
:1010A0002C44A4F2F3340194A0FB0254C1F31301C5
:1010B00041F48011C3F3130343F4801301FB024492
:1010C00000FB034E840A970A44EA815447EA835797
:1010D000A4FB076802958D0A05FB07854FEA932C50
:1010E00004FB0C542705029D4FEA065847EA1637C1
:1010F000B5EB08056EEB070C870E920E47EA8117D9
:1011000042EA8312A7FB0201B6EB0B0164EB000479
:101110002B0D43EA0C335E1844EB1C50DA46514663
:10112000E7FB0201C5F313044FEA0B3343EA145300
:101130004FEA0432019C43EA0603A4F10C04029432
:10114000009CCDE900B400F06FF803B0BDE8F08F6B
:1011500000200146F9E70EB5C10F80EAE0700844AF
:10116000CA07002140F233438DE80E000A460B46C1
:1011700000F05AF803B000BD30B5041E71F1000450
:1011800004DB4FF00044404264EB0101141E73F194
:10119000000405DB1C464FF00043524263EB04039E
:1011A0008B4208BF824230BD202A04DB203A00FA7D
:1011B00002F1002070479140C2F1200320FA03F3AE
:1011C000194390407047202A04DB203A21FA02F0AC
:1011D0000021704721FA02F3D040C2F12002914071
:1011E000084319467047202A06DBCB17203A41FAFC
:1011F00002F043EAE07306E041FA02F3D040C2F1A4
:101200002002914008431946704710B5141E73F12F
:10121000000408DA401C41F1000192185B411A43B6
:1012200001D120F0010010BD2DE9F04D92469B4602
:1012300011B1B1FA81F202E0B0FA80F220329046A8
:10124000FFF7B2FF04460F4640EA0A0041EA0B01ED
:1012500053465A46084313D0114653EA010019D0A9
:10126000C8F140025046FFF7AEFF05460E46504615
:1012700059464246FFF798FF084305D0012004E095
:1012800020463946BDE8F08D0020054346EAE07669
:101290002C4337430A986305E40AA0EB08000022B8
:1012A000FD0A44EA47540A3002D500200146E9E726
:1012B000010510196941DDE9084500196941BDE8DA
:1012C000F04DA2E7064C074D06E0E06840F0010350
:1012D00094E8070098471034AC42F6D3FEF72CFF91
:1012E000081300082813000802E008C8121F08C1EC
:1012F000002AFAD170477047002001E001C1121F97
:10130000002AFBD1704700002813000800000020CD
:101310002C000000E8120008541300082C000020E4
:1013200004040000F812000800A24A0400000000B3
:101330000000000001020304060708090000000085
:101340000102030401020304060708090204060857
:041350000000000099
:0400000508000131BD
:00000001FF
