:020000040800F2
:100000003804002045010008B9120008BB1200089E
:10001000BF120008C3120008C71200080000000049
:10002000000000000000000000000000CB120008EB
:10003000CD12000800000000CF120008D112000805
:100040005F0100085F0100085F0100085F01000810
:100050005F0100085F0100085F0100085F01000800
:100060005F0100085F0100085F0100085F010008F0
:100070005F0100085F0100085F0100085F010008E0
:100080005F0100085F0100085F0100085F010008D0
:100090005F0100085F0100085F010008D31200083B
:1000A0005F0100085F0100085F0100085F010008B0
:1000B0005F0100085F0100085F0100085F010008A0
:1000C0005F0100085F0100085F0100085F01000890
:1000D0005F0100085F0100085F0100085F01000880
:1000E000FD1200085F0100085F0100085F010008C1
:1000F0005F0100085F0100085F0100085F01000860
:100100005F0100085F0100085F0100085F0100084F
:100110005F0100085F0100085F0100085F0100083F
:100120005F0100085F0100085F0100085F0100082F
:10013000DFF80CD001F06CFE00480047FD1100080C
:10014000380400200648804706480047FEE7FEE7DF
:10015000FEE7FEE7FEE7FEE7FEE7FEE7FEE7FEE777
:1001600047020008310100080CB500200190009002
:100170006C48006840F480306A49086000BF6948F4
:10018000006800F4003000900198401C0190009835
:1001900018B90198B0F5A06FF1D16248006800F479
:1001A000003010B10120009001E000200090009884
:1001B000012843D15C48006840F010005A490860AB
:1001C0000846006820F0030008600846006840F018
:1001D0000200086053484068524948600846406839
:1001E00048600846406840F48060486008464068BF
:1001F00020F47C1048600846406840F4E8104860ED
:100200000846006840F08070086000BF45480068FC
:1002100000F000700028F9D04248406820F0030048
:10022000404948600846406840F00200486000BF0E
:100230003C48406800F00C000828F9D10CBD10B50E
:10024000FFF792FF10BD10B53648006840F001007E
:1002500034490860084640683449084031494860DC
:1002600008460068324908402E4908600846006880
:1002700020F4802008600846406820F4FE004860B2
:100280004FF41F008860FFF7DAFF4FF00060294944
:10029000086010BD10B5002100200022214B5B68D2
:1002A00003F00C0121B1042906D0082928D107E068
:1002B000214B224C236027E01F4B204C236023E07E
:1002C000184B5B6803F47010164B5B6803F48032C4
:1002D000022303EB904022B9194B4343174C236090
:1002E0000DE0104B5B6803F4003323B1144B434320
:1002F000124C236003E0104B4343104C236003E097
:100300000D4B0E4C236000BF00BF064B5B68C3F370
:1003100003130C4CE15C094B1B68CB40074C23607A
:1003200010BD000000100240002002400000FFF855
:10033000FFFFF6FE08ED00E000127A00000000204A
:1003400000093D000400002031490143314A116099
:10035000704770B5002100230F22C47804B32D4CE0
:10036000246804F4E064C4F5E064210AC1F10403E4
:10037000CA40447804FA03F1847814402143090107
:10038000254C0678A155047804F01F050124AC40E3
:1003900005786D11AD0005F1E025C5F8004109E0D3
:1003A000047804F01F050124AC401C4D067876113A
:1003B00045F8264070BD1A4A0A400243154B1B1FE0
:1003C0001A60704739B1134A121D12680243114B6B
:1003D0001B1D1A6006E00F4A121D126882430D4B66
:1003E0001B1D1A607047042808D14FF0E0210969ED
:1003F00041F004014FF0E022116107E04FF0E021ED
:10040000096921F004014FF0E022116170470000FA
:100410000000FA050CED00E000E400E080E100E0FF
:1004200080FFFF1F002044490860091D0860091D66
:100430000860091D086041483F4914310860704751
:1004400000213D498279002A3AD00A4612680368A1
:100450009A430B461A600A1D126803689A430B1DE3
:100460001A60027911440A6803681A430A60324A22
:100470000832126803689A432F4B08331A601A1D1A
:10048000126803689A432C4B0C331A604279102A85
:100490000ED11A1F126803681A43274B08331A60DB
:1004A0001A1D126803681A43234B0C331A600DE0BF
:1004B0002149427911440A6803681A430A6005E039
:1004C000027911440A6803689A430A607047002160
:1004D000016001710C214171002181717047164941
:1004E000103109680143144A103211607047014607
:1004F0000020114A143212680A400AB1012000E0BB
:10050000002070470C4914310860704701460020F4
:100510000022094B1B6803EA0102074B14331B68D6
:100520000B4013B10AB1012000E0002070470249DE
:10053000143108607047000000040140FFFF0F0005
:1005400001460020FE4A106800F0380008431060A1
:100550007047FB49096821F00801F94A116011460A
:100560000968014311607047F549096821F01001DD
:10057000F34A116011460968014311607047F14860
:10058000EF494860F04848607047EE48EC494860E1
:10059000ED4848607047EA48006940F08000E8494B
:1005A00008617047E648006940F08000E44908614E
:1005B00070470420E249C96801F0010109B1012036
:1005C0000EE0DF49C96801F0040109B1022007E02B
:1005D000DB49C96801F0100109B1032000E00420E3
:1005E000704700B502460423FFF7E3FF034603E02C
:1005F000FFF7DFFF0346521E012B01D1002AF7D17E
:1006000002B90523184600BD30B5044604254FF451
:100610003020FFF7E6FF0546042D17D1C8480069D2
:1006200040F00200C649086108464461006940F094
:10063000400008614FF43020FFF7D3FF0546C04863
:10064000006941F6FD710840BD490861284630BD8A
:1006500010B504244FF43020FFF7C3FF0446042CE8
:1006600016D1B748006940F00400B5490861084652
:10067000006940F0400008614FF43020FFF7B1FFFF
:100680000446AF48006941F6FB710840AC49086177
:10069000204610BD00B502460423FFF78AFF03463B
:1006A00003E0FFF786FF0346521E012B01D1002A0B
:1006B000F7D102B90523184600BD10B504244FF444
:1006C0003020FFF7E7FF0446042C16D19C48006950
:1006D00040F004009A4908610846006940F0400073
:1006E00008614FF43020FFF7D5FF044694480069B5
:1006F00041F6FB71084092490861204610BD002078
:100700008F49C96901F0020109B1012000E0002010
:10071000704730B5A5250424FFF7F1FF00B100258F
:100720004FF43020FFF75DFF0446042C3AD1854892
:1007300083498860844888600846006940F020004A
:1007400008610846006940F0400008614FF430201D
:10075000FFF747FF0446042C1BD17948006941F696
:10076000DF710840764908610846006940F01000D2
:10077000086176480580E002FFF733FF0446052C48
:1007800010D06F48006941F6EF7108406C4908616C
:1007900008E0052C06D06A48006941F6EF71084070
:1007A00067490861204630BD78B506460C460425E9
:1007B00000200090E802FFF714FF0546042D24D125
:1007C0005F48006940F001005D4908613480E8023B
:1007D000FFF707FF0546042D10D1B01C0090200C38
:1007E00000990880E802FFF7FCFE054654480069BE
:1007F00041F6FE7108405249086106E05048006920
:1008000041F6FE7108404E490861284678BD70B532
:1008100004460D460426F002FFF7E3FE0646042ECA
:1008200011D14748006940F0010045490861258021
:10083000F002FFF7D6FE06464148006941F6FE7118
:1008400008403F490861304670BD70B505460E4608
:100850000424E002FFF7C5FE0446042C17D13948F2
:1008600037498860384888600846006940F01000C1
:1008700008612E80E002FFF7B4FE0446052C06D086
:100880002F48006941F6EF7108402D490861204664
:1008900070BD2DE9F04304464FF6FF763746B0466B
:1008A000B1460425E443E6B2C4F30727C4F307487E
:1008B0004FEA1469E802FFF794FE0546042D49D17A
:1008C00020481F498860204888600846006940F039
:1008D00010000861FF2E06D01C4808300680E80290
:1008E000FFF77FFE0546042D08D1FF2F06D01748DD
:1008F0000A300780E802FFF774FE0546042D0AD18E
:10090000B8F1FF0F07D011480C30A0F80080E802C2
:10091000FFF767FE0546042D0AD1B9F1FF0F07D096
:100920000A480E30A0F80090E802FFF75AFE05468C
:10093000052D0FD00248006941F6EF71084007E02D
:100940000020024023016745AB89EFCD00F8FF1F6F
:10095000664908612846BDE8F08330B505460424A1
:100960004FF43020FFF73DFE0446042C41D160488F
:100970005E4988605F4888600846006940F0200052
:1009800008610846006940F0400008614FF43020DB
:10099000FFF727FE0446042C22D15448006941F693
:1009A000DF710840514908610846006940F01000B5
:1009B00008611DB100205049088002E0A5204E4981
:1009C00008804FF43020FFF70CFE0446052C10D0B1
:1009D0004648006941F6EF7108404449086108E063
:1009E000052C06D04148006941F6DF7108403F49B7
:1009F0000861204630BDF0B505460E461746042472
:100A00003B483A4988603B488860E002FFF7E9FDCF
:100A10000446042C19D13548006940F010003349D0
:100A2000086147F0F800304328433349891C0880A7
:100A3000E002FFF7D6FD0446052C06D02B480069DE
:100A400041F6EF710840294908612046F0BD27486A
:100A5000C069800870472548006A70470020234914
:100A6000096801F0200109B1012000E00020704771
:100A700029B11E4A126902431C4B1A6104E01B4A49
:100A800012698243194B1A617047014600200129FF
:100A900008D1164AD26902F001020AB1012008E029
:100AA000002006E0114AD2680A400AB1012000E0A5
:100AB000002070470D49C860704704200B49C96881
:100AC00001F0010109B101200EE00849C96801F0F7
:100AD000040109B1022007E00449C96801F01001CE
:100AE00009B1032000E0042070470000002002400C
:100AF00023016745AB89EFCD00F8FF1F10B5044611
:100B0000CC48844208D10121042000F02DFB0021B3
:100B1000042000F029FB46E0C748844208D10121A7
:100B2000082000F021FB0021082000F01DFB3AE026
:100B3000C248844208D10121102000F015FB002199
:100B4000102000F011FB2EE0BD48844208D10121A5
:100B5000202000F009FB0021202000F005FB22E00E
:100B6000B848844208D10121402000F0FDFA00215C
:100B7000402000F0F9FA16E0B348844208D1012180
:100B8000802000F0F1FA0021802000F0EDFA0AE068
:100B9000AE48844207D10121801500F0E5FA00211A
:100BA000A01500F0E1FA10BD10B50121084600F0D3
:100BB000DBFA0021012000F0D7FA10BD2DE9F04149
:100BC000024600250026002000230024002791F87B
:100BD00003C00CF00F0591F803C00CF0100CBCF131
:100BE000000F03D091F802C04CEA050591F800C04F
:100BF000BCF1000F31D0146800202BE04FF0010C45
:100C00000CFA00F3B1F800C00CEA03069E4220D1B2
:100C100083004FF00F0C0CFA03F7BC4305FA03FCFA
:100C20004CEA040491F803C0BCF1280F06D14FF040
:100C3000010C0CFA00FCC2F814C00AE091F803C0E1
:100C4000BCF1480F05D14FF0010C0CFA00FCC2F8C2
:100C500010C0401C0828D1D31460B1F800C0BCF10A
:100C6000FF0F34DD546800202EE000F1080C4FF037
:100C7000010808FA0CF3B1F800C00CEA03069E4222
:100C800021D183004FF00F0C0CFA03F7BC4305FA97
:100C900003FC4CEA040491F803C0BCF1280F05D111
:100CA00000F1080C08FA0CF8C2F8148091F803C09F
:100CB000BCF1480F07D100F1080C4FF0010808FA09
:100CC0000CF8C2F81080401C0828CED35460BDE850
:100CD000F0814FF6FF710180022181700421C17003
:100CE00070470246002093680B400BB1012000E0E2
:100CF000002070470146886880B270470246002095
:100D0000D3680B400BB1012000E000207047014682
:100D1000C86880B2704701617047416170470AB18D
:100D2000016100E041617047C16070474FF480325B
:100D30000A438261816182618269826970470246E9
:100D40000020434B18684FF68073184040EA0210A9
:100D500008433F4B186070473E49C8617047F0B583
:100D60000A46002300240021002500F00046B6F1C9
:100D7000004F02D1364EF16901E0354E7168C0F383
:100D8000034583B200F44016B6F5401F08D121F0A8
:100D900070612F4E766826F070662D4F7E6012E0EF
:100DA00000F48016B6F5801F06D1032606FA05F476
:100DB000A14341F0706106E0460D360103FA06F6E4
:100DC000B14341F0706122B1460D360103FA06F6D7
:100DD000314300F00046B6F1004F02D11C4EF161E4
:100DE00001E01B4E7160F0BD30B500228B071C0F77
:100DF0000F2303FA04F2164B08338C1053F82430F7
:100E00009343134C08348D1044F8253023468C103E
:100E100053F824308C07240F00FA04F423430C4CBD
:100E200008348D1044F8253030BD0A49DC310860A3
:100E30007047000000080140000C01400010014014
:100E40000014014000180140001C01400020014036
:100E50000000014000002042DF48006840F001002F
:100E6000DD49086008464068DC490840DA494860C6
:100E700008460068DA490840D74908600846006813
:100E800020F4802008600846406820F4FE00486096
:100E90004FF41F0088607047CF49096821F4803102
:100EA000CD4A11601146096821F480211160B0F526
:100EB000803F03D0B0F5802F0ED106E0C649096807
:100EC00041F48031C44A116007E0C349096841F424
:100ED000A021C14A116000E000BF00BF704710B5FB
:100EE00001460022002300204A11012A02D1BA4CF7
:100EF000236806E0022A02D1B74C236A01E0B64C0F
:100F0000636A01F01F02012494401C400CB10120CF
:100F100000E0002010BD38B500200090002400251E
:100F200000BF3120FFF7DBFF05460098401C009012
:100F30000098B0F5A06F01D0002DF2D03120FFF75E
:100F4000CEFF08B1012400E00024204638BD014650
:100F50000020A14A106820F0F80040EAC1001060AB
:100F60007047A04908607047024600209A4B5868B5
:100F700020F47C1042EA01031843974B58607047F5
:100F800098490866704701460020934A506820F04F
:100F900003000843506070478F48406800F00C0021
:100FA0007047014600208C4A506820F0F00008434A
:100FB0005060704701460020874A506820F4E06086
:100FC00008435060704701460020834A506820F46F
:100FD000605040EAC1005060704729B17E4A527AA1
:100FE00002437D4B5A7204E07B4A527A82437A4B29
:100FF0005A7270477B49D83108607047014600201B
:10100000754A506820F44040084350607047002102
:10101000714A20321170704A82F82010012802D0E3
:1010200004280AD104E001216B4A2032117005E046
:101030000521694A2032117000E000BF00BF7047EF
:101040006949086070476449096A0143624A11624C
:101050007047654944390860704730B50021002267
:10106000002400235C4D6D6805F00C0121B10429BA
:1010700005D0082923D105E05C4D056022E05B4DD9
:1010800005601FE0544D6D6805F47012524D6D6897
:1010900005F48034022505EB92421CB9544D5543AA
:1010A00005600BE04C4D6D6805F400351DB1504DE9
:1010B0005543056002E04D4D5543056002E04B4D40
:1010C000056000BF00BF444D6D6805F0F0010909DF
:1010D000484D6B5C0568DD4045603F4D6D6805F42B
:1010E000E061090A434D6B5C4568DD4085603A4D1F
:1010F0006D6805F46051C90A3E4D6B5C4568DD4082
:10110000C560354D6D6805F44041890B3A4D6B5C07
:10111000C568B5FBF3F5056130BD29B12E4A5269AA
:1011200002432D4B5A6104E02B4A526982432A4BF9
:101130005A61704729B1284A92690243264B9A6145
:1011400004E0254A92698243234B9A61704729B192
:10115000214AD2690243204BDA6104E01E4AD26977
:1011600082431D4BDA61704729B11B4AD2680243A2
:10117000194BDA6004E0184AD2688243164BDA60F1
:10118000704729B1144A12690243134B1A6104E0F3
:10119000114A12698243104B1A6170471249403953
:1011A000086070470F49C86470470B49C8717047A1
:1011B0000948406A40F0807007494862704701461C
:1011C0000020054A92680A400AB1012000E0002090
:1011D0007047014988727047001002400000FFF814
:1011E000FFFFF6FE000042428004424200127A00F5
:1011F00000093D00140000202400002000F0FFF949
:1012000000F026FB0122114621A000F013FA08226B
:10121000022122A000F00EFA00F04BFB012436E080
:10122000012C0CD11E4A1F491F4800F08DFB1F4A9C
:101230001F49204800F088FB601CC4B227E01A4810
:1012400000682E2803D0184800680A2803D81948D7
:10125000006815490860124A1249134800F030FB33
:10126000144800682E2803D0124800680A2803D8C2
:101270000D4800680F4908600C4A0D490D4800F000
:101280001FFB012202210B48006800F008FAC7E7A3
:10129000B5B1C7B0D2D1D7AA00000000C8A60000DF
:1012A00000B0000800A000082C00002000900008FA
:1012B0000080000828000020704700BFFEE700BF44
:1012C000FEE700BFFEE700BFFEE7704770477047CC
:1012D000704710B54FF48070FFF718F968B11848DF
:1012E0000068401C1649086016480068401C1549F3
:1012F00008604FF48070FFF71AF910BD10B54FF475
:101300008060FFF703F9C8B1142000F074F80020E2
:101310000C4908600A4908600121084600F01FF9DD
:101320000122114608A000F085F90822022109A037
:1013300000F080F94FF48060FFF7F9F810BD00006D
:10134000280000202C000020B5B1C7B0D2D1D7AA08
:1013500000000000C8A60000002100BF48E000BF58
:1013600000BF00BF00BF00BF00BF00BF00BF00BF85
:1013700000BF00BF00BF00BF00BF00BF00BF00BF75
:1013800000BF00BF00BF00BF00BF00BF00BF00BF65
:1013900000BF00BF00BF00BF00BF00BF00BF00BF55
:1013A00000BF00BF00BF00BF00BF00BF00BF00BF45
:1013B00000BF00BF00BF00BF00BF00BF00BF00BF35
:1013C00000BF00BF00BF00BF00BF00BF00BF00BF25
:1013D00000BF00BF00BF00BF00BF00BF00BF00BF15
:1013E00000BF00BF00BF00BF00BF00BF00BF491C5F
:1013F0008142B4D3704710B503464FF47A7003FBB3
:1014000000F42046FFF7A8FF10BD0000002106E011
:1014100000BF00BF00BF00BF00BF00BF491C81422A
:10142000F6DB704700210CE0002206E000BF00BFA1
:1014300000BF00BF00BF00BF521CB2F57A7FF5DBD2
:10144000491C8142F0DB704708B501210820FFF7F5
:1014500071FE10208DF803008020ADF800000320FD
:101460008DF802006946CC48FFF7A8FB012108204F
:10147000FFF760FE4FF48070ADF800006946C64883
:10148000FFF79CFB01210820FFF754FE4FF400708A
:10149000ADF800006946C048FFF790FB0121042029
:1014A000FFF748FEFF20ADF800006946BB48FFF794
:1014B00085FB01210820FFF73DFE4020ADF800002C
:1014C0006946B548FFF77AFB01211020FFF732FE8D
:1014D0004FF40050ADF800006946B148FFF76EFBCD
:1014E00008BD38B58021AC48FFF717FC4FF4807178
:1014F000A948FFF710FC4FF40071A748FFF70BFC59
:1015000001210420FFF716FE04208DF8030080203F
:10151000ADF8000003208DF8020069469F48FFF7F0
:101520004DFB012400BF4FF400719B48FFF7F3FB14
:101530000520FFF777FF80219848FFF7D2FB04468C
:101540004FF400719448FFF7E8FB002CEBD110201A
:101550008DF8030069469148FFF730FB38BD70B540
:1015600005460C46FFF7BDFF2CBB80218A48FFF7DC
:10157000D2FB4FF480718848FFF7CFFB4FF4007126
:101580008548FFF7CAFB0420FFF740FF2946834840
:10159000FFF7CAFB0420FFF739FF4FF400717E48C4
:1015A000FFF7B9FB0420FFF731FF4FF400717A48D1
:1015B000FFF7B3FB22E0012C20D180217648FFF712
:1015C000ACFB21027448FFF7A8FB61027248FFF7E9
:1015D000A4FB0420FFF71AFF29467048FFF7A4FB7D
:1015E0000420FFF713FF61026B48FFF794FB042010
:1015F000FFF70CFF61026848FFF78FFB70BD10B565
:10160000FFF722FF40216448FFF785FB0F20FFF71B
:1016100009FF01213420FFF7A2FF01213020FFF74D
:101620009EFF01210C20FFF79AFF01210846FFF7DA
:1016300096FF10BD70B505460E461446012E06D025
:10164000022E0BD0032E10D0042E1CD114E004F176
:101650007F01C8B20121FFF782FF14E004F18F017E
:10166000C8B20121FFF77BFF0DE004F18701C8B28A
:101670000121FFF774FF06E004F19701C8B20121D0
:10168000FFF76DFF00BF00BF00BF28780021FFF704
:1016900066FF681C054600780028F6D170BD2DE96C
:1016A000FC5F81468A461446BAF1010F09D0BAF1AF
:1016B000020F0DD0BAF1030F11D0BAF1040F1CD1F3
:1016C00014E004F17F01C8B20121FFF748FF14E0E4
:1016D00004F18F01C8B20121FFF741FF0DE004F1D1
:1016E0008701C8B20121FFF73AFF06E004F1970134
:1016F000C8B20121FFF733FF00BF00BF4E460025EF
:1017000004E00A20B6FBF0F6681CC5B2002EF8D142
:101710004E461CE0681E00F02CF907463A460B4680
:101720000020204900F098FCCDE9000100F032F9DA
:10173000B6FBF0F00A21B0FBF1F201FB120000F160
:10174000300B681EC5B200215846FFF708FF002D78
:10175000E0D1BDE8FC9F10B54FF400511048FFF7F1
:10176000DCFA10BD10B54FF400510D48FFF7D3FA65
:1017700010BD08B501210820FFF7DCFC04208DF81E
:1017800003000120ADF8000003208DF80200694637
:101790000148FFF713FA08BD000C014000080140A2
:1017A000001001400000244008B501210420FFF78B
:1017B000C1FC04208DF803008001ADF800006946EB
:1017C0003E48FFF7FBF901210420FFF7B3FC282076
:1017D0008DF803004FF48060ADF80000694637488B
:1017E000FFF7ECF908BD10B54FF480713348FFF7EF
:1017F00078FA08B9002010BD0120FCE708B54FF4C5
:10180000C060FEF7A1FD17208DF8000001208DF8C3
:1018100001008DF802008DF803006846FEF799FD7F
:1018200008BD1CB5FFF7EAFF08210020FFF7DCFA2E
:101830004FF48070009000208DF8040008208DF88F
:10184000050001208DF806006846FEF7F9FD1CBD75
:1018500010B5FFF7A9FFFFF7E4FF10BD08B54FF47F
:10186000A060FEF771FD28208DF8000002208DF8A1
:1018700001008DF8020001208DF803006846FEF794
:1018800068FD08BD1CB5FFF7E9FF0A210020FFF73E
:10189000ABFA4FF48060009000208DF8040008201F
:1018A0008DF8050001208DF806006846FEF7C8FD9A
:1018B0001CBD10B5FFF7E6FF10BD00000008014099
:1018C0002DE9F05F07460D4616464FF0000800244C
:1018D000A3464FF004094FF0010AFEF750FE701BBB
:1018E0004FEA902B3420FFF7E5F800BF08E04FF4F3
:1018F000806101FB0850FEF787FE814608F1010870
:10190000D84502D2B9F1040FF1D02C4605E02046AB
:101910003968FEF749FF8146241DB44202D8B9F167
:10192000040FF4D0FEF737FE06E0206839688842DD
:1019300001D04FF0000A241DB44202D2BAF1000FC8
:10194000F3D15046BDE8F09FF0B50B460021194693
:101950000425012407E00E6806600E680768BE4291
:1019600000D00024091D914201D2002CF3D1001DAA
:10197000F0BD0EB5C10F80EAE0700844CA0700212F
:1019800040F233438DE80E000A460B4600F03AF869
:1019900003B000BDC1F30A5210B5C1F3130140F208
:1019A000FF3341F480119A4201DA002010BD40F269
:1019B00033439A42A2F2334203DC524200F003F86E
:1019C00010BD904010BD202A04DB203A21FA02F01D
:1019D0000021704721FA02F3D040C2F12002914069
:1019E00008431946704710B5141E73F1000408DA55
:1019F000401C41F1000192185B411A4301D120F0D3
:101A0000010010BD2DE9F04D92469B4611B1B1FA8F
:101A100081F202E0B0FA80F22032904600F00AFA39
:101A200004460F4640EA0A0041EA0B0153465A4673
:101A3000084313D0114653EA010019D0C8F14002FF
:101A40005046FFF7C0FF05460E46504659464246EF
:101A500000F0F0F9084305D0012004E020463946A3
:101A6000BDE8F08D0020054346EAE0762C4337437D
:101A70000A986305E40AA0EB08000022FD0A44EA84
:101A800047540A3002D500200146E9E70105101944
:101A90006941DDE9084500196941BDE8F04DA2E75B
:101AA0002DE9FE4F804681EA0300C00F0C460090EE
:101AB00021F0004123F00045B8EB0200A94105D216
:101AC0004046214690461C460B46024623F0004005
:101AD000104347D0270DC7F30A00C3F30A51029001
:101AE000401A019040286BDAC3F3130040F4801BC6
:101AF0000098924620B10023D2EB030A63EB0B0B54
:101B000001985946C0F14002504600F093F906464C
:101B10000D4650465946019A00F09BF910EB08001B
:101B20006141002487EA115284EAE7731A4340D0E6
:101B3000009A62B3019A012A4FEA075215DC001B92
:101B400061EB02014FF0004202EA0752CDE9004288
:101B5000001C41F5801132462B46FFF753FF03B0BE
:101B6000BDE8F08F40462146F9E7001B61EB02011A
:101B7000001C41F5801300185B412018A2F50017E6
:101B800047EB030140EAD570B6196D4111E06D08CD
:101B90004FEA360645EAC0754FEA0752001B61EB73
:101BA0000201001C41F5801149084FEA300000197C
:101BB000514132462B4603B0BDE8F04FFFF713BF4B
:101BC0000098012240000023D0EB020263EBE07397
:101BD000009821464FEAE074B8EB000061EB040185
:101BE000E9E783F000435BE781F0004158E72DE926
:101BF000FE4F81EA030404F0004421F00041009408
:101C00004FF0000B23F0004350EA01045ED052EA8B
:101C100003045BD0C3F30A54C1F30A552C44A4F265
:101C2000F3340194A0FB0254C1F3130141F4801179
:101C3000C3F3130343F4801301FB024400FB034E80
:101C4000840A970A44EA815447EA8357A4FB076849
:101C500002958D0A05FB07854FEA932C04FB0C5473
:101C60002705029D4FEA065847EA1637B5EB0805E7
:101C70006EEB070C870E920E47EA811742EA831239
:101C8000A7FB0201B6EB0B0164EB00042B0D43EA4A
:101C90000C335E1844EB1C50DA465146E7FB020158
:101CA000C5F313044FEA0B3343EA14534FEA0432EB
:101CB000019C43EA0603A4F10C040294009CCDE9C4
:101CC00000B4FFF79FFE03B0BDE8F08F002001468F
:101CD000F9E72DE9F04D81EA030404F0004B21F00F
:101CE000004514464FF0000A23F0004150EA050277
:101CF00020D054EA01021DD0C5F30A570246C5F3AD
:101D00001303C1F31300C1F30A5640F4801543F4E2
:101D10008013A7EB0608101BD64608F2FD3873EBBC
:101D2000050002D308F1010801E092185B41B8F107
:101D3000000F03DA00200146BDE8F08D00204FF4CB
:101D40008011064684460EE0171B73EB050705D38A
:101D5000121B63EB050306434CEA010C49084FEAEA
:101D6000300092185B4150EA0107EDD152EA0300BE
:101D700012D082EA040083EA0501084305D0101B53
:101D8000AB4106D20122002306E000224FF00043BF
:101D900002E06FF0010253101AEB06004CEB085101
:101DA00010EB0A0041EB0B01BDE8F04DFFF71BBE45
:101DB00070B521F0004303430CD0C1F30A55002451
:101DC000D5EB040564EB0403D617AD1AB34102DB6F
:101DD0000020014670BD201841EB025170BD00008B
:101DE00030B5041E71F1000404DB4FF000444042A2
:101DF00064EB0101141E73F1000405DB1C464FF077
:101E00000043524263EB0403994208BF904230BD45
:101E1000064C074D06E0E06840F0010394E8070037
:101E200098471034AC42F6D3FEF786F9102B000821
:101E3000302B0008202A04DB203A00FA02F10020AF
:101E400070479140C2F1200320FA03F319439040F8
:101E50007047202A06DBCB17203A41FA02F043EA0A
:101E6000E07306E041FA02F3D040C2F12002914053
:101E70000843194670472DE9F04D00231A461B1AF6
:101E80008A4103DB00200146BDE8F08DC1F30A5210
:101E9000C1F3130141F480154FF0000BD10702D1BB
:101EA00000186D41521E0027044640F2FF113846CB
:101EB00001EB620A3E468046024600204FF4801144
:101EC000FFF781FDC2197141BB1846EB0100B4EB6D
:101ED000030C75EB000C04D3E41A65EB0005174600
:101EE0000E46241908F101006D4180463428E3DDD7
:101EF000F91946EB0600091BA84103D24FF0FF3247
:101F0000134601E0002213461BEB070046EB0A5183
:101F1000BDE8F04DFFF767BD490050EAC12018BF8A
:101F200004204A0D18BF40F0010040F2FF72B2EBEE
:101F3000515F08BF40F00200012808BF052070472C
:101F40002DE9F0414F1E00EBC7010446D1E9000125
:101F500015461E4637F006020DD02A463346FFF7D7
:101F600046FE7F1E04EBC703D3E90023FFF798FD6D
:101F700037F00602F1D1022F25D0042F13D0062FFF
:101F800018BFBDE8F0812A463346FFF730FED4E99A
:101F90000A23FFF785FD2A463346FFF728FED4E9DA
:101FA0000823FFF77DFD2A463346FFF720FED4E9DC
:101FB0000623FFF775FD2A463346FFF718FED4E9DE
:101FC0000423FFF76DFD2A463346FFF710FED4E9E0
:101FD0000223FFF765FD2A463346FFF708FED4E9E2
:101FE0000023BDE8F041FFF75BBD0000002213466F
:101FF00010460149FFF76DBE0000F03FFFF750BDEE
:102000000022134610461146FFF763BE40F201322C
:1020100000204FF0E041FFF7CBBE0000024A002055
:102020001107FFF7C5BE000001FDFFFF02E008C871
:10203000121F08C1002AFAD170477047002001E042
:1020400001C1121F002AFBD170470000014908603E
:1020500070470000300000202DE9F04D1D460C4671
:1020600098B0174621F0004123F00043002814BF28
:102070004FF0010C4FF0000C0CEB440CFE4A0CEB43
:1020800002064FEA620C66452BD33E0018BF0126BC
:1020900006EB45061644F94A964222D3F84A53EA1B
:1020A000070C02D0944205D148B918B0002011465F
:1020B000BDE8F08D002808BF4FF0000C01D04FF0B4
:1020C000010C0CEB440212F5001F0AD8002F14BFBC
:1020D0004FF0010C4FF0000C0CEB450212F5001F05
:1020E00007D918B03A462B462146BDE8F04DFFF718
:1020F00085BF0022DFF88CA3002CB8BF534526DA39
:10210000DFF884C36345A8BF022220DADFF870C37A
:102110009C451CDCDFF874C30CEB235CBCF1140F92
:1021200008DDCCF1340627FA06FC0CFA06F6BE42AE
:102130000DD108E05FB9CCF1140623FA06FC0CFAC5
:1021400006F69E4203D10CF00102C2F1020251EAEE
:10215000000C19D1002D17DA002C18BF022A01D06B
:10216000012A07D00220FFF771FF18B0BDE8F04D3B
:10217000FFF73CBF0220FFF769FFFFF737FF18B0FA
:1021800081F00041BDE8F08DB7F1000C6CD15345F2
:1021900025D104F1804212F5801201BF00280020F1
:1021A000B74918B008BFBDE8F08DB548884207DCD4
:1021B000002DA1BF6046294618B0BDE8F08D07E0AC
:1021C000281E05DA80F0004118B06046BDE8F08DA9
:1021D000AF497944D1E9000118B0BDE8F08DDFF8CE
:1021E000A0C2634525D1002D1FDA19B1514512D186
:1021F000D8B909E0002840F0EC82A24A214618B084
:1022000062F31E01BDE8F08D0020214618B060F396
:102210001E01BDE8F08D08DA18B02346BDE8F04D88
:10222000024600206146FFF754BD18B02146BDE8C4
:10223000F08D514518DAB5F1804F0DD0A5F1005C55
:10224000BCF1FF5C10D1B4F1000C0DDB18B061469D
:10225000BDE8F04D00F0ECBB234618B00246BDE8E7
:10226000F04D1946FFF7C3BC060024F0004C3BD1EB
:10227000D9B1514533D1002C06DD002DA1BF00207E
:10228000514618B0BDE8F08D002C01DD002D1BDBA0
:10229000002C13DA002D11DB012A4FF0000014BFCF
:1022A00078497C4918B0BDE8F08D022A18BF002C8F
:1022B0000AD0012A08D1002C06DA0AE0002CB8BFA7
:1022C000002D11DA012A04D0002018B00146BDE823
:1022D000F08D18B000204FF00041BDE8F08DA1F165
:1022E0004050B0F17F601AD0012000EBE47050EA5A
:1022F000020421D0624C521E4FF0000B104304BF69
:102300004FF0000B644C654883427CDD644A6548AD
:1023100093421FDD884217DB002D25DB37E0002CC0
:1023200000DA4AB1022A0CBF01204FF0FF3018B08A
:10233000BDE8F04DFFF71DBB0120FFF787FE18B089
:10234000BDE8F04DFFF75CBE4D4A8A4202DC002D2D
:102350000ADC1CE0814202DA002D18DA04E0484B66
:10236000994220DD002D12DD0220FFF76FFEFFF7FE
:102370004DFE05460E460022534658462146FFF7BD
:1023800036FC18B066F31E012846BDE8F08D022029
:10239000FFF75CFEFFF742FE0A46214618B062F3E3
:1023A0001E01BDE8F08D002230466146FFF719FCA2
:1023B00080460E466FF00102FFF7FAFC4FF05532EF
:1023C000394BFFF711FC42463346FFF710FC002261
:1023D000364BFFF709FC82464246334604911046CD
:1023E0001946FFF704FC5246049BFFF700FC8A469F
:1023F00000904FF0C0422E4B40463146FFF7F7FBAE
:102400002C4A2B4B00E027E0CDE90601514600980D
:10241000FFF7EDFB82460191274A284B40463146A3
:10242000FFF7E5FB5246019BFFF7DBFB82460B46BD
:1024300002460591DDE90601FFF732FBDDE90623DF
:10244000002688463046FFF7CCFB5246059BFFF737
:10245000CBFB024600F07EB90020B1F5801F07DA01
:10246000352230466146FFF7A3FC06466FF0340084
:1024700000EB215024E00000FFFF1F00FFFF0F00D2
:102480000000F03F0000F07F0000404301FCFFFF30
:10249000320900000000F0FF0000F0BF0000E04142
:1024A0000000F043FFFFEF3F5555D53F0000E03FF0
:1024B0004715F73FFE822B6544DF5DF80BAE543EB7
:1024C000A0F2FF300190C1F3130040F07F6141F0B2
:1024D00040510291FE498842D8BF002004DDFD49E9
:1024E0008142C8BF012001DD0D9008E000200D9061
:1024F0000198401C01900298A0F58010029002996A
:10250000F54878440B910D9900EBC100D0E9002308
:102510000F9330460A920B99FFF763FBCDE9060152
:10252000DDE90A2130460F9BFFF7BAFA02460B4657
:102530000020EA49FFF7CDFB059102460B460090CB
:10254000DDE90601FFF753FB1490E5488A464FF09A
:10255000000878440299006812904FF0005040EA59
:1025600061010D980F9B01EB804000F5002109915E
:102570000A9A1298FFF735FB32460B9BFFF734FBA4
:1025800042465346FFF733FB06460291404651460A
:10259000099B129AFFF72BFBDDE90623FFF724FBCB
:1025A0003246029BFFF71DFB059B009AFFF71FFBBE
:1025B0000091149A0490534610461946FFF717FBF2
:1025C00006460246C7480B46029106217844FFF7AB
:1025D000B7FCCDE90510029B324610461946FFF7BD
:1025E00006FBDDE90532FFF702FB0591064653467F
:1025F00040461946149AFFF753FA009B049AFFF7D6
:10260000F6FA3246059BFFF74BFACDE90510424634
:10261000534610461946FFF7EAFA0022B24B0291E0
:102620000A90FFF73DFADDE90532FFF739FA0E4669
:102630004246AD4B4046FFF7D4FA029B0A9AFFF799
:10264000D0FADDE90532FFF7CFFA424602910A904F
:10265000334610465146FFF7CAFACDE90601534604
:10266000149A02990A98FFF7C2FA8A4602903346F2
:10267000424600990498FFF7BAFA5346029AFFF7C8
:102680000FFA82460B4602460591DDE90601FFF787
:1026900007FADDE90623002088460646FFF7A1FA7F
:1026A0005246059BFFF7A0FA824609914FF060421F
:1026B0008E4B30464146FFF79AFA049006918C4AB9
:1026C0008A4B50460999FFF792FA82460291894A4D
:1026D000894B30464146FFF78AFA5246029BFFF784
:1026E000DFF9864B7B440D9A03EBC203D3E9002349
:1026F000FFF7D6F90E9007910198FFF73AF9059187
:10270000DDE9061382460E9A0498FFF7C9F97C4A60
:102710007A440D9B02EBC303D3E90023009302929A
:10272000FFF7BEF95246059BFFF7BAF90026884627
:1027300052463046059BFFF754FA009B029AFFF77A
:1027400050FA069B049AFFF74CFA079B0E9AFFF784
:102750004BFA024600200B46029038462946FFF706
:1027600046FA824601912B4638461946029AFFF7EF
:1027700038FA32464346FFF73AFA5246019BFFF7D2
:102780008FF907468A463246434629460298FFF7A4
:102790002EFA05460E463A465346FFF781F9594A46
:1027A0008846914221DBA8EB020353EA000210D1D4
:1027B0002A463346FFF715FACDE90401524A534B36
:1027C00038465146FFF76CF9DDE90423FFF708FBB3
:1027D00021D20220FFF73AFCFFF718FC0A462146F7
:1027E00018B062F31E01BDE8F08D494B28F000429D
:1027F0009A4210D3474A08EB020353EA00027FF4DF
:10280000C6AD2A463346FFF7ECF93A465346FFF782
:10281000E7FA7FF6BCAD0022019228F000403E4965
:102820003E4A01EB2051824223DA481C4FF48011CA
:1028300021FA00F040443A4AC0F30A517A44394B35
:10284000A1F2FF31CB4020EA0303C0F3130040F4B0
:102850008010C1F11401C84012680190B8F1000F56
:10286000BCBF4042019028463146FFF7BAF9054601
:102870000E462A46334638465146FFF711F94FF0C7
:1028800000084246284B40460591FFF7B0F9CDE9D4
:102890000601264A264B40460599FFF7A8F9009104
:1028A00002902A46334640460599FFF79AF93A4680
:1028B0005346FFF799F91F4A1F4BFFF798F9009B02
:1028C000029AFFF7EDF80746884602460B4635E0C8
:1028D0008E9803007AB60B007A0500000000F03FE6
:1028E000B2050000E00400000000084009C7EE3F08
:1028F000FD033ADCF5015B14E02F3EBEB803000097
:102900007C03000000009040FE822B654715973C39
:1029100000CC904000346F3F01FCFFFF0000E03F1F
:10292000C8020000FFFF0F00432EE63F396CA80CE1
:10293000615C20BEEF39FAFE422EE63FDDE906017A
:10294000FFF7AEF8DDE9062305460E46FFF749F925
:102950003A464346FFF748F90F462A463346009069
:1029600010461946FFF743F9824602462E4888462C
:102970000B4605217844FFF7E3FA52464346FFF73A
:1029800036F92A463346FFF72FF980468A463B46FA
:1029900028463146009AFFF72AF93B46009AFFF78E
:1029A0007FF80691009000224FF080434046514648
:1029B000FFF717F90F460C9042465346284631461A
:1029C000FFF715F93B460C9AFFF783F9069B009A2F
:1029D000FFF707F92A463346FFF703F90022134BA6
:1029E000FFF702F9054601980E4601EB0051081564
:1029F000002810DC28463146019AFFF7D9F9FFF785
:102A00008BFA042808BFFFF709FB28463146019AD4
:102A1000FFF7CEF905460B4618B02A465846214620
:102A2000BDE8F04DFFF7E3B8680100000000F03F9B
:102A30002DE9F04106460F46FFF71DFA041E0D462C
:102A400018BF0120284320F00040C0F17F6000F152
:102A5000E040C00F0ED0301C18BF0120384320F0DA
:102A60000040C0F17F6000F1E040C00F04BF0120D2
:102A7000FFF7ECFA20462946BDE8F081000000008F
:102A8000000000000000F03F000000000000F83FE0
:102A900000000000000000000000004003B8E23F1A
:102AA000000000000000000006D0CF43EBFD4C3ECC
:102AB000033333333333E33FFFAB6FDBB66DDB3FC1
:102AC0004D268F515555D53F01411DA96074D13F09
:102AD00065DBC9934A86CD3FEF4E454A287ECA3F03
:102AE0003E5555555555C53F93BDBE166CC166BF85
:102AF0002CDE25AF6A56113FF16BD2C541BDBBBE7E
:102B0000D0A4BE726937663E0000000000000000DD
:102B1000302B000800000020340000002C200008AA
:102B2000642B000834000020040400003C2000084E
:102B300000A24A040000000000000000010203049B
:102B40000607080900000000010203040102030453
:102B50000607080902040608000000000000000043
:042B60000000000071
:0400000508000131BD
:00000001FF
