:020000040800F2
:100000003804002045010008390F00083B0F0008A4
:100010003F0F0008430F0008470F000800000000D2
:100020000000000000000000000000004B0F00086E
:100030004D0F0008000000004F0F0008510F00088E
:100040005F0100085F0100085F0100085F01000810
:100050005F0100085F0100085F0100085F01000800
:100060005F0100085F0100085F0100085F010008F0
:100070005F0100085F0100085F0100085F010008E0
:100080005F0100085F0100085F0100085F010008D0
:100090005F0100085F0100085F0100085F010008C0
:1000A0005F0100085F0100085F0100085F010008B0
:1000B0005F0100085F0100085F0100085F010008A0
:1000C0005F0100085F0100085F0100085F01000890
:1000D0005F010008530F0008730F00085F0100085C
:1000E0005F0100085F0100085F0100085F01000870
:1000F0005F0100085F0100085F0100085F01000860
:100100005F0100085F0100085F0100085F0100084F
:100110005F0100085F0100085F0100085F0100083F
:100120005F0100085F0100085F0100085F0100082F
:10013000DFF80CD001F098FC004800472D0F0008B4
:10014000380400200648804706480047FEE7FEE7DF
:10015000FEE7FEE7FEE7FEE7FEE7FEE7FEE7FEE777
:1001600047020008310100080CB500200190009002
:100170006C48006840F480306A49086000BF6948F4
:10018000006800F4003000900198401C0190009835
:1001900018B90198B0F5A06FF1D16248006800F479
:1001A000003010B10120009001E000200090009884
:1001B000012843D15C48006840F010005A490860AB
:1001C0000846006820F0030008600846006840F018
:1001D0000200086053484068524948600846406839
:1001E00048600846406840F48060486008464068BF
:1001F00020F47C1048600846406840F4E8104860ED
:100200000846006840F08070086000BF45480068FC
:1002100000F000700028F9D04248406820F0030048
:10022000404948600846406840F00200486000BF0E
:100230003C48406800F00C000828F9D10CBD10B50E
:10024000FFF792FF10BD10B53648006840F001007E
:1002500034490860084640683449084031494860DC
:1002600008460068324908402E4908600846006880
:1002700020F4802008600846406820F4FE004860B2
:100280004FF41F008860FFF7DAFF4FF00060294944
:10029000086010BD10B5002100200022214B5B68D2
:1002A00003F00C0121B1042906D0082928D107E068
:1002B000214B224C236027E01F4B204C236023E07E
:1002C000184B5B6803F47010164B5B6803F48032C4
:1002D000022303EB904022B9194B4343174C236090
:1002E0000DE0104B5B6803F4003323B1144B434320
:1002F000124C236003E0104B4343104C236003E097
:100300000D4B0E4C236000BF00BF064B5B68C3F370
:1003100003130C4CE15C094B1B68CB40074C23607A
:1003200010BD000000100240002002400000FFF855
:10033000FFFFF6FE08ED00E000127A00000000204A
:1003400000093D000400002031490143314A116099
:10035000704770B5002100230F22C47804B32D4CE0
:10036000246804F4E064C4F5E064210AC1F10403E4
:10037000CA40447804FA03F1847814402143090107
:10038000254C0678A155047804F01F050124AC40E3
:1003900005786D11AD0005F1E025C5F8004109E0D3
:1003A000047804F01F050124AC401C4D067876113A
:1003B00045F8264070BD1A4A0A400243154B1B1FE0
:1003C0001A60704739B1134A121D12680243114B6B
:1003D0001B1D1A6006E00F4A121D126882430D4B66
:1003E0001B1D1A607047042808D14FF0E0210969ED
:1003F00041F004014FF0E022116107E04FF0E021ED
:10040000096921F004014FF0E022116170470000FA
:100410000000FA050CED00E000E400E080E100E0FF
:1004200080FFFF1F10B50446CC48844208D101214B
:10043000042000F02DFB0021042000F029FB46E001
:10044000C748844208D10121082000F021FB002187
:10045000082000F01DFB3AE0C248844208D1012187
:10046000102000F015FB0021102000F011FB2EE001
:10047000BD48844208D10121202000F009FB002161
:10048000202000F005FB22E0B848844208D1012179
:10049000402000F0FDFA0021402000F0F9FA16E0BB
:1004A000B348844208D10121802000F0F1FA0021F4
:1004B000802000F0EDFA0AE0AE48844207D1012125
:1004C000801500F0E5FA0021A01500F0E1FA10BD5A
:1004D00010B50121084600F0DBFA0021012000F0F0
:1004E000D7FA10BD2DE9F041024600250026002074
:1004F00000230024002791F803C00CF00F0591F8A9
:1005000003C00CF0100CBCF1000F03D091F802C036
:100510004CEA050591F800C0BCF1000F31D0146819
:1005200000202BE04FF0010C0CFA00F3B1F800C0F2
:100530000CEA03069E4220D183004FF00F0C0CFA08
:1005400003F7BC4305FA03FC4CEA040491F803C02A
:10055000BCF1280F06D14FF0010C0CFA00FCC2F8D8
:1005600014C00AE091F803C0BCF1480F05D14FF068
:10057000010C0CFA00FCC2F810C0401C0828D1D3B2
:100580001460B1F800C0BCF1FF0F34DD54680020E6
:100590002EE000F1080C4FF0010808FA0CF3B1F856
:1005A00000C00CEA03069E4221D183004FF00F0CDD
:1005B0000CFA03F7BC4305FA03FC4CEA040491F877
:1005C00003C0BCF1280F05D100F1080C08FA0CF8A3
:1005D000C2F8148091F803C0BCF1480F07D100F1B4
:1005E000080C4FF0010808FA0CF8C2F81080401C03
:1005F0000828CED35460BDE8F0814FF6FF7101802A
:10060000022181700421C170704702460020936866
:100610000B400BB1012000E00020704701468868C4
:1006200080B2704702460020D3680B400BB1012016
:1006300000E0002070470146C86880B27047016141
:100640007047416170470AB1016100E04161704744
:10065000C16070474FF480320A43826181618261D8
:1006600082698269704702460020434B18684FF642
:100670008073184040EA021008433F4B18607047EF
:100680003E49C8617047F0B50A46002300240021A6
:10069000002500F00046B6F1004F02D1364EF16958
:1006A00001E0354E7168C0F3034583B200F4401693
:1006B000B6F5401F08D121F070612F4E766826F004
:1006C00070662D4F7E6012E000F48016B6F5801F34
:1006D00006D1032606FA05F4A14341F0706106E055
:1006E000460D360103FA06F6B14341F0706122B1BE
:1006F000460D360103FA06F6314300F00046B6F126
:10070000004F02D11C4EF16101E01B4E7160F0BD43
:1007100030B500228B071C0F0F2303FA04F2164B8F
:1007200008338C1053F824309343134C08348D1045
:1007300044F8253023468C1053F824308C07240FBE
:1007400000FA04F423430C4C08348D1044F825308F
:1007500030BD0A49DC3108607047000000080140E4
:10076000000C01400010014000140140001801403D
:10077000001C014000200140000001400000204218
:10078000DF48006840F00100DD4908600846406825
:10079000DC490840DA49486008460068DA49084000
:1007A000D74908600846006820F4802008600846A1
:1007B000406820F4FE0048604FF41F0088607047D6
:1007C000CF49096821F48031CD4A1160114609688A
:1007D00021F480211160B0F5803F03D0B0F5802F67
:1007E0000ED106E0C649096841F48031C44A11605F
:1007F00007E0C349096841F4A021C14A116000E043
:1008000000BF00BF704710B5014600220023002042
:100810004A11012A02D1BA4C236806E0022A02D109
:10082000B74C236A01E0B64C636A01F01F02012451
:1008300094401C400CB1012000E0002010BD38B5F0
:10084000002000900024002500BF3120FFF7DBFFCF
:1008500005460098401C00900098B0F5A06F01D0AC
:10086000002DF2D03120FFF7CEFF08B1012400E0C7
:100870000024204638BD01460020A14A106820F01F
:10088000F80040EAC10010607047A0490860704756
:10089000024600209A4B586820F47C1042EA01037B
:1008A0001843974B5860704798490866704701464F
:1008B0000020934A506820F00300084350607047BE
:1008C0008F48406800F00C007047014600208C4AB9
:1008D000506820F0F0000843506070470146002047
:1008E000874A506820F4E060084350607047014632
:1008F0000020834A506820F4605040EAC1005060F4
:10090000704729B17E4A527A02437D4B5A7204E005
:100910007B4A527A82437A4B5A7270477B49D8316C
:100920000860704701460020754A506820F4404036
:100930000843506070470021714A20321170704A9C
:1009400082F82010012802D004280AD104E00121F5
:100950006B4A2032117005E00521694A203211707E
:1009600000E000BF00BF70476949086070476449F4
:10097000096A0143624A1162704765494439086057
:10098000704730B500210022002400235C4D6D68C3
:1009900005F00C0121B1042905D0082923D105E077
:1009A0005C4D056022E05B4D05601FE0544D6D68B5
:1009B00005F47012524D6D6805F48034022505EB84
:1009C00092421CB9544D554305600BE04C4D6D6887
:1009D00005F400351DB1504D5543056002E04D4D05
:1009E0005543056002E04B4D056000BF00BF444D1C
:1009F0006D6805F0F0010909484D6B5C0568DD4044
:100A000045603F4D6D6805F4E061090A434D6B5C3C
:100A10004568DD4085603A4D6D6805F46051C90A4E
:100A20003E4D6B5C4568DD40C560354D6D6805F435
:100A30004041890B3A4D6B5CC568B5FBF3F5056128
:100A400030BD29B12E4A526902432D4B5A6104E050
:100A50002B4A526982432A4B5A61704729B1284A6E
:100A600092690243264B9A6104E0254A92698243C7
:100A7000234B9A61704729B1214AD2690243204B26
:100A8000DA6104E01E4AD26982431D4BDA61704785
:100A900029B11B4AD2680243194BDA6004E0184AB4
:100AA000D2688243164BDA60704729B1144A126942
:100AB0000243134B1A6104E0114A12698243104B3E
:100AC0001A61704712494039086070470F49C8647D
:100AD00070470B49C87170470948406A40F0807000
:100AE00007494862704701460020054A92680A405B
:100AF0000AB1012000E00020704701498872704768
:100B0000001002400000FFF8FFFFF6FE0000424226
:100B10008004424200127A0000093D0014000020C7
:100B20002400002010B50446FB48844209D101216D
:100B30008803FFF7ADFF00214FF48040FFF7A8FFC7
:100B400032E0F648844209D101214804FFF7ADFFA5
:100B500000214FF40030FFF7A8FF25E0F048844261
:100B600009D101218804FFF7A0FF00214FF4802064
:100B7000FFF79BFF18E0EB48844209D10121C8042C
:100B8000FFF793FF00214FF40020FFF78EFF0BE0EB
:100B9000E548844208D101210805FFF786FF0021BE
:100BA0004FF48010FFF781FF10BD2DE9F04786B0AC
:100BB00005460E460024A24600BFA1460027B08984
:100BC00000B100BF2F462C8A4CF6FF700440F0881D
:100BD00004432C82AC894EF6F3100440B08831896E
:100BE0000843718908430443AC81AC8A4FF6FF4047
:100BF0000440B0890443AC8201A8FFF7C2FEC64896
:100C0000874202D1DDF810A001E0DDF80CA0A88930
:100C100000F4004040B10AEBCA0000EB0A10316852
:100C20004900B0FBF1F807E00AEBCA0000EB0A103C
:100C300031688900B0FBF1F86420B8FBF0F00401E2
:100C40002009642101FB1089A88900F4004040B10B
:100C5000322000EBC900B0FBF1F000F007000443C4
:100C600008E0322000EB09106421B0FBF1F000F045
:100C70000F0004432C8106B0BDE8F0874FF41651F5
:100C8000016000218180C18001810C21418100210E
:100C90008181704710B502460020108A4FF2FF0391
:100CA00018400B884C8823438C882343CC882343EB
:100CB0001843108210BD0021018041808180C180D5
:100CC000704721B1828942F40052828104E0828916
:100CD0004DF6FF731A4082817047F0B50346002439
:100CE00000260025002040F66A17B94200D100BF57
:100CF0001846C1F3421401F01F06012707FA06F552
:100D0000012C01D10C3004E0022C01D1103000E0A4
:100D100014301AB107682F43076002E00768AF4339
:100D20000760F0BD1AB1838A0B43838202E0838A95
:100D30008B4383827047028A4FF6F0731A40028217
:100D4000028A0A430282704782894FF2FF731A4077
:100D5000828182890A438281704721B1828942F06F
:100D60000202828104E082894FF6FD731A4082817B
:100D70007047028A4FF6DF731A400282028A0A43E2
:100D80000282704721B1028A42F48042028204E06A
:100D9000028A4BF6FF731A4002827047C1F30802C1
:100DA0008280704701468888C0F3080070478189B7
:100DB00041F0010181817047028BD2B20283028B24
:100DC00042EA012202837047028B02F47F420283CF
:100DD000028B0A430283704721B1828A42F02002CB
:100DE000828204E0828A4FF6DF731A408282704763
:100DF00021B1828A42F01002828204E0828A4FF698
:100E0000EF731A408282704721B1828A42F0080251
:100E1000828204E0828A4FF6F7731A40828270471A
:100E200021B1828942F40042828103E08289C2F3C7
:100E30000E028281704721B1828A42F4006282826E
:100E400004E0828A4FF2FF731A4082827047828ADE
:100E50004FF6FB731A408282828A0A43828270476D
:100E600021B1828A42F00202828204E0828A4FF635
:100E7000FD731A408282704702460020B1F5007F60
:100E800000D100BF13880B400BB1012000E000200F
:100E9000704701F40072B2F5007F00D100BFCA4371
:100EA0000280704770B50246002400230025002010
:100EB00040F66A16B14200D100BFC1F3421501F0FD
:100EC0001F03012606FA03F3012D02D19689334050
:100ED00006E0022D02D1168A334001E0968A3340A3
:100EE0000C12012606FA04F41688344013B10CB132
:100EF000012000E0002070BD10B50022002340F664
:100F00006A14A14200D100BF0A1201249440A3B286
:100F1000DC43048010BD0000003801400044004064
:100F200000480040004C00400050004000F0BAF87B
:100F300000F0B6F900BFFEE7704700BFFEE700BF54
:100F4000FEE700BFFEE700BFFEE77047704770474F
:100F5000704710B540F225510E48FFF7A3FF38B196
:100F60000C48FFF71FFF044621460B48FFF716FF0A
:100F700010BD10B540F225510748FFF793FF38B177
:100F80000548FFF70FFF044621460248FFF706FF1A
:100F900010BD0000003801400044004008B5252085
:100FA0008DF8000001208DF803008DF801008DF808
:100FB00002006846FFF7CDF926208DF800000120D9
:100FC0008DF8010002208DF802006846FFF7C1F994
:100FD00008BD08B501210420FFF740FD18208DF859
:100FE000030003208DF802004FF40070ADF80000FC
:100FF00069465A48FFF776FA01210420FFF72EFDD3
:101000004FF48060ADF8000004208DF803006946BD
:101010005248FFF767FA01210420FFF71FFD042063
:10102000ADF8000018208DF8030069464B48FFF723
:1010300059FA01210420FFF711FD0820ADF8000046
:1010400004208DF8030069464448FFF74BFA08BDB9
:101050001FB501218803FFF701FD4FF416500090E2
:101060000020ADF80C000C20ADF80A000020ADF80F
:101070000800ADF80600ADF8040069463848FFF7EF
:1010800094FD01213648FFF71CFE01214804FFF7BB
:10109000F2FC69463348FFF788FD01213148FFF72C
:1010A00010FE1FBD10B5FFF794FFFFF7D1FFFFF74C
:1010B00075FF012240F225512948FFF70EFE01225B
:1010C00040F225512748FFF708FE10BD10B5044631
:1010D00021462348FFF762FE00BF80212048FFF72A
:1010E000CBFE0028F9D010BD70B50446002500BF26
:1010F000605DFFF7EBFF681CC5B2605D0028F7D1AB
:1011000000BF40211648FFF7B7FE0028F9D170BD97
:1011100070B504460D4629462046FFF73FFE00BF46
:1011200080212046FFF7A8FE0028F9D070BD70B5D9
:1011300006460C46002500BF615D0948FFF7E8FF41
:10114000681CC5B2605D0028F6D100BF4021304662
:10115000FFF792FE0028F9D170BD000000080140A1
:101160000038014000440040002148E000BF00BFBB
:1011700000BF00BF00BF00BF00BF00BF00BF00BF77
:1011800000BF00BF00BF00BF00BF00BF00BF00BF67
:1011900000BF00BF00BF00BF00BF00BF00BF00BF57
:1011A00000BF00BF00BF00BF00BF00BF00BF00BF47
:1011B00000BF00BF00BF00BF00BF00BF00BF00BF37
:1011C00000BF00BF00BF00BF00BF00BF00BF00BF27
:1011D00000BF00BF00BF00BF00BF00BF00BF00BF17
:1011E00000BF00BF00BF00BF00BF00BF00BF00BF07
:1011F00000BF00BF00BF00BF00BF00BF491C81424D
:10120000B4DB704710B50346002404E04FF47A7055
:10121000FFF7AAFF641C9C42F8DB10BD08B5012152
:101220000820FFF71BFC0120ADF8000010208DF80E
:10123000030003208DF8020069468D48FFF752F93C
:1012400008BD08B501210820FFF708FC0120ADF812
:10125000000004208DF8030003208DF80200694689
:101260008348FFF73FF908BD10B500BF0121804852
:10127000FFF7CBF90028F9D02820FFF775FF0121EF
:101280007B48FFF7C2F9012808D100BF0121784847
:10129000FFF7BBF90128F9D0012010BD0020FCE7C1
:1012A00010B5FFF7BBFF01217148FFF7C8F94FF4F4
:1012B0007A70FFF7A7FF10BD70B5FFF7AFFF0121F0
:1012C0006B48FFF7BEF91220FFF79CFF0121684829
:1012D000FFF7B5F91E20FFF747FFFFF7B2FF012127
:1012E0006348FFF792F9002831D100BF012160481F
:1012F000FFF78BF90028F9D000BF01215C48FFF708
:1013000084F90128F9D0002412E000250DE05948A5
:10131000005D4006000E57490855FFF7A5FF5549E7
:10132000095D0843534908556D1C082DEFDB641C0B
:10133000052CEADB00BF01214D48FFF766F90028C4
:10134000F9D0FFF76BFF01214948FFF778F94948C9
:10135000007848494978084446498978084445490D
:10136000C978084443490979884201D1012070BDF8
:1013700000204049087048708870C87000BFF6E7C8
:101380002DE9FC5F3B49487800F03FF982464FF079
:10139000000B0AE0374840780A2190FBF1F035490C
:1013A00048700BF1010000F0FF0B32484078002834
:1013B000F0D1584600F02EF9064632460B46002082
:1013C0002D4900F085FC04460D46504600F02FF9EB
:1013D000804622462B4600F0A9F8CDE9000100F036
:1013E00039F982462349087800F00FF9044651463E
:1013F00000F044F8BDE8FC9F2DE9FC5F1D49C8786A
:1014000000F003F982464FF0000B0AE01948C0785B
:101410000A2190FBF1F01749C8700BF1010000F0B0
:10142000FF0B1448C0780028F0D1584600F0F2F8BD
:10143000064632460B4600200F4900F049FC0446A0
:101440000D46504600F0F3F8804622462B4600F049
:101450006DF8CDE9000100F0FDF882460549887875
:1014600000F0D3F80446514600F008F8BDE8FC9FB0
:10147000000C01402800002000002440F0B480EA65
:101480000102D40F4200B2EB410F02D202460846DD
:1014900011464A0042D0C30DDDB2C1F3C752AD1AA6
:1014A000202D35DAC1F3160141F4000204B1524295
:1014B000C5F1200602FA06F12A411044B3EBD05FD1
:1014C00023D0C4B1012DA0EBC35009DCF0BC4FF018
:1014D000004202EAC352DBB200F5000000F0DFB8C0
:1014E000400000F1807000EBC350A0F1807040EA32
:1014F000D170490009E0490841EAC071A0EBC3502E
:1015000000F50000400800EBC350F0BC00F0BEB88E
:101510006142012202EB4101001BF6E7F0BC70477B
:1015200081F00041AAE780F00040A7E72DE9F04DE7
:1015300081EA030404F0004B21F0004514464FF00B
:10154000000A23F0004150EA050220D054EA0102CB
:101550001DD0C5F30A570246C5F31303C1F31300A8
:10156000C1F30A5640F4801543F48013A7EB060834
:10157000101BD64608F2FD3873EB050002D308F1C4
:10158000010801E092185B41B8F1000F03DA002076
:101590000146BDE8F08D00204FF4801106468446D8
:1015A0000EE0171B73EB050705D3121B63EB050356
:1015B00006434CEA010C49084FEA300092185B419F
:1015C00050EA0107EDD152EA030012D082EA04008A
:1015D00083EA0501084305D0101BAB4106D2012266
:1015E000002306E000224FF0004302E06FF001020A
:1015F00053101AEB06004CEB085110EB0A0041EBBC
:101600000B01BDE8F04D00F078B89623002211469A
:1016100000F045B80EB540F2334102910021CDE90A
:1016200000110A460B4600F077F803B000BD00F049
:10163000004230F000400AD0C10D01F56071C0F3E6
:10164000160042EA0151C2084007114370470020CA
:101650000146704701F0004330B421F0004150EAE8
:10166000010206D00A0DA2F56072C1F31301002A2F
:1016700002DC30BC00207047440F44EAC104C100C2
:10168000E01830BC00EBC250AFF300800029A8BFC7
:101690007047401C490008BF20F00100704710B49B
:1016A000B0FA80FC00FA0CF050EA010404BF10BC50
:1016B000704749B1CCF1200421FA04F411FA0CF17D
:1016C00018BF012121430843A3EB0C01CB1D4FEAB6
:1016D00000614FEA102042BF002010BC704700EBB1
:1016E000C35010440029A4BF10BC7047401C4900DF
:1016F00008BF20F0010010BC704710B5141E73F134
:10170000000408DA401C41F1000192185B411A43C1
:1017100001D120F0010010BD2DE9F04D92469B460D
:1017200011B1B1FA81F202E0B0FA80F220329046B3
:1017300000F0ACF904460F4640EA0A0041EA0B010A
:1017400053465A46084313D0114653EA010019D0B4
:10175000C8F14002504600F0A8F905460E46504632
:101760005946424600F092F9084305D0012004E0B2
:1017700020463946BDE8F08D0020054346EAE07674
:101780002C4337430A986305E40AA0EB08000022C3
:10179000FD0A44EA47540A3002D500200146E9E731
:1017A000010510196941DDE9084500196941BDE8E5
:1017B000F04DA2E72DE9FE4F804681EA0300C00FFD
:1017C0000C46009021F0004123F00045B8EB0200E8
:1017D000A94105D24046214690461C460B4602468A
:1017E00023F00040104347D0270DC7F30A00C3F38E
:1017F0000A510290401A019040286BDAC3F313009B
:1018000040F4801B0098924620B10023D2EB030ADB
:1018100063EB0B0B01985946C0F14002504600F0B3
:1018200035F906460D4650465946019A00F04DF9E5
:1018300010EB08006141002487EA115284EAE77343
:101840001A4340D0009A62B3019A012A4FEA075224
:1018500015DC001B61EB02014FF0004202EA075267
:10186000CDE90042001C41F5801132462B46FFF7BE
:1018700053FF03B0BDE8F08F40462146F9E7001B57
:1018800061EB0201001C41F5801300185B41201838
:10189000A2F5001747EB030140EAD570B6196D4178
:1018A00011E06D084FEA360645EAC0754FEA075267
:1018B000001B61EB0201001C41F5801149084FEA51
:1018C00030000019514132462B4603B0BDE8F04FBD
:1018D000FFF713BF0098012240000023D0EB020263
:1018E00063EBE073009821464FEAE074B8EB000028
:1018F00061EB0401E9E783F000435BE781F000411D
:1019000058E72DE9FE4F81EA030404F0004421F07A
:10191000004100944FF0000B23F0004350EA010413
:101920005ED052EA03045BD0C3F30A54C1F30A55F4
:101930002C44A4F2F3340194A0FB0254C1F313012C
:1019400041F48011C3F3130343F4801301FB0244F9
:1019500000FB034E840A970A44EA815447EA8357FE
:10196000A4FB076802958D0A05FB07854FEA932CB7
:1019700004FB0C542705029D4FEA065847EA163728
:10198000B5EB08056EEB070C870E920E47EA811740
:1019900042EA8312A7FB0201B6EB0B0164EB0004E1
:1019A0002B0D43EA0C335E1844EB1C50DA465146CB
:1019B000E7FB0201C5F313044FEA0B3343EA145368
:1019C0004FEA0432019C43EA0603A4F10C0402949A
:1019D000009CCDE900B4FFF79FFE03B0BDE8F08F97
:1019E00000200146F9E770B521F0004303430CD015
:1019F000C1F30A550024D5EB040564EB0403D617A4
:101A0000AD1AB34102DB0020014670BD201841EB46
:101A1000025170BD0EB5C10F80EAE0700844CA07DC
:101A2000002140F233438DE80E000A460B46FFF7D3
:101A300073FE03B000BD000030B5041E71F1000458
:101A400004DB4FF00044404264EB0101141E73F1CB
:101A5000000405DB1C464FF00043524263EB0403D5
:101A6000994208BF904230BD064C074D06E0E06841
:101A700040F0010394E8070098471034AC42F6D3D5
:101A8000FEF75AFB88270008A8270008202A04DB55
:101A9000203A00FA02F1002070479140C2F1200381
:101AA00020FA03F3194390407047202A04DB203AC0
:101AB00021FA02F00021704721FA02F3D040C2F16E
:101AC00020029140084319467047202A06DBCB17B5
:101AD000203A41FA02F043EAE07306E041FA02F3E9
:101AE000D040C2F1200291400843194670472DE9C9
:101AF000F04D00231A461B1A8A4103DB00200146E1
:101B0000BDE8F08DC1F30A52C1F3130141F4801511
:101B10004FF0000BD10702D100186D41521E002773
:101B2000044640F2FF11384601EB620A3E46804609
:101B3000024600204FF48011FFF7B7FFC219714130
:101B4000BB1846EB0100B4EB030C75EB000C04D39F
:101B5000E41A65EB000517460E46241908F101004A
:101B60006D4180463428E3DDF91946EB0600091B78
:101B7000A84103D24FF0FF32134601E00022134682
:101B80001BEB070046EB0A51BDE8F04DFFF7B5BD72
:101B9000490050EAC12018BF04204A0D18BF40F088
:101BA000010040F2FF72B2EB515F08BF40F002004B
:101BB000012808BF052070472DE9F0414F1E00EBBA
:101BC000C7010446D1E9000115461E4637F006025A
:101BD0000DD02A463346FFF794FE7F1E04EBC70361
:101BE000D3E90023FFF7E6FD37F00602F1D1022F1B
:101BF00025D0042F13D0062F18BFBDE8F0812A4648
:101C00003346FFF77EFED4E90A23FFF7D3FD2A46C9
:101C10003346FFF776FED4E90823FFF7CBFD2A46CB
:101C20003346FFF76EFED4E90623FFF7C3FD2A46CD
:101C30003346FFF766FED4E90423FFF7BBFD2A46CF
:101C40003346FFF75EFED4E90223FFF7B3FD2A46D1
:101C50003346FFF756FED4E90023BDE8F041FFF715
:101C6000A9BD00000022134610460149FFF75EBCE3
:101C70000000F03FFFF79EBD0022134610461146BC
:101C8000FFF754BC40F2013200204FF0E041FFF773
:101C9000AABE0000024A00201107FFF7A4BE000000
:101CA00001FDFFFF02E008C8121F08C1002AFAD197
:101CB00070477047002001E001C1121F002AFBD1CC
:101CC00070470000014908607047000030000020A4
:101CD0002DE9F04D1D460C4698B0174621F0004105
:101CE00023F00043002814BF4FF0010C4FF0000C0C
:101CF0000CEB440CFE4A0CEB02064FEA620C664504
:101D00002BD33E0018BF012606EB45061644F94AC0
:101D1000964222D3F84A53EA070C02D0944205D1E6
:101D200048B918B000201146BDE8F08D002808BF62
:101D30004FF0000C01D04FF0010C0CEB440212F5F7
:101D4000001F0AD8002F14BF4FF0010C4FF0000CF9
:101D50000CEB450212F5001F07D918B03A462B4686
:101D60002146BDE8F04DFFF785BF0022DFF88CA3C8
:101D7000002CB8BF534526DADFF884C36345A8BFFB
:101D8000022220DADFF870C39C451CDCDFF874C344
:101D90000CEB235CBCF1140F08DDCCF1340627FA00
:101DA00006FC0CFA06F6BE420DD108E05FB9CCF194
:101DB000140623FA06FC0CFA06F69E4203D10CF038
:101DC0000102C2F1020251EA000C19D1002D17DA0A
:101DD000002C18BF022A01D0012A07D00220FFF7E9
:101DE00071FF18B0BDE8F04DFFF73CBF0220FFF7D0
:101DF00069FFFFF737FF18B081F00041BDE8F08DB3
:101E0000B7F1000C6CD1534525D104F1804212F595
:101E1000801201BF00280020B74918B008BFBDE8F4
:101E2000F08DB548884207DC002DA1BF60462946E9
:101E300018B0BDE8F08D07E0281E05DA80F00041FB
:101E400018B06046BDE8F08DAF497944D1E9000192
:101E500018B0BDE8F08DDFF8A0C2634525D1002D94
:101E60001FDA19B1514512D1D8B909E0002840F064
:101E7000EC82A24A214618B062F31E01BDE8F08D43
:101E80000020214618B060F31E01BDE8F08D08DA8D
:101E900018B02346BDE8F04D024600206146FFF72A
:101EA00045BB18B02146BDE8F08D514518DAB5F1B3
:101EB000804F0DD0A5F1005CBCF1FF5C10D1B4F1F6
:101EC000000C0DDB18B06146BDE8F04D00F0ECBB36
:101ED000234618B00246BDE8F04D1946FFF711BD84
:101EE000060024F0004C3BD1D9B1514533D1002C30
:101EF00006DD002DA1BF0020514618B0BDE8F08DD1
:101F0000002C01DD002D1BDB002C13DA002D11DB72
:101F1000012A4FF0000014BF78497C4918B0BDE891
:101F2000F08D022A18BF002C0AD0012A08D1002CFB
:101F300006DA0AE0002CB8BF002D11DA012A04D01D
:101F4000002018B00146BDE8F08D18B000204FF019
:101F50000041BDE8F08DA1F14050B0F17F601AD092
:101F6000012000EBE47050EA020421D0624C521EC2
:101F70004FF0000B104304BF4FF0000B644C65485A
:101F800083427CDD644A654893421FDD884217DB4B
:101F9000002D25DB37E0002C00DA4AB1022A0CBF05
:101FA00001204FF0FF3018B0BDE8F04DFFF732BD13
:101FB0000120FFF787FE18B0BDE8F04DFFF75CBECB
:101FC0004D4A8A4202DC002D0ADC1CE0814202DA22
:101FD000002D18DA04E0484B994220DD002D12DD77
:101FE0000220FFF76FFEFFF74DFE05460E4600226A
:101FF000534658462146FFF784FC18B066F31E018D
:102000002846BDE8F08D0220FFF75CFEFFF742FE98
:102010000A46214618B062F31E01BDE8F08D002289
:1020200030466146FFF767FC80460E466FF00102BE
:10203000FFF7D9FC4FF05532394BFFF75FFC4246B2
:102040003346FFF75EFC0022364BFFF757FC824613
:1020500042463346049110461946FFF752FC524659
:10206000049BFFF74EFC8A4600904FF0C0422E4B77
:1020700040463146FFF745FC2C4A2B4B00E027E059
:10208000CDE9060151460098FFF73BFC82460191DD
:10209000274A284B40463146FFF733FC5246019B06
:1020A000FFF729FC82460B4602460591DDE9060151
:1020B000FFF780FBDDE90623002688463046FFF760
:1020C0001AFC5246059BFFF719FC024600F07EB948
:1020D0000020B1F5801F07DA352230466146FFF750
:1020E00082FC06466FF0340000EB215024E0000033
:1020F000FFFF1F00FFFF0F000000F03F0000F07F18
:102100000000404301FCFFFF320900000000F0FF27
:102110000000F0BF0000E0410000F043FFFFEF3F90
:102120005555D53F0000E03F4715F73FFE822B6530
:1021300044DF5DF80BAE543EA0F2FF300190C1F3D6
:10214000130040F07F6141F040510291FE49884206
:10215000D8BF002004DDFD498142C8BF012001DD58
:102160000D9008E000200D900198401C019002980D
:10217000A0F5801002900299F54878440B910D99D2
:1021800000EBC100D0E900230F9330460A920B996F
:10219000FFF7B1FBCDE90601DDE90A2130460F9BCF
:1021A000FFF708FB02460B460020EA49FFF7BEF99D
:1021B000059102460B460090DDE90601FFF7A1FB01
:1021C0001490E5488A464FF0000878440299006868
:1021D00012904FF0005040EA61010D980F9B01EB07
:1021E000804000F5002109910A9A1298FFF783FBBD
:1021F00032460B9BFFF782FB42465346FFF781FBBB
:102200000646029140465146099B129AFFF779FB18
:10221000DDE90623FFF772FB3246029BFFF76BFBFB
:10222000059B009AFFF76DFB0091149A04905346AA
:1022300010461946FFF765FB06460246C7480B469F
:10224000029106217844FFF7B7FCCDE90510029B07
:10225000324610461946FFF754FBDDE90532FFF719
:1022600050FB05910646534640461946149AFFF71F
:10227000A1FA009B049AFFF744FB3246059BFFF747
:1022800099FACDE905104246534610461946FFF724
:1022900038FB0022B24B02910A90FFF78BFADDE97E
:1022A0000532FFF787FA0E464246AD4B4046FFF730
:1022B00022FB029B0A9AFFF71EFBDDE90532FFF7BE
:1022C0001DFB424602910A90334610465146FFF7E5
:1022D00018FBCDE906015346149A02990A98FFF7B4
:1022E00010FB8A4602903346424600990498FFF755
:1022F00008FB5346029AFFF75DFA82460B460246F8
:102300000591DDE90601FFF755FADDE90623002016
:1023100088460646FFF7EFFA5246059BFFF7EEFAAE
:10232000824609914FF060428E4B30464146FFF79E
:10233000E8FA049006918C4A8A4B50460999FFF7B7
:10234000E0FA82460291894A894B30464146FFF7BE
:10235000D8FA5246029BFFF72DFA864B7B440D9A22
:1023600003EBC203D3E90023FFF724FA0E90079191
:102370000198FFF74FFB0591DDE9061382460E9A9F
:102380000498FFF717FA7C4A7A440D9B02EBC303CB
:10239000D3E9002300930292FFF70CFA5246059B03
:1023A000FFF708FA0026884652463046059BFFF79D
:1023B000A2FA009B029AFFF79EFA069B049AFFF787
:1023C0009AFA079B0E9AFFF799FA024600200B46ED
:1023D000029038462946FFF794FA824601912B462F
:1023E00038461946029AFFF786FA32464346FFF707
:1023F00088FA5246019BFFF7DDF907468A463246C6
:10240000434629460298FFF77CFA05460E463A46AF
:102410005346FFF7CFF9594A8846914221DBA8EB92
:10242000020353EA000210D12A463346FFF763FA4B
:10243000CDE90401524A534B38465146FFF7BAF9E9
:10244000DDE90423FFF7F8FA21D20220FFF73AFC76
:10245000FFF718FC0A46214618B062F31E01BDE8DA
:10246000F08D494B28F000429A4210D3474A08EBBE
:10247000020353EA00027FF4C6AD2A463346FFF753
:102480003AFA3A465346FFF7D7FA7FF6BCAD002238
:10249000019228F000403E493E4A01EB2051824221
:1024A00023DA481C4FF4801121FA00F040443A4AE4
:1024B000C0F30A517A44394BA1F2FF31CB4020EAF4
:1024C0000303C0F3130040F48010C1F11401C840AD
:1024D00012680190B8F1000FBCBF4042019028463D
:1024E0003146FFF708FA05460E462A463346384677
:1024F0005146FFF75FF94FF000084246284B40462F
:102500000591FFF7FEF9CDE90601264A264B404624
:102510000599FFF7F6F9009102902A4633464046A6
:102520000599FFF7E8F93A465346FFF7E7F91F4ADE
:102530001F4BFFF7E6F9009B029AFFF73BF90746AE
:10254000884602460B4635E08E9803007AB60B00AB
:102550007A0500000000F03FB2050000E004000032
:102560000000084009C7EE3FFD033ADCF5015B14AB
:10257000E02F3EBEB80300007C0300000000904046
:10258000FE822B654715973C00CC904000346F3F8E
:1025900001FCFFFF0000E03FC8020000FFFF0F004A
:1025A000432EE63F396CA80C615C20BEEF39FAFE81
:1025B000422EE63FDDE90601FFF7FCF8DDE90623E0
:1025C00005460E46FFF797F93A464346FFF796F958
:1025D0000F462A463346009010461946FFF791F9F8
:1025E000824602462E4888460B4605217844FFF76E
:1025F000E3FA52464346FFF784F92A463346FFF78B
:102600007DF980468A463B4628463146009AFFF7C8
:1026100078F93B46009AFFF7CDF80691009000222A
:102620004FF0804340465146FFF765F90F460C9046
:102630004246534628463146FFF763F93B460C9A1B
:10264000FEF774FF069B009AFFF755F92A463346BA
:10265000FFF751F90022134BFFF750F90546019897
:102660000E4601EB00510815002810DC28463146C3
:10267000019AFFF7B8F9FFF78BFA042808BFFFF7B4
:1026800009FB28463146019AFFF7ADF905460B468E
:1026900018B02A4658462146BDE8F04DFFF731B93B
:1026A000680100000000F03F2DE9F04106460F46AA
:1026B000FFF71DFA041E0D4618BF0120284320F025
:1026C0000040C0F17F6000F1E040C00F0ED0301C30
:1026D00018BF0120384320F00040C0F17F6000F1B6
:1026E000E040C00F04BF0120FFF7ECFA2046294666
:1026F000BDE8F08100000000000000000000F03F95
:10270000000000000000F83F000000000000000092
:102710000000004003B8E23F00000000000000009D
:1027200006D0CF43EBFD4C3E033333333333E33F2B
:10273000FFAB6FDBB66DDB3F4D268F515555D53F57
:1027400001411DA96074D13F65DBC9934A86CD3F25
:10275000EF4E454A287ECA3F3E5555555555C53F13
:1027600093BDBE166CC166BF2CDE25AF6A56113F05
:10277000F16BD2C541BDBBBED0A4BE726937663E07
:102780000000000000000000A82700080000002052
:1027900034000000A41C0008DC27000834000020DE
:1027A00004040000B41C000800A24A040000000059
:1027B00000000000010203040607080900000000F1
:1027C00001020304010203040607080902040608C3
:0C27D000000000000000000000000000FD
:0400000508000131BD
:00000001FF
