:020000040800F2
:100000003004002045010008D91D0008DB1D000850
:10001000DF1D0008E31D0008E71D000800000000C8
:10002000000000000000000000000000EB1D0008C0
:10003000ED1D000800000000EF1D0008F11D000884
:100040005F0100085F0100085F0100085F01000810
:100050005F0100085F0100085F0100085F01000800
:100060005F0100085F0100085F0100085F010008F0
:100070005F0100085F0100085F0100085F010008E0
:100080005F0100085F0100085F0100085F010008D0
:100090005F0100085F0100085F0100085F010008C0
:1000A0005F0100085F0100085F0100085F010008B0
:1000B0005F0100085F0100085F0100085F010008A0
:1000C0005F0100085F0100085F0100085F01000890
:1000D0005F010008F31D00085F0100085F010008D0
:1000E0005F0100085F0100085F0100085F01000870
:1000F0005F0100085F0100085F0100085F01000860
:100100005F0100085F0100085F0100085F0100084F
:100110005F0100085F0100085F0100085F0100083F
:100120005F0100085F0100085F0100085F0100082F
:10013000DFF80CD002F008FE00480047491D000817
:10014000300400200648804706480047FEE7FEE7E7
:10015000FEE7FEE7FEE7FEE7FEE7FEE7FEE7FEE777
:1001600047020008310100080CB500200190009002
:100170006C48006840F480306A49086000BF6948F4
:10018000006800F4003000900198401C0190009835
:1001900018B90198B0F5A06FF1D16248006800F479
:1001A000003010B10120009001E000200090009884
:1001B000012843D15C48006840F010005A490860AB
:1001C0000846006820F0030008600846006840F018
:1001D0000200086053484068524948600846406839
:1001E00048600846406840F48060486008464068BF
:1001F00020F47C1048600846406840F4E8104860ED
:100200000846006840F08070086000BF45480068FC
:1002100000F000700028F9D04248406820F0030048
:10022000404948600846406840F00200486000BF0E
:100230003C48406800F00C000828F9D10CBD10B50E
:10024000FFF792FF10BD10B53648006840F001007E
:1002500034490860084640683449084031494860DC
:1002600008460068324908402E4908600846006880
:1002700020F4802008600846406820F4FE004860B2
:100280004FF41F008860FFF7DAFF4FF00060294944
:10029000086010BD10B5002100200022214B5B68D2
:1002A00003F00C0121B1042906D0082928D107E068
:1002B000214B224C236027E01F4B204C236023E07E
:1002C000184B5B6803F47010164B5B6803F48032C4
:1002D000022303EB904022B9194B4343174C236090
:1002E0000DE0104B5B6803F4003323B1144B434320
:1002F000124C236003E0104B4343104C236003E097
:100300000D4B0E4C236000BF00BF064B5B68C3F370
:1003100003130C4CE15C094B1B68CB40074C23607A
:1003200010BD000000100240002002400000FFF855
:10033000FFFFF6FE08ED00E000127A00000000204A
:1003400000093D000400002031490143314A116099
:10035000704770B5002100230F22C47804B32D4CE0
:10036000246804F4E064C4F5E064210AC1F10403E4
:10037000CA40447804FA03F1847814402143090107
:10038000254C0678A155047804F01F050124AC40E3
:1003900005786D11AD0005F1E025C5F8004109E0D3
:1003A000047804F01F050124AC401C4D067876113A
:1003B00045F8264070BD1A4A0A400243154B1B1FE0
:1003C0001A60704739B1134A121D12680243114B6B
:1003D0001B1D1A6006E00F4A121D126882430D4B66
:1003E0001B1D1A607047042808D14FF0E0210969ED
:1003F00041F004014FF0E022116107E04FF0E021ED
:10040000096921F004014FF0E022116170470000FA
:100410000000FA050CED00E000E400E080E100E0FF
:1004200080FFFF1F10B50446CC48844208D101214B
:10043000042000F02DFB0021042000F029FB46E001
:10044000C748844208D10121082000F021FB002187
:10045000082000F01DFB3AE0C248844208D1012187
:10046000102000F015FB0021102000F011FB2EE001
:10047000BD48844208D10121202000F009FB002161
:10048000202000F005FB22E0B848844208D1012179
:10049000402000F0FDFA0021402000F0F9FA16E0BB
:1004A000B348844208D10121802000F0F1FA0021F4
:1004B000802000F0EDFA0AE0AE48844207D1012125
:1004C000801500F0E5FA0021A01500F0E1FA10BD5A
:1004D00010B50121084600F0DBFA0021012000F0F0
:1004E000D7FA10BD2DE9F041024600250026002074
:1004F00000230024002791F803C00CF00F0591F8A9
:1005000003C00CF0100CBCF1000F03D091F802C036
:100510004CEA050591F800C0BCF1000F31D0146819
:1005200000202BE04FF0010C0CFA00F3B1F800C0F2
:100530000CEA03069E4220D183004FF00F0C0CFA08
:1005400003F7BC4305FA03FC4CEA040491F803C02A
:10055000BCF1280F06D14FF0010C0CFA00FCC2F8D8
:1005600014C00AE091F803C0BCF1480F05D14FF068
:10057000010C0CFA00FCC2F810C0401C0828D1D3B2
:100580001460B1F800C0BCF1FF0F34DD54680020E6
:100590002EE000F1080C4FF0010808FA0CF3B1F856
:1005A00000C00CEA03069E4221D183004FF00F0CDD
:1005B0000CFA03F7BC4305FA03FC4CEA040491F877
:1005C00003C0BCF1280F05D100F1080C08FA0CF8A3
:1005D000C2F8148091F803C0BCF1480F07D100F1B4
:1005E000080C4FF0010808FA0CF8C2F81080401C03
:1005F0000828CED35460BDE8F0814FF6FF7101802A
:10060000022181700421C170704702460020936866
:100610000B400BB1012000E00020704701468868C4
:1006200080B2704702460020D3680B400BB1012016
:1006300000E0002070470146C86880B27047016141
:100640007047416170470AB1016100E04161704744
:10065000C16070474FF480320A43826181618261D8
:1006600082698269704702460020434B18684FF642
:100670008073184040EA021008433F4B18607047EF
:100680003E49C8617047F0B50A46002300240021A6
:10069000002500F00046B6F1004F02D1364EF16958
:1006A00001E0354E7168C0F3034583B200F4401693
:1006B000B6F5401F08D121F070612F4E766826F004
:1006C00070662D4F7E6012E000F48016B6F5801F34
:1006D00006D1032606FA05F4A14341F0706106E055
:1006E000460D360103FA06F6B14341F0706122B1BE
:1006F000460D360103FA06F6314300F00046B6F126
:10070000004F02D11C4EF16101E01B4E7160F0BD43
:1007100030B500228B071C0F0F2303FA04F2164B8F
:1007200008338C1053F824309343134C08348D1045
:1007300044F8253023468C1053F824308C07240FBE
:1007400000FA04F423430C4C08348D1044F825308F
:1007500030BD0A49DC3108607047000000080140E4
:10076000000C01400010014000140140001801403D
:10077000001C014000200140000001400000204218
:10078000DF48006840F00100DD4908600846406825
:10079000DC490840DA49486008460068DA49084000
:1007A000D74908600846006820F4802008600846A1
:1007B000406820F4FE0048604FF41F0088607047D6
:1007C000CF49096821F48031CD4A1160114609688A
:1007D00021F480211160B0F5803F03D0B0F5802F67
:1007E0000ED106E0C649096841F48031C44A11605F
:1007F00007E0C349096841F4A021C14A116000E043
:1008000000BF00BF704710B5014600220023002042
:100810004A11012A02D1BA4C236806E0022A02D109
:10082000B74C236A01E0B64C636A01F01F02012451
:1008300094401C400CB1012000E0002010BD38B5F0
:10084000002000900024002500BF3120FFF7DBFFCF
:1008500005460098401C00900098B0F5A06F01D0AC
:10086000002DF2D03120FFF7CEFF08B1012400E0C7
:100870000024204638BD01460020A14A106820F01F
:10088000F80040EAC10010607047A0490860704756
:10089000024600209A4B586820F47C1042EA01037B
:1008A0001843974B5860704798490866704701464F
:1008B0000020934A506820F00300084350607047BE
:1008C0008F48406800F00C007047014600208C4AB9
:1008D000506820F0F0000843506070470146002047
:1008E000874A506820F4E060084350607047014632
:1008F0000020834A506820F4605040EAC1005060F4
:10090000704729B17E4A527A02437D4B5A7204E005
:100910007B4A527A82437A4B5A7270477B49D8316C
:100920000860704701460020754A506820F4404036
:100930000843506070470021714A20321170704A9C
:1009400082F82010012802D004280AD104E00121F5
:100950006B4A2032117005E00521694A203211707E
:1009600000E000BF00BF70476949086070476449F4
:10097000096A0143624A1162704765494439086057
:10098000704730B500210022002400235C4D6D68C3
:1009900005F00C0121B1042905D0082923D105E077
:1009A0005C4D056022E05B4D05601FE0544D6D68B5
:1009B00005F47012524D6D6805F48034022505EB84
:1009C00092421CB9544D554305600BE04C4D6D6887
:1009D00005F400351DB1504D5543056002E04D4D05
:1009E0005543056002E04B4D056000BF00BF444D1C
:1009F0006D6805F0F0010909484D6B5C0568DD4044
:100A000045603F4D6D6805F4E061090A434D6B5C3C
:100A10004568DD4085603A4D6D6805F46051C90A4E
:100A20003E4D6B5C4568DD40C560354D6D6805F435
:100A30004041890B3A4D6B5CC568B5FBF3F5056128
:100A400030BD29B12E4A526902432D4B5A6104E050
:100A50002B4A526982432A4B5A61704729B1284A6E
:100A600092690243264B9A6104E0254A92698243C7
:100A7000234B9A61704729B1214AD2690243204B26
:100A8000DA6104E01E4AD26982431D4BDA61704785
:100A900029B11B4AD2680243194BDA6004E0184AB4
:100AA000D2688243164BDA60704729B1144A126942
:100AB0000243134B1A6104E0114A12698243104B3E
:100AC0001A61704712494039086070470F49C8647D
:100AD00070470B49C87170470948406A40F0807000
:100AE00007494862704701460020054A92680A405B
:100AF0000AB1012000E00020704701498872704768
:100B0000001002400000FFF8FFFFF6FE0000424226
:100B10008004424200127A0000093D0014000020C7
:100B20002400002010B50446FE48844208D101216B
:100B3000C014FFF7ADFF0021E014FFF7A9FFC4E0E8
:100B4000B4F1804F08D101210846FFF7AEFF002124
:100B50000120FFF7AAFFB8E0F348844208D1012141
:100B60000220FFF7A2FF00210220FFF79EFFACE06A
:100B7000EE48844208D101210420FFF796FF0021AE
:100B80000420FFF792FFA0E0E948844208D1012148
:100B90000820FFF78AFF00210820FFF786FF94E076
:100BA000E448844208D101211020FFF77EFF002194
:100BB0001020FFF77AFF88E0DF48844208D1012146
:100BC0002020FFF772FF00212020FFF76EFF7CE05E
:100BD000DA48844208D101214014FFF759FF00216F
:100BE0006014FFF755FF70E0D548844209D1012118
:100BF000C804FFF74DFF00214FF40020FFF748FF26
:100C000063E0D048844209D101210805FFF740FF85
:100C100000214FF48010FFF73BFF56E0CA488442A2
:100C200009D101214805FFF733FF00214FF40010DF
:100C3000FFF72EFF49E0C548844208D1012140203A
:100C4000FFF733FF00214020FFF72FFF3DE0C048B2
:100C5000844208D101218020FFF727FF0021802056
:100C6000FFF723FF31E0BB48844208D10121801502
:100C7000FFF71BFF0021A015FFF717FF25E0B6487F
:100C8000844209D101210804FFF702FF00214FF43B
:100C90008030FFF7FDFE18E0B048844209D1012101
:100CA0004804FFF7F5FE00214FF40030FFF7F0FE97
:100CB0000BE0AB48844208D101218804FFF7E8FE2D
:100CC00000214FF48020FFF7E3FE10BD00220288D0
:100CD000944B98420ED0994B98420BD0B0F1804F74
:100CE00008D0914B984205D0904B984202D0904B3F
:100CF000984204D14FF68F731A404B881A438D4B9C
:100D0000984207D08C4B984204D04FF6FF431A40CC
:100D1000CB881A4302808B8883850B880385814B9F
:100D200098420BD0854B984208D08B4B984205D007
:100D30008A4B984202D08A4B984201D10B7A0386A3
:100D400001238382704770B5002400220023058CA4
:100D50004FF6FE7635400584028C8388048B4FF66F
:100D60008F752C40B51E2C400D882C43751E2A40D3
:100D70000D892A434D882A436A4DA8420BD06F4DF6
:100D8000A84208D0744DA84205D0744DA84202D0A4
:100D9000734DA84213D14FF6F7752A404D892A4367
:100DA0004FF6FB752A408D882A434FF6FF652B408E
:100DB0004FF6FF552B408D892B43CD892B438380E4
:100DC0000483CD888586028470BD70B5002400221E
:100DD0000023058C4FF6EF7635400584028C83881E
:100DE000048B48F6FF752C404FF6FF452C400D88CC
:100DF0004FF6FF7606EA05252C434FF6DF752A40AD
:100E00000D8906EA05152A434D8806EA05152A4389
:100E1000444DA84202D0494DA8421DD14FF67F75DE
:100E20002A404D894FF6FF7606EA05152A434FF60C
:100E3000BF752A408D8806EA05152A434FF6FF350F
:100E40002B404FF2FF752B408D8906EA85052B4319
:100E5000CD8906EA85052B4383800483CD880587E9
:100E6000028470BD70B5002400220023058C4FF66B
:100E7000FF6635400584028C8388848B4FF68F751E
:100E80002C404FF6FC752C400D882C434FF6FF5537
:100E90002A400D894FF6FF7606EA05252A434D883C
:100EA00006EA05252A431F4DA84202D0234DA84239
:100EB0001DD14FF2FF752A404D894FF6FF7606EAA5
:100EC00005252A434FF6FF352A408D8806EA052579
:100ED0002A434EF6FF752B404DF6FF752B408D894A
:100EE00006EA05152B43CD8906EA05152B438380B9
:100EF0008483CD888587028470BD70B5002200236D
:100F00000024058C4EF6FF7635400584038C8488DA
:100F1000828B48F6FF752A404FF6FF452A400D8820
:100F200020E00000002C01400004004000080040C8
:100F3000000C00400010004000140040003401404C
:100F4000004C014000500140005401400018004096
:100F5000001C0040002000400040014000440140CF
:100F6000004801404FF6FF7606EA05252A434DF674
:100F7000FF752B400D8906EA05352B434D8806EA9F
:100F800005352B43FA4DA84202D0FA4DA84208D1AC
:100F90004BF6FF752C408D894FF6FF7606EA8515D6
:100FA0002C4384808283CD88A0F84050038470BD98
:100FB000828B4FF2FF331A408283828B4FF6FF738E
:100FC00003EA01231A4382837047F0B50C461546A5
:100FD000002200210026078C4EF6FF7C07EA0C0752
:100FE0000784828B018C4FF6FF7707EA043640F6C0
:100FF000FF473A404FF6FF7707EA05273A434FF697
:10100000FF7707EA03373A43D94FB8420ED0D94F9A
:10101000B8420BD0B0F1804F08D0D74FB84205D0BE
:10102000D64FB84202D0D64FB84206D14DF6FF7720
:10103000394046F48057394305E047F6FF573940B9
:1010400044F48057394382830184F0BD828B4FF68C
:10105000F3731A408283828B0A4382837047F0B510
:101060000C461546002200210026078C4FF6FF6C27
:1010700007EA0C070784828B018C4FF6FF7707EA9B
:1010800004264FF60C773A404FF6FF7707EA03172E
:101090002F433A43B64FB8420ED0B64FB8420BD0AA
:1010A000B0F1804F08D0B44FB84205D0B34FB8422A
:1010B00002D0B34FB84206D14FF6FF57394046F43D
:1010C0008077394305E04FF2FF57394044F4807789
:1010D000394382830184F0BD028B4FF2FF331A4003
:1010E0000283028B4FF6FF7303EA01231A43028344
:1010F0007047F0B50C461546002200210026078CEB
:101100004FF6EF7C07EA0C070784028B018C4FF641
:10111000FF7707EA041640F6FF473A404FF6FF779D
:1011200007EA03373A434FF6FF7707EA05273A43C2
:101130008F4FB8420ED08F4FB8420BD0B0F1804FD6
:1011400008D08D4FB84205D08C4FB84202D08C4F9A
:10115000B84206D14FF6DF77394046F010073943E1
:1011600005E04FF65F77394044F0100739430283BA
:101170000184F0BD028B4FF6F3731A400283028B99
:101180000A4302837047F0B50C4615460022002141
:10119000068C4FF6FE773E400684028B018C4FF69C
:1011A0000C7632407E1C06EA03162E433243704E04
:1011B000B0420ED06F4EB0420BD0B0F1804F08D08D
:1011C0006D4EB04205D06D4EB04202D06C4EB04272
:1011D00006D14FF6FD76314044F00106314305E07B
:1011E0004FF6F576314044F0010631430283018425
:1011F000F0BD70B505460C465D4885420ED05D4891
:1012000085420BD0B5F1804F08D05B48854205D0B0
:101210005A48854202D05A48854200D100E000BFBA
:10122000208850B92389A28861882846FFF7ABFF40
:10123000E1882846FFF79EFF25E0208804280AD190
:101240002389A28861882846FFF753FFE188284652
:10125000FFF742FF17E0208808280AD12389A288D7
:1012600061882846FFF7FBFEE1882846FFF7EEFE7F
:1012700009E02389A28861882846FFF7A6FEE18855
:101280002846FFF795FE70BD2DE9F04105460C4656
:1012900000260127608808B9022600E00026A08801
:1012A000012801D1022700E001272088A0B9238965
:1012B000A28861882846FFF766FFE1882846FFF785
:1012C00059FF23893A4631462846FFF712FFE18845
:1012D0002846FFF701FF13E02389A288618828468A
:1012E000FFF707FFE1882846FFF7F6FE23893A4615
:1012F00031462846FFF747FFE1882846FFF73AFFC7
:10130000BDE8F0810A884B881A438B881A43CB8842
:101310001A430B891A434B891A438B891A43A0F845
:10132000442070474FF6FF71818000210180C18009
:101330004180017270470021018041808180C1801D
:10134000018141818181C1817047002101804180FB
:10135000012181800021C18001817047002101802D
:1013600041808180C180018141818181704700007D
:10137000002C0140003401400004004000080040FF
:10138000000C004021B1028842F00102028004E01A
:1013900002884FF6FE731A400280704731B1B0F8F0
:1013A000442042F40042A0F8442005E0B0F8442074
:1013B000C2F30E02A0F8442070471AB183890B4390
:1013C000838102E083898B438381704781827047E8
:1013D00041EA0203A0F8483070471AB183890B43F1
:1013E000838102E083898B438381704701894FF6B3
:1013F000F8721140018170470A46002101894FF6B9
:101400008F73194011430181704730B504460D4672
:1014100029462046FFF7F0FF208940F00700208191
:1014200030BD2DE9F04104460D4616461F46602D9D
:1014300006D13B46012231462046FFF75AFE05E021
:101440003B46012231462046FFF79DFE29462046B5
:10145000FFF7D2FF208940F007002081BDE8F0812E
:1014600030B50C4600210189C9B24FF6FF7505EA77
:101470000325154325432943018130BD2DE9F04162
:1014800005460E4617469846002443463A463146DE
:101490002846FFF7E5FF2C894FF6F870044044F02A
:1014A00007044FF68F70044044F070042C81BDE8AF
:1014B000F081F0B504460D4616461F463B463246BF
:1014C00029462046FFF7CCFF208940F48040208148
:1014D000F0BD0185828270470A46002101884FF6DF
:1014E0008F731940114301807047F0B50C461546C3
:1014F0001E460021002200230189028B038C4FF637
:10150000F877394021434FF6FC473A4040F2011743
:101510003A434FF6DD773B404FF6FF7707EA061771
:101520002F433B43018102830384F0BD0A4600211F
:10153000018B4FF68F7319401143018370470A46A0
:101540000021018B48F6FF7319404FF6FF7303EA41
:1015500002231943018370470A460021818B4FF60D
:101560008F7319401143818370470A460021818B94
:1015700048F6FF7319404FF6FF7303EA022319433D
:101580008183704721B1028842F08002028004E02A
:1015900002884FF67F731A400280704721B182881B
:1015A00042F00402828004E082884FF6FB731A4006
:1015B0008280704721B1828842F00802828004E074
:1015C00082884FF6F7731A408280704721B1828873
:1015D00042F00102828004E082884FF6FE731A40D6
:1015E000828070470A460021018B4FF6F77319403D
:1015F0001143018370470A460021018B4FF2FF73AC
:1016000019404FF6FF7303EA022319430183704721
:101610000A460021818B4FF6F773194011438183ED
:1016200070470A460021818B4FF2FF7319404FF635
:10163000FF7303EA02231943818370470A4600219E
:10164000018B4FF6FB7319401143018370470A4623
:101650000021018B4FF6FF3319404FF6FF7303EA69
:1016600002231943018370470A460021818B4FF6FC
:10167000FB7319401143818370470A460021818B17
:101680004FF6FF3319404FF6FF7303EA0223194365
:10169000818370470A460021018B4FF67F73194002
:1016A0001143018370470A460021018BC1F30E01EB
:1016B0004FF6FF7303EA02231943018370470A467A
:1016C0000021818B4FF67F7319401143818370474E
:1016D0000A460021818BC1F30E014FF6FF7303EA26
:1016E00002231943818370470A460021018C4FF67B
:1016F000FD7319401143018470470A460021018C93
:101700004FF6F77319401143018470470A460021D0
:10171000018C4FF6DF7319404FF6FF7303EA021393
:101720001943018470470A460021018C4FF67F73EC
:1017300019404FF6FF7303EA0213194301847047FF
:101740000A460021018C4FF6FF5319404FF6FF73F4
:1017500003EA02231943018470470A460021018CE1
:101760004FF2FF7319404FF6FF7303EA0223194348
:10177000018470470A460021018C4DF6FF73194021
:101780004FF6FF7303EA023319430184704730B503
:10179000002301248C40A3B2048C9C430484048C59
:1017A00002FA01F5ADB22C43048430BD30B50023FC
:1017B00004248C40A3B2048C9C430484048C02FA5D
:1017C00001F5ADB22C43048430BD70B50346002052
:1017D00000241846183001258D40ACB21D8CA5435D
:1017E0001D8409B1082909D100EB6100056825F0C5
:1017F000700505600568154305600EE00D1FC5F313
:101800004E052844056825F4E045056005684FF657
:10181000FF7606EA02263543056070BD21B10288D5
:1018200042F00202028004E002884FF6FD731A4083
:101830000280704721B1028842F00402028004E075
:1018400002884FF6FB731A400280704721B18288EC
:1018500042F08002828004E082884FF67F731A4053
:101860008280704702884FF6F7731A400280028820
:101870000A430280704782884FF68F731A40828035
:1018800082880A438280704702894FF6F8731A40B3
:10189000028102890A430281704702894FF67F73F1
:1018A0001A40028102890A4302817047818470478D
:1018B00081857047818670470187704781877047AF
:1018C000A0F84010704702884FF6FF431A4002808C
:1018D00002880A43028070470146888E704701469D
:1018E000088F70470146888F70470146B1F8400065
:1018F00070470146888C70470146088D7047024644
:101900000020138A0B400BB1012000E0002070473B
:10191000CA430282704730B50246002000230024EB
:10192000158A05EA0103958905EA010413B10CB192
:10193000012000E0002030BDCA4302827047000051
:1019400010B50446FB48844209D101218803FFF702
:101950009FF800214FF48040FFF79AF832E0F648F4
:10196000844209D101214804FFF79FF800214FF478
:101970000030FFF79AF825E0F048844209D10121B0
:101980008804FFF792F800214FF48020FFF78DF8CC
:1019900018E0EB48844209D10121C804FFF785F81B
:1019A00000214FF40020FFF780F80BE0E548844267
:1019B00008D101210805FFF778F800214FF48010C5
:1019C000FFF773F810BD2DE9F04786B005460E46C7
:1019D0000024A24600BFA1460027B08900B100BF85
:1019E0002F462C8A4CF6FF700440F08804432C826A
:1019F000AC894EF6F3100440B088318908437189F0
:101A000008430443AC81AC8A4FF6FF400440B089E0
:101A10000443AC8201A8FEF7B4FFC648874202D156
:101A2000DDF810A001E0DDF80CA0A88900F400406A
:101A300040B10AEBCA0000EB0A1031684900B0FB64
:101A4000F1F807E00AEBCA0000EB0A1031688900E0
:101A5000B0FBF1F86420B8FBF0F004012009642128
:101A600001FB1089A88900F4004040B1322000EB4E
:101A7000C900B0FBF1F000F00700044308E0322099
:101A800000EB09106421B0FBF1F000F00F000443FB
:101A90002C8106B0BDE8F0874FF41651016000219B
:101AA0008180C18001810C214181002181817047A9
:101AB00010B502460020108A4FF2FF0318400B8831
:101AC0004C8823438C882343CC88234318431082BB
:101AD00010BD0021018041808180C180704721B10B
:101AE000828942F40052828104E082894DF6FF73BC
:101AF0001A4082817047F0B5034600240026002575
:101B0000002040F66A17B94200D100BF1846C1F361
:101B1000421401F01F06012707FA06F5012C01D136
:101B20000C3004E0022C01D1103000E014301AB166
:101B300007682F43076002E00768AF430760F0BD06
:101B40001AB1838A0B43838202E0838A8B438382A8
:101B50007047028A4FF6F0731A400282028A0A43E3
:101B60000282704782894FF2FF731A408281828914
:101B70000A438281704721B1828942F00202828148
:101B800004E082894FF6FD731A4082817047028A11
:101B90004FF6DF731A400282028A0A4302827047BC
:101BA00021B1028A42F48042028204E0028A4BF6AA
:101BB000FF731A4002827047C1F3080282807047A7
:101BC00001468888C0F308007047818941F001010F
:101BD00081817047028BD2B20283028B42EA0122DA
:101BE00002837047028B02F47F420283028B0A4316
:101BF0000283704721B1828A42F02002828204E08F
:101C0000828A4FF6DF731A408282704721B1828A3E
:101C100042F01002828204E0828A4FF6EF731A408B
:101C20008282704721B1828A42F00802828204E0F7
:101C3000828A4FF6F7731A408282704721B18289F7
:101C400042F40042828103E08289C2F30E02828163
:101C5000704721B1828A42F40062828204E0828A63
:101C60004FF2FF731A4082827047828A4FF6FB73ED
:101C70001A408282828A0A438282704721B1828A14
:101C800042F00202828204E0828A4FF6FD731A401B
:101C90008282704702460020B1F5007F00D100BF6C
:101CA00013880B400BB1012000E00020704701F4C5
:101CB0000072B2F5007F00D100BFCA4302807047B6
:101CC00070B50246002400230025002040F66A1665
:101CD000B14200D100BFC1F3421501F01F0301263C
:101CE00006FA03F3012D02D19689334006E0022D56
:101CF00002D1168A334001E0968A33400C12012645
:101D000006FA04F41688344013B10CB1012000E047
:101D1000002070BD10B50022002340F66A14A142D5
:101D200000D100BF0A1201249440A3B2DC43048016
:101D300010BD000000380140004400400048004051
:101D4000004C00400050004000F0D0F8204800F067
:101D50003DFA4FF4AF61084600F087FC36E01D48BD
:101D60000078672810D008DC31281CD0322820D019
:101D7000332824D0622828D109E06C280DD072289D
:101D80000ED0732821D105E000F0B5FB1DE000F076
:101D9000E8FB1AE000F0F7FB17E000F0D0FB14E0DE
:101DA00000F0BBFB11E04FF4C871084600F05DFC89
:101DB0000BE04FF44871084600F057FC05E04FF483
:101DC0007A71084600F051FC00BF00BFC7E7000071
:101DD0000038014028000020704700BFFEE700BF28
:101DE000FEE700BFFEE700BFFEE7704770477047A1
:101DF000704710B540F225510648FFF761FF40B12A
:101E00000448FFF7DDFE0449087020210148FFF770
:101E10004EFF10BD003801402800002030B50146BB
:101E2000B1F1807F01D3012030BD21F07F40401E01
:101E30004FF0E022506150170F22002807DA1307F5
:101E40001D0E264B00F00F04241F1D5503E0130741
:101E50001C0E234B1C5400BF00204FF0E022906169
:101E6000072010610020DFE770B5044600251D48FB
:101E700000681D49B0FBF1F63046FFF7CFFF08B10F
:101E800000BFFEE7002508E000BF4FF0E02000693A
:101E900000F480300028F8D06D1CA542F4D370BD4A
:101EA00070B5044600250F4800684FF47A71B0FB06
:101EB000F1F63046FFF7B2FF08B100BFFEE700259C
:101EC00008E000BF4FF0E020006900F480300028F7
:101ED000F8D06D1CA542F4D370BD000018ED00E0F1
:101EE00000E400E00000002040420F0008B501219E
:101EF0000420FEF7B3FD10208DF803000220ADF89A
:101F0000000003208DF8020069460A48FEF7EAFA4D
:101F100008BD10B5044602210648FEF792FB204694
:101F2000FFF7BEFF02210348FEF789FB2046FFF7BB
:101F3000B7FF10BD00080140002148E000BF00BF0E
:101F400000BF00BF00BF00BF00BF00BF00BF00BF99
:101F500000BF00BF00BF00BF00BF00BF00BF00BF89
:101F600000BF00BF00BF00BF00BF00BF00BF00BF79
:101F700000BF00BF00BF00BF00BF00BF00BF00BF69
:101F800000BF00BF00BF00BF00BF00BF00BF00BF59
:101F900000BF00BF00BF00BF00BF00BF00BF00BF49
:101FA00000BF00BF00BF00BF00BF00BF00BF00BF39
:101FB00000BF00BF00BF00BF00BF00BF00BF00BF29
:101FC00000BF00BF00BF00BF00BF00BF491C81426F
:101FD000B4D3704710B50346002404E04FF47A7080
:101FE000FFF7AAFF641C9C42F8D310BDF8B5064663
:101FF0000C4615464FF4A060FEF7A6F98DF8006078
:1020000001208DF803008DF801408DF802506846DC
:10201000FEF79FF9F8BD38B5044603208DF802009D
:10202000FE48844218D101210420FEF717FD182034
:102030008DF803006015ADF800006946F848FEF71A
:1020400051FA04208DF803000002ADF80000694643
:10205000F348FEF747FA6DE0F248844218D10121B7
:102060000420FEF7FBFC18208DF803000420ADF8D7
:1020700000006946EA48FEF735FA04208DF80300AF
:102080000820ADF800006946E548FEF72BFA51E05C
:10209000E548844218D101210820FEF7DFFC182012
:1020A0008DF803002015ADF800006946DF48FEF703
:1020B00019FA04208DF803004002ADF800006946CB
:1020C000DA48FEF70FFA35E0D948844218D10121E9
:1020D0001020FEF7C3FC18208DF803002015ADF882
:1020E00000006946D348FEF7FDF904208DF803008F
:1020F0004002ADF800006946CE48FEF7F3F919E05A
:10210000CD48844216D101213020FEF7A7FC1820CB
:102110008DF80300A014ADF800006946C548FEF72D
:10212000E1F904208DF80300ADF800006946C348CA
:10213000FEF7D8F938BD1FB504460020ADF80C00F5
:102140000C20ADF80A000020ADF80800ADF806003C
:10215000ADF80400B14884421AD101218803FEF78A
:102160007DFC4FF41650009069462046FFF72BFC8B
:10217000012211462520FFF739FF012240F22551A7
:102180002046FFF7B8FC01212046FFF7A8FC1CE021
:10219000A448844219D101214804FEF76CFC4FF495
:1021A0001650009069462046FFF70DFC01221146AB
:1021B0002620FFF71BFF012240F225512046FFF7A2
:1021C0009AFC01212046FFF78AFC1FBD10B504468A
:1021D0002046FFF720FF2046FFF7ADFF10BD70B58A
:1021E00004460D4640218D48FFF754FD402120460E
:1021F000FFF75DFD29462046FFF7DEFC00BF4021CA
:102200008648FFF747FD0028F9D00A20FFF7E2FED5
:1022100070BD70B505460C4600BF21782846FFF713
:10222000DEFF601C044600780028F6D170BD2DE961
:10223000F34F81B00C46A1464FF0000AD3461CB9BB
:1022400030210198FFF7CBFF06E00A20B9FBF0F937
:102250000AF1010000F0FF0AB9F1000FF5D11FE00B
:10226000AAEB0B01481E00F0F6FB07463A460B4668
:102270000020734900F06AFE054600F01EFCB4FB26
:10228000F0F00A21B0FBF1F201FB12003030014600
:1022900000900198FFF7A3FF0BF1010000F0FF0B86
:1022A000D345DDDBBDE8FE8F2DE9F34F89B08946CC
:1022B000DFF890A1484600F0ECFB054600214846B7
:1022C00000F044FC03D22D210998FFF788FF002479
:1022D000002675B304E00A20B5FBF0F5601CC4B21B
:1022E000002DF8D1484600F0D4FB05461EE0A11BA6
:1022F000481E00F0B0FB02460B46CDE9020100206B
:102300004F4900F023FECDE9040100F0D6FBB5FBF8
:10231000F0F00A21B0FBF1F201FB1200303001466F
:1023200007900998FFF75BFF701CC6B2A642DEDB80
:1023300004E0FFE730210998FFF751FF2E210998AB
:10234000FFF74DFF484600F0A4FB069000F07EFB2F
:102350004946079000F0EFF983465F464FF00608C4
:102360000024404600F088FB02460B46CDE9000100
:102370000020334900F0EAFDCDE90401584600F0A1
:10238000B5FBCDE90201DDE9042300F07EFACDE9D9
:10239000060100F0BEFB834613E030210998FFF7E9
:1023A0001EFF504600F0A2FB0022254BCDE90401A0
:1023B00000F0DDFACDE9060100F0ABFB8246601CBF
:1023C000C4B25146384600F0C1FB01D24445E4DBBB
:1023D000584600F05EFB05460024002604E00A2073
:1023E000B5FBF0F5601CC4B2002DF8D1584600F0E2
:1023F00050FB054635E0A11B481E00F02CFB0246B1
:102400000B46CDE9020100200D4900F09FFDCDE90A
:10241000040100F052FBB5FBF0F015E0003801407C
:10242000000801400044004000480040000C01400A
:10243000004C0040001001400050004000140140DA
:1024400000002440CDCCCC3D0A21B0FBF1F201FBD1
:1024500012003030014607900998FFF7C0FE701C4B
:10246000C6B2A642C7DB0BB0BDE8F08F10B504467C
:1024700002492046FFF7CDFE10BD0000003A0008DB
:1024800008B501210420FEF7E9FA01210420FEF736
:10249000E5FA01210420FEF7E1FA01210420FEF70C
:1024A000DDFA01210420FEF7D9FA01210420FEF70C
:1024B000D5FA10208DF803003D20ADF80000032070
:1024C0008DF8020069466F48FEF70CF869466D48C2
:1024D000FEF708F869466B48FEF704F86946694854
:1024E000FEF700F869466748FDF7FCFF6946654856
:1024F000FDF7F8FF08BD10B501216248FEF7A1F80D
:1025000004216048FEF79BF808215E48FEF799F821
:1025100010215C48FEF793F810BD10B50121594811
:10252000FEF78FF804215748FEF78BF8082155482D
:10253000FEF787F810215348FEF781F810BD10B55B
:1025400001215048FEF77DF804214E48FEF777F848
:1025500008214C48FEF775F810214A48FEF771F83B
:1025600010BD10B501214748FEF769F80421454820
:10257000FEF767F808214348FEF761F8102141484B
:10258000FEF75FF810BD10B501213E48FEF757F881
:1025900004213C48FEF753F808213A48FEF74FF86B
:1025A00010213848FEF74BF810BD08B50121042072
:1025B000FEF754FA4020ADF8000018208DF8030013
:1025C00003208DF8020069462E48FDF78BFF01219C
:1025D0000420FEF743FA8020ADF800006946294840
:1025E000FDF780FF08BD30B587B005460C460121D8
:1025F0000220FEF740FA0020ADF81600ADF81200F8
:1026000040F2E730ADF8140040F2C620ADF81000FB
:1026100000208DF8180004A91B48FEF757FB012085
:10262000ADF802006020ADF800000020ADF8080011
:10263000ADF8065069461448FEF785FB082112489C
:10264000FEF7D0FFADF806406020ADF80000694607
:102650000D48FEF7BAFB08210B48FEF7CCFF01211D
:102660000948FEF78FFE07B030BD70B504460D4631
:10267000FFF706FFFFF799FF29462046FFF7B3FF54
:1026800070BD00000008014000040040F0B480EA82
:102690000102D40F4200B2EB410F02D202460846BB
:1026A00011464A0042D0C30DDDB2C1F3C752AD1A84
:1026B000202D35DAC1F3160141F4000204B1524273
:1026C000C5F1200602FA06F12A411044B3EBD05FAF
:1026D00023D0C4B1012DA0EBC35009DCF0BC4FF0F6
:1026E000004202EAC352DBB200F5000000F072BA09
:1026F000400000F1807000EBC350A0F1807040EA10
:10270000D170490009E0490841EAC071A0EBC3500B
:1027100000F50000400800EBC350F0BC00F051BAD7
:102720006142012202EB4101001BF6E7F0BC704759
:1027300081F00041AAE780F00040A7E72DE9FE4FB5
:10274000804681EA0300C00F0C46009021F0004152
:1027500023F00045B8EB0200A94105D240462146CE
:1027600090461C460B46024623F00040104347D0DB
:10277000270DC7F30A00C3F30A510290401A0190D3
:1027800040286BDAC3F3130040F4801B0098924694
:1027900020B10023D2EB030A63EB0B0B01985946DF
:1027A000C0F14002504600F0DBF906460D465046A7
:1027B0005946019A00F0F3F910EB0800614100243A
:1027C00087EA115284EAE7731A4340D0009A62B351
:1027D000019A012A4FEA075215DC001B61EB020146
:1027E0004FF0004202EA0752CDE90042001C41F5D9
:1027F000801132462B4600F02AFA03B0BDE8F08F74
:1028000040462146F9E7001B61EB0201001C41F53F
:10281000801300185B412018A2F5001747EB030155
:1028200040EAD570B6196D4111E06D084FEA3606E1
:1028300045EAC0754FEA0752001B61EB0201001C1C
:1028400041F5801149084FEA3000001951413246E4
:102850002B4603B0BDE8F04F00F0EAB90098012222
:1028600040000023D0EB020263EBE07300982146A6
:102870004FEAE074B8EB000061EB0401E9E783F094
:1028800000435BE781F0004158E72DE9FE4F81EA04
:10289000030404F0004421F0004100944FF0000BC9
:1028A00023F0004350EA01045ED052EA03045BD0F7
:1028B000C3F30A54C1F30A552C44A4F2F33401942F
:1028C000A0FB0254C1F3130141F48011C3F31303BD
:1028D00043F4801301FB024400FB034E840A970A71
:1028E00044EA815447EA8357A4FB076802958D0A9E
:1028F00005FB07854FEA932C04FB0C542705029D2A
:102900004FEA065847EA1637B5EB08056EEB070C99
:10291000870E920E47EA811742EA8312A7FB020153
:10292000B6EB0B0164EB00042B0D43EA0C335E188D
:1029300044EB1C50DA465146E7FB0201C5F3130491
:102940004FEA0B3343EA14534FEA0432019C43EA43
:102950000603A4F10C040294009CCDE900B400F03D
:1029600076F903B0BDE8F08F00200146F9E72DE9C4
:10297000F04D81EA030404F0004B21F000451446B9
:102980004FF0000A23F0004150EA050220D054EA3B
:1029900001021DD0C5F30A570246C5F31303C1F364
:1029A0001300C1F30A5640F4801543F48013A7EBDB
:1029B0000608101BD64608F2FD3873EB050002D35B
:1029C00008F1010801E092185B41B8F1000F03DA49
:1029D00000200146BDE8F08D00204FF4801106462E
:1029E00084460EE0171B73EB050705D3121B63EB40
:1029F000050306434CEA010C49084FEA30009218DF
:102A00005B4150EA0107EDD152EA030012D082EA9D
:102A1000040083EA0501084305D0101BAB4106D230
:102A20000122002306E000224FF0004302E06FF095
:102A3000010253101AEB06004CEB085110EB0A0090
:102A400041EB0B01BDE8F04D00F0F2B896230022F7
:102A5000114600F0BFB80EB5C10F80EAE07008441F
:102A6000CA07002140F233438DE80E000A460B46A8
:102A700000F0EDF803B000BD0EB540F23341029115
:102A80000021CDE900110A460B4600F0E0F803B042
:102A900000BD20F00040C10DC0F3160040F400005E
:102AA0007F2901DA00207047962903DCC1F19601E5
:102AB000C8407047963988407047C1F30A5210B534
:102AC000C1F3130140F2FF3341F480119A4201DA5D
:102AD000002010BD40F233439A42A2F2334203DC9D
:102AE000524200F04CF810BD904010BD00F0004282
:102AF00030F000400AD0C10D01F56071C0F316003E
:102B000042EA0151C20840071143704700200146C4
:102B1000704701F0004330B421F0004150EA010257
:102B200006D00A0DA2F56072C1F31301002A02DC7F
:102B300030BC00207047440F44EAC104C100E018D3
:102B400030BC00EBC25000F03CB80000002801DBB4
:102B5000C0F10040002901DBC1F100418142704712
:102B6000202A04DB203A00FA02F10020704791404D
:102B7000C2F1200320FA03F3194390407047202A42
:102B800004DB203A21FA02F00021704721FA02F317
:102B9000D040C2F120029140084319467047202AD4
:102BA00006DBCB17203A41FA02F043EAE07306E075
:102BB00041FA02F3D040C2F1200291400843194685
:102BC00070470029A8BF7047401C490008BF20F08B
:102BD0000100704710B4B0FA80FC00FA0CF050EA23
:102BE000010404BF10BC704749B1CCF1200421FAA4
:102BF00004F411FA0CF118BF012121430843A3EB9F
:102C00000C01CB1D4FEA00614FEA102042BF0020AB
:102C100010BC704700EBC35010440029A4BF10BC87
:102C20007047401C490008BF20F0010010BC7047ED
:102C300010B5141E73F1000408DA401C41F10001C4
:102C400092185B411A4301D120F0010010BD2DE91B
:102C5000F04D92469B4611B1B1FA81F202E0B0FA12
:102C600080F220329046FFF77BFF04460F4640EA91
:102C70000A0041EA0B0153465A46084313D0114655
:102C800053EA010019D0C8F140025046FFF777FF20
:102C900005460E46504659464246FFF761FF084337
:102CA00005D0012004E020463946BDE8F08D002023
:102CB000054346EAE0762C4337430A986305E40A65
:102CC000A0EB08000022FD0A44EA47540A3002D56E
:102CD00000200146E9E7010510196941DDE90845D1
:102CE00000196941BDE8F04DA2E770B521F000433D
:102CF00003430CD0C1F30A550024D5EB040564EB63
:102D00000403D617AD1AB34102DB0020014670BDA3
:102D1000201841EB025170BD30B5041E71F1000462
:102D200004DB4FF00044404264EB0101141E73F1D8
:102D3000000405DB1C464FF00043524263EB0403E2
:102D4000994208BF904230BD064C074D06E0E0684E
:102D500040F0010394E8070098471034AC42F6D3E2
:102D6000FDF7EAF97C3A00089C3A00082DE9F04D9D
:102D700000231A461B1A8A4103DB00200146BDE8E6
:102D8000F08DC1F30A52C1F3130141F480154FF0E5
:102D9000000BD10702D100186D41521E00270446D6
:102DA00040F2FF11384601EB620A3E468046024679
:102DB00000204FF48011FFF7E2FEC2197141BB18E9
:102DC00046EB0100B4EB030C75EB000C04D3E41AE2
:102DD00065EB000517460E46241908F101006D4108
:102DE00080463428E3DDF91946EB0600091BA841AB
:102DF00003D24FF0FF32134601E0002213461BEBD3
:102E0000070046EB0A51BDE8F04DFFF711BF49003E
:102E100050EAC12018BF04204A0D18BF40F001003D
:102E200040F2FF72B2EB515F08BF40F00200012890
:102E300008BF052070472DE9F0414F1E00EBC70188
:102E40000446D1E9000115461E4637F006020DD0B2
:102E50002A463346FFF719FD7F1E04EBC703D3E96B
:102E60000023FFF76BFC37F00602F1D1022F25D0CB
:102E7000042F13D0062F18BFBDE8F0812A46334631
:102E8000FFF703FDD4E90A23FFF758FC2A4633462F
:102E9000FFF7FBFCD4E90823FFF750FC2A46334632
:102EA000FFF7F3FCD4E90623FFF748FC2A46334634
:102EB000FFF7EBFCD4E90423FFF740FC2A46334636
:102EC000FFF7E3FCD4E90223FFF738FC2A46334638
:102ED000FFF7DBFCD4E90023BDE8F041FFF72EBC8F
:102EE0000022134610460149FFF741BD0000F03FA4
:102EF000FFF724BC0022134610461146FFF737BDEA
:102F000040F2013200204FF0E041FFF7EEBE00003A
:102F1000024A00201107FFF7E8BE000001FDFFFF95
:102F200002E008C8121F08C1002AFAD17047704792
:102F3000002001E001C1121F002AFBD170470000F0
:102F400001490860704700002C0000202DE9F04D79
:102F50001D460C4698B0174621F0004123F000436F
:102F6000002814BF4FF0010C4FF0000C0CEB440C88
:102F7000FE4A0CEB02064FEA620C66452BD33E007C
:102F800018BF012606EB45061644F94A964222D39D
:102F9000F84A53EA070C02D0944205D148B918B058
:102FA00000201146BDE8F08D002808BF4FF0000C4E
:102FB00001D04FF0010C0CEB440212F5001F0AD8AF
:102FC000002F14BF4FF0010C4FF0000C0CEB45022A
:102FD00012F5001F07D918B03A462B462146BDE826
:102FE000F04DFFF785BF0022DFF88CA3002CB8BF9F
:102FF000534526DADFF884C36345A8BF022220DAEE
:10300000DFF870C39C451CDCDFF874C30CEB235C59
:10301000BCF1140F08DDCCF1340627FA06FC0CFADB
:1030200006F6BE420DD108E05FB9CCF1140623FAD2
:1030300006FC0CFA06F69E4203D10CF00102C2F126
:10304000020251EA000C19D1002D17DA002C18BF2A
:10305000022A01D0012A07D00220FFF771FF18B021
:10306000BDE8F04DFFF73CBF0220FFF769FFFFF717
:1030700037FF18B081F00041BDE8F08DB7F1000CCA
:103080006CD1534525D104F1804212F5801201BF65
:1030900000280020B74918B008BFBDE8F08DB5483A
:1030A000884207DC002DA1BF6046294618B0BDE864
:1030B000F08D07E0281E05DA80F0004118B0604668
:1030C000BDE8F08DAF497944D1E9000118B0BDE801
:1030D000F08DDFF8A0C2634525D1002D1FDA19B1AC
:1030E000514512D1D8B909E0002840F0EC82A24A3B
:1030F000214618B062F31E01BDE8F08D0020214684
:1031000018B060F31E01BDE8F08D08DA18B0234650
:10311000BDE8F04D024600206146FFF728BC18B01C
:103120002146BDE8F08D514518DAB5F1804F0DD03C
:10313000A5F1005CBCF1FF5C10D1B4F1000C0DDB1B
:1031400018B06146BDE8F04D00F0ECBB234618B066
:103150000246BDE8F04D1946FFF797BB060024F084
:10316000004C3BD1D9B1514533D1002C06DD002DA7
:10317000A1BF0020514618B0BDE8F08D002C01DD44
:10318000002D1BDB002C13DA002D11DB012A4FF080
:10319000000014BF78497C4918B0BDE8F08D022AC0
:1031A00018BF002C0AD0012A08D1002C06DA0AE048
:1031B000002CB8BF002D11DA012A04D0002018B06D
:1031C0000146BDE8F08D18B000204FF00041BDE889
:1031D000F08DA1F14050B0F17F601AD0012000EBDA
:1031E000E47050EA020421D0624C521E4FF0000BF2
:1031F000104304BF4FF0000B644C654883427CDDF4
:10320000644A654893421FDD884217DB002D25DBA9
:1032100037E0002C00DA4AB1022A0CBF01204FF03F
:10322000FF3018B0BDE8F04DFFF715BC0120FFF7E7
:1032300087FE18B0BDE8F04DFFF75CBE4D4A8A42EC
:1032400002DC002D0ADC1CE0814202DA002D18DAD3
:1032500004E0484B994220DD002D12DD0220FFF7EB
:103260006FFEFFF74DFE05460E46002253465846B8
:103270002146FFF70AFB18B066F31E012846BDE899
:10328000F08D0220FFF75CFEFFF742FE0A46214662
:1032900018B062F31E01BDE8F08D00223046614691
:1032A000FFF7EDFA80460E466FF00102FFF71DFDB5
:1032B0004FF05532394BFFF7E5FA42463346FFF7F8
:1032C000E4FA0022364BFFF7DDFA824642463346E7
:1032D000049110461946FFF7D8FA5246049BFFF7AF
:1032E000D4FA8A4600904FF0C0422E4B40463146F9
:1032F000FFF7CBFA2C4A2B4B00E027E0CDE9060183
:1033000051460098FFF7C1FA82460191274A284B9F
:1033100040463146FFF7B9FA5246019BFFF7AFFA34
:1033200082460B4602460591DDE90601FFF706FAE3
:10333000DDE90623002688463046FFF7A0FA52460C
:10334000059BFFF79FFA024600F07EB90020B1F519
:10335000801F07DA352230466146FFF7C6FC064675
:103360006FF0340000EB215024E00000FFFF1F004D
:10337000FFFF0F000000F03F0000F07F000040431F
:1033800001FCFFFF2E0900000000F0FF0000F0BF6D
:103390000000E0410000F043FFFFEF3F5555D53FEF
:1033A0000000E03F4715F73FFE822B6544DF5DF8E4
:1033B0000BAE543EA0F2FF300190C1F3130040F079
:1033C0007F6141F040510291FE498842D8BF002000
:1033D00004DDFD498142C8BF012001DD0D9008E0F8
:1033E00000200D900198401C01900298A0F58010DB
:1033F00002900299F54878440B910D9900EBC100B9
:10340000D0E900230F9330460A920B99FFF737FA61
:10341000CDE90601DDE90A2130460F9BFFF78EF961
:1034200002460B460020EA49FFF7A1FA0591024641
:103430000B460090DDE90601FFF727FA1490E548F6
:103440008A464FF0000878440299006812904FF0C5
:10345000005040EA61010D980F9B01EB804000F5A0
:10346000002109910A9A1298FFF709FA32460B9B3C
:10347000FFF708FA42465346FFF707FA064602915D
:1034800040465146099B129AFFF7FFF9DDE90623F2
:10349000FFF7F8F93246029BFFF7F1F9059B009A16
:1034A000FFF7F3F90091149A049053461046194619
:1034B000FFF7EBF906460246C7480B460291062184
:1034C0007844FFF7B8FCCDE90510029B3246104660
:1034D0001946FFF7DAF9DDE90532FFF7D6F905916C
:1034E0000646534640461946149AFFF727F9009BB3
:1034F000049AFFF7CAF93246059BFFF71FF9CDE999
:1035000005104246534610461946FFF7BEF9002201
:10351000B24B02910A90FFF711F9DDE90532FFF78E
:103520000DF90E464246AD4B4046FFF7A8F9029B07
:103530000A9AFFF7A4F9DDE90532FFF7A3F942463D
:1035400002910A90334610465146FFF79EF9CDE9A5
:1035500006015346149A02990A98FFF796F98A468B
:1035600002903346424600990498FFF78EF953467D
:10357000029AFFF7E3F882460B4602460591DDE921
:103580000601FFF7DBF8DDE9062300208846064642
:10359000FFF775F95246059BFFF774F982460991CA
:1035A0004FF060428E4B30464146FFF76EF9049073
:1035B00006918C4A8A4B50460999FFF766F9824674
:1035C0000291894A894B30464146FFF75EF95246DF
:1035D000029BFFF7B3F8864B7B440D9A03EBC203C3
:1035E000D3E90023FFF7AAF80E9007910198FFF79F
:1035F00032FA0591DDE9061382460E9A0498FFF728
:103600009DF87C4A7A440D9B02EBC303D3E9002367
:1036100000930292FFF792F85246059BFFF78EF84F
:103620000026884652463046059BFFF728F9009B46
:10363000029AFFF724F9069B049AFFF720F9079BEB
:103640000E9AFFF71FF9024600200B4602903846FB
:103650002946FFF71AF9824601912B46384619464A
:10366000029AFFF70CF932464346FFF70EF952462D
:10367000019BFFF763F807468A46324643462946D0
:103680000298FFF702F905460E463A465346FFF701
:1036900055F8594A8846914221DBA8EB020353EAC8
:1036A000000210D12A463346FFF7E9F8CDE90401BC
:1036B000524A534B38465146FFF740F8DDE90423A0
:1036C000FFF72AFB21D20220FFF73AFCFFF718FC94
:1036D0000A46214618B062F31E01BDE8F08D494B41
:1036E00028F000429A4210D3474A08EB020353EAFB
:1036F00000027FF4C6AD2A463346FFF7C0F83A46CB
:103700005346FFF709FB7FF6BCAD0022019228F07B
:1037100000403E493E4A01EB2051824223DA481CD8
:103720004FF4801121FA00F040443A4AC0F30A51A4
:103730007A44394BA1F2FF31CB4020EA0303C0F3B6
:10374000130040F48010C1F11401C84012680190C8
:10375000B8F1000FBCBF4042019028463146FFF748
:103760008EF805460E462A46334638465146FEF741
:10377000E5FF4FF000084246284B40460591FFF711
:1037800084F8CDE90601264A264B40460599FFF705
:103790007CF8009102902A46334640460599FFF78F
:1037A0006EF83A465346FFF76DF81F4A1F4BFFF776
:1037B0006CF8009B029AFEF7C1FF07468846024656
:1037C0000B4635E08E9803007AB60B0076050000B4
:1037D0000000F03FAE050000DC04000000000840DF
:1037E00009C7EE3FFD033ADCF5015B14E02F3EBE56
:1037F000B40300007803000000009040FE822B65B7
:103800004715973C00CC904000346F3F01FCFFFF10
:103810000000E03FC4020000FFFF0F00432EE63F20
:10382000396CA80C615C20BEEF39FAFE422EE63FEF
:10383000DDE90601FEF782FFDDE9062305460E46B7
:10384000FFF71DF83A464346FFF71CF80F462A4695
:103850003346009010461946FFF717F88246024695
:103860002E4888460B4605217844FFF7E4FA524675
:103870004346FFF70AF82A463346FFF703F8804627
:103880008A463B4628463146009AFEF7FEFF3B46F5
:10389000009AFEF753FF0691009000224FF08043FC
:1038A00040465146FEF7EBFF0F460C90424653460A
:1038B00028463146FEF7E9FF3B460C9AFFF757F8DA
:1038C000069B009AFEF7DBFF2A463346FEF7D7FF3A
:1038D0000022134BFEF7D6FF054601980E4601EB7A
:1038E00000510815002810DC28463146019AFFF7E0
:1038F000FCF9FFF78CFA042808BFFFF709FB2846FC
:103900003146019AFFF7F1F905460B4618B02A46F1
:1039100058462146BDE8F04DFEF7B7BF64010000F0
:103920000000F03F2DE9F04106460F46FFF71EFA72
:10393000041E0D4618BF0120284320F00040C0F1AE
:103940007F6000F1E040C00F0ED0301C18BF012096
:10395000384320F00040C0F17F6000F1E040C00F2C
:1039600004BF0120FFF7ECFA20462946BDE8F081AC
:10397000000000000000F03F000000000000F83FE1
:1039800000000000000000000000004003B8E23F1B
:10399000000000000000000006D0CF43EBFD4C3ECD
:1039A000033333333333E33FFFAB6FDBB66DDB3FC2
:1039B0004D268F515555D53F01411DA96074D13F0A
:1039C00065DBC9934A86CD3FEF4E454A287ECA3F04
:1039D0003E5555555555C53F93BDBE166CC166BF86
:1039E0002CDE25AF6A56113FF16BD2C541BDBBBE7F
:1039F000D0A4BE726937663E0000000000000000DF
:103A00002F2A2A2A2A2A2A2A2A2A2A2A2A2A2A2A11
:103A10002A2A2A2A2A2A2A2A2A2A2A2A2A2A2A2A06
:103A20002A2A2A2A2A2A2A2A2F0A2F0909BBB6D388
:103A3000ADCAB9D3C32121212109092F0A2F0909B0
:103A4000C7EBCAE4C8EBC3DCC2EB212109092F0A8A
:103A50002F2A2A2A2A2A2A2A2A2A2A2A2A2A2A2AC1
:103A60002A2A2A2A2A2A2A2A2A2A2A2A2A2A2A2AB6
:103A70002A2A2A2A2A2A2A2A2F0A00009C3A0008DF
:103A80000000002030000000202F0008CC3A000881
:103A90003000002000040000302F000800A24A047B
:103AA00000000000000000000102030406070809EE
:103AB00000000000010203040102030406070809D4
:0C3AC000020406080000000000000000E6
:0400000508000131BD
:00000001FF
