:020000040800F2
:100000003004002045010008810A0008830A000826
:10001000870A00088B0A00088F0A00080000000009
:10002000000000000000000000000000930A00082B
:10003000950A000800000000970A0008990A0008C5
:100040005F0100085F0100085F0100085F01000810
:100050005F0100085F0100085F0100085F01000800
:100060005F0100085F0100085F0100085F010008F0
:100070005F0100085F0100085F0100085F010008E0
:100080005F0100085F0100085F0100085F010008D0
:100090005F0100085F0100085F0100085F010008C0
:1000A0005F0100085F0100085F0100085F010008B0
:1000B0005F0100085F0100085F0100085F010008A0
:1000C0005F0100085F0100085F0100085F01000890
:1000D0005F0100085F0100085F0100085F01000880
:1000E0005F0100085F0100085F0100085F01000870
:1000F0005F0100085F0100085F0100085F01000860
:100100005F0100085F0100085F0100085F0100084F
:100110005F0100085F0100085F0100085F0100083F
:100120005F0100085F0100085F0100085F0100082F
:10013000DFF80CD001F094FE00480047490A00089F
:10014000300400200648804706480047FEE7FEE7E7
:10015000FEE7FEE7FEE7FEE7FEE7FEE7FEE7FEE777
:1001600047020008310100080CB500200190009002
:100170006C48006840F480306A49086000BF6948F4
:10018000006800F4003000900198401C0190009835
:1001900018B90198B0F5A06FF1D16248006800F479
:1001A000003010B10120009001E000200090009884
:1001B000012843D15C48006840F010005A490860AB
:1001C0000846006820F0030008600846006840F018
:1001D0000200086053484068524948600846406839
:1001E00048600846406840F48060486008464068BF
:1001F00020F47C1048600846406840F4E8104860ED
:100200000846006840F08070086000BF45480068FC
:1002100000F000700028F9D04248406820F0030048
:10022000404948600846406840F00200486000BF0E
:100230003C48406800F00C000828F9D10CBD10B50E
:10024000FFF792FF10BD10B53648006840F001007E
:1002500034490860084640683449084031494860DC
:1002600008460068324908402E4908600846006880
:1002700020F4802008600846406820F4FE004860B2
:100280004FF41F008860FFF7DAFF4FF00060294944
:10029000086010BD10B5002100200022214B5B68D2
:1002A00003F00C0121B1042906D0082928D107E068
:1002B000214B224C236027E01F4B204C236023E07E
:1002C000184B5B6803F47010164B5B6803F48032C4
:1002D000022303EB904022B9194B4343174C236090
:1002E0000DE0104B5B6803F4003323B1144B434320
:1002F000124C236003E0104B4343104C236003E097
:100300000D4B0E4C236000BF00BF064B5B68C3F370
:1003100003130C4CE15C094B1B68CB40074C23607A
:1003200010BD000000100240002002400000FFF855
:10033000FFFFF6FE08ED00E000127A00000000204A
:1003400000093D000400002010B50446CC4884425A
:1003500008D10121042000F02DFB0021042000F031
:1003600029FB46E0C748844208D10121082000F05B
:1003700021FB0021082000F01DFB3AE0C248844226
:1003800008D10121102000F015FB0021102000F001
:1003900011FB2EE0BD48844208D10121202000F04D
:1003A00009FB0021202000F005FB22E0B848844230
:1003B00008D10121402000F0FDFA0021402000F08A
:1003C000F9FA16E0B348844208D10121802000F0F8
:1003D000F1FA0021802000F0EDFA0AE0AE488442F4
:1003E00007D10121801500F0E5FA0021A01500F0E9
:1003F000E1FA10BD10B50121084600F0DBFA00213A
:10040000012000F0D7FA10BD2DE9F0410246002589
:100410000026002000230024002791F803C00CF0E0
:100420000F0591F803C00CF0100CBCF1000F03D0C5
:1004300091F802C04CEA050591F800C0BCF1000F2C
:1004400031D0146800202BE04FF0010C0CFA00F3BF
:10045000B1F800C00CEA03069E4220D183004FF0A1
:100460000F0C0CFA03F7BC4305FA03FC4CEA040436
:1004700091F803C0BCF1280F06D14FF0010C0CFA23
:1004800000FCC2F814C00AE091F803C0BCF1480FA8
:1004900005D14FF0010C0CFA00FCC2F810C0401C52
:1004A0000828D1D31460B1F800C0BCF1FF0F34DDCF
:1004B000546800202EE000F1080C4FF0010808FA03
:1004C0000CF3B1F800C00CEA03069E4221D1830070
:1004D0004FF00F0C0CFA03F7BC4305FA03FC4CEA8F
:1004E000040491F803C0BCF1280F05D100F1080CF9
:1004F00008FA0CF8C2F8148091F803C0BCF1480F58
:1005000007D100F1080C4FF0010808FA0CF8C2F806
:100510001080401C0828CED35460BDE8F0814FF60F
:10052000FF710180022181700421C1707047024671
:10053000002093680B400BB1012000E000207047C1
:100540000146886880B2704702460020D3680B409D
:100550000BB1012000E0002070470146C86880B25E
:10056000704701617047416170470AB1016100E065
:1005700041617047C16070474FF480320A43826125
:100580008161826182698269704702460020434B23
:1005900018684FF68073184040EA021008433F4B3A
:1005A000186070473E49C8617047F0B50A4600239D
:1005B00000240021002500F00046B6F1004F02D1D2
:1005C000364EF16901E0354E7168C0F3034583B2E0
:1005D00000F44016B6F5401F08D121F070612F4E8F
:1005E000766826F070662D4F7E6012E000F480166B
:1005F000B6F5801F06D1032606FA05F4A14341F0A3
:10060000706106E0460D360103FA06F6B14341F08B
:10061000706122B1460D360103FA06F6314300F04F
:100620000046B6F1004F02D11C4EF16101E01B4EB5
:100630007160F0BD30B500228B071C0F0F2303FA49
:1006400004F2164B08338C1053F824309343134CA8
:1006500008348D1044F8253023468C1053F824308C
:100660008C07240F00FA04F423430C4C08348D103B
:1006700044F8253030BD0A49DC310860704700007D
:1006800000080140000C014000100140001401402E
:1006900000180140001C0140002001400000014002
:1006A00000002042DF48006840F00100DD4908609A
:1006B00008464068DC490840DA4948600846006856
:1006C000DA490840D74908600846006820F48020CD
:1006D00008600846406820F4FE0048604FF41F00A0
:1006E00088607047CF49096821F48031CD4A116094
:1006F0001146096821F480211160B0F5803F03D0D4
:10070000B0F5802F0ED106E0C649096841F480316A
:10071000C44A116007E0C349096841F4A021C14AF5
:10072000116000E000BF00BF704710B50146002215
:10073000002300204A11012A02D1BA4C236806E0A6
:10074000022A02D1B74C236A01E0B64C636A01F079
:100750001F02012494401C400CB1012000E0002045
:1007600010BD38B5002000900024002500BF3120C6
:10077000FFF7DBFF05460098401C00900098B0F59D
:10078000A06F01D0002DF2D03120FFF7CEFF08B1CD
:10079000012400E00024204638BD01460020A14A83
:1007A000106820F0F80040EAC10010607047A049CE
:1007B00008607047024600209A4B586820F47C106D
:1007C00042EA01031843974B5860704798490866FE
:1007D000704701460020934A506820F00300084308
:1007E000506070478F48406800F00C007047014629
:1007F00000208C4A506820F0F00008435060704799
:1008000001460020874A506820F4E06008435060A9
:10081000704701460020834A506820F4605040EA47
:10082000C1005060704729B17E4A527A02437D4B25
:100830005A7204E07B4A527A82437A4B5A7270476A
:100840007B49D8310860704701460020754A5068DE
:1008500020F440400843506070470021714A203224
:100860001170704A82F82010012802D004280AD1A1
:1008700004E001216B4A2032117005E00521694A2C
:100880002032117000E000BF00BF70476949086066
:1008900070476449096A0143624A116270476549B9
:1008A00044390860704730B500210022002400233D
:1008B0005C4D6D6805F00C0121B1042905D00829B3
:1008C00023D105E05C4D056022E05B4D05601FE033
:1008D000544D6D6805F47012524D6D6805F4803406
:1008E000022505EB92421CB9544D554305600BE0BF
:1008F0004C4D6D6805F400351DB1504D55430560F4
:1009000002E04D4D5543056002E04B4D056000BFD0
:1009100000BF444D6D6805F0F0010909484D6B5C5E
:100920000568DD4045603F4D6D6805F4E061090AEA
:10093000434D6B5C4568DD4085603A4D6D6805F45C
:100940006051C90A3E4D6B5C4568DD40C560354D60
:100950006D6805F44041890B3A4D6B5CC568B5FB89
:10096000F3F5056130BD29B12E4A526902432D4B82
:100970005A6104E02B4A526982432A4B5A617047FC
:1009800029B1284A92690243264B9A6104E0254A1C
:1009900092698243234B9A61704729B1214AD269F7
:1009A0000243204BDA6104E01E4AD26982431D4BA8
:1009B000DA61704729B11B4AD2680243194BDA60E9
:1009C00004E0184AD2688243164BDA60704729B1B6
:1009D000144A12690243134B1A6104E0114A126966
:1009E0008243104B1A6170471249403908607047C2
:1009F0000F49C86470470B49C87170470948406A7D
:100A000040F0807007494862704701460020054A5F
:100A100092680A400AB1012000E0002070470149B5
:100A200088727047001002400000FFF8FFFFF6FEDA
:100A3000000042428004424200127A0000093D0058
:100A4000140000202400002000F090F800F0BBFE0D
:100A500009E0002304A21946184600F03FFC4FF4B9
:100A60007A7000F096F8F4E757656C636F6D652057
:100A7000546F204D435520576F726C640000000086
:100A8000704700BFFEE700BFFEE700BFFEE700BF04
:100A9000FEE77047704770477047000030B5014669
:100AA000B1F1807F01D3012030BD21F07F40401E95
:100AB0004FF0E022506150170F22002807DA130789
:100AC0001D0E264B00F00F04241F1D5503E01307D5
:100AD0001C0E234B1C5400BF00204FF0E0229061FD
:100AE000072010610020DFE770B5044600251D488F
:100AF00000681D49B0FBF1F63046FFF7CFFF08B1A3
:100B000000BFFEE7002508E000BF4FF0E0200069CD
:100B100000F480300028F8D06D1CA542F4D370BDDD
:100B200070B5044600250F4800684FF47A71B0FB99
:100B3000F1F63046FFF7B2FF08B100BFFEE700252F
:100B400008E000BF4FF0E020006900F4803000288A
:100B5000F8D06D1CA542F4D370BD000018ED00E084
:100B600000E400E00000002040420F0008B5012131
:100B70000420FFF705FF10208DF803000220ADF8D8
:100B8000000003208DF8020069460A48FFF73CFC8C
:100B900008BD10B5044602210648FFF7E4FC2046D4
:100BA000FFF7BEFF02210348FFF7DBFC2046FFF7FB
:100BB000B7FF10BD0008014030B50146B1F1807F9C
:100BC00001D3012030BD21F07F40401E4FF0E022D4
:100BD000506150170F22002807DA13071D0EFE4B35
:100BE00000F00F04241F1D5503E013071C0EFB4BE0
:100BF0001C5400BF00204FF0E022906107201061DC
:100C00000020DFE770B504460025F5480068F54987
:100C1000B0FBF1F63046FFF7CFFF08B100BFFEE7AB
:100C2000002508E000BF4FF0E020006900F48030AC
:100C30000028F8D06D1CA542F4D370BD70B50446F1
:100C40000025E74800684FF47A71B0FBF1F63046B2
:100C5000FFF7B2FF08B100BFFEE7002508E000BFC4
:100C60004FF0E020006900F480300028F8D06D1CBF
:100C7000A542F4D370BD08B501211020FFF780FE16
:100C800003208DF8020010208DF803000120ADF83C
:100C900000006946D448FFF7B7FB01211020FFF799
:100CA0006FFE1020ADF800006946CF48FFF7ACFB9F
:100CB00001211020FFF764FE0420ADF80000694612
:100CC000C948FFF7A1FB01214020FFF759FE04208E
:100CD000ADF800006946C548FFF796FBC3481030E1
:100CE000006840F00400C149103108600121402033
:100CF000FFF746FE0120ADF800006946BB48FFF74C
:100D000083FBBA481030006840F00100B749103149
:100D1000086001214020FFF733FE1020ADF80000ED
:100D20006946B248FFF770FBB0481030006840F0E9
:100D30001000AE491031086001210846FFF720FE7F
:100D40000121AB48FFF731FC01210820FFF718FE15
:100D50004FF6FF70ADF800006946A648FFF754FB58
:100D600008BD10B5A1481030006840F010009F4940
:100D7000103108600520FFF761FF9C4814300068BF
:100D800040F010009949143108600520FFF756FF24
:100D900096481030006840F0100094491031086007
:100DA00010BD38B5044601210820FFF7E9FD4FF6D4
:100DB000FF70ADF80000102C03D110208DF8030057
:100DC00002E048208DF8030003208DF802006946F8
:100DD0008848FFF719FB38BD10B5044682484069C2
:100DE00040F010008049486121468248FFF7C2FB6D
:100DF0007D48406940F004007B494861084600692D
:100E000040F00400086110BD10B504467648006942
:100E100040F010007449086121467648FFF7AAFBAC
:100E20007148406940F004006F4948610846006914
:100E300040F00400086110BD70B505460C46284618
:100E4000FFF7CAFF2046FFF7DFFF70BD70B504460D
:100E5000002566481430006840F0010063491431F1
:100E600008606148006940F001005F490861084678
:100E7000006940F0100008610846006940F0040075
:100E800008611020FFF78DFF21465A48FFF772FBDB
:100E90005548406940F01000534948610846406990
:100EA00040F0040048610846006940F01000086105
:100EB0000846006940F0040008614820FFF771FF10
:100EC0004948406940F00100474948614948FFF7F7
:100ED00037FB05464448006940F00100424908617B
:100EE00042481030006840F001004049103108606D
:100EF000284670BD10B5FFF7BEFEFFF732FF3B4836
:100F00001030006840F00100384910310860364860
:100F1000006940F00100344908610846006940F06A
:100F2000040008610520FFF789FE3048143000688E
:100F300040F001002D491431086089150120FFF7A8
:100F40007BFF4FF4E0610220FFF776FF41F23001B2
:100F50000320FFF771FF00210420FFF76DFF40F22F
:100F600002210820FFF768FF00210920FFF764FF36
:100F700000210A20FFF760FF00210C20FFF75CFF33
:100F800000210D20FFF758FF00210F20FFF754FF2D
:100F900000211020FFF750FF07211120FFF74CFF21
:100FA00000211220FFF748FF00211320FFF744FF24
:100FB00001210720FFF740FF3220FFF73FFE41F2FB
:100FC00090611020FFF738FF40F227211120FFF732
:100FD00033FF322010E0000018ED00E000E400E0F4
:100FE0000000002040420F000010014000180140A6
:100FF00000023000000C0140FFF720FE9D2112206E
:10100000FFF71AFF3220FFF719FE4FF4C8511320E3
:10101000FFF712FF3220FFF711FE25212920FFF7ED
:101020000BFF0D212B20FFF707FF3220FFF706FEF5
:1010300000212020FFF700FF00212120FFF7FCFE08
:101040003220FFF7FBFD07213020FFF7F5FE40F2CD
:1010500003313120FFF7F0FE03213220FFF7ECFED1
:1010600040F206213520FFF7E7FE08213620FFF782
:10107000E3FE40F206413720FFF7DEFE4FF44171F8
:101080003820FFF7D9FE07213920FFF7D5FE40F2BF
:1010900001613C20FFF7D0FE08213D20FFF7CCFE88
:1010A00000215020FFF7C8FEEF215120FFF7C4FEBA
:1010B00000215220FFF7C0FE40F23F115320FFF7FE
:1010C000BBFE4FF427416020FFF7B6FE01216120EF
:1010D000FFF7B2FE00216A20FFF7AEFE002180205C
:1010E000FFF7AAFE00218120FFF7A6FE0021822043
:1010F000FFF7A2FE00218320FFF79EFE002184203F
:10110000FFF79AFE00218520FFF796FE1021902020
:10111000FFF792FE4FF4C0619220FFF78DFE40F280
:1011200033110720FFF788FE2220FFF755FE10BD80
:101130002DE9F04104460F4615461E462146502033
:10114000FFF77AFE29465120FFF776FE39465220F6
:10115000FFF772FE31465320FFF76EFEBDE8F081C7
:1011600070B504460D4621462020FFF765FE29464E
:101170002120FFF761FE70BD2DE9F04104460D46C8
:1011800016461F463B46324629462046FFF7D0FF0B
:1011900029462046FFF7E4FF2220FFF71DFEBDE8A9
:1011A000F0812DE9F04704460D4616461F46DDF84E
:1011B00020A03B46324629462046FFF7DDFFA846E1
:1011C0000EE0A14606E05046FFF71EFE09F10100C1
:1011D0001FFA80F9B145F6DD08F101001FFA80F829
:1011E000B845EEDDBDE8F08770B505460E461446FD
:1011F00031462846FFF7B4FF2220FFF7EDFD2046D9
:10120000FFF702FE70BD2DE9FC5F804689469246DD
:101210009B4610240C20019018200090002758E0D5
:1012200000254EE0002648E007FB04F0C11700EB64
:10123000517105EBE102AAF1200101EB4101F74BED
:1012400003EB0111895CC6F10702114101F00101B4
:10125000C1B1E11704EB5171C910491EA94205D172
:101260000199611AC1F10901B14224DD09EB0702BC
:1012700091B2C5EBC5024244324490B25A46FFF7E0
:10128000B3FF18E0E11704EB5171C910491EA942E0
:1012900005D10199611AC1F10901B1420BDD09EBD8
:1012A000070291B2C5EBC5024244324490B24FF6F8
:1012B000FF72FFF799FF701CC6B2082EB4DB681CE2
:1012C000C5B2E11704EB5171B5EBE10FAADB781C55
:1012D00087B200988742A3DBBDE8FC9F2DE9F04769
:1012E00005460C46164699464FF00C081827142D53
:1012F00005DB0D2C03DBCAA60025002409E0142D14
:1013000002DBCAA6002500240D2C02DBC9A600259D
:10131000002405FB08F085B204FB07F084B219E055
:1013200030780A2803D1E01984B20025761CF02D0C
:1013300006DB0025E01984B2B4F59C7F00DB0024B5
:1013400032784B4621462846FFF75DFF05EB080043
:1013500085B2761C30780028E2D1BDE8F0872DE90F
:10136000FC5F8046894692469B463024302001909F
:101370000090002756E000254CE0002646E007FBE1
:1013800004F0C11700EB517105EBE1010AEBCA0251
:10139000AA4B03EB4212515CC6F10702114101F066
:1013A0000101C1B1E11704EB5171C910491EA942F5
:1013B00005D10199611AC1F10901B14224DD09EB9E
:1013C000070291B2C5EBC5024244324490B25A467C
:1013D000FFF70AFF18E0E11704EB5171C910491E2D
:1013E000A94205D10199611AC1F10901B1420BDD90
:1013F00009EB070291B2C5EBC5024244324490B2F8
:101400004FF6FF72FFF7F0FE701CC6B2082EB6DB77
:10141000681CC5B2E11704EB5171B5EBE10FACDB11
:10142000781C87B200988742A5DBBDE8FC9F2DE9B8
:10143000F74F82B0804689463024A3463020019081
:101440004FF0000A6FE0002756E000254CE0002630
:1014500046E007FB04F0C11700EB517105EBE10119
:101460000AEBCA02754B03EB4212515CC6F107024C
:10147000114101F00101C1B1E11704EB5171C91033
:10148000491EA94205D1A4EB0B01C1F10801B142EB
:1014900024DD09EB070291B2C5EBC5024244324498
:1014A00090B2049AFFF7A0FE18E0E11704EB517127
:1014B000C910491EA94205D1A4EB0B01C1F10801D5
:1014C000B1420BDD09EB070291B2C5EBC502424404
:1014D000324490B24FF6FF72FFF786FE701CC6B220
:1014E000082EB6DB681CC5B2E11704EB5171B5EBF1
:1014F000E10FACDB781C87B201988742A5DB08EBD3
:101500000B001FFA80F80AF1010000F0FF0A092021
:101510009AFBF0F100FB11A028B909F11B001FFA9A
:1015200080F94FF00008BAF1050F8CD105B0BDE885
:10153000F08F2DE9FF4F8DB004460D4693464FF0D6
:101540000C084FF0180A142C06DB0D2D04DBDFF815
:10155000F0B0002400250BE0142C03DBDFF8E0B032
:10156000002400250D2D03DBDFF8D4B00024002576
:1015700004FB08F084B205FB0AF085B231480B90F9
:10158000584600F08DFA07460021584600F0E4FA6C
:1015900008D22D2229462046109BFFF734FE04EB8B
:1015A000080084B20026B146B7B304E00A20B7FBB6
:1015B000F0F7701CC6B2002FF8D1584600F070FA50
:1015C000074626E0A6EB0901481E00F04BFA02464A
:1015D0000B46CDE9020100201B4900F065FDCDE975
:1015E000040100F071FAB7FBF0F00A21B0FBF1F250
:1015F00001FB120030300790024629462046109B1E
:10160000FFF701FE04EB080084B209F1010000F0CD
:10161000FF09B145D6DB22E018E00000CC2A000823
:101620007826795F6572726F72000000785F65726C
:10163000726F7200795F6572726F72009C3C000875
:1016400064099F4ACDCCCC3D00002440302229467D
:101650002046109BFFF7D7FD04EB080084B22E2232
:1016600029462046109BFFF7CEFD04EB080084B20C
:10167000F02C07DB002405EB0A0085B2B5F59C7F52
:1016800000DB0025584600F00BFA069000F0E5F963
:101690005946079000F0FDF80A900A980990062034
:1016A00008900026089800F0EEF902460B46CDE9B6
:1016B000000100204B4900F0F7FCCDE904010A9835
:1016C00000F01BFACDE90201DDE9042300F0E4F8A3
:1016D000CDE9060100F024FA0A9022E030222946E2
:1016E0002046109BFFF78FFD04EB080084B2F02C1E
:1016F00007DB002405EB0A0085B2B5F59C7F00DB13
:1017000000250B9800F0F9F90022364BCDE90401D1
:1017100000F034F9CDE9060100F002FA0B90701CDC
:10172000C6B20B99099800F017FA02D208988642BF
:10173000D4DB0A9800F0B4F907460026B14604E06D
:101740000A20B7FBF0F7701CC6B2002FF8D10A9838
:1017500000F0A6F9074630E0A6EB0901481E00F0AC
:1017600081F902460B46CDE9020100201D4900F037
:101770009BFCCDE9040100F0A7F9B7FBF0F00A21CA
:10178000B0FBF1F201FB120030300790024629460F
:101790002046109BFFF737FD04EB080084B2F02CC5
:1017A00007DB002405EB0A0085B2B5F59C7F00DB62
:1017B000002509F1010000F0FF09B145CCDB11B0B3
:1017C000BDE8F08F704708B5FFF794FB4FF6FF7048
:1017D00040F23F13EF22002100900846FFF7E1FCA2
:1017E00008BD000000002440F0B480EA0102D40FDC
:1017F0004200B2EB410F02D20246084611464A00AF
:1018000042D0C30DDDB2C1F3C752AD1A202D35DA77
:10181000C1F3160141F4000204B15242C5F12006A1
:1018200002FA06F12A411044B3EBD05F23D0C4B1D1
:10183000012DA0EBC35009DCF0BC4FF0004202EADE
:10184000C352DBB200F5000000F0A9B9400000F17E
:10185000807000EBC350A0F1807040EAD170490065
:1018600009E0490841EAC071A0EBC35000F500004F
:10187000400800EBC350F0BC00F088B9614201227F
:1018800002EB4101001BF6E7F0BC704781F000411C
:10189000AAE780F00040A7E72DE9FE4F81EA0304A4
:1018A00004F0004421F0004100944FF0000B23F0BD
:1018B000004350EA01045ED052EA03045BD0C3F354
:1018C0000A54C1F30A552C44A4F2F3340194A0FB4A
:1018D0000254C1F3130141F48011C3F3130343F421
:1018E000801301FB024400FB034E840A970A44EA7A
:1018F000815447EA8357A4FB076802958D0A05FBCC
:1019000007854FEA932C04FB0C542705029D4FEAF0
:10191000065847EA1637B5EB08056EEB070C870E3D
:10192000920E47EA811742EA8312A7FB0201B6EB47
:101930000B0164EB00042B0D43EA0C335E1844EBFF
:101940001C50DA465146E7FB0201C5F313044FEA87
:101950000B3343EA14534FEA0432019C43EA060373
:10196000A4F10C040294009CCDE900B400F054F9F9
:1019700003B0BDE8F08F00200146F9E72DE9F04DF6
:1019800081EA030404F0004B21F0004514464FF0B7
:10199000000A23F0004150EA050220D054EA010277
:1019A0001DD0C5F30A570246C5F31303C1F3130054
:1019B000C1F30A5640F4801543F48013A7EB0608E0
:1019C000101BD64608F2FD3873EB050002D308F170
:1019D000010801E092185B41B8F1000F03DA002022
:1019E0000146BDE8F08D00204FF480110646844684
:1019F0000EE0171B73EB050705D3121B63EB050302
:101A000006434CEA010C49084FEA300092185B414A
:101A100050EA0107EDD152EA030012D082EA040035
:101A200083EA0501084305D0101BAB4106D2012211
:101A3000002306E000224FF0004302E06FF00102B5
:101A400053101AEB06004CEB085110EB0A0041EB67
:101A50000B01BDE8F04D00F0D0B8962300221146EE
:101A600000F09DB80EB5C10F80EAE0700844CA07C7
:101A7000002140F233438DE80E000A460B4600F089
:101A8000CBF803B000BD0EB540F233410291002106
:101A9000CDE900110A460B4600F0BEF803B000BDC8
:101AA00020F00040C10DC0F3160040F400007F2973
:101AB00001DA00207047962903DCC1F19601C84085
:101AC0007047963988407047C1F30A5210B5C1F388
:101AD000130140F2FF3341F480119A4201DA0020F1
:101AE00010BD40F233439A42A2F2334203DC524229
:101AF00000F03CF810BD904010BD00F0004230F006
:101B000000400AD0C10D01F56071C0F3160042EA31
:101B10000151C20840071143704700200146704739
:101B200001F0004330B421F0004150EA010206D038
:101B30000A0DA2F56072C1F31301002A02DC30BC69
:101B400000207047440F44EAC104C100E01830BCD3
:101B500000EBC25000F01AB8002801DBC0F10040D1
:101B6000002901DBC1F1004181427047202A04DBDA
:101B7000203A21FA02F00021704721FA02F3D04006
:101B8000C2F1200291400843194670470029A8BFBE
:101B90007047401C490008BF20F00100704710B496
:101BA000B0FA80FC00FA0CF050EA010404BF10BC4B
:101BB000704749B1CCF1200421FA04F411FA0CF178
:101BC00018BF012121430843A3EB0C01CB1D4FEAB1
:101BD00000614FEA102042BF002010BC704700EBAC
:101BE000C35010440029A4BF10BC7047401C4900DA
:101BF00008BF20F0010010BC704710B5141E73F12F
:101C0000000408DA401C41F1000192185B411A43BC
:101C100001D120F0010010BD2DE9F04D92469B4608
:101C200011B1B1FA81F202E0B0FA80F220329046AE
:101C300000F028F904460F4640EA0A0041EA0B0189
:101C400053465A46084313D0114653EA010019D0AF
:101C5000C8F140025046FFF789FF05460E46504640
:101C60005946424600F00EF9084305D0012004E031
:101C700020463946BDE8F08D0020054346EAE0766F
:101C80002C4337430A986305E40AA0EB08000022BE
:101C9000FD0A44EA47540A3002D500200146E9E72C
:101CA000010510196941DDE9084500196941BDE8E0
:101CB000F04DA2E72DE9FE4F804681EA0300C00FF8
:101CC0000C46009021F0004123F00045B8EB0200E3
:101CD000A94105D24046214690461C460B46024685
:101CE00023F00040104347D0270DC7F30A00C3F389
:101CF0000A510290401A019040286BDAC3F3130096
:101D000040F4801B0098924620B10023D2EB030AD6
:101D100063EB0B0B01985946C0F14002504600F0AE
:101D2000B1F806460D4650465946019A00F0B9F8FA
:101D300010EB08006141002487EA115284EAE7733E
:101D40001A4340D0009A62B3019A012A4FEA07521F
:101D500015DC001B61EB02014FF0004202EA075262
:101D6000CDE90042001C41F5801132462B46FFF7B9
:101D700053FF03B0BDE8F08F40462146F9E7001B52
:101D800061EB0201001C41F5801300185B41201833
:101D9000A2F5001747EB030140EAD570B6196D4173
:101DA00011E06D084FEA360645EAC0754FEA075262
:101DB000001B61EB0201001C41F5801149084FEA4C
:101DC00030000019514132462B4603B0BDE8F04FB8
:101DD000FFF713BF0098012240000023D0EB02025E
:101DE00063EBE073009821464FEAE074B8EB000023
:101DF00061EB0401E9E783F000435BE781F0004118
:101E000058E770B521F0004303430CD0C1F30A55E5
:101E10000024D5EB040564EB0403D617AD1AB341D7
:101E200002DB0020014670BD201841EB025170BD5D
:101E300030B5041E71F1000404DB4FF00044404251
:101E400064EB0101141E73F1000405DB1C464FF026
:101E50000043524263EB0403994208BF904230BDF5
:101E6000064C074D06E0E06840F0010394E80700E7
:101E700098471034AC42F6D3FEF75EF9B0AD0008D7
:101E8000D0AD0008202A04DB203A00FA02F100203D
:101E900070479140C2F1200320FA03F319439040A8
:101EA0007047202A06DBCB17203A41FA02F043EABA
:101EB000E07306E041FA02F3D040C2F12002914003
:101EC0000843194670472DE9F04D00231A461B1AA6
:101ED0008A4103DB00200146BDE8F08DC1F30A52C0
:101EE000C1F3130141F480154FF0000BD10702D16B
:101EF00000186D41521E0027044640F2FF1138467B
:101F000001EB620A3E468046024600204FF48011F3
:101F1000FFF72CFEC2197141BB1846EB0100B4EB70
:101F2000030C75EB000C04D3E41A65EB00051746AF
:101F30000E46241908F101006D4180463428E3DD86
:101F4000F91946EB0600091BA84103D24FF0FF32F6
:101F5000134601E0002213461BEB070046EB0A5133
:101F6000BDE8F04DFFF749BE490050EAC12018BF57
:101F700004204A0D18BF40F0010040F2FF72B2EB9E
:101F8000515F08BF40F00200012808BF05207047DC
:101F90002DE9F0414F1E00EBC7010446D1E90001D5
:101FA00015461E4637F006020DD02A463346FFF787
:101FB00073FC7F1E04EBC703D3E90023FFF77AFE0F
:101FC00037F00602F1D1022F25D0042F13D0062FAF
:101FD00018BFBDE8F0812A463346FFF75DFCD4E91F
:101FE0000A23FFF767FE2A463346FFF755FCD4E97C
:101FF0000823FFF75FFE2A463346FFF74DFCD4E97E
:102000000623FFF757FE2A463346FFF745FCD4E97F
:102010000423FFF74FFE2A463346FFF73DFCD4E981
:102020000223FFF747FE2A463346FFF735FCD4E983
:102030000023BDE8F041FFF73DBE0000002213463B
:1020400010460149FFF79ABC0000F03FFFF732BE8F
:102050000022134610461146FFF790BC40F20132B1
:1020600000204FF0E041FFF7CCBE0000024A002004
:102070001107FFF7C6BE000001FDFFFF02E008C820
:10208000121F08C1002AFAD170477047002001E0F2
:1020900001C1121F002AFBD17047000001490860EE
:1020A00070470000280000202DE9F04D1D460C4629
:1020B00098B0174621F0004123F00043002814BFD8
:1020C0004FF0010C4FF0000C0CEB440CFE4A0CEBF3
:1020D00002064FEA620C66452BD33E0018BF01266C
:1020E00006EB45061644F94A964222D3F84A53EACB
:1020F000070C02D0944205D148B918B0002011460F
:10210000BDE8F08D002808BF4FF0000C01D04FF063
:10211000010C0CEB440212F5001F0AD8002F14BF6B
:102120004FF0010C4FF0000C0CEB450212F5001FB4
:1021300007D918B03A462B462146BDE8F04DFFF7C7
:1021400085BF0022DFF88CA3002CB8BF534526DAE8
:10215000DFF884C36345A8BF022220DADFF870C32A
:102160009C451CDCDFF874C30CEB235CBCF1140F42
:1021700008DDCCF1340627FA06FC0CFA06F6BE425E
:102180000DD108E05FB9CCF1140623FA06FC0CFA75
:1021900006F69E4203D10CF00102C2F1020251EA9E
:1021A000000C19D1002D17DA002C18BF022A01D01B
:1021B000012A07D00220FFF771FF18B0BDE8F04DEB
:1021C000FFF73CBF0220FFF769FFFFF737FF18B0AA
:1021D00081F00041BDE8F08DB7F1000C6CD15345A2
:1021E00025D104F1804212F5801201BF00280020A1
:1021F000B74918B008BFBDE8F08DB548884207DC84
:10220000002DA1BF6046294618B0BDE8F08D07E05B
:10221000281E05DA80F0004118B06046BDE8F08D58
:10222000AF497944D1E9000118B0BDE8F08DDFF87D
:10223000A0C2634525D1002D1FDA19B1514512D135
:10224000D8B909E0002840F0EC82A24A214618B033
:1022500062F31E01BDE8F08D0020214618B060F346
:102260001E01BDE8F08D08DA18B02346BDE8F04D38
:10227000024600206146FFF781BB18B02146BDE849
:10228000F08D514518DAB5F1804F0DD0A5F1005C05
:10229000BCF1FF5C10D1B4F1000C0DDB18B061464D
:1022A000BDE8F04D00F0ECBB234618B00246BDE897
:1022B000F04D1946FFF7F0BA060024F0004C3BD170
:1022C000D9B1514533D1002C06DD002DA1BF00202E
:1022D000514618B0BDE8F08D002C01DD002D1BDB50
:1022E000002C13DA002D11DB012A4FF0000014BF7F
:1022F00078497C4918B0BDE8F08D022A18BF002C3F
:102300000AD0012A08D1002C06DA0AE0002CB8BF56
:10231000002D11DA012A04D0002018B00146BDE8D2
:10232000F08D18B000204FF00041BDE8F08DA1F114
:102330004050B0F17F601AD0012000EBE47050EA09
:10234000020421D0624C521E4FF0000B104304BF18
:102350004FF0000B644C654883427CDD644A65485D
:1023600093421FDD884217DB002D25DB37E0002C70
:1023700000DA4AB1022A0CBF01204FF0FF3018B03A
:10238000BDE8F04DFFF76EBB0120FFF787FE18B0E8
:10239000BDE8F04DFFF75CBE4D4A8A4202DC002DDD
:1023A0000ADC1CE0814202DA002D18DA04E0484B16
:1023B000994220DD002D12DD0220FFF76FFEFFF7AE
:1023C0004DFE05460E460022534658462146FFF76D
:1023D00063FA18B066F31E012846BDE8F08D0220AE
:1023E000FFF75CFEFFF742FE0A46214618B062F393
:1023F0001E01BDE8F08D002230466146FFF7FBFC70
:1024000080460E466FF00102FFF7FBFC4FF055329D
:10241000394BFFF7F3FC42463346FFF73DFA002203
:10242000364BFFF7EBFC824642463346049110469A
:102430001946FFF731FA5246049BFFF72DFA8A46F8
:1024400000904FF0C0422E4B40463146FFF724FA31
:102450002C4A2B4B00E027E0CDE9060151460098BD
:10246000FFF71AFA82460191274A284B4046314627
:10247000FFF712FA5246019BFFF7BDFC82460B465E
:1024800002460591DDE90601FFF714FCDDE90623AC
:10249000002688463046FFF7AEFC5246059BFFF704
:1024A000ADFC024600F07EB90020B1F5801F07DACE
:1024B000352230466146FFF7A4FC06466FF0340033
:1024C00000EB215024E00000FFFF1F00FFFF0F0082
:1024D0000000F03F0000F07F0000404301FCFFFFE0
:1024E000828B00000000F0FF0000F0BF0000E04120
:1024F0000000F043FFFFEF3F5555D53F0000E03FA0
:102500004715F73FFE822B6544DF5DF80BAE543E66
:10251000A0F2FF300190C1F3130040F07F6141F061
:1025200040510291FE498842D8BF002004DDFD4998
:102530008142C8BF012001DD0D9008E000200D9010
:102540000198401C01900298A0F580100290029919
:10255000F54878440B910D9900EBC100D0E90023B8
:102560000F9330460A920B99FFF745FCCDE906011F
:10257000DDE90A2130460F9BFFF79CFB02460B4624
:102580000020EA49FFF7FAF9059102460B46009050
:10259000DDE90601FFF780F91490E5488A464FF01F
:1025A000000878440299006812904FF0005040EA09
:1025B00061010D980F9B01EB804000F5002109910E
:1025C0000A9A1298FFF717FC32460B9BFFF716FC8E
:1025D00042465346FFF760F906460291404651468F
:1025E000099B129AFFF758F9DDE90623FFF706FC6D
:1025F0003246029BFFF7FFFB059B009AFFF74CF961
:102600000091149A0490534610461946FFF744F976
:1026100006460246C7480B46029106217844FFF75A
:10262000B7FCCDE90510029B324610461946FFF76C
:1026300033F9DDE90532FFF72FF9059106465346D8
:1026400040461946149AFFF735FB009B049AFFF7A2
:1026500023F93246059BFFF72DFBCDE905104246D5
:10266000534610461946FFF717F90022B24B029164
:102670000A90FFF71FFBDDE90532FFF71BFB0E4653
:102680004246AD4B4046FFF7B6FB029B0A9AFFF766
:10269000B2FBDDE90532FFF7B1FB424602910A9039
:1026A000334610465146FFF7F7F8CDE90601534689
:1026B000149A02990A98FFF7EFF88A460290334677
:1026C000424600990498FFF7E7F85346029AFFF74D
:1026D000F1FA82460B4602460591DDE90601FFF755
:1026E000E9FADDE90623002088460646FFF783FB6A
:1026F0005246059BFFF782FB824609914FF06042EC
:102700008E4B30464146FFF7C7F8049006918C4A3D
:102710008A4B50460999FFF7BFF882460291894AD1
:10272000894B30464146FFF7B7F85246029BFFF708
:10273000C1FA864B7B440D9A03EBC203D3E9002315
:10274000FFF7B8FA0E9007910198FFF78BF9059102
:10275000DDE9061382460E9A0498FFF7ABFA7C4A2D
:102760007A440D9B02EBC303D3E90023009302924A
:10277000FFF7A0FA5246059BFFF79CFA0026884611
:1027800052463046059BFFF736FB009B029AFFF747
:1027900032FB069B049AFFF72EFB079B0E9AFFF76E
:1027A0002DFB024600200B46029038462946FFF7D3
:1027B00073F8824601912B4638461946029AFFF774
:1027C0001AFB32464346FFF767F85246019BFFF774
:1027D00071FA07468A463246434629460298FFF771
:1027E0005BF805460E463A465346FFF763FA594AE8
:1027F0008846914221DBA8EB020353EA000210D184
:102800002A463346FFF7F7FACDE90401524A534B03
:1028100038465146FFF74EFADDE90423FFF708FB7F
:1028200021D20220FFF73AFCFFF718FC0A462146A6
:1028300018B062F31E01BDE8F08D494B28F000424C
:102840009A4210D3474A08EB020353EA00027FF48E
:10285000C6AD2A463346FFF7CEFA3A465346FFF74F
:10286000E7FA7FF6BCAD0022019228F000403E4915
:102870003E4A01EB2051824223DA481C4FF480117A
:1028800021FA00F040443A4AC0F30A517A44394BE5
:10289000A1F2FF31CB4020EA0303C0F3130040F460
:1028A0008010C1F11401C84012680190B8F1000F06
:1028B000BCBF4042019028463146FFF79CFA0546CE
:1028C0000E462A46334638465146FFF7F3F94FF095
:1028D00000084246284B40460591FEF7DDFFCDE952
:1028E0000601264A264B40460599FEF7D5FF009182
:1028F00002902A46334640460599FFF77CFA3A464D
:102900005346FFF77BFA1F4A1F4BFEF7C5FF009B9C
:10291000029AFFF7CFF90746884602460B4635E094
:102920008E9803007AB60B00CA8700000000F03FC3
:1029300002880000308700000000084009C7EE3F11
:10294000FD033ADCF5015B14E02F3EBE0886000073
:10295000CC85000000009040FE822B654715973C17
:1029600000CC904000346F3F01FCFFFF0000E03FCF
:1029700018850000FFFF0F00432EE63F396CA80CBE
:10298000615C20BEEF39FAFE422EE63FDDE906012A
:10299000FFF790F9DDE9062305460E46FFF72BFA0F
:1029A0003A464346FFF72AFA0F462A463346009036
:1029B00010461946FEF770FF824602462E488846AA
:1029C0000B4605217844FFF7E3FA52464346FEF7EB
:1029D00063FF2A463346FFF711FA80468A463B4694
:1029E00028463146009AFEF757FF3B46009AFFF70C
:1029F00061F90691009000224FF080434046514615
:102A0000FFF7F9F90F460C904246534628463146E7
:102A1000FEF742FF3B460C9AFEF7B0FF069B009A7A
:102A2000FFF7E9F92A463346FFF7E5F90022134B91
:102A3000FFF7E4F9054601980E4601EB0051081531
:102A4000002810DC28463146019AFFF7DAF9FFF733
:102A50008BFA042808BFFFF709FB28463146019A84
:102A6000FFF7CFF905460B4618B02A4658462146CF
:102A7000BDE8F04DFEF710BFB88300000000F03F46
:102A80002DE9F04106460F46FFF71DFA041E0D46DC
:102A900018BF0120284320F00040C0F17F6000F102
:102AA000E040C00F0ED0301C18BF0120384320F08A
:102AB0000040C0F17F6000F1E040C00F04BF012082
:102AC000FFF7ECFA20462946BDE8F081000000003F
:102AD00000000000000000000000000000000000F6
:102AE00000000000000000000000000000000000E6
:102AF00000000000000000000000000000000000D6
:102B0000000000000F000F000F000F000F00060074
:102B10000600060006000600060006000000000091
:102B20000F000F000F000000000000000000000078
:102B30000FE01FE01FC03B80370066000000000070
:102B40000000000000000000000000000000000085
:102B50000000000000000000000000000000000075
:102B60000000000018C018C018C018C0FFF0FFF027
:102B700038C039C039C031C07FE0FFF0FFF031808C
:102B80003180318031800000000000000000000032
:102B90000000060006001F803FC037E077C07E00BF
:102BA0003E001E000F00078007C007E07EE07EE0C9
:102BB00076C03FC01F80060006000600000000002F
:102BC0000000000078C0FDC0DD80DD80DF80DF0018
:102BD000DF00FE007FE00FF00FF00F701B701B7026
:102BE0003BF033F031E00000000000000000000086
:102BF000000000001E003F007700770077003600DD
:102C00003E003FE079C0FDC0FDC0EF80EF80E7806F
:102C1000E7B0F7F07FE000000000000000000000D7
:102C200078007800380038003000700000000000A4
:102C30000000000000000000000000000000000094
:102C40000000000000000000000000000000000084
:102C5000007000E001C0018003800300070007004E
:102C600007000E000E000E00070007000700070017
:102C70000380018001C000E000700000000000003F
:102C8000E0007000380018001C000C000E000E0060
:102C90000E000600060006000E000E000E000C00DE
:102CA0001C00180038007000E00000000000000068
:102CB000000000000000000007000F000E00F6F00A
:102CC000FFF01F801F80FFF0F6F00E000F000F00D6
:102CD00000000000000000000000000000000000F4
:102CE00000000000000000000000060006000600D2
:102CF00006000600FFF006000600060006000600BB
:102D000000000000000000000000000000000000C3
:102D100000000000000000000000000000000000B3
:102D200000000000000000000000000000000000A3
:102D30007800780038003800300070000000000093
:102D40000000000000000000000000000000000083
:102D500000000000FFF00000000000000000000084
:102D60000000000000000000000000000000000063
:102D70000000000000000000000000000000000053
:102D80000000000000000000000000000000000043
:102D900078007800780000000000000000000000CB
:102DA0000070006000E000C000C00180018003806E
:102DB0000300070006000E000C001C00180038007D
:102DC0003000300060006000E00000000000000003
:102DD0000000000000001F803FC039C070E070E0BC
:102DE00070E0F0E0F0E0F0E0F0E070E070E070E063
:102DF00039C03FC01F80000000000000000000003C
:102E000000000000000007003F003F00070007002F
:102E1000070007000700070007000700070007007A
:102E200007000F003FC0000000000000000000008D
:102E30000000000000001F803BC070E070E070E008
:102E400030E001C001C0038007000E001C003860A4
:102E500070607FE0FFE00000000000000000000064
:102E60000000000000001F803BC071C071E031E035
:102E700001C003800F8003C000E000E030E070E09C
:102E800070E07BC03F8000000000000000000000F8
:102E900000000000000001800380078007800F8091
:102EA0001F801B8033807380E380FFF003800380EA
:102EB000038003C00FF000000000000000000000CD
:102EC0000000000000003FE03FE030003000300034
:102ED00030007F8079C030E000E000E070E070E01A
:102EE00070E07BC03F800000000000000000000098
:102EF0000000000000000FC01DE039E070C070004D
:102F00007000FFC0FDE0F0E0F0E0F0E070E070E0A5
:102F100078E03DC01F8000000000000000000000BD
:102F20000000000000007FE07FE060C061C0018021
:102F300003800300070007000E000E000E000E00C5
:102F40001E001E000E000000000000000000000037
:102F50000000000000003F8039C070E070E070E0C9
:102F600078E03DC01F803FC071E060E0E0E0E0E05D
:102F700070E079C03F800000000000000000000009
:102F80000000000000003F803BC070E070E0E0E027
:102F9000E0E0F0E071E07BE03FE000E000E031C025
:102FA00079C07B803F0000000000000000000000AE
:102FB0000000000000000000000000000000000011
:102FC0000F000F000F0000000000000000000000D4
:102FD0000F000F000F0000000000000000000000C4
:102FE00000000000000000000000000000000000E1
:102FF0000F000F00000000000000000000000000B3
:1030000000000F000F00070006000E000000000087
:1030100000000000006000C00180030006000C00FA
:10302000180030007000300018000C00060003008B
:10303000018000C0006000000000000000000000EF
:103040000000000000000000000000000000000080
:10305000FFF0000000000000FFF000000000000092
:103060000000000000000000000000000000000060
:10307000000000006000300018000C000600030093
:10308000018000C000E000C00180030006000C00C9
:103090001800300060000000000000000000000088
:1030A0000000000000001FC039E060E060F0F0F0B8
:1030B00070E001C007800600060006000000000066
:1030C0000F000F000F0000000000000000000000D3
:1030D000000000000FC01DE0386077F06FF06FF067
:1030E000FDF0FDB0FDB0FDB0FFF0FFE06FC070304F
:1030F00030603DE01FC00000000000000000000044
:103100000000000000000E000F000F001F001B0059
:103110001B801B803B8031803FC031C071C061C0CB
:1031200060E060E0F1F0000000000000000000003E
:10313000000000000000FFC073E070E070E070E08D
:1031400070E073C07F8071E070E070F0707070F0BC
:1031500070F071E0FFC000000000000000000000FF
:103160000000000000001FE03DE0787070707030DB
:10317000F000E000E000E000E000E000F0307070FF
:1031800070603DC01F8000000000000000000000D3
:10319000000000000000FF8073C071E070E070F07C
:1031A00070F0707070707070707070F070E070E03F
:1031B00071E077C0FF800000000000000000000008
:1031C000000000000000FFE070E07060703071806F
:1031D000718071807F80718071807180700070302B
:1031E000707070E0FFE000000000000000000000D0
:1031F000000000000000FFE070F0707070307000A0
:1032000070C071C07FC071C070C070C070007000AD
:1032100070007000FC0000000000000000000000D2
:103220000000000000001FC03DC070E070E0F060D2
:10323000E000E000E000E000E3F0E0E0F0E070E05B
:1032400070E03DE01F800000000000000000000072
:10325000000000000000F9F070E070E070E070E045
:1032600070E070E07FE070E070E070E070E070E0CF
:1032700070E070E0F9F000000000000000000000C5
:103280000000000000007FE00F000F000F000F00A3
:103290000F000F000F000F000F000F000F000F00B6
:1032A0000F000F007FE000000000000000000000A1
:1032B0000000000000001FF00380038003800380F3
:1032C00003800380038003800380038003800380E6
:1032D000038003800380F380F7007E00000000007D
:1032E000000000000000FFF071E0718073007700C3
:1032F0007E007E007E007F0077007380738071C047
:1033000071C070E0FDF0000000000000000000004F
:10331000000000000000FC007800780078007800D1
:1033200078007800780078007800780078007830AD
:10333000787078E0FFE0000000000000000000006E
:10334000000000000000F0F070E071E071E079E052
:1033500079E07BE07BE07FE07FE07FE07FE06EE094
:103360006EE06EE0FFF000000000000000000000D2
:10337000000000000000F1F0786078607C607C6004
:103380006E606E606760676063E063E061E061E00B
:1033900060E060E0F8600000000000000000000055
:1033A0000000000000001F803DC070E070E070F081
:1033B000F070E070E070E070E070F07070F070E05D
:1033C00078E03DC01F800000000000000000000009
:1033D000000000000000FFC071E070E070707070CD
:1033E000707070E071E07FC070007000700070005D
:1033F00070007000FC0000000000000000000000F1
:103400000000000000001F803DC070E070E0F0F0A0
:10341000E070E070E070E070E070E070FFF07FE07E
:103420007BE03BC01FA001F001E0000000000000B5
:10343000000000000000FFC071E070E070E070E08C
:1034400070E071C07F8077007380738073C071C03B
:1034500071C070E0FCF000000000000000000000FF
:103460000000000000003FC07BE070E060E06040D2
:1034700070007C001F8007C001E000E0E0E060E039
:1034800070E079C07F8000000000000000000000B4
:103490000000000000007FE0FE60EE70CE300E0005
:1034A0000E000E000E000E000E000E000E000E00AC
:1034B0000E000E001F800000000000000000000051
:1034C000000000000000F9F07060706070607060D3
:1034D000706070607060706070607060706070606C
:1034E00070E039C01F8000000000000000000000F4
:1034F000000000000000F9F070E070C070C038C03B
:1035000039C0398039801D801F001F001F000F0047
:103510000E000E000E000000000000000000000081
:10352000000000000000FFF0E770E7606760776070
:1035300077607FE07FC07FC03FC03FC03FC03BC0DF
:103540003B8039801980000000000000000000006E
:10355000000000000000FDF078E038C039801D80D8
:103560001F000F000E0007000F000F801B8019C006
:1035700031C070E0F9F00000000000000000000021
:10358000000000000000F9F070E070C038C0398021
:103590001D801F801F000F000E000E000E000E0089
:1035A0000E000E001F800000000000000000000060
:1035B0000000000000003FE078E071C061C00380BF
:1035C0000380070007000E000E001C001800386082
:1035D000706071E0FFE000000000000000000000EB
:1035E0000FE00C000C000C000C000C000C000C0098
:1035F0000C000C000C000C000C000C000C000C006B
:103600000C000C000C000C000FE00000000000009B
:1036100000000000700030003800380018001C0066
:103620000C000E000E00060007000300038003805C
:10363000018001C000C000E000E000600000000068
:103640007F000300030003000300030003000300E6
:103650000300030003000300030003000300030052
:1036600003000300030003007F00000000000F00C0
:103670001F8039C0000000000000000000000000B2
:10368000000000000000000000000000000000003A
:10369000000000000000000000000000000000002A
:1036A000000000000000000000000000000000001A
:1036B000000000000000000000000000000000000A
:1036C00000000000000000000000FFF0000000000B
:1036D0003C000E00000000000000000000000000A0
:1036E00000000000000000000000000000000000DA
:1036F00000000000000000000000000000000000CA
:1037000000000000000000000000000000000000B9
:103710003F8079C071C071C01FC03FC071C0E1C09F
:10372000E1F073F07FF000000000000000000000F6
:1037300000000000F000F0007000700070007000E9
:103740007FC07DE078E070E070E070E070E070E0F5
:1037500070E079C07F8000000000000000000000E1
:103760000000000000000000000000000000000059
:103770001F803DC079E070C0700070007000706004
:1037800070603DC01F8000000000000000000000CD
:103790000000000001E003E000E000E000E000E0E5
:1037A0001FE03BE070E070E070E070E070E070E01F
:1037B00071E03BF01FF0000000000000000000007E
:1037C00000000000000000000000000000000000F9
:1037D0001F803DC070E070E070E07FE0700070001E
:1037E00070603DC01F80000000000000000000006D
:1037F00000000000000007E00E700C700C001C00C0
:103800007FC01C001C001C001C001C001C001C00B5
:103810001C001C007F800000000000000000000071
:103820000000000000000000000000000000000098
:103830001FF03BF071C071C071C03BC03F80700091
:103840003F803FE06060606079E03FC000000000C2
:10385000000000007000F000700070007000700048
:103860007FC07DC078E070E070E070E070E070E0F4
:1038700070E070E0F9F000000000000000000000BF
:103880000000000000000F000F0000000000060014
:103890003E000600060006000600060006000600C0
:1038A000060006003FC0000000000000000000000D
:1038B00000000000000001C001C00000000001C0C5
:1038C0000FC001C001C001C001C001C001C001C0E2
:1038D00001C001C001C031C07B803F00000000007A
:1038E000000000007000F0007000700070007000B8
:1038F00073E071C0738077007E007F007B807380EF
:1039000071C070E0FDF00000000000000000000049
:10391000000000003E003E00060006000600060013
:103920000600060006000600060006000600060067
:10393000060006003FC0000000000000000000007C
:103940000000000000000000000000000000600017
:10395000FFE0F7F0E770E770E770E770E770E77097
:10396000E770E770FFF000000000000000000000BA
:103970000000000000000000000000000000000047
:10398000FFC0FDC078E070E070E070E070E070E0D3
:1039900070E070E0F9F0000000000000000000009E
:1039A0000000000000000000000000000000000017
:1039B0001F8039C070E070E0E070E070E07070E08F
:1039C00070E039C01F80000000000000000000000F
:1039D00000000000000000000000000000000000E7
:1039E000FFC0FDE078E070E070707070707070E0A3
:1039F00070E07DC07F8070007000FC00000000005F
:103A000000000000000000000000000000000000B6
:103A10001FE03BE070E070E070E070E070E070E0AC
:103A200070E03BE01FE000E000E003F00000000079
:103A30000000000000000000000000000000000086
:103A4000FFE0FFF01E601C001C001C001C001C009E
:103A50001C001C00FF00000000000000000000002F
:103A60000000000000000000000000000000000056
:103A70001FC039C030E030603E001F8003C060E0EE
:103A800070E079E07FC0000000000000000000004E
:103A900000000000000000000C000C000C001C00E6
:103AA0007FC00C000C000C000C000C000C000C0083
:103AB0000C600EC007C00000000000000000000005
:103AC000000000000000000000000000000030E0E6
:103AD000F3E070E070E070E070E070E070E070E0E3
:103AE00071E03BF03FF0000000000000000000002B
:103AF00000000000000000000000000000000000C6
:103B0000FDF078E038C039C019801D801F000F001B
:103B10000F000E0006000000000000000000000082
:103B20000000000000000000000000000000000095
:103B3000FFF0E670676077607FE07FC03FC03FC006
:103B40003FC03B8019800000000000000000000022
:103B50000000000000000000000000000000000065
:103B60007FE039C01D801F000F0007000F001F807D
:103B700019C031E0FBF00000000000000000000070
:103B80000000000000000000000000000000000035
:103B9000FFF038E038C019801D801F800F000F0033
:103BA0000F00060006000E007C00780000000000F8
:103BB0000000000000000000000000000000000005
:103BC0007FE071C06380638007000E001E001C60F0
:103BD00038E071E07FC0000000000000000000003D
:103BE00001E001C003800380038003800380038021
:103BF000038007000F00030003800380038003801D
:103C000003800380038001C001E00000060006007D
:103C10000600060006000600060006000600060074
:103C20000600060006000600060006000600060064
:103C30000600060006000600060006000000000060
:103C4000780038001C001C001C001C001C001C001C
:103C50001C000E000F000E001C001C001C001C00AD
:103C60001C001C001C0038007800000000007C00D4
:103C70006E30C7E003E0000000000000000000001C
:103C80000000000000000000000000000000000034
:103C90000000000000000000000000000000000024
:103CA0000000000000000000000003800000000091
:103CB00003E00000000003F00000000003E0180033
:103CC00001C003C03C0000F003C03F00007C03C003
:103CD0007F00003E03C07C00001F03C0F800001FEF
:103CE00083C1F000000F83C1E000000F83C3C00058
:103CF000000783C78000000303C70000000003CE55
:103D00000000000003C001C003FFFFFFFFE003FF4E
:103D1000FFFFFFF001C0000003E00000000003E02F
:103D20000000000003E00000000003E000000000CD
:103D300003E00000000003E00000000003E00000DA
:103D4000000003E000FFFFFFFFE000FFFFFFFFE0D8
:103D50000078000003E00000000003E00000000025
:103D600003E00000000003E00000000003E00000AA
:103D7000000003E00000000003E00000000003E09A
:103D80000000000003E007FFFFFFFFE007FFFFFF69
:103D9000FFE00380000003E00000000003E00000FB
:103DA000000003E00000000003C00000000000006D
:103DB0000000000000000000000000000000000003
:103DC0000000000000000000000700018000000368
:103DD0008003E0000003E003F0000001F007E000D2
:103DE0000001F80780000000F80F00000000F80E46
:103DF00000E00000701C01F01FFFFFFFFFF83FFF15
:103E0000FFFFFFFC1E0000000000000000000C008F
:103E1000000000000F0001801C000FC001FFFE0C1D
:103E20000F8001FFFF0F0F0001E01E0F8F0001E068
:103E30001E0F0F0001E01E0F0F0001E01E0F0F000C
:103E400001E01E0F0F0001FFFE0F0F0001FFFE0F2C
:103E50000F0001E01E0F0F0001E01E0F0F0001E038
:103E60001E0F0F0001E01E0F0F0001E01E0F0F00DC
:103E700001FFFE0F0F0001FFFE0F0F0001E01E0FFC
:103E80000F0001E01E0F0F0001E01E0F0F0001E008
:103E90001E0F0F0001E01E0F0F0001E01E0E0F00AD
:103EA00001E01E000F0001E01E000F0001E03E0FC8
:103EB000FF0001E3FC03FF0001E1FC00FE0001E064
:103EC00078007C0001C030003800000000000000D5
:103ED00000000000000000000000000000000000E2
:103EE00000000000000000000007000300000007C1
:103EF000E007C0000207C307E000078787C7C000CC
:103F000003C787C7800001E78F8F800001F78F0FFD
:103F1000000001F79E0F000000F79C0F000000F763
:103F2000B81E00200067B39E00701FFFFFDFFFF880
:103F30001FFFFFFFFFFC0E0F803C0780001FC03CEF
:103F40000780003FF87C0780007FFE7E078000FF2F
:103F5000BF7E078001F79FEE0F8003E78FEE0F8093
:103F6000078787CE0F000F0781860F001E07038784
:103F70000F00380F80070F00000F80071F00000F91
:103F800006071E001FFFFF039E001FFFFF839E000A
:103F90000E3E1F03FC00003C1E03FC0000781E01C7
:103FA000FC0000783C01F80000F07C01F80000FF04
:103FB000F801F800000FF801F8000001FF03FC0011
:103FC0000007FF87BF00000F9F9F1F80003F07BEB5
:103FD0000FE0007C01FC07FC01F001F003FE0FC0C4
:103FE00007C001F03E000F0000E000003C000000B0
:103FF00000000000000000000000000000000000C1
:104000000000000000000000007000000000007CC4
:104010000C000180007E0FFFFFC0007C0FFFFFE05F
:1040200000780F0003E000780F0003C000780F0055
:1040300003C000780F0003C000780F0003C00079B0
:10404000CF0003C03FFFEFFFFFC03FFFFFFFFFC0F8
:1040500018780F0003C000780F03C3C000780F0367
:10406000F00000780F03E00000780F01E000007816
:104070007F01E0000079EF01E0F0007FCFFFFFF863
:10408000007F1FFFFFFC007E1E01E00001FC1E01FF
:10409000E00007F81E01E0001FF81E01E0007FF8B5
:1040A0001E01E0003E781C01E0001C783D81E180AB
:1040B00008783DFFFFC000783DFFFFE0007879E021
:1040C00003E0007879E003C0007871E003C0007875
:1040D000F1E003C00078F1E003C00079E1E003C043
:1040E0000079C1E003C0007BC1E003C01FFB81FF7A
:1040F000FFC007FF01FFFFC003F701E003C001EEAF
:1041000001E003C000DC01E003C0000001C00300C7
:10411000000000000000000000000000000000009F
:10412000000000000000000000000000000000008F
:10413000000000000000000000000000000000007F
:10414000000000000000000000000000000000006F
:10415000000000000000000000000000000000005F
:10416000000000000000000000000000000000004F
:10417000000000000000000000000000000000003F
:10418000000000000000000000000000000000002F
:10419000000000000000000000000000000000001F
:1041A00000000000000000000000000001F000001E
:1041B000000003F80000000007FC0000000007FCFE
:1041C0000000000007FC0000000003F800000000F1
:1041D00001F00000000000000000000000000000EE
:1041E000000000000000000000000000000001F0DE
:1041F0000000000003F80000000007F800000000C5
:1042000007F80000000003F80000000003F80000B9
:10421000000001F0000000000000000000000000AD
:10422000000000000000000000000000000000008E
:10423000000000000000000000000000000000007E
:10424000000000000000000000000000000000006E
:10425000000000000000000000000000000000005E
:10AD2000000000000000F03F000000000000F83FBD
:10AD300000000000000000000000004003B8E23FF7
:10AD4000000000000000000006D0CF43EBFD4C3EA9
:10AD5000033333333333E33FFFAB6FDBB66DDB3F9E
:10AD60004D268F515555D53F01411DA96074D13FE6
:10AD700065DBC9934A86CD3FEF4E454A287ECA3FE0
:10AD80003E5555555555C53F93BDBE166CC166BF62
:10AD90002CDE25AF6A56113FF16BD2C541BDBBBE5B
:10ADA000D0A4BE726937663E0000000000000000BB
:10ADB000D0AD0008000000202C0000007C2000081E
:10ADC000FCAD00082C000020040400008C200008CA
:10ADD00000A24A0400000000000000000102030479
:10ADE0000607080900000000010203040102030431
:0CADF00006070809020406080000000025
:0400000508000131BD
:00000001FF
