:020000040800F2
:100000002804002045010008710A0008730A00084E
:10001000770A00087B0A00087F0A00080000000039
:10002000000000000000000000000000830A00083B
:10003000850A000800000000870A0008890A0008F5
:100040005F0100085F0100085F0100085F01000810
:100050005F0100085F0100085F0100085F01000800
:100060005F0100085F0100085F0100085F010008F0
:100070005F0100085F0100085F0100085F010008E0
:100080005F0100085F0100085F0100085F010008D0
:100090005F0100085F0100085F0100085F010008C0
:1000A0005F0100085F0100085F0100085F010008B0
:1000B0005F0100085F0100085F0100085F010008A0
:1000C0005F0100085F0100085F0100085F01000890
:1000D0005F0100085F0100085F0100085F01000880
:1000E0005F0100085F0100085F0100085F01000870
:1000F0005F0100085F0100085F0100085F01000860
:100100005F0100085F0100085F0100085F0100084F
:100110005F0100085F0100085F0100085F0100083F
:100120005F0100085F0100085F0100085F0100082F
:10013000DFF80CD000F07AFF00480047490A0008B9
:10014000280400200648804706480047FEE7FEE7EF
:10015000FEE7FEE7FEE7FEE7FEE7FEE7FEE7FEE777
:1001600047020008310100080CB500200190009002
:100170006C48006840F480306A49086000BF6948F4
:10018000006800F4003000900198401C0190009835
:1001900018B90198B0F5A06FF1D16248006800F479
:1001A000003010B10120009001E000200090009884
:1001B000012843D15C48006840F010005A490860AB
:1001C0000846006820F0030008600846006840F018
:1001D0000200086053484068524948600846406839
:1001E00048600846406840F48060486008464068BF
:1001F00020F47C1048600846406840F4E8104860ED
:100200000846006840F08070086000BF45480068FC
:1002100000F000700028F9D04248406820F0030048
:10022000404948600846406840F00200486000BF0E
:100230003C48406800F00C000828F9D10CBD10B50E
:10024000FFF792FF10BD10B53648006840F001007E
:1002500034490860084640683449084031494860DC
:1002600008460068324908402E4908600846006880
:1002700020F4802008600846406820F4FE004860B2
:100280004FF41F008860FFF7DAFF4FF00060294944
:10029000086010BD10B5002100200022214B5B68D2
:1002A00003F00C0121B1042906D0082928D107E068
:1002B000214B224C236027E01F4B204C236023E07E
:1002C000184B5B6803F47010164B5B6803F48032C4
:1002D000022303EB904022B9194B4343174C236090
:1002E0000DE0104B5B6803F4003323B1144B434320
:1002F000124C236003E0104B4343104C236003E097
:100300000D4B0E4C236000BF00BF064B5B68C3F370
:1003100003130C4CE15C094B1B68CB40074C23607A
:1003200010BD000000100240002002400000FFF855
:10033000FFFFF6FE08ED00E000127A00000000204A
:1003400000093D000400002010B50446CC4884425A
:1003500008D10121042000F02DFB0021042000F031
:1003600029FB46E0C748844208D10121082000F05B
:1003700021FB0021082000F01DFB3AE0C248844226
:1003800008D10121102000F015FB0021102000F001
:1003900011FB2EE0BD48844208D10121202000F04D
:1003A00009FB0021202000F005FB22E0B848844230
:1003B00008D10121402000F0FDFA0021402000F08A
:1003C000F9FA16E0B348844208D10121802000F0F8
:1003D000F1FA0021802000F0EDFA0AE0AE488442F4
:1003E00007D10121801500F0E5FA0021A01500F0E9
:1003F000E1FA10BD10B50121084600F0DBFA00213A
:10040000012000F0D7FA10BD2DE9F0410246002589
:100410000026002000230024002791F803C00CF0E0
:100420000F0591F803C00CF0100CBCF1000F03D0C5
:1004300091F802C04CEA050591F800C0BCF1000F2C
:1004400031D0146800202BE04FF0010C0CFA00F3BF
:10045000B1F800C00CEA03069E4220D183004FF0A1
:100460000F0C0CFA03F7BC4305FA03FC4CEA040436
:1004700091F803C0BCF1280F06D14FF0010C0CFA23
:1004800000FCC2F814C00AE091F803C0BCF1480FA8
:1004900005D14FF0010C0CFA00FCC2F810C0401C52
:1004A0000828D1D31460B1F800C0BCF1FF0F34DDCF
:1004B000546800202EE000F1080C4FF0010808FA03
:1004C0000CF3B1F800C00CEA03069E4221D1830070
:1004D0004FF00F0C0CFA03F7BC4305FA03FC4CEA8F
:1004E000040491F803C0BCF1280F05D100F1080CF9
:1004F00008FA0CF8C2F8148091F803C0BCF1480F58
:1005000007D100F1080C4FF0010808FA0CF8C2F806
:100510001080401C0828CED35460BDE8F0814FF60F
:10052000FF710180022181700421C1707047024671
:10053000002093680B400BB1012000E000207047C1
:100540000146886880B2704702460020D3680B409D
:100550000BB1012000E0002070470146C86880B25E
:10056000704701617047416170470AB1016100E065
:1005700041617047C16070474FF480320A43826125
:100580008161826182698269704702460020434B23
:1005900018684FF68073184040EA021008433F4B3A
:1005A000186070473E49C8617047F0B50A4600239D
:1005B00000240021002500F00046B6F1004F02D1D2
:1005C000364EF16901E0354E7168C0F3034583B2E0
:1005D00000F44016B6F5401F08D121F070612F4E8F
:1005E000766826F070662D4F7E6012E000F480166B
:1005F000B6F5801F06D1032606FA05F4A14341F0A3
:10060000706106E0460D360103FA06F6B14341F08B
:10061000706122B1460D360103FA06F6314300F04F
:100620000046B6F1004F02D11C4EF16101E01B4EB5
:100630007160F0BD30B500228B071C0F0F2303FA49
:1006400004F2164B08338C1053F824309343134CA8
:1006500008348D1044F8253023468C1053F824308C
:100660008C07240F00FA04F423430C4C08348D103B
:1006700044F8253030BD0A49DC310860704700007D
:1006800000080140000C014000100140001401402E
:1006900000180140001C0140002001400000014002
:1006A00000002042DF48006840F00100DD4908609A
:1006B00008464068DC490840DA4948600846006856
:1006C000DA490840D74908600846006820F48020CD
:1006D00008600846406820F4FE0048604FF41F00A0
:1006E00088607047CF49096821F48031CD4A116094
:1006F0001146096821F480211160B0F5803F03D0D4
:10070000B0F5802F0ED106E0C649096841F480316A
:10071000C44A116007E0C349096841F4A021C14AF5
:10072000116000E000BF00BF704710B50146002215
:10073000002300204A11012A02D1BA4C236806E0A6
:10074000022A02D1B74C236A01E0B64C636A01F079
:100750001F02012494401C400CB1012000E0002045
:1007600010BD38B5002000900024002500BF3120C6
:10077000FFF7DBFF05460098401C00900098B0F59D
:10078000A06F01D0002DF2D03120FFF7CEFF08B1CD
:10079000012400E00024204638BD01460020A14A83
:1007A000106820F0F80040EAC10010607047A049CE
:1007B00008607047024600209A4B586820F47C106D
:1007C00042EA01031843974B5860704798490866FE
:1007D000704701460020934A506820F00300084308
:1007E000506070478F48406800F00C007047014629
:1007F00000208C4A506820F0F00008435060704799
:1008000001460020874A506820F4E06008435060A9
:10081000704701460020834A506820F4605040EA47
:10082000C1005060704729B17E4A527A02437D4B25
:100830005A7204E07B4A527A82437A4B5A7270476A
:100840007B49D8310860704701460020754A5068DE
:1008500020F440400843506070470021714A203224
:100860001170704A82F82010012802D004280AD1A1
:1008700004E001216B4A2032117005E00521694A2C
:100880002032117000E000BF00BF70476949086066
:1008900070476449096A0143624A116270476549B9
:1008A00044390860704730B500210022002400233D
:1008B0005C4D6D6805F00C0121B1042905D00829B3
:1008C00023D105E05C4D056022E05B4D05601FE033
:1008D000544D6D6805F47012524D6D6805F4803406
:1008E000022505EB92421CB9544D554305600BE0BF
:1008F0004C4D6D6805F400351DB1504D55430560F4
:1009000002E04D4D5543056002E04B4D056000BFD0
:1009100000BF444D6D6805F0F0010909484D6B5C5E
:100920000568DD4045603F4D6D6805F4E061090AEA
:10093000434D6B5C4568DD4085603A4D6D6805F45C
:100940006051C90A3E4D6B5C4568DD40C560354D60
:100950006D6805F44041890B3A4D6B5CC568B5FB89
:10096000F3F5056130BD29B12E4A526902432D4B82
:100970005A6104E02B4A526982432A4B5A617047FC
:1009800029B1284A92690243264B9A6104E0254A1C
:1009900092698243234B9A61704729B1214AD269F7
:1009A0000243204BDA6104E01E4AD26982431D4BA8
:1009B000DA61704729B11B4AD2680243194BDA60E9
:1009C00004E0184AD2688243164BDA60704729B1B6
:1009D000144A12690243134B1A6104E0114A126966
:1009E0008243104B1A6170471249403908607047C2
:1009F0000F49C86470470B49C87170470948406A7D
:100A000040F0807007494862704701460020054A5F
:100A100092680A400AB1012000E0002070470149B5
:100A200088727047001002400000FFF8FFFFF6FEDA
:100A3000000042428004424200127A0000093D0058
:100A4000140000202400002000F088F800F0CCF909
:100A500004A20021084600F0D5FA02E0322000F09E
:100A600090F8FBE749204C4F5645204D4355000078
:100A7000704700BFFEE700BFFEE700BFFEE700BF14
:100A8000FEE77047704770477047000030B5014679
:100A9000B1F1807F01D3012030BD21F07F40401EA5
:100AA0004FF0E022506150170F22002807DA130799
:100AB0001D0E264B00F00F04241F1D5503E01307E5
:100AC0001C0E234B1C5400BF00204FF0E02290610D
:100AD000072010610020DFE770B5044600251D489F
:100AE00000681D49B0FBF1F63046FFF7CFFF08B1B3
:100AF00000BFFEE7002508E000BF4FF0E0200069DE
:100B000000F480300028F8D06D1CA542F4D370BDED
:100B100070B5044600250F4800684FF47A71B0FBA9
:100B2000F1F63046FFF7B2FF08B100BFFEE700253F
:100B300008E000BF4FF0E020006900F4803000289A
:100B4000F8D06D1CA542F4D370BD000018ED00E094
:100B500000E400E00000002040420F0008B5012141
:100B60000820FFF70DFF10208DF803002020ADF8BE
:100B7000000003208DF8020069460A48FFF744FC94
:100B800008BD10B5044620210648FFF7ECFC2046BE
:100B9000FFF7BEFF20210348FFF7E3FC2046FFF7E5
:100BA000B7FF10BD000C014030B50146B1F1807FA8
:100BB00001D3012030BD21F07F40401E4FF0E022E4
:100BC000506150170F22002807DA13071D0EF84B4B
:100BD00000F00F04241F1D5503E013071C0EF54BF6
:100BE0001C5400BF00204FF0E022906107201061EC
:100BF0000020DFE770B504460025EF480068EF49A4
:100C0000B0FBF1F63046FFF7CFFF08B100BFFEE7BB
:100C1000002508E000BF4FF0E020006900F48030BC
:100C20000028F8D06D1CA542F4D370BD70B5044601
:100C30000025E14800684FF47A71B0FBF1F63046C8
:100C4000FFF7B2FF08B100BFFEE7002508E000BFD4
:100C50004FF0E020006900F480300028F8D06D1CCF
:100C6000A542F4D370BD08B501212020FFF788FE0E
:100C700010208DF803000820ADF8000003208DF847
:100C800002006946CE48FFF7BFFB0821CC48FFF7BA
:100C900068FC01212020FFF773FE2020ADF8000042
:100CA0006946C748FFF7B0FB01212020FFF768FE27
:100CB0004020ADF800006946C148FFF7A5FB0121BF
:100CC0002020FFF75DFE8020ADF800006946BC489B
:100CD000FFF79AFB01212020FFF752FE1020ADF80C
:100CE00000006946B648FFF78FFB08BD10B510211C
:100CF000B348FFF736FC6420FFF798FF1021B04897
:100D0000FFF731FC6420FFF791FF1021AC48FFF79B
:100D100028FC10BD70B504460D46012D04D12021DC
:100D2000A748FFF720FC03E02021A548FFF719FCA6
:100D30000821A348FFF717FC002617E04021A04830
:100D4000FFF711FC04F0800020B180219C48FFF7E0
:100D500008FC03E080219A48FFF705FC40219848F1
:100D6000FFF7FFFB6006040E701CC6B2082EE5DB21
:100D700008219348FFF7F5FB70BD70B5002419E01A
:100D800004F1B001C8B20121FFF7C4FF0121002026
:100D9000FFF7C0FF01211020FFF7BCFF002505E091
:100DA00000210846FFF7B6FF681CC5B2802DF7DBAF
:100DB000601CC4B2082CE3DB70BD70B504460D4660
:100DC00005F1B001C8B20121FFF7A4FF102141EAEB
:100DD00014100121FFF79EFF04F00F0141F0010004
:100DE0000121FFF797FF70BD10B5FFF73CFFFFF73C
:100DF0007DFF0121AE20FFF78DFF01210020FFF7CD
:100E000089FF01211020FFF785FF01214020FFF716
:100E100081FF01218120FFF77DFF0121CF20FFF716
:100E200079FF0121A120FFF775FF0121C820FFF7FD
:100E300071FF0121A620FFF76DFF0121A820FFF718
:100E400069FF01213F20FFF765FF0121D320FFF754
:100E500061FF01210020FFF75DFF0121D520FFF791
:100E600059FF01218020FFF755FF0121D920FFF70D
:100E700051FF0121F120FFF74DFF0121DA20FFF79B
:100E800049FF01211220FFF745FF0121DB20FFF779
:100E900041FF01214020FFF73DFF01212020FFF706
:100EA00039FF01210220FFF735FF01218D20FFF7D7
:100EB00031FF01211420FFF72DFF0121A420FFF7AE
:100EC00029FF0121A620FFF725FF0121AF20FFF711
:100ED00021FF0121AF20FFF71DFFFFF74EFF00218B
:100EE0000846FFF76AFF10BD70B504460D46294657
:100EF0002046FFF762FF00210120FFF70BFF70BDC6
:100F000070B5002412E021460020FFF756FF0025AF
:100F100008E07F2101FB04512A4A505C0021FFF7C1
:100F2000F9FE6D1C7F2DF4D3601CC4B2082CEADBE3
:100F300070BD2DE9F04180460E46174631464046C9
:100F4000FFF73BFF002415E03019C1B24046FFF720
:100F500034FF00250AE01C4901EB4711102202FB77
:100F60000452885C0021FFF7D5FE6D1C102DF2D3D2
:100F7000601CC4B2022CE7DBBDE8F08170B5054609
:100F80000E46002409E0224631462846FFF7D1FFED
:100F900005F11000C5B2601CC4B2082CF3D370BDBB
:100FA0002DE9F04180460E461746002426E0000059
:100FB00018ED00E000E400E00000002040420F00D7
:100FC000001401406E100008661400083019C1B208
:100FD0004046FFF7F2FE00250CE0A7F12001124A7F
:100FE00002EB0111082202FB0452885C0021FFF78A
:100FF00091FE6D1C082DF0D3601CC4B2022CE5DB01
:10100000BDE8F08170B505460E46144608E022782A
:1010100031462846FFF7C4FF05F10800C5B2641C3D
:1010200020780028F3D170BD66150008064C074DE6
:1010300006E0E06840F0010394E8070098471034A8
:10104000AC42F6D3FFF778F8581B0008781B00086D
:1010500002E008C8121F08C1002AFAD17047704781
:10106000002001E001C1121F002AFBD170470000DF
:1010700000000000C0000000000000000000402050
:101080002020202020101010101008080808040448
:101090000000000000000000000000000000000050
:1010A0000000000000000000202080808080000000
:1010B0000000000000000000000000000000000030
:1010C00008081810202020202010101010100000F8
:1010D0000000000000000000000000000000000010
:1010E0000000000000000000000000000000000000
:1010F0000080700B0000000000000000C0100C0613
:1011000081200C02020101010101010101412111B3
:101110000905030103030103018363E003030504DD
:1011200001010101010101010101000000C13806B6
:101130000204081000208000000000000818600071
:10114000000000000000000000000000000000009F
:1011500000000000000000000040C000000000C0CF
:101160000000000000000000000000000000080671
:101170000100000000000000E010050000C0340382
:1011800000000000000000000000403601000000E8
:10119000000000203814061108000B7080000000C9
:1011A00000000000000000000000003F60408000E0
:1011B0000000000000000200102080000000010A72
:1011C00000400000000000000000000000000000DF
:1011D000000000000000000000070000402E010099
:1011E00000000000000000000000000000000000FF
:1011F0000080804000000FF80000000003060C187B
:1012000020C0000000000000000B308080000000C3
:10121000000000000000000000000001020C30404F
:10122000800000000000000000000000000087981F
:1012300060804000004000402010130C00000000BF
:1012400000010820800000000000000000000000F5
:101250000000000000000000000050050000000039
:10126000000000000000000000000000000000007E
:1012700030C000000000013618000000000000002F
:1012800000010E183020404080800000010202045E
:101290000404040004040203020400080000200007
:1012A00003044C0810901020002020400041CA2167
:1012B0009E608000000000000000000000000000B0
:1012C0000000000002040830C00000000000000020
:1012D000000000000000C038030000000000000013
:1012E00000000000000000000000000000000000FE
:1012F000550000000000000000000000000000E0B9
:1013000030100C00000000000102060C180810103C
:1013100010102020404040808000000000000000AD
:1013200000000000000000000100000100000000BB
:1013300000020010012001800002000002000200F3
:101340000200020002000201070C0002000202007B
:101350000202020203010000000000000080E030F1
:10136000000000000000000000000000000000F984
:101370000000000000000000000000000000010369
:1013800006040810001020202000000000000000CB
:1013900000000000000000000181000202040008BB
:1013A00008181020408080808080008080008000AD
:1013B00040400040002020002112161C18000000B0
:1013C0000000000000000106081810E08000000086
:1013D0000000000000000000000202030000000006
:1013E00000000000000000000000000000000001FC
:1013F00001000002000400000008000000100000CE
:101400000010000010000020002018101010000034
:1014100000000000000000000003040C0808101089
:1014200000100000000000000000000000000000AC
:1014300000000000000000000000000000000000AC
:1014400000000000000000000000001D000000007F
:10145000000000000000000000000000000000008C
:101460000000000000008040301E101010FF10101F
:10147000101010100000404042424242427F42425F
:1014800042424240400040404242424242FE4242CA
:10149000424242404000000000000040807F0000C7
:1014A00000000000000000E000FF10201010FF10FE
:1014B000F01116101000010000FF0080601C0300F6
:1014C0003F40404078000000C05E525252FF5252EE
:1014D000525EC00000004030037282828AB782826E
:1014E00082E2031060000202C23E2222E202FE02F9
:1014F000824222120000028140211A0601003F416F
:1015000040404078000040404242424242FE424257
:10151000424242404000000000000040807F000046
:1015200000000000000080908C848484F586848410
:101530008484948C80000080808446492810102C7C
:101540002340800000000000E09C848484F48282B8
:10155000838280800000002010080640807F000009
:10156000020408300000000000000000000000003D
:10157000000000000000000000F800000000000073
:1015800000330000000000100C02100C02000000EC
:101590000000000000000040C07840C07800000457
:1015A0003F04043F040000708888FC0830000018E5
:1015B0002020FF211E00F008F0806018000000319C
:1015C0000C031E211E0000F00888700000001E2180
:1015D000232C1927211000120E000000000000002B
:1015E000000000000000000000E0180402000000FD
:1015F00000071820400000020418E000000000402E
:10160000201807000000404080F0804040000202A7
:10161000010F0102020000000000E00000000001D4
:1016200001010F0101010000000000000000009016
:101630007000000000000000000000000000000139
:101640000101010101000000000000000000003065
:1016500030000000000000000000C03804000060FE
:1016600018070000000000E010080810E000000F5C
:10167000102020100F0000001010F80000000000E3
:1016800020203F202000007008080808F0000030EB
:101690002824222130000030080808887000001833
:1016A000202121221C000000804030F800000006AC
:1016B0000524243F242400F888888808080000199D
:1016C000202020110E0000E0108888900000000FFC
:1016D000112020201F00001808088868180000004A
:1016E000003E010000000070880808887000001C9F
:1016F000222121221C0000F008080810E00000014F
:10170000122222110F00000000C0C00000000000E3
:1017100000303000000000000080000000000000E9
:1017200000E00000000000008040201008000001E0
:1017300002040810200000404040404040000002E9
:101740000202020202000008102040800000002077
:1017500010080402010000704808088870000000AA
:10176000003037000000C030C828E810E00007183B
:1017700027282F2817000000C038E0000000203C78
:1017800023020227382008F8888888700000203F4C
:10179000202020110E00C030080808083800071863
:1017A00020202010080008F808080810E000203F5A
:1017B000202020100F0008F88888E8081000203F3B
:1017C00020202320180008F88888E8081000203F0F
:1017D000200003000000C030080808380000071887
:1017E0002020221E020008F808000008F808203F08
:1017F000210101213F20000808F80808000000200E
:10180000203F2020000000000808F8080800C080E1
:1018100080807F00000008F888C028180800203F5A
:1018200020012638200008F8080000000000203FB2
:1018300020202020300008F8F800F8F80800203FA9
:10184000013E013F200008F830C00008F808203FA2
:10185000200007183F00E01008080810E0000F10F3
:10186000202020100F0008F808080808F000203F8A
:10187000210101010000E01008080810E0000F102D
:10188000282830504F0008F8888888887000203F4A
:101890002000030C30200070880808083800003849
:1018A000202121221C00180808F808081800000050
:1018B000203F2000000008F808000008F808001F7A
:1018C000202020201F000878880000C83808000069
:1018D00007380E01000008F800F800F808000003BF
:1018E0003E013E0300000818688080681808203018
:1018F0002C03032C30200838C800C838080000002A
:10190000203F2000000010080808C83808002038D0
:10191000262120201800000000FE02020200000024
:10192000007F40404000000438C00000000000007C
:1019300000010638C00000020202FE000000004064
:1019400040407F000000000004020204000000008C
:101950000000000000000000000000000000808087
:10196000808080808080000202040000000000006F
:1019700000000000000000008080800000000019CE
:101980002424123F200010F0008080000000003F5F
:10199000112020110E000000008080800000000E49
:1019A000112020201100000080808090F000001F96
:1019B000202020103F200000808080800000001F39
:1019C000242424241700008080E090902000002030
:1019D000203F202000000000808080808000006B7D
:1019E00094949493600010F0008080800000203F69
:1019F000210000203F200080989800000000002077
:101A0000203F20200000000000809898000000C0C7
:101A10008080807F000010F0000080808000203FE8
:101A2000240629302000001010F8000000000020DB
:101A3000203F202000008080808080808000203F28
:101A400020003F20003F8080008080800000203FF9
:101A5000210000203F200000808080800000001FC7
:101A6000202020201F00808000808000000080FF58
:101A7000912020110E000000008080008000000EE8
:101A800011202091FF8080808000808080002020B5
:101A90003F21200001000000808080808000003312
:101AA000242424241900008080E0808000000000AD
:101AB000001F202010008080000000808000001F98
:101AC000202020103F208080800080808000000344
:101AD0000C300C0300008080008080008080010EAC
:101AE000300C0738060100808080008080000020D4
:101AF000310E2E31200080808000008080800081A7
:101B00008678180601000080808080808000002197
:101B1000302C222130000000000000FC02020000F6
:101B20000000013E404000000000FF0000000000F7
:101B30000000FF0000000202FC0000000000404026
:101B40003E01000000000002010202040200000049
:101B50000000000000000000781B000800000020CA
:101B60002800000050100008A01B000828000020DA
:101B7000000400006010000800A24A0400000000F9
:101B8000000000000102030406070809000000002D
:101B900001020304010203040607080902040608FF
:0400000508000131BD
:00000001FF
