:020000040800F2
:100000005804002045010008AD0A0008AF0A0008A6
:10001000B30A0008B70A0008BB0A00080000000085
:10002000000000000000000000000000BF0A0008FF
:10003000C10A000800000000C30A0008C50A000841
:100040005F0100085F0100085F0100085F01000810
:100050005F0100085F0100085F0100085F01000800
:100060005F0100085F0100085F0100085F010008F0
:100070005F0100085F0100085F0100085F010008E0
:100080005F0100085F0100085F0100085F010008D0
:100090005F0100085F0100085F0100085F010008C0
:1000A0005F0100085F0100085F0100085F010008B0
:1000B0005F0100085F0100085F0100085F010008A0
:1000C0005F0100085F0100085F0100085F01000890
:1000D0005F0100085F0100085F0100085F01000880
:1000E0005F0100085F0100085F0100085F01000870
:1000F0005F0100085F0100085F0100085F01000860
:100100005F0100085F0100085F0100085F0100084F
:100110005F0100085F0100085F0100085F0100083F
:100120005F0100085F0100085F0100085F0100082F
:10013000DFF80CD001F056FC00480047490A0008DF
:10014000580400200648804706480047FEE7FEE7BF
:10015000FEE7FEE7FEE7FEE7FEE7FEE7FEE7FEE777
:1001600047020008310100080CB500200190009002
:100170006C48006840F480306A49086000BF6948F4
:10018000006800F4003000900198401C0190009835
:1001900018B90198B0F5A06FF1D16248006800F479
:1001A000003010B10120009001E000200090009884
:1001B000012843D15C48006840F010005A490860AB
:1001C0000846006820F0030008600846006840F018
:1001D0000200086053484068524948600846406839
:1001E00048600846406840F48060486008464068BF
:1001F00020F47C1048600846406840F4E8104860ED
:100200000846006840F08070086000BF45480068FC
:1002100000F000700028F9D04248406820F0030048
:10022000404948600846406840F00200486000BF0E
:100230003C48406800F00C000828F9D10CBD10B50E
:10024000FFF792FF10BD10B53648006840F001007E
:1002500034490860084640683449084031494860DC
:1002600008460068324908402E4908600846006880
:1002700020F4802008600846406820F4FE004860B2
:100280004FF41F008860FFF7DAFF4FF00060294944
:10029000086010BD10B5002100200022214B5B68D2
:1002A00003F00C0121B1042906D0082928D107E068
:1002B000214B224C236027E01F4B204C236023E07E
:1002C000184B5B6803F47010164B5B6803F48032C4
:1002D000022303EB904022B9194B4343174C236090
:1002E0000DE0104B5B6803F4003323B1144B434320
:1002F000124C236003E0104B4343104C236003E097
:100300000D4B0E4C236000BF00BF064B5B68C3F370
:1003100003130C4CE15C094B1B68CB40074C23607A
:1003200010BD000000100240002002400000FFF855
:10033000FFFFF6FE08ED00E000127A00000000204A
:1003400000093D000400002010B50446CC4884425A
:1003500008D10121042000F02DFB0021042000F031
:1003600029FB46E0C748844208D10121082000F05B
:1003700021FB0021082000F01DFB3AE0C248844226
:1003800008D10121102000F015FB0021102000F001
:1003900011FB2EE0BD48844208D10121202000F04D
:1003A00009FB0021202000F005FB22E0B848844230
:1003B00008D10121402000F0FDFA0021402000F08A
:1003C000F9FA16E0B348844208D10121802000F0F8
:1003D000F1FA0021802000F0EDFA0AE0AE488442F4
:1003E00007D10121801500F0E5FA0021A01500F0E9
:1003F000E1FA10BD10B50121084600F0DBFA00213A
:10040000012000F0D7FA10BD2DE9F0410246002589
:100410000026002000230024002791F803C00CF0E0
:100420000F0591F803C00CF0100CBCF1000F03D0C5
:1004300091F802C04CEA050591F800C0BCF1000F2C
:1004400031D0146800202BE04FF0010C0CFA00F3BF
:10045000B1F800C00CEA03069E4220D183004FF0A1
:100460000F0C0CFA03F7BC4305FA03FC4CEA040436
:1004700091F803C0BCF1280F06D14FF0010C0CFA23
:1004800000FCC2F814C00AE091F803C0BCF1480FA8
:1004900005D14FF0010C0CFA00FCC2F810C0401C52
:1004A0000828D1D31460B1F800C0BCF1FF0F34DDCF
:1004B000546800202EE000F1080C4FF0010808FA03
:1004C0000CF3B1F800C00CEA03069E4221D1830070
:1004D0004FF00F0C0CFA03F7BC4305FA03FC4CEA8F
:1004E000040491F803C0BCF1280F05D100F1080CF9
:1004F00008FA0CF8C2F8148091F803C0BCF1480F58
:1005000007D100F1080C4FF0010808FA0CF8C2F806
:100510001080401C0828CED35460BDE8F0814FF60F
:10052000FF710180022181700421C1707047024671
:10053000002093680B400BB1012000E000207047C1
:100540000146886880B2704702460020D3680B409D
:100550000BB1012000E0002070470146C86880B25E
:10056000704701617047416170470AB1016100E065
:1005700041617047C16070474FF480320A43826125
:100580008161826182698269704702460020434B23
:1005900018684FF68073184040EA021008433F4B3A
:1005A000186070473E49C8617047F0B50A4600239D
:1005B00000240021002500F00046B6F1004F02D1D2
:1005C000364EF16901E0354E7168C0F3034583B2E0
:1005D00000F44016B6F5401F08D121F070612F4E8F
:1005E000766826F070662D4F7E6012E000F480166B
:1005F000B6F5801F06D1032606FA05F4A14341F0A3
:10060000706106E0460D360103FA06F6B14341F08B
:10061000706122B1460D360103FA06F6314300F04F
:100620000046B6F1004F02D11C4EF16101E01B4EB5
:100630007160F0BD30B500228B071C0F0F2303FA49
:1006400004F2164B08338C1053F824309343134CA8
:1006500008348D1044F8253023468C1053F824308C
:100660008C07240F00FA04F423430C4C08348D103B
:1006700044F8253030BD0A49DC310860704700007D
:1006800000080140000C014000100140001401402E
:1006900000180140001C0140002001400000014002
:1006A00000002042DF48006840F00100DD4908609A
:1006B00008464068DC490840DA4948600846006856
:1006C000DA490840D74908600846006820F48020CD
:1006D00008600846406820F4FE0048604FF41F00A0
:1006E00088607047CF49096821F48031CD4A116094
:1006F0001146096821F480211160B0F5803F03D0D4
:10070000B0F5802F0ED106E0C649096841F480316A
:10071000C44A116007E0C349096841F4A021C14AF5
:10072000116000E000BF00BF704710B50146002215
:10073000002300204A11012A02D1BA4C236806E0A6
:10074000022A02D1B74C236A01E0B64C636A01F079
:100750001F02012494401C400CB1012000E0002045
:1007600010BD38B5002000900024002500BF3120C6
:10077000FFF7DBFF05460098401C00900098B0F59D
:10078000A06F01D0002DF2D03120FFF7CEFF08B1CD
:10079000012400E00024204638BD01460020A14A83
:1007A000106820F0F80040EAC10010607047A049CE
:1007B00008607047024600209A4B586820F47C106D
:1007C00042EA01031843974B5860704798490866FE
:1007D000704701460020934A506820F00300084308
:1007E000506070478F48406800F00C007047014629
:1007F00000208C4A506820F0F00008435060704799
:1008000001460020874A506820F4E06008435060A9
:10081000704701460020834A506820F4605040EA47
:10082000C1005060704729B17E4A527A02437D4B25
:100830005A7204E07B4A527A82437A4B5A7270476A
:100840007B49D8310860704701460020754A5068DE
:1008500020F440400843506070470021714A203224
:100860001170704A82F82010012802D004280AD1A1
:1008700004E001216B4A2032117005E00521694A2C
:100880002032117000E000BF00BF70476949086066
:1008900070476449096A0143624A116270476549B9
:1008A00044390860704730B500210022002400233D
:1008B0005C4D6D6805F00C0121B1042905D00829B3
:1008C00023D105E05C4D056022E05B4D05601FE033
:1008D000544D6D6805F47012524D6D6805F4803406
:1008E000022505EB92421CB9544D554305600BE0BF
:1008F0004C4D6D6805F400351DB1504D55430560F4
:1009000002E04D4D5543056002E04B4D056000BFD0
:1009100000BF444D6D6805F0F0010909484D6B5C5E
:100920000568DD4045603F4D6D6805F4E061090AEA
:10093000434D6B5C4568DD4085603A4D6D6805F45C
:100940006051C90A3E4D6B5C4568DD40C560354D60
:100950006D6805F44041890B3A4D6B5CC568B5FB89
:10096000F3F5056130BD29B12E4A526902432D4B82
:100970005A6104E02B4A526982432A4B5A617047FC
:1009800029B1284A92690243264B9A6104E0254A1C
:1009900092698243234B9A61704729B1214AD269F7
:1009A0000243204BDA6104E01E4AD26982431D4BA8
:1009B000DA61704729B11B4AD2680243194BDA60E9
:1009C00004E0184AD2688243164BDA60704729B1B6
:1009D000144A12690243134B1A6104E0114A126966
:1009E0008243104B1A6170471249403908607047C2
:1009F0000F49C86470470B49C87170470948406A7D
:100A000040F0807007494862704701460020054A5F
:100A100092680A400AB1012000E0002070470149B5
:100A200088727047001002400000FFF8FFFFF6FEDA
:100A3000000042428004424200127A0000093D0058
:100A4000140000202400002008B500F072F900F026
:100A500079FB00F06DFA23E000F080FB00F01EFC53
:100A6000814600F028FE074600220E4B00F083FD71
:100A7000054600F033FE04460B49204600F0A8FC72
:100A8000064600F0FFFD054601200346024602210E
:100A90000090284600F0BCF94FF47A7000F0ABFAF1
:100AA000DAE70000000016400000C842704700BFAF
:100AB000FEE700BFFEE700BFFEE700BFFEE77047AE
:100AC0007047704770470000002148E000BF00BF3A
:100AD00000BF00BF00BF00BF00BF00BF00BF00BF1E
:100AE00000BF00BF00BF00BF00BF00BF00BF00BF0E
:100AF00000BF00BF00BF00BF00BF00BF00BF00BFFE
:100B000000BF00BF00BF00BF00BF00BF00BF00BFED
:100B100000BF00BF00BF00BF00BF00BF00BF00BFDD
:100B200000BF00BF00BF00BF00BF00BF00BF00BFCD
:100B300000BF00BF00BF00BF00BF00BF00BF00BFBD
:100B400000BF00BF00BF00BF00BF00BF00BF00BFAD
:100B500000BF00BF00BF00BF00BF00BF491C8142F3
:100B6000B4DB704710B50346002404E04FF47A70FC
:100B7000FFF7AAFF641C9C42F8DB10BD08B50121F9
:100B80000420FFF7FDFE10208DF803000220ADF8D1
:100B9000000003208DF802006946EB48FFF734FCA3
:100BA00001210420FFF7ECFE0420ADF800006946A7
:100BB000E548FFF729FC01210420FFF7E1FE0820AA
:100BC000ADF800006946E048FFF71EFC0821DE484A
:100BD000FFF7C7FC0421DC48FFF7C3FC0221DA4819
:100BE000FFF7BFFC01210420FFF7CAFE1020ADF87B
:100BF00000006946D448FFF707FC0821D248FFF7F8
:100C0000B0FC0421D048FFF7ACFC0221CE48FFF72E
:100C1000A8FC1021CC48FFF7A6FC08BD70B504461F
:100C20000D4600261FE00421C748FFF79CFC142056
:100C3000FFF74AFF04F0800020B10221C248FFF70D
:100C400090FC03E00221C048FFF78DFC0421BE4860
:100C5000FFF787FC1420FFF737FF6006040E14200F
:100C6000FFF732FF761CAE42DDDB1420FFF72CFFCE
:100C700070BD10B504460821B348FFF774FC042189
:100C80008020FFF7CBFF08212046FFF7C7FF082190
:100C9000AD48FFF766FC10BD70B505460C46A806CA
:100CA000050E0821A848FFF75EFC0321A020FFF7EE
:100CB000B5FF06212846FFF7B1FF08212046FFF7C0
:100CC000ADFF0821A048FFF74CFC70BD70B504468D
:100CD0000026002507E000213046FFF7DDFFB01CAD
:100CE000C6B2681CC5B2A542F5DB70BD70B504463E
:100CF0000026002507E0FF213046FFF7CDFFB01C9E
:100D0000C6B2681CC5B2A542F5DB70BD2DE9F04145
:100D100004460F460025002607E039462846FFF71F
:100D2000BBFFA81CC5B2701CC6B2A642F5DBBDE86D
:100D3000F08110B5FFF722FF0220FFF79AFF302065
:100D4000FFF797FF5220FFF794FF0620FFF791FF70
:100D500010BD10B50420FFF78CFF10BD10B50620A4
:100D6000FFF787FF10BD10B501210220FFF794FFA8
:100D70004FF4AF70FFF7F6FE02210846FFF78CFF35
:100D80004FF4AF70FFF7EEFE04210220FFF784FF5F
:100D90004FF4AF70FFF7E6FE08210220FFF77CFF5B
:100DA0004FF4AF70FFF7DEFE10210220FFF774FF53
:100DB0004FF4AF70FFF7D6FE20210220FFF76CFF43
:100DC0004FF4AF70FFF7CEFE40210220FFF764FF23
:100DD0004FF4AF70FFF7C6FE80210220FFF75CFFE3
:100DE0004FF4AF70FFF7BEFE10BD10B50620FFF741
:100DF0006DFF002409E06106080EFF21FFF74CFF9C
:100E00003220FFF7AFFE601CC4B2062CF3DB10BD2E
:100E10002DE9F04704460E4617469846DDF8209027
:100E20004A4894FBF0F04A49085C4A49487142F24A
:100E3000107094FBF0F00A2190FBF1F201FB12001C
:100E40004349085C434908714FF47A7094FBF0F011
:100E50000A2190FBF1F201FB12003D49085C3D497B
:100E6000C870642094FBF0F00A2190FBF1F201FBC2
:100E700012003749085C374988700A2094FBF0F06B
:100E80000A2190FBF1F201FB12003149085C314963
:100E900048700A2094FBF0F100FB11402C49085CDB
:100EA0002C490870012E04D0022E09D0032E15D132
:100EB0000DE02848007840F08000264908700EE0D8
:100EC0002448407840F080002249487007E02148DB
:100ED000807840F080001F49887000E000BF00BFAC
:100EE000012F05D11B48C07840F080001949C87017
:100EF000B8F1010F05D11748007940F0800015497D
:100F00000871B9F1010F05D11248407940F0800015
:100F100010494871002507E00E4A515D6A06100E1F
:100F2000FFF7BAFE681CC5B2062DF5DBBDE8F087F9
:100F300010B510210448FFF714FB10BD10B51021A7
:100F40000148FFF710FB10BD00080140A08601001A
:100F50002E00002028000020002100BF48E000BF34
:100F600000BF00BF00BF00BF00BF00BF00BF00BF89
:100F700000BF00BF00BF00BF00BF00BF00BF00BF79
:100F800000BF00BF00BF00BF00BF00BF00BF00BF69
:100F900000BF00BF00BF00BF00BF00BF00BF00BF59
:100FA00000BF00BF00BF00BF00BF00BF00BF00BF49
:100FB00000BF00BF00BF00BF00BF00BF00BF00BF39
:100FC00000BF00BF00BF00BF00BF00BF00BF00BF29
:100FD00000BF00BF00BF00BF00BF00BF00BF00BF19
:100FE00000BF00BF00BF00BF00BF00BF00BF491C63
:100FF0008142B4D3704710B503464FF47A7003FBB7
:1010000000F42046FFF7A8FF10BD0000002148E0D3
:1010100000BF00BF00BF00BF00BF00BF00BF00BFD8
:1010200000BF00BF00BF00BF00BF00BF00BF00BFC8
:1010300000BF00BF00BF00BF00BF00BF00BF00BFB8
:1010400000BF00BF00BF00BF00BF00BF00BF00BFA8
:1010500000BF00BF00BF00BF00BF00BF00BF00BF98
:1010600000BF00BF00BF00BF00BF00BF00BF00BF88
:1010700000BF00BF00BF00BF00BF00BF00BF00BF78
:1010800000BF00BF00BF00BF00BF00BF00BF00BF68
:1010900000BF00BF00BF00BF00BF00BF00BF00BF58
:1010A000491C8142B4DB704710B50346002404E0BC
:1010B0004FF47A70FFF7AAFF641C9C42F8DB10BD66
:1010C00008B501210420FFF75BFC0120ADF800000A
:1010D00010208DF8030003208DF8020069468D482A
:1010E000FFF792F908BD08B501210420FFF748FC7D
:1010F0000120ADF8000004208DF8030003208DF8D6
:10110000020069468348FFF77FF908BD10B500BFAC
:1011100001218048FFF70BFA0028F9D02820FFF7BB
:1011200075FF01217B48FFF702FA012808D100BFB3
:1011300001217848FFF7FBF90128F9D0012010BD03
:101140000020FCE710B5FFF7BBFF01217148FFF756
:1011500008FA4FF47A70FFF7A7FF10BD70B5FFF7DC
:10116000AFFF01216B48FFF7FEF91220FFF79CFF4C
:1011700001216848FFF7F5F91E20FFF747FFFFF749
:10118000B2FF01216348FFF7D2F9002831D100BF37
:1011900001216048FFF7CBF90028F9D000BF0121F9
:1011A0005C48FFF7C4F90128F9D0002412E00025BB
:1011B0000DE05948005D4006000E57490855FFF7FD
:1011C000A5FF5549095D0843534908556D1C082D75
:1011D000EFDB641C052CEADB00BF01214D48FFF763
:1011E000A6F90028F9D0FFF76BFF01214948FFF766
:1011F000B8F9494800784849497808444649897807
:1012000008444549C978084443490979884201D1CD
:10121000012070BD00204049087048708870C87077
:1012200000BFF6E72DE9FC5F3B49487800F018FA6B
:1012300082464FF0000B0AE0374840780A2190FBC5
:10124000F1F0354948700BF1010000F0FF0B324816
:1012500040780028F0D1584600F007FA064632469A
:101260000B4600202D4900F0CFFC04460D465046A9
:1012700000F021FA804622462B4600F082F9CDE9A3
:10128000000100F02BFA82462349087800F0E8F9C3
:101290000446514600F044F8BDE8FC9F2DE9FC5F90
:1012A0001D49C87800F0DCF982464FF0000B0AE0D7
:1012B0001948C0780A2190FBF1F01749C8700BF16A
:1012C000010000F0FF0B1448C0780028F0D1584608
:1012D00000F0CBF9064632460B4600200F4900F0DD
:1012E00093FC04460D46504600F0E5F98046224640
:1012F0002B4600F046F9CDE9000100F0EFF98246F7
:101300000549887800F0ACF90446514600F008F829
:10131000BDE8FC9F000801404A0000200000244076
:10132000F0B480EA0102D40F4200B2EB410F02D2C6
:101330000246084611464A0042D0C30DDDB2C1F351
:10134000C752AD1A202D35DAC1F3160141F400025F
:1013500004B15242C5F1200602FA06F12A411044B6
:10136000B3EBD05F23D0C4B1012DA0EBC35009DC97
:10137000F0BC4FF0004202EAC352DBB200F50000BD
:1013800000F0F2B9400000F1807000EBC350A0F112
:10139000807040EAD170490009E0490841EAC07113
:1013A000A0EBC35000F50000400800EBC350F0BCB8
:1013B00000F0D1B96142012202EB4101001BF6E7C6
:1013C000F0BC704781F00041AAE780F00040A7E739
:1013D00080EA010210B502F00043400022D04A002A
:1013E0001FD0010E01EB1261C0F35600C2F356028A
:1013F00040F4000042F40002A0FB022000047F3908
:10140000140400D0401C50EA124001D44000491E90
:10141000C2B20C0604EBD010401C4008802A02D057
:1014200003E0002010BD20F00100002900DA0020B8
:10143000184310BD2DE9FE4F804681EA0300C00F1E
:101440000C46009021F0004123F00045B8EB02006B
:10145000A94105D24046214690461C460B4602460D
:1014600023F00040104347D0270DC7F30A00C3F311
:101470000A510290401A019040286BDAC3F313001E
:1014800040F4801B0098924620B10023D2EB030A5F
:1014900063EB0B0B01985946C0F14002504600F037
:1014A00039F906460D4650465946019A00F041F971
:1014B00010EB08006141002487EA115284EAE773C7
:1014C0001A4340D0009A62B3019A012A4FEA0752A8
:1014D00015DC001B61EB02014FF0004202EA0752EB
:1014E000CDE90042001C41F5801132462B4600F048
:1014F00078F903B0BDE8F08F40462146F9E7001BBC
:1015000061EB0201001C41F5801300185B412018BB
:10151000A2F5001747EB030140EAD570B6196D41FB
:1015200011E06D084FEA360645EAC0754FEA0752EA
:10153000001B61EB0201001C41F5801149084FEAD4
:1015400030000019514132462B4603B0BDE8F04F40
:1015500000F038B90098012240000023D0EB0202CD
:1015600063EBE073009821464FEAE074B8EB0000AB
:1015700061EB0401E9E783F000435BE781F00041A0
:1015800058E72DE9F04D81EA030404F0004B21F007
:10159000004514464FF0000A23F0004150EA0502CE
:1015A00020D054EA01021DD0C5F30A570246C5F304
:1015B0001303C1F31300C1F30A5640F4801543F43A
:1015C0008013A7EB0608101BD64608F2FD3873EB14
:1015D000050002D308F1010801E092185B41B8F15F
:1015E000000F03DA00200146BDE8F08D00204FF423
:1015F0008011064684460EE0171B73EB050705D3E2
:10160000121B63EB050306434CEA010C49084FEA41
:10161000300092185B4150EA0107EDD152EA030015
:1016200012D082EA040083EA0501084305D0101BAA
:10163000AB4106D20122002306E000224FF0004316
:1016400002E06FF0010253101AEB06004CEB085158
:1016500010EB0A0041EB0B01BDE8F04D00F0B2B811
:1016600096230022114600F07FB80EB540F23341B8
:1016700002910021CDE900110A460B4600F0B1F8B5
:1016800003B000BD00F0004220F00040C10DC0F3E7
:10169000160040F400007F2901DA002070479629E7
:1016A00003DCC1F19601C84001E096398840002A68
:1016B000F4D04042704700F0004230F000400AD0C1
:1016C000C10D01F56071C0F3160042EA0151C20874
:1016D00040071143704700200146704701F0004366
:1016E00030B421F0004150EA010206D00A0DA2F503
:1016F0006072C1F31301002A02DC30BC0020704785
:10170000440F44EAC104C100E01830BC00EBC250F1
:1017100000F021B8202A04DB203A00FA02F1002070
:1017200070479140C2F1200320FA03F3194390401F
:101730007047202A06DBCB17203A41FA02F043EA31
:10174000E07306E041FA02F3D040C2F1200291407A
:101750000843194670470029A8BF7047401C49003C
:1017600008BF20F00100704710B4B0FA80FC00FA06
:101770000CF050EA010404BF10BC704749B1CCF131
:10178000200421FA04F411FA0CF118BF01212143BD
:101790000843A3EB0C01CB1D4FEA00614FEA102078
:1017A00042BF002010BC704700EBC350104400291A
:1017B000A4BF10BC7047401C490008BF20F00100C6
:1017C00010BC704710B5141E73F1000408DA401CF9
:1017D00041F1000192185B411A4301D120F0010050
:1017E00010BD2DE9F04D92469B4611B1B1FA81F240
:1017F00002E0B0FA80F220329046FFF78BFF0446F9
:101800000F4640EA0A0041EA0B0153465A46084394
:1018100013D0114653EA010019D0C8F140025046D6
:1018200000F0F2F805460E46504659464246FFF78C
:1018300071FF084305D0012004E020463946BDE889
:10184000F08D0020054346EAE0762C4337430A98A2
:101850006305E40AA0EB08000022FD0A44EA4754AD
:101860000A3002D500200146E9E701051019694157
:10187000DDE9084500196941BDE8F04DA2E72DE911
:10188000FE4F81EA030404F0004421F0004100947B
:101890004FF0000B23F0004350EA01045ED052EAFF
:1018A00003045BD0C3F30A54C1F30A552C44A4F2D9
:1018B000F3340194A0FB0254C1F3130141F48011ED
:1018C000C3F3130343F4801301FB024400FB034EF4
:1018D000840A970A44EA815447EA8357A4FB0768BD
:1018E00002958D0A05FB07854FEA932C04FB0C54E7
:1018F0002705029D4FEA065847EA1637B5EB08055B
:101900006EEB070C870E920E47EA811742EA8312AC
:10191000A7FB0201B6EB0B0164EB00042B0D43EABD
:101920000C335E1844EB1C50DA465146E7FB0201CB
:10193000C5F313044FEA0B3343EA14534FEA04325E
:10194000019C43EA0603A4F10C040294009CCDE937
:1019500000B4FFF746FF03B0BDE8F08F002001465A
:10196000F9E770B521F0004303430CD0C1F30A55E9
:101970000024D5EB040564EB0403D617AD1AB3417C
:1019800002DB0020014670BD201841EB025170BD02
:101990000EB5C10F80EAE0700844CA07002140F28A
:1019A00033438DE80E000A460B46FFF71AFF03B0DB
:1019B00000BD000030B5041E71F1000404DB4FF0DF
:1019C0000044404264EB0101141E73F1000405DB86
:1019D0001C464FF00043524263EB0403994208BF98
:1019E000904230BD064C074D06E0E06840F0010330
:1019F00094E8070098471034AC42F6D3FEF79CFBFE
:101A0000C0260008E0260008202A04DB203A21FA3C
:101A100002F00021704721FA02F3D040C2F1200207
:101A200091400843194670472DE9F04D00231A46AE
:101A30001B1A8A4103DB00200146BDE8F08DC1F38B
:101A40000A52C1F3130141F480154FF0000BD10786
:101A500002D100186D41521E0027044640F2FF11CA
:101A6000384601EB620A3E468046024600204FF4AB
:101A70008011FFF7C9FFC2197141BB1846EB010085
:101A8000B4EB030C75EB000C04D3E41A65EB000512
:101A900017460E46241908F101006D41804634288E
:101AA000E3DDF91946EB0600091BA84103D24FF00C
:101AB000FF32134601E0002213461BEB070046EB02
:101AC0000A51BDE8F04DFFF77DBE490050EAC12044
:101AD00018BF04204A0D18BF40F0010040F2FF7209
:101AE000B2EB515F08BF40F00200012808BF05209B
:101AF00070472DE9F0414F1E00EBC7010446D1E9C4
:101B0000000115461E4637F006020DD02A46334620
:101B1000FFF7B5FE7F1E04EBC703D3E90023FFF7F1
:101B200089FC37F00602F1D1022F25D0042F13D003
:101B3000062F18BFBDE8F0812A463346FFF79FFE07
:101B4000D4E90A23FFF776FC2A463346FFF797FECF
:101B5000D4E90823FFF76EFC2A463346FFF78FFED1
:101B6000D4E90623FFF766FC2A463346FFF787FED3
:101B7000D4E90423FFF75EFC2A463346FFF77FFED5
:101B8000D4E90223FFF756FC2A463346FFF777FED7
:101B9000D4E90023BDE8F041FFF74CBC0022134616
:101BA00010460149FFF7EDBC0000F03FFFF742BCD3
:101BB0000022134610461146FFF7E3BC40F2013203
:101BC00000204FF0E041FFF7CCBE0000024A0020A9
:101BD0001107FFF7C6BE000001FDFFFF02E008C8C5
:101BE000121F08C1002AFAD170477047002001E097
:101BF00001C1121F002AFBD1704700000149086093
:101C000070470000500000202DE9F04D1D460C46A5
:101C100098B0174621F0004123F00043002814BF7C
:101C20004FF0010C4FF0000C0CEB440CFE4A0CEB97
:101C300002064FEA620C66452BD33E0018BF012610
:101C400006EB45061644F94A964222D3F84A53EA6F
:101C5000070C02D0944205D148B918B000201146B3
:101C6000BDE8F08D002808BF4FF0000C01D04FF008
:101C7000010C0CEB440212F5001F0AD8002F14BF10
:101C80004FF0010C4FF0000C0CEB450212F5001F59
:101C900007D918B03A462B462146BDE8F04DFFF76C
:101CA00085BF0022DFF88CA3002CB8BF534526DA8D
:101CB000DFF884C36345A8BF022220DADFF870C3CF
:101CC0009C451CDCDFF874C30CEB235CBCF1140FE7
:101CD00008DDCCF1340627FA06FC0CFA06F6BE4203
:101CE0000DD108E05FB9CCF1140623FA06FC0CFA1A
:101CF00006F69E4203D10CF00102C2F1020251EA43
:101D0000000C19D1002D17DA002C18BF022A01D0BF
:101D1000012A07D00220FFF771FF18B0BDE8F04D8F
:101D2000FFF73CBF0220FFF769FFFFF737FF18B04E
:101D300081F00041BDE8F08DB7F1000C6CD1534546
:101D400025D104F1804212F5801201BF0028002045
:101D5000B74918B008BFBDE8F08DB548884207DC28
:101D6000002DA1BF6046294618B0BDE8F08D07E000
:101D7000281E05DA80F0004118B06046BDE8F08DFD
:101D8000AF497944D1E9000118B0BDE8F08DDFF822
:101D9000A0C2634525D1002D1FDA19B1514512D1DA
:101DA000D8B909E0002840F0EC82A24A214618B0D8
:101DB00062F31E01BDE8F08D0020214618B060F3EB
:101DC0001E01BDE8F08D08DA18B02346BDE8F04DDD
:101DD000024600206146FFF7D4BB18B02146BDE89B
:101DE000F08D514518DAB5F1804F0DD0A5F1005CAA
:101DF000BCF1FF5C10D1B4F1000C0DDB18B06146F2
:101E0000BDE8F04D00F0ECBB234618B00246BDE83B
:101E1000F04D1946FFF733BD060024F0004C3BD1CE
:101E2000D9B1514533D1002C06DD002DA1BF0020D2
:101E3000514618B0BDE8F08D002C01DD002D1BDBF4
:101E4000002C13DA002D11DB012A4FF0000014BF23
:101E500078497C4918B0BDE8F08D022A18BF002CE3
:101E60000AD0012A08D1002C06DA0AE0002CB8BFFB
:101E7000002D11DA012A04D0002018B00146BDE877
:101E8000F08D18B000204FF00041BDE8F08DA1F1B9
:101E90004050B0F17F601AD0012000EBE47050EAAE
:101EA000020421D0624C521E4FF0000B104304BFBD
:101EB0004FF0000B644C654883427CDD644A654802
:101EC00093421FDD884217DB002D25DB37E0002C15
:101ED00000DA4AB1022A0CBF01204FF0FF3018B0DF
:101EE000BDE8F04DFFF754BD0120FFF787FE18B0A5
:101EF000BDE8F04DFFF75CBE4D4A8A4202DC002D82
:101F00000ADC1CE0814202DA002D18DA04E0484BBA
:101F1000994220DD002D12DD0220FFF76FFEFFF752
:101F20004DFE05460E460022534658462146FFF711
:101F3000A6FC18B066F31E012846BDE8F08D02200D
:101F4000FFF75CFEFFF742FE0A46214618B062F337
:101F50001E01BDE8F08D002230466146FFF70BFB05
:101F600080460E466FF00102FFF7FBFC4FF0553242
:101F7000394BFFF703FB42463346FFF780FC002254
:101F8000364BFFF7FBFA8246424633460491104631
:101F90001946FFF774FC5246049BFFF770FC8A4613
:101FA00000904FF0C0422E4B40463146FFF767FC91
:101FB0002C4A2B4B00E027E0CDE906015146009862
:101FC000FFF75DFC82460191274A284B4046314687
:101FD000FFF755FC5246019BFFF7CDFA82460B46B0
:101FE00002460591DDE90601FFF724FADDE9062343
:101FF000002688463046FFF7BEFA5246059BFFF79B
:10200000BDFA024600F07EB90020B1F5801F07DA64
:10201000352230466146FFF7A4FC06466FF03400D7
:1020200000EB215024E00000FFFF1F00FFFF0F0026
:102030000000F03F0000F07F0000404301FCFFFF84
:10204000320900000000F0FF0000F0BF0000E04196
:102050000000F043FFFFEF3F5555D53F0000E03F44
:102060004715F73FFE822B6544DF5DF80BAE543E0B
:10207000A0F2FF300190C1F3130040F07F6141F006
:1020800040510291FE498842D8BF002004DDFD493D
:102090008142C8BF012001DD0D9008E000200D90B5
:1020A0000198401C01900298A0F5801002900299BE
:1020B000F54878440B910D9900EBC100D0E900235D
:1020C0000F9330460A920B99FFF755FACDE90601B6
:1020D000DDE90A2130460F9BFFF7ACF902460B46BB
:1020E0000020EA49FFF74DFA059102460B460090A1
:1020F000DDE90601FFF7C3FB1490E5488A464FF07F
:10210000000878440299006812904FF0005040EAAD
:1021100061010D980F9B01EB804000F500210991B2
:102120000A9A1298FFF727FA32460B9BFFF726FA16
:1021300042465346FFF7A3FB0646029140465146EE
:10214000099B129AFFF79BFBDDE90623FFF716FABE
:102150003246029BFFF70FFA059B009AFFF78FFBB1
:102160000091149A0490534610461946FFF787FBD6
:1021700006460246C7480B46029106217844FFF7FF
:10218000B8FCCDE90510029B324610461946FFF710
:1021900076FBDDE90532FFF772FB059106465346F3
:1021A00040461946149AFFF745F9009B049AFFF739
:1021B00066FB3246059BFFF73DF9CDE90510424627
:1021C000534610461946FFF75AFB0022B24B0291C4
:1021D0000A90FFF72FF9DDE90532FFF72BF90E46DC
:1021E0004246AD4B4046FFF7C6F9029B0A9AFFF7FD
:1021F000C2F9DDE90532FFF7C1F9424602910A90C2
:10220000334610465146FFF73AFBCDE906015346E7
:10221000149A02990A98FFF732FB8A4602903346D5
:10222000424600990498FFF72AFB5346029AFFF7AB
:1022300001F982460B4602460591DDE90601FFF7EA
:10224000F9F8DDE90623002088460646FFF793F9F2
:102250005246059BFFF792F9824609914FF0604282
:102260008E4B30464146FFF70AFB049006918C4A9C
:102270008A4B50460999FFF702FB82460291894A30
:10228000894B30464146FFF7FAFA5246029BFFF768
:10229000D1F8864B7B440D9A03EBC203D3E90023AC
:1022A000FFF7C8F80E9007910198FFF771FB0591B1
:1022B000DDE9061382460E9A0498FFF7BBF87C4AC4
:1022C0007A440D9B02EBC303D3E9002300930292EF
:1022D000FFF7B0F85246059BFFF7ACF8002688469A
:1022E00052463046059BFFF746F9009B029AFFF7DE
:1022F00042F9069B049AFFF73EF9079B0E9AFFF7F7
:102300003DF9024600200B46029038462946FFF769
:10231000B6FA824601912B4638461946029AFFF7D3
:102320002AF932464346FFF7AAFA5246019BFFF7C5
:1023300081F807468A463246434629460298FFF707
:102340009EFA05460E463A465346FFF773F8594A39
:102350008846914221DBA8EB020353EA000210D128
:102360002A463346FFF707F9CDE90401524A534B99
:1023700038465146FFF75EF8DDE90423FFF71AFB04
:1023800021D20220FFF73AFCFFF718FC0A4621464B
:1023900018B062F31E01BDE8F08D494B28F00042F1
:1023A0009A4210D3474A08EB020353EA00027FF433
:1023B000C6AD2A463346FFF7DEF83A465346FFF7E6
:1023C000F9FA7FF6BCAD0022019228F000403E49A8
:1023D0003E4A01EB2051824223DA481C4FF480111F
:1023E00021FA00F040443A4AC0F30A517A44394B8A
:1023F000A1F2FF31CB4020EA0303C0F3130040F405
:102400008010C1F11401C84012680190B8F1000FAA
:10241000BCBF4042019028463146FFF7ACF8054664
:102420000E462A46334638465146FFF703F84FF02A
:1024300000084246284B40460591FFF720FACDE9B7
:102440000601264A264B40460599FFF718FA0091E7
:1024500002902A46334640460599FFF78CF83A46E3
:102460005346FFF78BF81F4A1F4BFFF708FA009BF4
:10247000029AFEF7DFFF0746884602460B4635E024
:102480008E9803007AB60B007A0500000000F03F3A
:10249000B2050000E00400000000084009C7EE3F5C
:1024A000FD033ADCF5015B14E02F3EBEB8030000EB
:1024B0007C03000000009040FE822B654715973C8E
:1024C00000CC904000346F3F01FCFFFF0000E03F74
:1024D000C8020000FFFF0F00432EE63F396CA80C36
:1024E000615C20BEEF39FAFE422EE63FDDE90601CF
:1024F000FEF7A0FFDDE9062305460E46FFF73BF891
:102500003A464346FFF73AF80F462A4633460090CC
:1025100010461946FFF7B3F9824602462E48884610
:102520000B4605217844FFF7E4FA52464346FFF78D
:10253000A6F92A463346FFF721F880468A463B46ED
:1025400028463146009AFFF79AF93B46009AFEF773
:1025500071FF0691009000224FF0804340465146A3
:10256000FFF709F80F460C9042465346284631467D
:10257000FFF785F93B460C9AFFF703F8069B009A94
:10258000FEF7F9FF2A463346FEF7F5FF0022134B0C
:10259000FEF7F4FF054601980E4601EB00510815C1
:1025A000002810DC28463146019AFFF7DAF9FFF7D8
:1025B0008CFA042808BFFFF709FB28463146019A28
:1025C000FFF7CFF905460B4618B02A465846214674
:1025D000BDE8F04DFFF753B9680100000000F03F7F
:1025E0002DE9F04106460F46FFF71EFA041E0D4680
:1025F00018BF0120284320F00040C0F17F6000F1A7
:10260000E040C00F0ED0301C18BF0120384320F02E
:102610000040C0F17F6000F1E040C00F04BF012026
:10262000FFF7ECFA20462946BDE8F08100000000E3
:10263000000000000000F03F000000000000F83F34
:1026400000000000000000000000004003B8E23F6E
:10265000000000000000000006D0CF43EBFD4C3E20
:10266000033333333333E33FFFAB6FDBB66DDB3F15
:102670004D268F515555D53F01411DA96074D13F5D
:1026800065DBC9934A86CD3FEF4E454A287ECA3F57
:102690003E5555555555C53F93BDBE166CC166BFD9
:1026A0002CDE25AF6A56113FF16BD2C541BDBBBED2
:1026B000D0A4BE726937663E000000000000000032
:1026C000E02600080000002054000000DC1B000889
:1026D000342700085400002004040000EC1B00080C
:1026E00000A24A04000000000000000001020304F0
:1026F00006070809000000000102030401020304A8
:1027000006070809020406080000000000007D60BA
:102710003E7A635B5F707F7B774F1D0E6E1F17677E
:10272000470D467537060F6D0200000000000100DE
:0427300000000000A5
:0400000508000131BD
:00000001FF
